:020000040000FA
:1000000000040020E90800007D050000C908000088
:1000100087050000910500009B050000000000001E
:100020000000000000000000000000000D090000BA
:10003000A505000000000000AF050000B9050000A4
:10004000C3050000CD050000D7050000E105000054
:10005000EB050000F5050000FF05000009060000A3
:10006000130600001D0600002706000031060000F0
:100070003B060000450600004F0600005906000040
:10008000630600006D060000770600008106000090
:100090008B060000950600009F060000A9060000E0
:1000A000B3060000BD060000C7060000D106000030
:1000B000DB060000E5060000EF060000F906000080
:1000C000030700000D0700001707000021070000CC
:1000D0002B070000350700003F070000490700001C
:1000E000530700005D07000067070000710700006C
:1000F0007B070000850700008F07000099070000BC
:10010000A30700001FB500F003F88DE80F001FBD26
:1001100000F0E0BB1FB56FF00100009040100390AD
:10012000029001904FF010208069000B420900F00E
:100130001F045DF822300120A04083434DF8223097
:10014000684600F045F91FBDF0B54FF6FF734FF458
:10015000B4751A466E1E11E0A94201D3344600E080
:100160000C46091B30F8027B641E3B441A44F9D14B
:100170009CB204EB134394B204EB12420029EBD17E
:1001800098B200EB134002EB124140EA0140F0BD8F
:10019000DE4992B00446D1E90001CDE91001FF2209
:1001A0004021684600F03CFB94E80F008DE80F000A
:1001B000684610A902E004C841F8042D8842FAD12B
:1001C00010216846FFF7C0FF1090AA208DF8440068
:1001D000FFF7A0FF00F0F3F84FF01024A069102201
:1001E0006946803000F002F9A069082210A900F0E9
:1001F000FDF800F0D8F84FF080510A6949690068AD
:100200004A43824201D8102070470020704710B541
:10021000D0E900214FF0805002EB8103026944696C
:100220006243934209D84FF01022536903EB8103D4
:100230000169406941438B4201D9092010BD5069D1
:10024000401C01D0002010BD0F2010BD70B501680A
:100250000446AF4D4FF01020072952D2DFE801F0DD
:10026000330419293C1E2500D4E902656468294637
:10027000304600F0CDF82A462146304600F0B6F868
:10028000AA002146304600F09FFA002800D0032043
:1002900070BD00F051FB4FF4805007E0201DFFF7C8
:1002A000AAFF0028F4D100F047FB60682860002016
:1002B00070BD241D94E80700920000F085FA002824
:1002C000F6D00E2070BD8069401C12D0201DFFF7B3
:1002D0009EFF0028F6D109E08069401C09D0201D4E
:1002E000FFF789FF0028EDD1606820B12046FFF7B5
:1002F0004FFF042070BDFFF70DFF00F060F800F025
:1003000052F8072070BD10B50C46182802D0012005
:10031000086010BD2068FFF799FF206010BD4FF006
:100320001024A069401C05D0A569A66980353079E4
:10033000AA2808D06069401C2DD060690068401C64
:1003400029D060692CE010212846FFF7FDFE3168B6
:1003500081421CD1A16901F18002C03105E030B1B8
:1003600008CA51F8040D984201D1012000E0002094
:100370008A42F4D158B1286810B1042803D0FEE7AE
:10038000284600F057F862496868086008E000F005
:1003900016F800F008F84FF480500168491C01D0AD
:1003A00000F0A4FAFEE7BFF34F8F5A4801685A4A9B
:1003B00001F4E06111430160BFF34F8FFEE74FF09E
:1003C00010208169491C02D0806900F0AEB87047E6
:1003D000524A01681160121D416811604F4A8168DC
:1003E00010321160111DC068086070472DE9F0419E
:1003F00017460D460646002406E03046296800F000
:10040000A7F8641C2D1D361DBC42F6D3BDE8F08153
:1004100070B50C4605464FF4806608E0284600F0AB
:1004200084F8B44205D3A4F5806405F58055002C0A
:10043000F4D170BD4168044609B1012500E00025F2
:100440004FF010267069A268920000F0BDF9C8B1A3
:10045000204600F01AF89DB17669A56864684FF4EB
:10046000002084420AD2854208D229463046FFF74E
:10047000CFFF2A4621463046FFF7B8FFFFF79FFF20
:10048000FFF791FFFFF746FEF8E72DE9FF414FF038
:100490001024616980680D0B01EB800000F6FF708D
:1004A000010B0020009001900290024603906846E4
:1004B00001230BE0560902F01F0C50F8267003FAD6
:1004C0000CFC47EA0C0740F82670521CAA42F1D3F4
:1004D0000AE04A0901F01F0650F8225003FA06F616
:1004E000354340F82250491C8029F2D3A169090BF9
:1004F0004A0901F01F0150F822408B409C4340F80C
:100500002240FFF765FFBDE8FF8100005C090000A5
:10051000000000200CED00E00400FA050006004099
:10052000144801680029FCD07047134A0221116069
:1005300010490B68002BFCD00F4B1B1D186008687E
:100540000028FCD00020106008680028FCD070470C
:10055000094B10B501221A60064A1468002CFCD021
:10056000016010680028FCD0002018601068002886
:10057000FCD010BD00E4014004E5014008208F4993
:1005800009680958084710208C4909680958084724
:1005900014208A49096809580847182087490968BA
:1005A0000958084730208549096809580847382004
:1005B00082490968095808473C2080490968095858
:1005C000084740207D4909680958084744207B496D
:1005D00009680958084748207849096809580847B0
:1005E0004C20764909680958084750207349096822
:1005F0000958084754207149096809580847582084
:100600006E490968095808475C206C49096809580F
:100610000847602069490968095808476420674904
:100620000968095808476820644909680958084753
:100630006C20624909680958084770205F490968B9
:100640000958084774205D49096809580847782007
:100650005A490968095808477C20584909680958C7
:10066000084780205549096809580847842053499C
:1006700009680958084788205049096809580847F7
:100680008C204E4909680958084790204B49096851
:10069000095808479420494909680958084798208B
:1006A00046490968095808479C204449096809587F
:1006B0000847A0204149096809580847A4203F4934
:1006C000096809580847A8203C490968095808479B
:1006D000AC203A49096809580847B02037490968E9
:1006E00009580847B4203549096809580847B8200F
:1006F0003249096809580847BC2030490968095837
:100700000847C0202D49096809580847C4202B49CB
:10071000096809580847C82028490968095808473E
:10072000CC202649096809580847D0202349096880
:1007300009580847D4202149096809580847D82092
:100740001E49096809580847DC201C4909680958EE
:100750000847E0201949096809580847E420174963
:10076000096809580847E8201449096809580847E2
:10077000EC201249096809580847F0200F49096818
:1007800009580847F4200D49096809580847F82016
:100790000A49096809580847FC20084909680958A6
:1007A00008475FF480700549096809580847000048
:1007B00003480449024A034B704700000000002030
:1007C000680900006809000040EA010310B59B07B2
:1007D0000FD1042A0DD310C808C9121F9C42F8D0AB
:1007E00020BA19BA884201D9012010BD4FF0FF305C
:1007F00010BD1AB1D30703D0521C07E0002010BD72
:1008000010F8013B11F8014B1B1B07D110F8013BFD
:1008100011F8014B1B1B01D1921EF1D1184610BDDE
:1008200002F0FF0343EA032242EA024200F005B865
:100830007047704770474FF000020429C0F01280E3
:1008400010F0030C00F01B80CCF1040CBCF1020F83
:1008500018BF00F8012BA8BF20F8022BA1EB0C0158
:1008600000F00DB85FEAC17C24BF00F8012B00F84E
:10087000012B48BF00F8012B70474FF0000200B574
:10088000134694469646203922BFA0E80C50A0E8B3
:100890000C50B1F12001BFF4F7AF090728BFA0E861
:1008A0000C5048BF0CC05DF804EB890028BF40F82D
:1008B000042B08BF704748BF20F8022B11F0804F6F
:1008C00018BF00F8012B7047014B1B68DB68184705
:1008D0000000002009480A497047FFF7FBFFFFF7B7
:1008E00011FC00BD20BFFDE7064B1847064A10600B
:1008F000016881F30888406800470000680900002B
:10090000680900001F030000000000201EF0040F13
:100910000CBFEFF30881EFF3098188690238007892
:10092000182803D100E00000074A1047074A126860
:100930002C3212681047000000B5054B1B68054AB1
:100940009B58984700BD00000703000000000020EE
:100950005809000004000000001000000000000022
:0809600000FFFFFF0090D0032F
:10100000E00C002065730100858B0000D7720100A1
:10101000858B0000858B0000858B000000000000A0
:10102000000000000000000000000000BD7301008F
:10103000858B000000000000858B0000858B000080
:10104000257401002B740100858B0000858B000046
:10105000858B0000858B0000858B0000858B000050
:1010600031740100858B0000858B0000377401000E
:10107000858B00003D740100437401004974010038
:10108000858B0000858B0000858B0000858B000020
:10109000858B0000858B0000858B0000858B000010
:1010A000858B00004F740100858B0000858B00004C
:1010B000858B0000858B0000858B0000858B0000F0
:1010C00055740100858B0000858B0000858B000026
:1010D000858B0000858B0000858B0000858B0000D0
:1010E000858B0000858B0000858B0000858B0000C0
:1010F000858B0000858B0000858B0000858B0000B0
:10110000858B0000858B000000F002F816F017F9BF
:101110000AA090E8000C82448344AAF10107DA4552
:1011200001D116F00CF9AFF2090EBAE80F0013F076
:10113000010F18BFFB1A43F001031847286701008D
:10114000486701000A4410F8014B14F00F0508BF6E
:1011500010F8015B240908BF10F8014B6D1E05D083
:1011600010F8013B6D1E01F8013BF9D1641E03D05C
:10117000641E01F8015BFBD19142E4D3704700008B
:101180000023002400250026103A28BF78C1FBD890
:10119000520728BF30C148BF0B6070471FB500F031
:1011A00031F88DE80F001FBD8269034981614FF05E
:1011B0000100104470470000BD11000001B41EB4CE
:1011C00000B50EF089FE01B40198864601BC01B05D
:1011D0001EBD0000F0B44046494652465B460FB47F
:1011E00002A0013001B50648004700BF01BC864699
:1011F0000FBC8046894692469B46F0BC7047000073
:101200000911000016F098B870B51B4C054609206E
:101210002070A01C00F061F85920A08029462046CB
:10122000BDE8704006F05CBD06F065BD70B50C46CB
:101230001249097829B1A0F16001562908D301208B
:1012400013E0602804D0692802D043F201000CE0CA
:1012500020CC0B4E94E80E0006EB8000A0F58050E9
:10126000241FD0F8806E2846B047206070BD012052
:101270007047062070470000080000201C00002076
:101280008474010010B504460021012000F032F8FA
:1012900000210B2000F02EF80421192000F02AF87C
:1012A00004210D2000F026F804210E2000F022F881
:1012B00004210F2000F01EF80421C84300F01AF8A2
:1012C0000621162000F016F80621152000F012F86D
:1012D0002046FFF799FF002010BDA621018070472E
:1012E000FFF7A2BF002070470A487047FFF79EBF74
:1012F000704770474907090E002806DA00F00F0012
:1013000000F1E02080F8141D704700F1E02080F823
:101310000014704703F90042FE4810B5017900F14E
:101320000500490805D00AF065FABDE8104006F04E
:1013300080BB0AF046FAF8E702210BF079BB2DE9F1
:10134000FC411D4690460E460746FFF7F5FF040098
:101350000AD02078222804D3A07FC0F34010A842EE
:1013600005D10820BDE8FC8143F20200FAE7ADF8A0
:1013700000703DB101208DF802008DF803608DF8FA
:10138000048002E000208DF8020068460AF060FC4C
:10139000A07F65F34510A0770020E3E730B5044651
:1013A000A1F120000D460A2847D2DFE800F005072A
:1013B0000C19202532373C41FFDF3FE02078202800
:1013C0003CD1FFDF3AE0D3480078032836D02078BC
:1013D000242833D0252831D023282FD0FFDF2DE03B
:1013E000207822282AD0232828D8FFDF26E020785A
:1013F000222823D0FFDF21E0207822281ED02428B5
:101400001CD026281AD0272818D0292816D0FFDF6C
:1014100014E02078252811D0FFDF0FE02078252860
:101420000CD0FFDF0AE02078252807D0FFDF05E099
:101430002078282802D0FFDF00E0FFDF257030BDD4
:101440001FB50022ADF800200C88ADF802404B8893
:10145000ADF80430CA88ADF808208988ADF80610C8
:101460000021ADF80A10ADF80C1080B14FF6FF70F6
:101470000621844201D1ADF80210834201D1ADF8BA
:101480000410824203D14FF44860ADF8080068466A
:101490000AF0AEFA06F0CDFA04B010BD70B51446ED
:1014A0000D4606460EF098FF58B90DB1A54201D978
:1014B0000C2070BD002408E056F824000EF08CFFCC
:1014C00008B1102070BD641CE4B2AC42F4D300201B
:1014D00070BDF0B50024059D10B1A94203D850E0BD
:1014E00009B90020F0BD0920F0BD055DD5B107198F
:1014F00097F801C0BCF1150F2DD03BDCBCF1150FE6
:1015000038D2DFE80CF037122020262628282F2F8B
:10151000373737373737373737372000025D22BB49
:10152000641CE4B28C42F9D3DBE7022DDBD1BD7839
:101530001D70072D01D26D0701D40A20F0BD15786A
:1015400045F0010515E0EF43FF0707E0012D07D047
:1015500010E00620F0BD2F07A7F18057002FF5D02F
:101560003046F0BD1578AF0701D50B20F0BD45F032
:1015700002051570055D641C2C44E4B28C4202D94E
:10158000B1E74FF448568C42AFD3AAE710B50278C2
:10159000540809D0012243F20223012C07D0022C67
:1015A0000DD0032C13D10FE00020087005E08079E6
:1015B0000324B4EB901F0AD10A70002010BD80797B
:1015C000B2EB901F03D1F7E780798009F4D0184679
:1015D00010BD38B50C460546694600F0D6FF002818
:1015E0000DD19DF80010207861F34700207055F868
:1015F000010FC4F80100A888A4F80500002038BD38
:1016000038B51378C0B1022816D043A46D462468BB
:1016100000944C7905EB9414247864F34703137019
:1016200003280ED003F0FE0010700868C2F8010015
:101630008888A2F8050038BD23F0FE031370022845
:10164000EED1D8B240F00100EEE738B50C4609788B
:10165000222901D2082038BDADF800008DF8022003
:1016600068460AF003F906F0E4F9050003D12121E8
:101670002046FFF793FE284638BD1CB500208DF8A4
:101680000000CDF80100ADF805002248807B02285B
:1016900001D0012000E000208DF8070068460AF024
:1016A00053F9002800D0FFDF1CBD2DE9FE430400E4
:1016B00000D1FFDF2078174E20F00F00801C20F0B3
:1016C000F0007030207060680178091F162930D250
:1016D000DFE801F0FB2F2F2F52FA2F0BFAFA3FFB16
:1016E0002F2FFB6BFB2F2FFBFBF986883046FFF774
:1016F00023FE0546304609F0C2FCE0B160688079FF
:1017000085F83E0021212846FFF748FE304603F0C9
:10171000A8FB03E0840100200302FF01304604F02F
:101720000FFD314602200EF00BFEA87F20F01000C6
:10173000A877BDE8FE83207820F0F00020302070EC
:1017400006202072668060688079607206F049FB2E
:10175000D8E785882846FFF7EFFD00B9FFDF60680E
:101760008078012800D0FFDF6068817903B02846C7
:10177000BDE8F04309F0B3BD86883046FFF7DCFDD5
:10178000050000D1FFDF06F02CFB60683146C08801
:10179000288160680089688160684089A88102208A
:1017A0000EF0CEFD0020A875C3E780783C2803D05A
:1017B000002502280CD000E00125002720B13C289C
:1017C00002D0022800D0FFDF27B1FFDFFFDFB0E744
:1017D0000127F3E706F005FB1DB1B07800F0CBFE62
:1017E00088E06568A879AD1C00B9FFDF96F8028033
:1017F000B5F80290404606F0BCF8070000D1FFDFC4
:101800000022022148460BF00AF9040000D1FFDF54
:1018100022212046FFF7C2FDA17F012060F30101D4
:10182000A177298B2181698B6181A98BA18184F8A2
:1018300022808DF8080002AA032148460BF0EFF839
:1018400000B9FFDFB888ADF80400B8788DF806005D
:1018500001AA052148460BF0E2F800B9FFDFB8887D
:10186000ADF80000F8788DF802006A460421484679
:101870000BF0D5F800B9FFDF062105F1120000F0EA
:10188000A1FE18B36879800700D5FFDF6979E07D94
:1018900061F34700E075D5F80600A0616889A08370
:1018A000062105F10C0000F08DFEC8B13079410829
:1018B000607861F347006070D6F80500C4F8020054
:1018C000B6F8090015E027E021E02CE0E07D20F0EB
:1018D000FE00801CE075D5F81200A061E88ADEE702
:1018E000607820F0FE00801C6070E868C4F8020098
:1018F000288AE0803078032800D0FFDF00210846E6
:101900000EF01EFDBDE8FE43012000F020BE204683
:10191000BDE8FE4301F037BE06F063FA307C40F0CC
:101920000400307405E7BDE8FE4306F05ABA2DE91D
:10193000F047804600789146002702090C463E4653
:10194000012A75D000204FF6FF71022A71D0072AB4
:101950000AD00A2A6ED0FFDFA9F800600CB12780F8
:1019600066800020BDE8F087D8F804502A78142A51
:1019700076D006DC082A0BD00F2A17D0132A59D1AB
:101980001EE0172A09D0182A3FD0192AF7D152E0B1
:1019900012271026A888214683E01C27092664B355
:1019A0006888A080D8F804000079BDE01B270926CC
:1019B0001CB303202072D8F804004088A080CBE735
:1019C000A9783C291CD010271826AD1CACB1287969
:1019D00000B9FFDF6888A080288B6082288B208276
:1019E000688BA082A88BE082687904F10802A91DA7
:1019F000FFF706FE0120E073AEE7A9F80060B0E74C
:101A00001B270926002C7DD1F7E720271026002C64
:101A1000F3D0A180D8F8040004F10902407A2072C2
:101A2000D8F80410CB1C88781946FFF7E9FD93E736
:101A30002DE039E07AE021270A26002CDDD06888E5
:101A4000A080D8F8040000792072D8F8040040790A
:101A50006072F948017C21F0040101747CE7FFE722
:101A600022270B26002CC8D0A888A080D8F8040014
:101A700080782072D8F80400807900F0B2FD60729E
:101A8000D8F80400C07900F0ACFDA07264E798F8C3
:101A90000800022801D0FFDF5EE712271026B8F801
:101AA000020000F07CFD57E798F80820072A44D28E
:101AB000DFE802F03543433C3C3C04001127092693
:101AC000002C9AD0B8F802502846FFF735FC90F861
:101AD00022A0A58098F809002072042128460AF067
:101AE000B9FF052128460AF0B5FF002128460AF073
:101AF000B1FF012128460AF0ADFF032128460AF074
:101B0000A9FF00E010E0022128460AF0A3FF062109
:101B100028460AF09FFF504600F02DFD1CE71B27CA
:101B20000926002C8AD0A180207215E74A4621465A
:101B30004046BDE8F04701F05BBEFFDF0CE710B5A3
:101B4000BD4C207801280ED0002009F0B9FF05F027
:101B500070FF002808D1002108460EF0F1FB207824
:101B6000032802D004E0082010BDA07800F003FD97
:101B7000012000F0ECFC002010BD70B5002518B16C
:101B8000022813D0FFDF70BDFFF7D9FF0028FAD17C
:101B900006F024F90028F6D0017821F00F01891C05
:101BA00021F0F00120310170057218E08EB230464C
:101BB000FFF7C2FB040000D1FFDF20782128E2D02C
:101BC00006F00CF978B1017821F00F01891C21F0A1
:101BD000F00110310170022101724680A575BDE847
:101BE000704006F0FEB821463046BDE87040132232
:101BF0002BE52DE9F04116460C00804600D1FFDFB1
:101C0000307820F00F00801C20F0F0001030307091
:101C10002078022802D0FFDFBDE8F0814046FFF7C0
:101C20008BFB050000D1FFDF61884FF6FF700027B6
:101C3000814202D1A288824203D0814201D1A08890
:101C400048B106F0CEF82068B0606068F060208986
:101C50003082AF75E0E7A87D0128DDD1782300222E
:101C6000414602200EF0C2FA0220A875D4E738B52A
:101C700005460C4608460EF0AFFB70B9203D072D17
:101C800037D2DFE805F004062328362E1C00062094
:101C900038BD60680EF0E4FB08B1102038BD6188E3
:101CA00020886A460AF012F805F0C3FE0028F5D134
:101CB00061680029F2D0BDF800200A8038BDA07804
:101CC00000F0010120880AF032F80EE02068BDE83B
:101CD000384001F0C2BF207800F001000AF08AF815
:101CE00003E06188208809F095FFBDE8384005F0E1
:101CF000A0BE072038BD70B505460C4608460EF05C
:101D000091FB08B1102070BD203D072D1BD2DFE8EC
:101D100005F0041818181A1A18002088FFF70CFB91
:101D200020B10078222804D2082070BD43F20200BE
:101D300070BD2088A11C09F0EDFDBDE8704005F0E4
:101D400078BE062070BD072070BD3B48001D70475F
:101D500038B51421384815F074FA012000F0F7FB6B
:101D6000354C6846611D05F0CFFF9DF800102079C5
:101D700061F3470020F0010020710020A0734FF4B0
:101D80006170A0810220E073FFF7C6FA00B1FFDFA7
:101D900000F032FC01F0CAFB38BD10B50C46402102
:101DA000204615F04EFAA07F20F00300A0772020F7
:101DB00020700020A07584F8230010BD70477CB50A
:101DC00005460EF009FB08B110207CBD1A4C211D00
:101DD00060680090A06801902846FFF7FAFB002891
:101DE000F3D1FFF799FA0028EFD000996160BDF8B0
:101DF000041021819DF80610A1727CBD10B5044627
:101E00000EF010FB08B1102010BD0B4922460879D6
:101E1000491D4008FFF7F4FB002010BDFEB50D463C
:101E200004004FF0000714D00822FFF737FB00280A
:101E300014D100260BE000008401002054F8260095
:101E40006946FFF7A3FB002808D1761CF6B2AE4224
:101E5000F4D309F020FC10B143F20320FEBDF74E8D
:101E6000F770FCB100271AE054F8270002A9FFF729
:101E70008DFB00B1FFDF9DF808008DF8000054F8DD
:101E8000270050F8011FCDF801108088ADF805003B
:101E9000684609F025FC00B1FFDF7F1CFFB2AF42AE
:101EA000E2D3F5700020FEBD2DE9F0478AB015465B
:101EB000894604001DD00F4608222946FFF7EEFA96
:101EC000002810D1002612E054F826006946103090
:101ED00000F05BFB002806D13FB157F826000EF05A
:101EE0007BFA10B110200AB03CE5761CF6B2AE4287
:101EF000EAD30026A5F101081CE000BF06F1010AA3
:101F00000AF0FF0712E000BF54F82600017C4A08DF
:101F100054F827100B7CB2EB530F05D10622113079
:101F2000113115F0E3F858B17F1CFFB2AF42EBD38B
:101F30000AF0FF064645E1DB4E4624B1012003E0EE
:101F400043F20520CFE7002009F0EAFB10B909F0C1
:101F5000F3FB10B143F20420C5E75CB300270DF199
:101F6000170825E054F827006946103000F00DFBF3
:101F700000B1FFDF54F82700102250F8111FCDF8F0
:101F800001108088ADF8050054F827100DF1070006
:101F900015F0D8F896B156F827101022404615F0E3
:101FA000D1F8684609F081FB00B1FFDF7F1CFFB26A
:101FB000AF42D7D3FFF761FB002094E7404601F022
:101FC00040FEEEE730B585B004460EF005FA18B9CC
:101FD00060680EF04EFA10B1102005B030BD608878
:101FE0004AF2B811884206D82078944D28B10128C9
:101FF00006D0022804D00720EFE7FFF78DF917E09D
:102000006078022804D0032802D043F20220E4E7DB
:10201000E873C1B200200090ADF8040002292BD073
:10202000032926D0FFDF684609F0E4FB05F001FD37
:102030000028D2D1606801F0F7FD207858B1012066
:102040008DF800000DF1010001F0FBFD684609F07C
:10205000C0FE00B1FFDF2078A873FFF70EFB608899
:1020600060B1A88180B209F053FB00B1FFDF00200E
:10207000B3E78DF80500D6E74020FAE74FF461702A
:10208000EFE710B504460EF0CDF920B9606838B11D
:102090000EF0E6F908B1102010BD606801F0D1FD26
:1020A000664881896180C17B6170807B20700020DF
:1020B00010BD2DE9F04186B0054600208DF80C00DA
:1020C0008DF804008DF808008DF810001E461446A7
:1020D000884628460EF0CDF918B920460EF0C9F909
:1020E00010B1102006B097E555EA040018D01F275C
:1020F00002AB03AA414628460097FFF7EAF90028F9
:10210000F0D104AB01AA314620460097FFF7E1F970
:102110000028E7D19DF80400C00703D00A20E1E7BA
:102120000720DFE73DB12946404609F0B7FC05F03E
:1021300080FC0028D6D13CB12146304609F0B7FCDE
:1021400005F077FC0028CDD13C499DF80800487087
:102150000020C7E72DE9F04788B088464FF0000916
:1021600037A104468DF81090D1E90001CDE90501B1
:1021700020460EF031F990B92078012803D160682B
:102180000EF02AF958B92D4D4FF0010AA87B50B135
:10219000E87B022807D160680EF06BF918B11020B7
:1021A00008B0BDE8F0872878012801D00820F7E7BB
:1021B00006200AF0F1FB20B92078002867D001281A
:1021C00065D00CF041FB06460DF0D5FC301AC6B2C6
:1021D00006200AF0D9FB074606200AF0DDFB391A73
:1021E0002878022810D000200844301A10F0FF0F81
:1021F0000CD0608943F6E172A0F120019142217870
:102200000AD3012904D07DE00120EDE71320C7E7C0
:10221000E0BBA189D1BB08E0012906D06978C907D4
:1022200003D0A18991B3B4296CD8217861B1012977
:102230000ED002290AD0032964D110E084010020C5
:102240000706050403020100002609E0022607E054
:1022500008B9A08908B1042609E0012607E0032691
:10226000A87B50B1E87B022807D1606828B104A997
:102270006068FFF78BF9002892D1207A40B10128DD
:1022800008D0022808D003283CD107E03AE03BE020
:10229000002704E0012702E0022700E003270EB137
:1022A000022E0ED16FB1E87860B36878800702D053
:1022B00043F2012074E7022E03D1022F22D0032F14
:1022C00020D0207808B101280AD1404605F051FB02
:1022D000C0B14078C0B1404605F027FE85F80280C5
:1022E0006089ADF800006089ADF802008DF80460E7
:1022F000A87B0DF1050148B1E87B022818D003281E
:1023000008D119E007204BE7122049E7281D00F00B
:102310003CF900B1FFDF9DF810008DF80600207831
:1023200001280ED0A87B98B1E87B022807D00FE0E7
:1023300003208DF80500EEE78DF805A0EBE7606857
:1023400030B1606850F8011FCDF80710808802E0B6
:102350004846CDF80790ADF80B008DF80E70A07BC5
:10236000C0F34002014662F35F01C0F3800041EA1E
:10237000800005A9085C8DF80D000028C2D06846D1
:1023800009F05BFB05F055FB002893D1012009F013
:1023900097FB05F04EFB00288CD1052E14D2DFE808
:1023A00006F0030320200300A87805F0E2FA0500F8
:1023B00000D1FFDF687800B9FFDF6878401E6870E1
:1023C0005FF0030000F0C3F8012E0CD0A08950B1DB
:1023D00000228300114610460DF008FF18B10320BB
:1023E000DEE60220EEE70020DAE62DE9FC41804639
:1023F0000D46032608460EF03CF810B11020BDE84B
:10240000FC814046FEF798FF040004D02078222883
:1024100004D20820F3E743F20200F0E7A07F00F0C7
:1024200003073DB1012F0AD000202946FFF708F825
:102430000600E4D1012F04D0FFDF3046DFE70120A2
:10244000F3E7A07D2946022801D011B107E0112051
:10245000D5E7684600F0DDF90028D0D1694640464E
:1024600008F01DFF0600E8D10120A075E5E770B572
:102470000C460546FEF760FF010005D022462846BF
:10248000BDE87040FFF7E1B843F2020070BD10B53F
:1024900009F070F9BDE8104005F0CBBA0123FEF752
:1024A0004EBF00231A461946FEF749BF70B50546D0
:1024B0000C4608460DF0B6FF08B1102070BD284646
:1024C000FEF73AFF38B10178222902D3807F8006D7
:1024D00004D4082070BD43F2020070BD2146284696
:1024E00009F0E0FBBDE8704005F0A3BA38B5054639
:1024F0000C4608460DF070FF08B1102038BD284684
:10250000FEF71AFF20B10078222804D2082038BD37
:1025100043F2020038BD3748007C400701D5112046
:1025200038BD2078800802D16078800801D007206B
:1025300038BDADF8005020788DF8020060788DF835
:102540000300684609F045FA05F073FA38BD30B566
:10255000284D040008D0012C04D0022C06D0032CF6
:1025600004D0FFDF2C7030BDFFDFFBE728780128A7
:10257000F8D0FFDFF6E710B505F0FBF9040000D155
:10258000FFDF6078401C607010BD0278520804D0F4
:10259000012A02D043F202207047FEF7F7BF70B560
:1025A0000C0006460DD0FEF7C7FE050000D1FFDF88
:1025B000A68028892081288960816889A081A889CE
:1025C000E08170BD10B500231A4603E0845C23430C
:1025D000521CD2B28A42F9D30BB1002010BD0120A7
:1025E00010BD00B5012803D0022801D0FFDF002074
:1025F00000BD000084010020FE4800210160416010
:10260000018170472DE9F743044692B09146406836
:102610000DF026FF40B160680DF02BFF20B9607807
:1026200000F00300022801D0012000E00020F14E5C
:10263000307248460DF0D0FE18B1102015B0BDE83C
:10264000F08349460120FEF7FBFE0028F6D1012564
:102650008DF842504FF4C050ADF84000002210A950
:10266000284604F035F80028E8D18DF842504FF4A0
:1026700028504FF00008ADF8400047461C2168463E
:10268000CDF81C8014F0FFFD9DF81C0008AA20F076
:102690000F00401C20F0F00010308DF81C00207856
:1026A0008DF81D0061789DF81E0061F3420040F036
:1026B00001008DF81E009DF800000AA940F00200FC
:1026C0008DF800002089ADF83000ADF832706089D7
:1026D00007AFADF834000B97606810AC0E900A9409
:1026E000684603F0EAFD0028A8D1BDF8200030803C
:1026F0008DF8425042F60120ADF840009DF81E00D2
:1027000008AA20F00600801C20F001008DF81E00B1
:102710000220ADF83000ADF8340013A80E900AA9DD
:10272000684603F0CAFD002888D1BDF820007080FB
:10273000311D484600F033F9002887D18DF842500A
:1027400042F6A620ADF840001C216846CDF81C805A
:1027500014F099FD9DF81C00ADF8345020F00F00E6
:10276000401C20F0F00010308DF81C009DF81D007A
:1027700008AA20F0FF008DF81D009DF81E000AA990
:1027800020F0060040F00100801C8DF81E009DF82E
:1027900000008DF8445040F002008DF80000CDE9B3
:1027A0000A4711A80E90ADF83050684603F085FD39
:1027B000002899D1BDF82000F08000203EE73EB50A
:1027C00004460820ADF8000020460DF005FE08B1D3
:1027D00010203EBD21460120FEF732FE0028F8D130
:1027E0002088ADF804006088ADF80600A088ADF838
:1027F0000800E088ADF80A007E4801AB6A46808890
:10280000002104F05FF9BDF800100829E1D0032091
:102810003EBD1FB50446002002900820ADF8080018
:10282000CDF80CD020460DF0D7FD10B1102004B02B
:1028300010BD704802AA81884FF6FF7004F084FB37
:102840000028F4D1BDF80810082901D00320EEE7D4
:10285000BDF800102180BDF802106180BDF80410A1
:10286000A180BDF80610E180E1E701B582B0022049
:10287000ADF800005F4802AB6A464088002104F0D2
:1028800021F9BDF80010022900D003200EBD1CB5AF
:10289000002100910221ADF8001001900DF0C2FD61
:1028A00008B110201CBD53486A4641884FF6FF709E
:1028B00004F04AFBBDF800100229F3D003201CBD30
:1028C000FEB54C4C06461546207A0F46C00705D08B
:1028D00008460DF081FD18B11020FEBD0F20FEBD91
:1028E000F82D01D90C20FEBD30460DF075FD18BB4A
:1028F000208801A903F027FA0028F4D130788DF858
:102900000500208801A904F0BCF80028EBD1009054
:102910009DF800009DF8051040F002008DF80000C1
:10292000090703D040F008008DF8000020886946B0
:1029300004F044F80028D6D1ADF8085020883B4672
:1029400002AA002104F0BEF8BDF80810A942CAD0BE
:102950000320FEBD7CB5054600200090019008884C
:10296000ADF800000C46284601950DF079FD18B928
:1029700020460DF057FD08B110207CBD15B1BDF803
:10298000000050B11B486A4601884FF6FF7004F002
:10299000DBFABDF8001021807CBD0C207CBD30B579
:1029A00093B0044600200D460090142101A814F0B5
:1029B0006AFC1C2108A814F066FC9DF80000CDF804
:1029C00008D020F00F00401C20F0F00010308DF8EF
:1029D00000009DF8010020F0FF008DF801009DF837
:1029E000200040F002008DF8200001208DF8460004
:1029F00002E000009801002042F60420ADF84400F7
:102A000011A801902088ADF83C006088ADF83E0028
:102A1000A088ADF84000E088ADF842009DF80200C3
:102A200006AA20F00600801C20F001008DF80200AC
:102A30000820ADF80C00ADF810000FA8059001A912
:102A400008A803F03AFC002803D1BDF8180028803C
:102A5000002013B030BD00004FF0E0224FF40041E1
:102A60000020C2F880111D4908701D4990020860BD
:102A7000704770B5194D04462878A04202D00CB1B9
:102A800000B1FFDF2878A0420DD01649144A2C70FF
:102A90000020CCB1134E144B1436151F012C03D05B
:102AA000022C08D0FFDF70BD086002200860336090
:102AB0004FF0407005E008600320086033604FF479
:102AC00000001060286070BD086008604FF0607002
:102AD000106070BD00B5FFDF00BD000018000020D1
:102AE00008F5014000F500401802002070B50B20E9
:102AF00000F0AFF9082000F0ACF900210B2000F045
:102B0000BEF90021082000F0BAF9E54C0125656006
:102B1000A5600020C4F84001C4F84401C4F848018D
:102B20000B2000F0A1F9082000F09EF90B2000F026
:102B300085F9256070BD10B50B2000F08AF90820DA
:102B400000F087F9D648012141608160D5490A68C3
:102B5000002AFCD10021C0F84011C0F84411C0F88F
:102B600048110B2000F080F9BDE81040082000F06B
:102B70007BB910B50B2000F077F9BDE810400820B4
:102B800000F072B900B530B1012806D0022806D095
:102B9000FFDF002000BDC44800BDC44800BDC348DD
:102BA000001D00BD70B5C2494FF000400860C14D26
:102BB000C00BC5F80803C04800240460C5F84041B4
:102BC0000820C43500F045F9C5F83C41BB48047005
:102BD00070BD08B5B24A002128B1012811D00228E1
:102BE0001CD0FFDF08BD4FF48030C2F80803C2F8E4
:102BF0004803AC483C300160C2F84011BDE80840D1
:102C0000D0E74FF40030C2F80803C2F84803A548E3
:102C100040300160C2F84411A4480CE04FF4802019
:102C2000C2F80803C2F848039E4844300160C2F865
:102C300048119E48001D0068009008BD70B51646FA
:102C40000D460446022800D9FFDF002294480123E4
:102C500004F110018B4000EB8401C1F8405526B10E
:102C6000C1F84021C0F8043303E0C0F80833C1F8CC
:102C70004021C0F8443370BD2DE9F0411C46154693
:102C800030B1012834D0022839D0FFDFBDE8F0810F
:102C9000891E002221F07F411046FFF7CFFF012C53
:102CA00024D00020854E834F012470703C618249FE
:102CB00000203C3908600220091D08607E4904207C
:102CC000303908607C483D350560C7F8004208206F
:102CD00000F0CAF82004C7F80403082000F0AEF89A
:102CE0007349E007091F08603470CFE70120D9E776
:102CF000012B02D00022012005E00122FBE7012B7D
:102D000004D000220220BDE8F04197E70122F9E754
:102D100064480068704770B5614CD4F840010025E4
:102D2000012809D1D4F80803C00305D54FF4803039
:102D3000C4F80803C4F84051D4F8440101280CD168
:102D4000D4F80803800308D54FF40030C4F8080312
:102D5000C4F8445101200CF0D0FBD4F848010128FC
:102D60000ED1D4F8080340030AD54FF48020C4F8EC
:102D70000803C4F84851BDE8704002200CF0BDBB08
:102D800070BD10B54D4C207850B1FFF70BFF607847
:102D9000002807D000206070BDE810400CF0ADBBEB
:102DA0000320F9E710BD4FF0E0214FF40010C1F807
:102DB00000027047152000F057B83E490120086115
:102DC000082000F051B83B494FF47C10C1F80803CB
:102DD0000020024601EB8003C3F84025C3F84021E0
:102DE000401CC0B20628F5D37047410A43F6095289
:102DF0005143C0F3080010FB02F000F5807001EBB6
:102E00005020704710B5430B48F2376463431B0CE6
:102E10005C020C602A4C03FB04002A4B4CF2F724A2
:102E200043435B0D13FB04F404EB402000F580707A
:102E30004012107008681844086010BD00F01F02AE
:102E4000012191404009800000F1E020C0F800110C
:102E5000704700F01F02012191404009800000F1FD
:102E6000E020C0F88011704700F01F02012191405E
:102E70004009800000F1E020C0F880127047490747
:102E8000090E002806DA00F00F0000F1E02080F8BB
:102E9000141D704700F1E02080F800147047000016
:102EA00000B0004004B500404081004044B1004003
:102EB00008F50140008000404085004030000020BF
:102EC000F7C2FFFF6F0C01000CF0ABBB0449002000
:102ED00008604FF0E0210220C1F880027047000036
:102EE000FC1F004010B50D2000F067F8C4B26FF071
:102EF000040000F062F8C0B2844200D0FFDF36491F
:102F00000120086010BD70B50D2000F040F8334C72
:102F10000020C4F800010125C4F804530D2000F07E
:102F200041F825604FF0E0216014C1F8000170BD48
:102F300010B50D2000F02BF8284801214160002138
:102F4000C0F80011BDE810400D2000F02BB8234957
:102F500010B5D1F80001012801D0FFDF10BD1E48D7
:102F6000001D00680022C0B2C1F80021BDE8104079
:102F70000CF02CBF10B51948D0F800110029FBD077
:102F8000FFF7E5FFBDE810400D2000F00BB800F0A2
:102F90001F02012191404009800000F1E020C0F8AB
:102FA0008011704700F01F0201219140400980000C
:102FB00000F1E020C0F880127047002806DA00F027
:102FC0000F0000F1E02090F8140D03E000F1E02084
:102FD00090F800044009704704D5004000D000403C
:102FE0007047704770477047704770477047704729
:102FF0007047704770477047704770477047704719
:103000002CFFFFFFDBE5B15100800100A600FFFFB0
:1030100070000000284F4C00DA0D499A2F95338438
:1030200077AC2F1307CD6F7D177A70DE10B504468D
:103030000DF0D2F908B1102010BD2078C0F30210B5
:10304000042807D86078072804D3A178102901D86C
:10305000814201D2072010BDE078410706D42179D2
:103060004A0703D4000701D4080701D5062010BD84
:10307000002010BD70B514460D46064604F0AEFEA5
:1030800080B10178182221F00F01891C21F0F00194
:10309000A03100F8081B214614F099F8BDE87040F3
:1030A00004F09FBE29463046BDE870401322FEF76B
:1030B000CCBA2DE9F047064608A8894690E83004C6
:1030C0001F4690461421284614F0DDF80021CAF866
:1030D0000010B8F1000F03D0B9F1000F03D114E0D4
:1030E0003878C00711D020680DF09CF9C0BBB8F14A
:1030F000000F07D120681230286020681430686003
:103100002068A8602168CAF800103878800724D5A4
:1031100060680DF0A5F918BBB9F1000F21D0FEF7DA
:1031200014FE0168C6F868118188A6F86C118079D0
:1031300086F86E0101F02FFAF74FEF60626862B116
:1031400096F8680106F2691140081032FEF758FA45
:1031500010223946606813F0F5FF0020BDE8F087C3
:1031600006E0606820B1E8606068C6F86401F4E7D2
:103170001020F3E730B5054608780C4620F00F0024
:10318000401C20F0F001103121700020607095F893
:10319000230030B104280FD0052811D0062814D000
:1031A000FFDF20780121B1EB101F04D295F8200039
:1031B00000F01F00607030BD21F0F000203002E010
:1031C00021F0F00030302070EBE721F0F0004030CB
:1031D000F9E7F0B591B0022715460C4606463A4687
:1031E000ADF80870082103AB07F04EFE04900028EC
:1031F00010D004208DF804008DF80170E034099699
:1032000005948DF818500AA968460BF003F900B12F
:10321000FFDF012011B0F0BD2DE9F84F0646808A8E
:103220000C4680B28246FEF787F80546BA4F3078E2
:10323000203F4FF005094FF000080F287CD2DFE84F
:1032400000F07BA39D082C5B6A7CBADAFC97489758
:1032500097000121504609F0EBFB040000D1FFDF8D
:1032600097F85C00C00701D0386E0BE0032104F131
:103270001D000CF08CFDD4F81D00A849B0FBF1F244
:1032800001FB1200C4F81D0070686067B068A06799
:103290002878252872D0FFDF70E00121504609F020
:1032A000C7FB060000D1FFDF3078810702D52978FF
:1032B000252904D040F001003070BDE8F88F0220CD
:1032C0002070307F207106F11D002D36C4E9020602
:1032D000F3E70121504609F0ABFB050000D1FFDF09
:1032E0002878C10604D5072020703D356560E4E7E5
:1032F00040F008002870E0E7E87FC00600D5FFDF57
:10330000307CB28800F0010301B05046BDE8F04FB8
:10331000082107F0EFBE05B9FFDF716821B1102267
:1033200005F1240013F00EFF28212846FEF736F899
:10333000307A85F82000C0E7F6E00121504609F018
:1033400077FB050000D1FFDF022105F185000CF0BD
:103350001EFD0420207005F5B4706060B5F885008E
:1033600020826D4810387C356561C4E90270A4E79D
:103370000121504609F05CFB00B9FFDF32462946C7
:103380005046BDE8F84F75E605B9FFDF28782128DB
:1033900093D93079012803D1E87F40F01000E87715
:1033A000324629465046FFF765FE2846BDE8F84FED
:1033B0002321FDF7F3BF3279A28004F1080308212D
:1033C000504607F061FDE06010B184F8009074E7AA
:1033D00045460121504609F02BFB040000D1FFDFD8
:1033E00004F1620102231022081F09F0C6F90570DA
:1033F0003179417061E70121504609F019FB040061
:1034000000D1FFDF94F8840000F00300012857D1B9
:10341000E87FC0F340021AB994F8A000C00729D091
:10342000D4F8601129B394F88330087C63F38700E3
:103430000874EB7F63F3410000E071E0D4F86011A1
:103440000874D4F8601162F30000087492B1D4F8E3
:103450006001102205F12401883413F073FE207EF0
:1034600040F001002076207820F0010004F888095F
:1034700018E0BAB994F88800C00713D0D4F85C11EA
:1034800081B194F88330087C63F387000874EB7F84
:10349000D4F85C1163F341000874D4F85C1162F352
:1034A0000000087494F88800800709D594F87C001F
:1034B000D4F86421400804F17D011032FEF7A0F831
:1034C0008DF8009094F884006A4600F003008DF8AF
:1034D000010094F888108DF8021094F8A0008DF87F
:1034E00003002946504601F03FF82878252805D0EA
:1034F000212807D0FFDF2878222803D92221284657
:10350000FDF74CFF0121504609F0A4FA00283FF4D2
:10351000DFAEFFDFD1E60000C401002040420F0013
:10352000716881F80180C8E6FFDFC6E670B5FD4C22
:10353000002584F85C5025660AF039FF04F110017B
:10354000204604F007FC84F8305070BD70B50D467D
:10355000FDF7F2FE040000D1FFDF4FF4B8712846FA
:1035600013F091FE2434012105F1E0002C610AF0F2
:103570001FFF002800D0FFDF70BD0A46014602F1A0
:10358000E0000AF035BF70B50546406886B00178A6
:10359000092906D00C2933D00D292FD0FFDF06B022
:1035A00070BD46883046FDF7C7FE040000D1FFDF3E
:1035B00020782128F3D028281BD1686802210C30FC
:1035C00000F09DFFA8B168680821001D00F097FF7A
:1035D00078B104F12401304608F0E1FA04F029FA48
:1035E00000B1FFDF06B02046BDE870402921FDF79D
:1035F000D5BE06B0BDE8704004F0F3BB0121817177
:10360000686886883046FDF797FE040000D1FFDF2A
:1036100020782128C3D06868817909B1807808B101
:10362000FFDFBCE704F0DDFBE07FC10721D08007AE
:1036300005D594F8200000F01F00102817D00520B1
:1036400084F823002078292815D02428A7D13146D2
:1036500005200CF075FE22212046FDF79FFE01217A
:10366000304609F0F7F9002899D0FFDF97E70620E8
:10367000E6E70420E4E70121304609F0D9F9050026
:1036800000D1FFDF25212046FDF788FE03208DF8BD
:103690000000694605F1E0000AF0A1FE0228C0D052
:1036A0000028BED0FFDF7AE72DE9F04788B09A46C0
:1036B000164688468146FDF73FFE05003AD0287839
:1036C000222837D3232835D0E87FC00632D40027FC
:1036D0000121484609F0ACF9040005D1012100227E
:1036E000484609F09CF90446694600F064FF0098DA
:1036F00000B9FFDF00983CB1E0340461287822284B
:1037000004D0242802D005E0076103E025212846E3
:10371000FDF744FE009801214170C0F82490868096
:10372000C0E9028A01A90AF075FE022802D0002829
:1037300000D0FFDF08B011E570B586B00546FDF793
:10374000FBFD0078222814D90121284609F070F9E0
:1037500004002CD1FFDF2AE0B4F85E0004F1620619
:1037600030440178427829B121462846FFF731FDDF
:10377000B0B914E7ADF804200821284602AB07F0E1
:1037800083FB03900028F4D005208DF800006946E3
:1037900004F1E0000AF023FE022801D000B1FFDFAF
:1037A00002231022314604F15E0009F01CF8B4F83F
:1037B00060000028D0D1F2E610B586B00446FDF7CF
:1037C000BBFD0078222811D90121204609F030F9EB
:1037D000040000D1FFDF06208DF80000694604F1E7
:1037E000E0000AF0FCFD002800D0FFDF06B010BDAD
:1037F0002DE9F84F054600780C460027010904F131
:10380000080090463E46BA46009002297ED007291D
:1038100002D00A2909D142E068680178092905D057
:103820000C292CD00D292AD0FFDF73E114271C2688
:10383000002C6CD04088A080FDF77EFD5FEA000977
:1038400000D1FFDF99F8170009F118014008009A2C
:10385000FDF7D6FE68688089208269684868C4F8E8
:1038600012008868C4F81600A07E20F0060040F020
:103870000100A07699F81E0040F040014FE01A27A1
:103880000A26002CD5D08088A080FDF755FD0500C4
:1038900000D1FFDF28460099FFF76CFC3AE10CB13C
:1038A000A88BA080287A4FF0010B0B287ED006DC75
:1038B00001287CD0022808D0032804D137E00D2845
:1038C00076D00E2875D0FFDF24E11E270926002CB4
:1038D000AFD0A088FDF730FD5FEA000900D1FFDF1F
:1038E000287B00F003000128207A1DD020F0010081
:1038F0002072297B890861F341002072297BC90865
:1039000061F382002072297B090901E0F7E0AEE053
:1039100061F3C300207299F81E0040F0800189F81D
:103920001E10F7E0A401002040F00100E0E713279B
:103930000D26002CA6D0A088FDF7FEFC81460121B3
:10394000A08809F075F8050000D1FFDF686F817865
:1039500001F003010129217A50D021F001012172E7
:1039600083789B0863F3410121728378DB0863F35A
:103970008201217283781B0963F3C30121720378EA
:1039800063F306112172437863F3C711217284F83F
:1039900009A0C178A1720279E17A62F30001E172B3
:1039A0000279520862F34101E17203E029E067E025
:1039B0004EE05FE00279920862F38201E1720279DF
:1039C000D20862F3C301E1724279217B62F3000104
:1039D00021734279520862F34101217342799208BE
:1039E00062F3820121734079C00860F3C30121733F
:1039F00099F8000023282AD9262139E041F0010155
:103A0000ADE71827102694B3A088FDF795FC009029
:103A10000121A08809F00CF85FEA000900D1FFDF5E
:103A2000E868A06099F8000040F0040189F80010EF
:103A300099F80100800708D584F80CB00098007848
:103A4000232867D92721009852E084F80CA061E070
:103A500015270F265CB1A088FDF76EFC8146062273
:103A6000E868009907F096F984F80EB086E042E025
:103A700048463DE016270926ECB3287B207249E032
:103A8000287B19270E26B4B3C4F808A0A4F80CA00C
:103A9000012807D0022808D003280CD004280AD017
:103AA000FFDF15E084F808B001E002202072607AA0
:103AB00020F003000BE0697B042801F00F0141F0C6
:103AC00080012172F3D1607A20F00300401C607203
:103AD000A088FDF731FC0546007821281AD023285C
:103AE00000D0FFDF0121A08808F0B4FF2221284682
:103AF000FDF754FC0EE0FFE7A8F800600FE00CB102
:103B00006888A080287A032822D0042809D00528B4
:103B10003AD0FFDFA8F800600CB127806680002053
:103B200009E415270F26002CE6D0A088FDF704FC39
:103B30000121A08808F07CFF050000D1FFDFD5F847
:103B40001D000622009907F025F984F80EA0E1E790
:103B500017270926002CCFD0A088FDF7EDFB814662
:103B60000121A08808F064FF050000D1FFDF68781C
:103B7000800701D5022000E00120207299F80000A2
:103B80002328C7D9272173E719270E26002CB3D085
:103B9000A088FDF7D1FB5FEA000900D1FFDFC4F880
:103BA00008A0A4F80CA084F808A0A07A40F00300B4
:103BB000A07299F81F1061F38200A07299F81F108B
:103BC000C1F34002114205D099F8201001F01F0105
:103BD000102926D020F00800A07299F81F00410893
:103BE000607A61F3C3006072697A01F00301012910
:103BF00090D140F004006072E97A207B61F300000C
:103C00002073AA7A617B62F300016173EA7A520839
:103C100062F341002073A87A400860F341016173A8
:103C200078E740F00800D7E710B5F94C30B101460D
:103C3000102204F1200013F085FA012084F83000EE
:103C400010BD10B5044600F0A6FCF1492046102234
:103C5000BDE81040203113F075BA70B5EC4D060088
:103C60004FF0000412D00CF0B7FB08B110240BE0A9
:103C70000621304607F075F8411C04D02866012063
:103C800085F85C0000E00724204670BD0020F7E7BF
:103C9000007810F00F0204D0012A05D0022A0CD1BE
:103CA00010E0000909D10AE00009012807D0022824
:103CB00005D0032803D0042801D0072070470870DE
:103CC000002070470620704705282AD2DFE800F060
:103CD00003070F171F00087820F0FF001EE0087888
:103CE00020F00F00401C20F0F000103016E00878A3
:103CF00020F00F00401C20F0F00020300EE008788B
:103D000020F00F00401C20F0F000303006E0087872
:103D100020F00F00401C20F0F00040300870002020
:103D20007047072070472DE9F043804687B00D4665
:103D30004FF0000908460CF09CFBA8B94046FDF77F
:103D4000FBFA060003D0307822280BD104E043F2BE
:103D5000020007B0BDE8F08335B1B07FC10601D4E1
:103D6000000703D50820F4E71020F2E7F07FC00633
:103D700001D50D20EDE700270121404608F058FE4F
:103D8000040006D101210022404608F048FE04004C
:103D900005D0694600F00FFC009818B901E0042036
:103DA000D7E7FFDF00980221E0344170C0F824809B
:103DB0004461078101210171297801F00102017E2E
:103DC00062F3010101762A78520862F382010176DA
:103DD0002A78920862F3C30101762A78D20862F346
:103DE0000411017624213046FDF7D8FA01A9009884
:103DF0000AF010FB022801D000B1FFDF4846A8E717
:103E00002DE9FF4F9046834A0D4699B09A4607CA5E
:103E100015AB4FF0000983E807001998FDF78CFAFD
:103E2000060006D03078262806D008201DB0BDE850
:103E3000F08F43F20200F9E725B94046FFF7F6F8A4
:103E40000028F3D10121199808F0F2FD040000D1F7
:103E5000FFDF852D27D007DCEDB1812D1DD0822D10
:103E60001DD0832D08D11CE0862D1ED0882D1ED09C
:103E7000892D1ED08A2D1ED00F2020710F281CD016
:103E800003F0ACFFD8B101208DF82800201D0B9065
:103E90002079B0B12EE10020EFE70120EDE702200C
:103EA000EBE70320E9E70520E7E70620E5E7082040
:103EB000E3E70920E1E70A20DFE70720B6E7112062
:103EC000B4E798F80000D4E91D754208F07F00219E
:103ED00062F30000F07798F80020920862F3410046
:103EE000F07798F80000C209607862F341006070D2
:103EF00098F800000209207862F34710207098F8C3
:103F00000000C208607862F30000607098F8010059
:103F1000607198F8000000F00102A87862F30100D7
:103F2000A870F27F62F38200A870F27F520862F3F9
:103F3000C300A870627862F30410A8702278C0F3FE
:103F4000C00052092A706278C2F340026A7098F881
:103F50000220EA7069712971B978C1F3C001084083
:103F60005FEA000B2ED050460CF036FA98BBDAF818
:103F70000C000CF031FA70BBDAF81C000CF02CFAD3
:103F800048BBDAF80C00A060DAF81C00E060797831
:103F9000607801F0010140EA41006070B978C0B278
:103FA000C1F30011891E084060700020207706F1DF
:103FB00017006061701CA061A87800F00300012860
:103FC0000AD049E07978607801F00101FD2242EAE7
:103FD00041010840E1E719E0B87800F0030001284A
:103FE0003AD12A1D691D404600F094FA28793979A2
:103FF00008408DF84C0069797A7911408DF81810D5
:10400000084329D050460CF0E7F928B110200DE7FD
:10401000A4010020D87501000AF1100004F5AE7368
:1040200004F18C028DE80D00002113AB5A462046A6
:10403000FFF73FF80028EAD104F5B07204F1A403B9
:10404000CDF800A0CDE90132012106AB5A46204649
:10405000FFF72FF80028DAD16078800722D4A878FB
:10406000B978C0F38000C1F3800108431AD02978E1
:1040700015AA387832F811204300DA4002F003091B
:10408000B9F1030F01D14FF00209BBF1000F09D0C4
:10409000012901D0042905D1012801D0042801D12A
:1040A0004FF00409F07F40F001006BF34100F0771E
:1040B000607881074FF003000CD5A071BBF1000FB1
:1040C00018D100BF8DF8500014AA3146199800F09D
:1040D0004BFA0FE00221B9F1020F1AD0B9F1010F2A
:1040E00019D0B9F1040F22D00020A071F07F20F088
:1040F0000100F07725213046FDF750F90AA904F1B7
:10410000E0000AF06CF910B1022800D0FFDF0020B7
:104110008CE6A171D6E7A1710D2104F1200013F006
:10412000B2F8207840F0020020700420CAE7012095
:10413000A071DFE72DE9F04387B090468946044639
:104140000025FDF7F9F8070004D03878272804D0B7
:104150000820FEE543F20200FBE50121204608F0BD
:1041600067FC040000D1FFDFA6795FEA090005D0F3
:10417000012821D0B9F1020F26D110E0B8F1000FCB
:1041800022D1012E05D0022E05D0032E05D0FFDF4F
:104190002DE00C252BE0012529E0022527E04046F3
:1041A0000CF01AF9B0B9032E0ED11022414604F1D9
:1041B0001D0012F0C7FF1AE0012E02D0022E03D11B
:1041C00004E0B8F1000F12D00720C2E540460CF021
:1041D00003F908B11020BCE5102104F11D0013F013
:1041E00030F80621404606F0BCFDC4F81D002078DA
:1041F000252140F0020020703846FDF7CFF82078E6
:10420000C10713D020F00100207002208DF80000BB
:1042100004F11D0002908DF804506946C3300AF085
:10422000DEF8022803D010B1FFDF00E02577002080
:104230008FE530B587B00D460446FDF77DF860B1D7
:104240000121204608F0F4FB04000CD028460CF0B5
:10425000C3F828B1102007B030BD43F20200FAE7DE
:104260002078400701D40820F5E7294604F13D00F5
:104270002022054612F066FF207840F010002070E2
:1042800001070FD520F00800207007208DF80000EE
:10429000694604F1E00001950AF0A1F8022801D076
:1042A00000B1FFDF0020D6E770B50D460646FDF7EA
:1042B00043F818B10078272817D102E043F2020032
:1042C00070BD0121304608F0B3FB040000D1FFDFD0
:1042D000A079022809D16078C00706D02A46214675
:1042E0003046FEF776FF10B10FE0082070BDB4F83D
:1042F00060000E280BD204F1620102231022081F75
:1043000008F03BFA012101704570002070BD1120BA
:1043100070BD70B5064614460D4608460CF05CF8B4
:1043200018B920460CF07EF808B1102070BDA6F533
:104330007F40FF380ED03046FCF7FEFF38B14178A1
:1043400022464B08811C1846FDF75AF907E043F254
:10435000020070BD2046FDF751FD0028F9D1102163
:10436000E01D0BF014FDE21D294604F1170000F0DA
:1043700032F9002070BD2DE9F04104468AB015469F
:104380000E46002708460CF074F818B928460CF0C1
:1043900070F818B110200AB0BDE8F0812046FCF793
:1043A000CBFF5FEA000804D098F80000272810D15E
:1043B00002E043F20200EEE70121204608F038FB5C
:1043C000040000D1FFDF2078400702D56078800725
:1043D00001D40820DFE7D4E91D01497801B18DB18E
:1043E000407800B176B1ADB1EA1D06A8E16800F0F1
:1043F000F2F8102206A905F1170012F077FE18B1A5
:10440000042707E00720C6E71022E91D04F12D006C
:1044100012F098FE2EB11022F11D04F11D0012F0D1
:1044200091FE2078252140F0020020704046FCF7E4
:10443000B5FF2078C10715D020F0010020700220C0
:104440008DF8000004F11D000290103003908DF8EB
:1044500004706946B33009F0C2FF022803D010B1DE
:10446000FFDF00E02777002095E770B50D46064690
:104470000BB1072070BDFCF75FFF040007D0207868
:10448000222802D3A07F400604D4082070BD43F246
:10449000020070BDA5B12946304607F080FB03F04D
:1044A000C8FA297C4A08E17F62F30001E1772A7C9F
:1044B00062F34101E177297C890884F8201004E047
:1044C000304607F08FFB03F0B4FAA17F21F04001E2
:1044D000A17770BD70B50D46FCF72EFF040005D026
:1044E00028460BF09FFF20B1102070BD43F2020060
:1044F00070BD29462046FEF73DFE002070BD04E059
:1045000010F8012B0AB100207047491E89B2F7D27A
:104510000120704710B5C4780B7864F300030B706A
:10452000C478640864F341030B70C478A40864F38E
:1045300082030B70C478E40864F3C3030B7003793F
:10454000117863F30001117003795B0863F3410193
:10455000117003799B0863F3820111700079C00820
:1045600060F3C301117010BD70B51546064603F027
:1045700035FC040000D1FFDF207820F00F00801C04
:1045800020F0F0002030207066802868A060BDE830
:10459000704003F026BC10B5134C94F8300000288E
:1045A00008D104F12001A1F1100009F05AFF012007
:1045B00084F8300010BD10B190F8B9202AB10A4833
:1045C00090F8350018B1002003E0B83001E006484B
:1045D00034300860704708B50023009313460A463C
:1045E00008F021FC08BD0000A4010020F0B5007B0C
:1045F000059F1E4614460D46012800D0FFDF0C2003
:1046000030803A203880002C08D0287A032806D041
:10461000287B012800D0FFDF17206081F0BDA8892A
:10462000FBE72DE9F04786B0144691F80C900E9AFE
:104630000D46B9F1010F0BD01021007B2E8A884660
:10464000052807D0062833D0FFDF06B0BDE8F08785
:104650000221F2E7E8890C2100EB400001EB400069
:10466000188033201080002CEFD0E889608100276B
:104670001AE00096688808F1020301AA696900F04F
:1046800085FF06EB0800801C07EB470186B204EBB0
:104690004102BDF8040090810DF1060140460E3242
:1046A00009F048FF7F1CBFB26089B842E1D8CCE76F
:1046B00034201080E889B9F1010F11D0122148434C
:1046C0000E301880002CC0D0E88960814846B9F1CE
:1046D000010F00D00220207300270DF1040A1FE013
:1046E0000621ECE70096688808F1020301AA6969CF
:1046F00000F04CFF06EB0800801C86B2B9F1010FF8
:1047000012D007EBC70004EB4000BDF80410C181D4
:1047100010220AF10201103012F014FD7F1CBFB20A
:104720006089B842DED890E707EB470104EB41020D
:10473000BDF80400D0810AF102014046103209F0B0
:10474000F9FEEBE72DE9F0470E4688B090F80CC073
:1047500096F80C80378AF5890C20109902F10C0428
:104760004FF0000ABCF1030F08D0BCF1040F3ED09B
:10477000BCF1070F7DD0FFDF08B067E705EB850CC4
:1047800000EB4C00188031200880002AF4D0A8F1FA
:10479000060000F0FF09558125E0182101A812F05C
:1047A00072FD00977088434601AA716900F0EEFE21
:1047B000BDF804002080BDF80600E080BDF80800C8
:1047C0002081A21C0DF10A01484609F0B3FEB9F19F
:1047D000000F00D018B184F804A0A4F802A007EBE1
:1047E000080087B20A346D1EADB2D6D2C4E705EB1D
:1047F000850C00EB4C00188032200880002ABBD0CA
:10480000A8F1050000F0FF09558137E00097708896
:10481000434601AA716900F0B9FE9DF80600BDF893
:104820000410E1802179420860F3000162F3410144
:10483000820862F38201C20862F3C301020962F3D3
:104840000411420962F34511820962F38611217154
:10485000C0096071BDF80700208122460DF10901F1
:10486000484609F067FE18B184F802A0A4F800A039
:1048700000E007E007EB080087B20A346D1EADB216
:10488000C4D279E7A8F1020084B205FB08F000F178
:104890000E0CA3F800C035230B80002AA6D055814A
:1048A0009481009783B270880E32716900F06EFEB9
:1048B00062E72DE9F84F1E460A9D0C4681462AB153
:1048C000607A00F58070D080E089108199F80C0042
:1048D0000C274FF000084FF00E0A0D2873D2DFE8C6
:1048E00000F09E070E1C28303846556A737373001B
:1048F000214648460095FFF779FEBDE8F88F207BFA
:104900009146082802D0032800D0FFDF37803020EE
:104910000AE000BFA9F80A80EFE7207B914604284F
:1049200000D0FFDF378031202880B9F1000FF1D1AE
:10493000E3E7207B9146042800D0FFDF3780322058
:10494000F2E7207B9146022800D0FFDF378033203A
:10495000EAE7207B1746022800D0FFDF3420A6F8C4
:1049600000A02880002FC8D0A7F80A80C5E7207BC8
:104970001746042800D0FFDF3520A6F800A02880C5
:10498000002FBAD04046A7F80A8012E0207B1746D5
:10499000052802D0062800D0FFDF10203080362006
:1049A0002880002FA9D0E0897881A7F80E80B9F877
:1049B0000E00B881A1E7207B9146072800D0FFDFD9
:1049C00037803720B0E72AE04FF0120018804FF010
:1049D00038001700288090D0E0897881A7F80E80F1
:1049E000A7F8108099F80C000A2805D00B2809D0E8
:1049F0000C280DD0FFDF80E7207B0A2800D0FFDFE6
:104A000001200AE0207B0B2800D0FFDF042004E017
:104A1000207B0C2800D0FFDF052038736DE7FFDF17
:104A20006BE770B50C460546FCF786FC20B10078B4
:104A3000222804D2082070BD43F2020070BD052177
:104A4000284607F0F5FF206008B1002070BD032064
:104A500070BD30B44880087820F00F00C01C20F0F2
:104A6000F000903001F8080B1DCA81E81D0030BC31
:104A700003F0B7B92DE9FF4784B0002782460297BB
:104A8000079890468946123004F0D8F8401D20F06F
:104A90000306079828B907A95046FFF7C2FF002868
:104AA00053D1B9F1000F05D00798017B19BB05253B
:104AB00004681BE098F80000092803D00D2812D0E4
:104AC000FFDF45E0079903254868B0B3497B42887A
:104AD0007143914238D98AB2B3B2011D07F039FE51
:104AE0000446078002E0079C042508340CB12088A6
:104AF00010B1032D28D02BE007980121123004F0CB
:104B0000CFF8ADF80C00024602AB2946504606F03D
:104B1000BBF9070001D1A01C029007983A46123059
:104B2000C8F80400A8F802A003A94046029B04F0BC
:104B3000C4F8C0B1072814D200E005E0DFE800F0B7
:104B4000060811110F0A0C00132015E6002013E6C9
:104B5000112011E608200FE643F203000CE60720BF
:104B60000AE6032008E6BDF80C002346CDE90070F4
:104B70002A465046079900F019FD57B9032D08D170
:104B80000798B3B2417B406871438AB2011D07F0B8
:104B9000F4FDB9F1000FD9D0079981F80C90D5E751
:104BA0002DE9FE4F91461A881C468A468046FAB186
:104BB00002AB494606F068F9050019D04046A61C2C
:104BC000278808F079F83246072629463B460096A2
:104BD00007F0A5FC20882346CDE900504A465146FF
:104BE000404600F0E3FC002020800120BDE8FE8F5D
:104BF0000020FBE710B586B01C46AAB104238DF84F
:104C000000301388ADF808305288ADF80A208A7851
:104C10008DF80E200988ADF80C1000236A46214655
:104C2000FFF728FF06B010BD1020FBE770B50D465A
:104C3000052107F0FDFE040000D1FFDF294604F145
:104C40001200BDE8704004F014B82DE9F8430D4699
:104C50008046002603F0C2F804462878102878D24F
:104C6000DFE800F0773B3453313112313131083114
:104C7000313131312879001FC0B2022801D010280B
:104C800010D114BBFFDF35E004B9FFDF052140463A
:104C900007F0CEFE007B032806D004280BD007289F
:104CA00028D0FFDF072655E02879801FC0B20228F0
:104CB00020D050B1F6E72879401FC0B2022819D0A1
:104CC000102817D0EEE704B9FFDF13E004B9FFDFC7
:104CD000287901280ED1172137E00521404607F039
:104CE000A7FE070000D1FFDF07F11201404603F0E5
:104CF0009DFF2CB12A4621464046FFF7AAFE29E037
:104D000013214046FDF7B3FB24E004B9FFDF052182
:104D1000404607F08DFE060000D1FFDF694606F130
:104D2000120003F08DFF060000D0FFDFA9881729CD
:104D300001D2172200E00A46BDF80000824202D9E3
:104D4000014602E005E01729C5D3404600F03EFCCD
:104D5000D0E7FFDF3046BDE8F883401D20F00302B6
:104D600019B102FB01F0001D00E000201044704763
:104D700013B5009850B100244FEA0D0007F093FCE2
:104D8000002C02D1F74A009911601CBD01240020BB
:104D9000F4E72DE9F0470C4615462421204612F091
:104DA00072FA05B9FFDFA87860732888DFF8B4A32A
:104DB000401D20F00301AF788946DAF8000007F0C3
:104DC00090FC060000D1FFDF4FF000082660A6F837
:104DD000008077B109FB07F1091D0AD0DAF800005D
:104DE00007F07FFC060000D1FFDF6660C6F8008098
:104DF00001E0C4F80480298804F11200BDE8F047FE
:104E000003F006BF2DE9F047804601F112000D4680
:104E1000814603F013FF401DD24F20F003026E7B4A
:104E200014462968386807F087FC3EB104FB06F297
:104E3000121D03D06968386807F07EFC052007F072
:104E4000A3FD0446052007F0A7FD201A012802D182
:104E5000386807F03BFC49464046BDE8F04703F0A0
:104E6000ECBE70B50546052107F0E2FD040000D157
:104E7000FFDF04F112012846BDE8704003F0D6BE02
:104E80002DE9F04F91B04FF0000BADF834B0ADF814
:104E900004B047880C46054692460521384607F07F
:104EA000C7FD060000D1FFDF24B1A780A4F806B03B
:104EB000A4F808B0297809220B20B2EB111F7DD18C
:104EC0002A7A04F1100138274FF00C084FF001093D
:104ED0000391102A73D2DFE802F072F2F1F07F083A
:104EE000D2888D9F3DDBF3EEB6B6307B022800D032
:104EF000FFDFA88908EBC001ADF804103021ADF840
:104F00003410002C25D06081B5F80E9000271DE0EC
:104F100004EBC708317C88F80E10F189A8F80C1052
:104F2000CDF800906888042304AA296900F02EFBBC
:104F3000BDF81010A8F8101009F10400BDF8121007
:104F40007F1C1FFA80F9A8F81210BFB26089B8421E
:104F5000DED80DE1307B022800D0FFDFE98908EBC5
:104F6000C100ADF804003020ADF83400287B0A9071
:104F7000001FC0B20F90002CEBD06181B5F81090EB
:104F8000002725E0CDF800906888696903AA0A9B8C
:104F900000F0FCFA0A9804EBC70848441FFA80F9AD
:104FA00008F10C0204A90F9809F0C4FA18B188F8A6
:104FB0000EB0A8F80CB0BDF80C1001E0D4E0CFE0C2
:104FC000A8F81010BDF80E107F1CA8F81210BFB280
:104FD0006089B842D6D8CBE00DA8009001AB22463C
:104FE00029463046FFF71DFBC2E0307B082805D07C
:104FF000FFDF03E0307B082800D0FFDFE8891030B6
:10500000ADF804003620ADF83400002C3FD0A9895B
:105010006181F189A18127E0307B092800D0FFDF81
:10502000A88900F10C01ADF804103721ADF8341057
:10503000002C2CD06081E8890090AB89688804F14D
:105040000C02296956E0E8893921103080B2ADF8A8
:105050000400ADF83410002C74D0A9896181287A3D
:105060000E280AD002212173E989E181288A009063
:10507000EB8968886969039A3CE00121F3E70DA890
:10508000009001AB224629463046FFF75BFB6FE0FC
:10509000307B0A2800D0FFDF1220ADF80400ADF805
:1050A00034704CB3A9896181A4F810B0A4F80EB093
:1050B00084F80C905CE020E002E031E039E042E06E
:1050C000307B0B2800D0FFDF288AADF83470123017
:1050D000ADF8040084B104212173A9896181E989B3
:1050E000E181298A2182688A00902B8A688804F1EC
:1050F0001202696900F04AFA3AE0307B0C2800D0CD
:10510000FFDF1220ADF80400ADF834703CB3052188
:105110002173A4F80AB0A4F80EB0A4F810B027E0E8
:105120000DA8009001AB224629463046FFF75EFAF3
:105130001EE00DA8009001AB224629463046FFF73D
:10514000B8FB15E036E03B21ADF80400ADF83410B3
:1051500084B3A4F80690A4F808B084F80AB007E075
:10516000FFDF05E010000020297A012919D0FFDFB8
:10517000BDF80400AAF800007CB1BDF8340020801E
:10518000BDF804006080BDF83400392805D03B2804
:1051900003D03C2801D086F80CB011B00020BDE847
:1051A000F08F3C21ADF80400ADF8341014B1697AE9
:1051B000A172DDE7FFE7AAF80000EEE72DE9F8436A
:1051C00056880F46804615460521304607F030FCCC
:1051D000040000D1FFDF123400943B4641463046C4
:1051E0006A6803F09CFEB6E570B50D46052107F030
:1051F0001FFC040000D1FFDF294604F11200BDE8C6
:10520000704003F028BD70B50D46052107F010FC75
:10521000040000D1FFDF294604F11200BDE8704010
:1052200003F046BD70B50546052107F001FC0400FA
:1052300000D1FFDF04F1080321462846BDE8704095
:105240000422ADE470B50546052107F0F1FB04002A
:1052500000D1FFDF214628462368BDE870400522C3
:105260009EE470B50646052107F0E2FB040000D17C
:10527000FFDF04F1120003F0E1FC401D20F0030504
:1052800011E0011D00880322431821463046FFF734
:1052900087FC00280BD0607BABB2684382B26068A9
:1052A000011D07F0A0FA606841880029E9D170BDAE
:1052B00070B50E46054602F091FD040000D1FFDFF7
:1052C0000120207266726580207820F00F00C01CDB
:1052D00020F0F00030302070BDE8704002F081BD59
:1052E0002DE9F0438BB00D461446814606A9FFF721
:1052F00098FB002814D14FF6FF7601274FF4205871
:105300008CB103208DF800001020ADF8100007A824
:10531000059007AA204604A909F02BF978B10720C7
:105320000BB0BDE8F0830820ADF808508DF80E7082
:105330008DF80000ADF80A60ADF80C800CE006981E
:10534000A17801742188C1818DF80E70ADF80850E4
:10535000ADF80C80ADF80A606A4602214846069B0B
:10536000FFF788FBDCE708B501228DF8022042F642
:105370000202ADF800200A4603236946FFF73AFC13
:1053800008BD08B501228DF8022042F60302ADF8EF
:1053900000200A4604236946FFF72CFC08BD00B52F
:1053A00087B079B102228DF800200A88ADF8082074
:1053B0004988ADF80A1000236A460521FFF75AFB19
:1053C00007B000BD1020FBE709B1072312E4072056
:1053D000704770B588B00D461446064606A9FFF71B
:1053E00020FB00280ED17CB10620ADF808508DF8C6
:1053F0000000ADF80A40069B6A460821DC81304671
:10540000FFF738FB08B070BD05208DF80000ADF83F
:105410000850F0E700B587B059B107238DF8003088
:10542000ADF80820039100236A460921FFF722FB0B
:10543000C6E71020C4E770B588B00C4606460025C4
:1054400006A9FFF7EEFA0028DCD1069801211230F8
:1054500003F026FC9CB12178062921D2DFE801F077
:10546000200505160318801E80B2C01EE28880B297
:105470000AB1A3681BB1824203D90C20C2E71020F5
:10548000C0E7042904D0A08850B901E00620B9E79C
:10549000012913D0022905D004291CD005292AD0BE
:1054A0000720AFE709208DF800006088ADF80800FC
:1054B000E088ADF80A00A068039023E00A208DF888
:1054C00000006088ADF80800E088ADF80A00A06828
:1054D0000A25039016E00B208DF800006088ADF8D7
:1054E0000800A088ADF80A00E088ADF80C00A068BC
:1054F0000B25049006E00C208DF8000060788DF8F4
:1055000008000C256A4629463046069BFFF7B2FA8A
:1055100078E700B587B00D228DF80020ADF80810AF
:1055200000236A461946FFF7A5FA49E700B587B098
:1055300071B102228DF800200A88ADF80820498850
:10554000ADF80A1000236A460621FFF793FA37E701
:10555000102035E770B586B0064601200D46ADF83F
:1055600008108DF80000014600236A463046FFF718
:1055700081FA040008D12946304601F0BDFA002125
:10558000304601F0D7FA204606B070BDF8B51C468B
:1055900015460E46069F07F07DFB2346FF1DBCB255
:1055A00031462A46009406F086FFF8BD30B4114615
:1055B000DDE902423CB1032903D0002330BC05F0F1
:1055C00099BD0123FAE71A8030BC704770B50C46CC
:1055D0000546FFF72BFB2146284601F09CFA28469A
:1055E000BDE87040012101F0A5BA000018B1817832
:1055F000012938D101E010207047018842F60112DC
:10560000881A914231D018DC42F60102A1EB020067
:1056100091422AD00CDC41B3B1F5C05F25D06FF4C4
:10562000C050081821D0A0F57060FF381BD11CE0D5
:1056300001281AD002280AD117E0B0F5807F14D0D3
:1056400008DC012811D002280FD003280DD0FF2834
:1056500009D10AE0B0F5817F07D0A0F5807003384A
:1056600003D0012801D0002070470F2070470A287E
:105670001ED007DC18D2DFE800F0191B1F1F171F10
:10568000231D1F21102815D008DC0B2812D00C2850
:1056900010D00D2816D00F2806D10DE011280BD000
:1056A00084280BD087280FD0032070470020704734
:1056B00005207047072070470F207047042070476F
:1056C000062070470C20704743F20200704738B53F
:1056D0000C46050041D06946FEF7DAFA002819D1D8
:1056E0009DF80010607861F3020060706946681CE4
:1056F000FEF7CEFA00280DD19DF80010607861F316
:10570000C5006070A978C1F34101012903D00229C5
:1057100005D0072038BD217821F0200102E0217852
:1057200041F020012170410704D0A978C90861F334
:1057300086106070607810F0380F07D0A9780909DA
:1057400061F3C710607010F0380F02D16078400626
:1057500003D5207840F040002070002038BD70B59F
:1057600004460020088015466068FFF7B0FF002857
:1057700016D12089A189884211D860688078C00735
:105780000AD0B1F5007F0AD840F20120B1FBF0F257
:1057900000FB1210288007E0B1F5FF7F01D90C2033
:1057A00070BD01F201212980002070BD10B5047880
:1057B000137864F3000313700478640864F34103FE
:1057C00013700478A40864F3820313700478E40867
:1057D00064F3C30313700478240964F3041313708F
:1057E0000478640964F3451313700078800960F34A
:1057F0008613137031B10878C10701D1800701D534
:10580000012000E0002060F3C713137010BD427840
:10581000530702D002F0070306E012F0380F02D05F
:10582000C2F3C20300E001234A7863F302024A7024
:10583000407810F0380F02D0C0F3C20005E04307F3
:1058400002D000F0070000E0012060F3C5024A70BA
:1058500070472DE9F04F95B00D00824612D012210D
:10586000284611F0EEFC4FF6FF7B05AA01215846B1
:1058700005F0B7F80024264637464FF420586FF459
:10588000205972E0102015B0BDE8F08F9DF81E0081
:1058900001280AD1BDF81C1041450BD011EB0900BD
:1058A0000AD001280CD002280CD0042C0ED0052CD4
:1058B0000FD10DE0012400E00224BDF81A6008E0D9
:1058C000032406E00424BDF81A7002E0052400E079
:1058D0000624BDF81A10514547D12C74BEB34FF0C1
:1058E000000810AA4FF0070ACDE90282CDE900A80E
:1058F0000DF13C091023CDF8109042463146584630
:1059000005F022F908BBBDF83C002A46C0B210A938
:1059100008F010FEC8B9AE81CFB1CDE900A80DF1F5
:10592000080C0AAE40468CE8410213230022394697
:10593000584605F009F940B9BDF83C00F11CC01EFD
:10594000C0B22A1D08F0F6FD10B103209BE70AE063
:10595000BDF82900E881062C05D19DF81E00A8722B
:10596000BDF81C00288100208DE705A805F045F84A
:1059700000288BD0FFF77BFE85E72DE9F0471C461A
:10598000DDE90978DDF8209015460E00824600D149
:10599000FFDF0CB1208818B1D5B11120BDE8F08728
:1059A000022D01D0012100E0002106F1140003F0D6
:1059B00009FFA8F8000002463B462946504605F07C
:1059C00063FAC9F8000008B9A41C3C600020E5E7B0
:1059D0001320E3E7F0B41446DDE904528DB100234F
:1059E00014B1022C09D101E0012306E00D7CEE0781
:1059F00003D025F0010501230D742146F0BC05F00C
:105A000079BB1A80F0BC70472DE9FE4F91461A8889
:105A10001C468A468046FAB102AB494605F034FA84
:105A2000050019D04046A61C278807F045F93246E4
:105A3000072629463B46009606F071FD208823463E
:105A4000CDE900504A4651464046FFF7C3FF0020CB
:105A500020800120BDE8FE8F0020FBE72DE9F04704
:105A600086B09146DDE90E460F46824603AA05A997
:105A700004A8109D8DE807009846324621465046FE
:105A8000FFF77BFF049909B1012200E000222A7090
:105A9000002817D1F84A03AB1060059A009104F171
:105AA0001400CDE901204A463946504604F041FA37
:105AB00090B108280ED2DFE800F00407040D0D09AC
:105AC0000B0B002006B069E71120FBE70720F9E780
:105AD0000820F7E70320F5E7BDF80C100498CDE99E
:105AE00000014346324621465046FFF773FFE8E780
:105AF0002DE9F04389B00D46DDE9108781461C464B
:105B00001646142103A811F0BEFB012002218DF8D6
:105B100010108DF80C008DF81170ADF8146064B1A0
:105B2000A278D20709D08DF81600E088ADF81A00E7
:105B3000A088ADF81800A068079008A80095CDE9E6
:105B40000110424603A948466B68FFF787FF09B07A
:105B5000BDE8F083F0B58BB00024064606940794A8
:105B60000727089405A80994019400970294CDE9A9
:105B700003400D4610232246304604F0E5FF78B975
:105B80000AA806A9019400970294CDE90310BDF874
:105B9000143000222946304604F0ACFD002801D024
:105BA000FFF765FD0BB0F0BD04F04CBC2DE9FC41E6
:105BB0000C468046002602F011F9054620780D2893
:105BC0007ED2DFE800F0BC0713B325BD49496383EB
:105BD000AF959B00A848006820B1417841F01001C2
:105BE0004170ADE0404602F029F9A9E004214046A9
:105BF00006F01EFF070000D1FFDF07F11401404649
:105C000003F074FDA5BB13214046FCF730FC97E080
:105C10000421404606F00CFF070000D1FFDFE088BA
:105C2000ADF800000020B8819DF80000010704D500
:105C3000C00602D5A088B88105E09DF801004006A5
:105C40007ED5A088F88105B9FFDF22462946404667
:105C500001F066FC022673E0E188ADF800109DF8C3
:105C6000011009060FD5072803D006280AD00AE03C
:105C700024E00421404606F0DBFE060000D1FFDFF1
:105C8000A088F0810226CDB9FFDF17E0042140464D
:105C900006F0CEFE070000D1FFDF07F1140004F08C
:105CA00008FC90F0010F02D1E079000648D5387C5D
:105CB000022640F00200387405B9FFDF224600E0FA
:105CC0003DE02946404601F02BFC39E004214046E6
:105CD00006F0AEFE017C002D01F00206C1F340018A
:105CE0006171017C21F002010174E7D1FFDFE5E77A
:105CF00002260121404602F0D3F821E0042140466B
:105D000006F096FE0546606800902089ADF8040014
:105D100001226946404602F0E4F8287C20F00200A7
:105D200028740DE0002DC9D1FFDFC7E7022600214E
:105D30004046FFF768FA002DC0D1FFDFBEE7FFDF66
:105D40003046BDE8FC813EB50C0009D001466B46EB
:105D500001AA002004F07AFF20B1FFF788FC3EBDC5
:105D600010203EBD00202080A0709DF8050002A9F3
:105D700000F00700FDF7A8FF50B99DF8080020705B
:105D80009DF8050002A9C0F3C200FDF79DFF08B110
:105D900003203EBD9DF8080060709DF80500C10914
:105DA000A07861F30410A0709DF80510890961F3D3
:105DB000C300A0709DF80410890601D5022100E0FF
:105DC000012161F342009DF8001061F30000A07012
:105DD00000203EBD70B5144606460D4651EA04004B
:105DE00005D075B108460AF03BFB78B901E0072001
:105DF00070BD2946304604F08AFF10B1BDE87040FE
:105E000035E454B120460AF02BFB08B1102070BDD8
:105E100021463046BDE8704095E7002070BD2DE971
:105E2000FC5F0C4690460546002701780822007A60
:105E30003E46B2EB111F7DD104F10A0100910A31F7
:105E4000821E4FF0020A04F1080B0191092A72D256
:105E5000DFE802F0EDE005F528287BAACE0068888F
:105E6000042106F0E5FD060000D1FFDFB08928B16E
:105E700052270726C3E00000080200205127102601
:105E8000002C7DD06888A0800120A071A889002204
:105E90000099FFF79FFF002873D1A8892081288AE5
:105EA000E081D1E0B5F81290072824D1E87B000604
:105EB00021D5512709F1140086B2002CE1D0A88920
:105EC00000220099FFF786FF00285AD16888A08039
:105ED00084F806A0A88920810120A073288A208246
:105EE000A4F81290A88A009068884B46A969019A84
:105EF00001F0F3FAA8E0502709F1120086B2002C55
:105F00003ED0A88900225946FFF764FF002838D107
:105F10006888A080A889E080287A072813D002200A
:105F20002073288AE081E87BC0096073A4F8109090
:105F3000A88A01E085E082E0009068884B4604F181
:105F40001202A969D4E70120EAE7B5F812905127B7
:105F500009F1140086B2002C66D06888042106F08E
:105F600067FD83466888A080A88900220099FFF712
:105F700031FF00286ED184F806A0A889208101E0B5
:105F800052E067E00420A073288A2082A4F81290CF
:105F9000A88A009068884B46A969019A01F09DFA89
:105FA000A989ABF80E104FE06888FBF7C5F90746E2
:105FB0006888042106F03CFD064607B9FFDF06B9F4
:105FC000FFDF687BC00702D05127142601E050276D
:105FD00012264CB36888A080502F06D084F806A003
:105FE000287B594601F089FA2EE0287BA11DF9E7AC
:105FF000FE49A8894989814205D1542706269CB1CA
:106000006888A08020E053270BE06888A080A889DA
:10601000E08019E06888042106F00AFD00B9FFDF7E
:1060200055270826002CF0D1A8F8006011E056276B
:106030000726002CF8D06888A080002013E0FFDF3E
:1060400002E0012808D0FFDFA8F800600CB127802B
:1060500066800020BDE8FC9F57270726002CE3D070
:106060006888A080687AA071EEE7401D20F00300E8
:1060700009B14143091D01EB4000704713B5DB4AEC
:1060800000201071009848B10024684606F00BFB10
:10609000002C02D1D64A009911601CBD01240020B9
:1060A000F4E770B50D46064686B014465C212846D6
:1060B00011F0E9F804B9FFDFA0786874A2782188AC
:1060C000284601F044FA0020A881E881228805F1E1
:1060D0001401304603F0EFFA6A460121304604F01D
:1060E00080FC19E09DF80300000715D5BDF80610E7
:1060F0003046FFF72FFD9DF80300BDF8061040F075
:1061000010008DF80300BDF80300ADF81400FF2364
:106110003046059A04F0C6FD684604F06EFC00287F
:10612000E0D006B070BD10B50C4601F1140003F0CC
:10613000F9FA0146627C2046BDE8104001F03CBA05
:1061400070B50546042106F073FC040000D1FFDFA2
:1061500004F114010C46284603F0C8FA21462846EB
:10616000BDE8704003F0C9BA70B58AB00C46064667
:10617000FBF7E2F8050014D02878222827D30CB1C9
:10618000A08890B101208DF80C0003208DF810003C
:1061900000208DF8110054B1A088ADF818002068D7
:1061A00007E043F202000AB070BD0920FBE7ADF83A
:1061B000180005900421304606F03AFC040000D196
:1061C000FFDF04F1140003F0C4FA000701D4082033
:1061D000E9E701F003FE60B108A802210094CDE9CF
:1061E000011095F8232003A930466368FFF736FCB9
:1061F000D9E71120D7E72DE9F04FB2F802A0834686
:1062000089B0154689465046FBF796F807460421A3
:10621000504606F00DFC0026044605964FF0020895
:106220000696ADF81C6007B9FFDF04B9FFDF4146F1
:10623000504605F0DEF860B907AA06A905A88DE862
:1062400007004246214650466368FFF796FB00B1BF
:10625000FFDF664807AB0660DDE9051204F11400B4
:10626000CDF80090CDE90320CDE9013197F8232046
:10627000594650466B6803F0B5FA06000AD0022E64
:1062800004D0032E14D0042E00D0FFDF09B0304616
:10629000BDE8F08FBDF81C000028F7D00599CDE9C6
:1062A00000104246214650466368FFF793FBEDE736
:1062B000687840F008006870E8E72DE9F04F9BB07F
:1062C00004464FF000084948ADF85480ADF83080DE
:1062D000ADF85080A0F80880ADF81480ADF81880B3
:1062E000ADF82080ADF81C80007916460D46474673
:1062F000012808D0022806D0032804D0042802D0A0
:1063000008201BB0C4E720460AF066F8D0BB284638
:106310000AF062F8B0BB60680AF0ABF890BB606846
:1063200048B160892189884202D8B1F5007F01D93E
:106330000C20E6E780460BAA06A92846FFF70FFACD
:106340000028DED168688078C0F34100022808D1B7
:106350009DF8190010F0380F03D028690AF080F872
:1063600080B905A92069FFF7B2F90028C9D12069D1
:1063700050B1607880079DF8150000F0380002D514
:10638000C0B301E011E0A8BB9DF8140080060ED553
:106390009DF8150010F0380F03D060680AF060F81F
:1063A00018B960680AF065F808B11020A9E707A9D4
:1063B0006069FFF78CF90028A3D1606940B19DF8AE
:1063C0001D0000F0070101293FD110F0380F3CD02B
:1063D00008A9A069FFF77BF9002892D19DF81C005D
:1063E000800632D49DF82000800604E008020020D8
:1063F0001400002029E028D4A06940B19DF82100B4
:1064000000F00701012920D110F0380F1DD0E068FD
:1064100018B10078C8B11C2817D20EAA611C2046FA
:10642000FFF7C4F90120B94660F30F27BA460746C3
:106430008DF84E0042F60300ADF84C000DF13B0222
:1064400017A9286808F095F808B1072059E79DF8C2
:106450005C0016A9CDF80090C01CCDE9019100F0B8
:10646000FF0B00230BF20122514613A804F0FCF9A4
:10647000F0BBBDF858000990FE482A8929690092AE
:10648000CDE901106B89BDF82C202868069904F02D
:10649000EBF901007ED120784FF0020AC10601D449
:1064A00080062BD5ADF80C90606950B907A906A8F5
:1064B000FFF7ADF99DF81D0020F00700401C8DF896
:1064C0001D009DF81C008DF84E7040F0C8008DF83E
:1064D0001C0042F60210ADF84C000CA903AACDF83E
:1064E00000A0CDE90121002340F2032213A800E01F
:1064F0001EE0079904F0B8F901004BD1DD484D4684
:1065000008385B460089ADF839000EA8CDE9029045
:10651000CDF80490CDF810904FF007090022CDF887
:106520000090BDF858104FF6FF7004F0E3F810B17A
:10653000FFF79DF8E5E69DF83800000625D52946C9
:10654000012060F30F218DF84E704FF42450ADF808
:106550004C00ADF8105062789DF81000002362F3F3
:1065600000008DF810006278CDF800A0520862F3A8
:1065700041008DF8100004AACDE9012540F2032264
:1065800013A804F071F9010004D1606888B3206990
:10659000A8B900E086E005A906A8FFF738F96078F9
:1065A000800706D49DF8150020F038008DF81500FE
:1065B00005E09DF8140040F040008DF814008DF8BF
:1065C0004E7042F60110ADF84C00208940F20121D6
:1065D000B0FBF1F201FB1202606814ABCDF8008051
:1065E000CDE90103002313A8059904F03DF901004A
:1065F00058D12078C00729D0ADF80C50A06950B907
:1066000008A906A8FFF703F99DF8210020F007006C
:10661000401C8DF821009DF820008DF84E7040F050
:1066200040008DF8200042F60310ADF84C0015A98B
:1066300003AACDF800A0CDE90121002340F20322F6
:1066400013A8089904F010F901002BD1E06868B391
:106650002946012060F30F218DF84E7042F6041098
:10666000ADF84C00E068002302788DF86020407897
:106670008DF86100E06818AA4088ADF86200E06813
:1066800000798DF86400E068C088ADF86500CDF849
:106690000090CDE901254FF4027213A804F0E4F84C
:1066A000010003D0099800F0B3FF2AE671480321E6
:1066B0000838017156B100893080BDF850007080F3
:1066C000BDF83000B080BDF85400F080002018E61E
:1066D00070B501258AB016460B46012802D0022863
:1066E00016D104E08DF80E504FF4205003E08DF8E1
:1066F0000E5042F60100ADF80C005BB10024601CA6
:1067000060F30F2404AA08A9184607F032FF18B155
:10671000072048E5102046E504A99DF820205548AB
:10672000CDE90021801E02900023214603A802F239
:10673000012204F099F810B1FEF799FF33E54D48B6
:1067400008380EB1C1883180057100202BE5F0B505
:1067500093B0074601268DF83E6041F60100ADF882
:106760003C0012AA0FA93046FFF7B2FF002848D11B
:10677000404C0025083CE7B31C2102A810F083FD23
:106780009DF808008DF83E6040F020008DF808006C
:1067900042F60520ADF83C000E959DF83A001195A3
:1067A00020F00600801C8DF83A009DF838006A46FB
:1067B00020F0FF008DF838009DF8390009A920F07D
:1067C000FF008DF839000420ADF82C00ADF8300042
:1067D0000EA80A9011A80D900FA80990ADF82E50A0
:1067E00002A8FFF76AFD00280BD1BDF80000608108
:1067F00000E008E0BDF80400A081401CE0812571A4
:10680000002013B0F0BD6581A581BDF84800F4E714
:106810002DE9F74F1749A0B00024083917940A79D9
:10682000A146012A04D0022A02D0082023B02FE575
:10683000CA88824201D00620F8E721988A4682421F
:1068400001D10720F2E701202146ADF848004FF6BC
:10685000FF7860F30F21ADF84A808DF86E0042F6A4
:10686000020B06918DF87240ADF86CB0ADF8704037
:106870001CA901E0100200201391ADF8508012A86D
:1068800004F0DFF800252E462F460DAB072212A993
:10689000404604F0D9F878B10A285DD195B38EB39B
:1068A000ADF86450ADF866609DF85E008DF8144058
:1068B00019AC012864D06BE09DF83A001FB30128A1
:1068C00059D1BDF8381059451FD118A809A901940C
:1068D0000294CDE9031007200090BDF83610102374
:1068E0000022404604F030F9B0BBBDF86000042837
:1068F00001D006284AD1BDF82410219881423AD10E
:106900000F2093E73AE0012835D1BDF83800B0F503
:10691000205F03D042F6010188422CD1BAF806006C
:10692000BDF83610884201D1012700E0002705B1EB
:106930009EB1219881421ED118A809AA01940294FF
:10694000CDE90320072000900D4610230022404689
:1069500004F0FAF800B902E02DE04E460BE0BDF875
:106960006000022801D0102810D1C0B217AA09A9CE
:1069700007F0E0FD50B9BDF8369086E7052055E7F1
:1069800005A917A8221D07F0F4FD08B103204DE763
:106990009DF814000023001DC2B28DF81420229827
:1069A0000092CDE901401BA8069903F05DFF10B9E4
:1069B00002228AF80420FEF75AFE37E710B50B468C
:1069C000401E88B084B205AA00211846FEF7EEFEEC
:1069D00000200DF1080C06AA05A901908CE807001B
:1069E000072000900123002221464FF6FF7003F09C
:1069F00081FE0446BDF81800012800D0FFDF2046C4
:106A0000FEF735FE08B010BDF0B5FF4F044687B065
:106A100038790E46032804D0042802D0082007B095
:106A2000F0BD04AA03A92046FEF799FE0500F6D1A1
:106A300060688078C0F3410002280AD19DF80D00FB
:106A400010F0380F05D0206909F00AFD08B11020B8
:106A5000E5E7208905AA21698DE807006389BDF86B
:106A600010202068039903F0FFFE10B1FEF7FFFD30
:106A7000D5E716B1BDF814003080042038712846DF
:106A8000CDE7F8B50C0006460BD001464FF6FF7572
:106A900000236A46284604F0D9F820B1FEF7E7FD46
:106AA000F8BD1020F8BD69462046FEF710FE00280C
:106AB000F8D1A078314600F001032846009A04F08E
:106AC000F1F8EBE730B587B0144600220DF1080C61
:106AD00005AD01928CE82C00072200920A4601467F
:106AE00023884FF6FF7003F005FEBDF814102180D7
:106AF000FEF7BDFD07B030BD70B50D46042105F0B1
:106B000097FF040000D1FFDF294604F11400BDE81F
:106B1000704002F017BE70B50D46042105F088FFE5
:106B2000040000D1FFDF294604F11400BDE87040E5
:106B300002F02BBE70B50D46042105F079FF04006C
:106B400000D1FFDF294604F11400BDE8704002F0D7
:106B500043BE70B50546042105F06AFF040000D16C
:106B6000FFDF214628462368BDE870400122FEF77A
:106B70004BBF70B50646042105F05AFF040000D152
:106B8000FFDF04F1140002F0CDFD401D20F00305ED
:106B900011E0011D00880022431821463046FEF70F
:106BA00033FF00280BD0607CABB2684382B2A06890
:106BB000011D05F018FEA06841880029E9D170BDCB
:106BC00070B50546042105F033FF040000D1FFDF56
:106BD000214628466368BDE870400222FEF714BFD4
:106BE00070B50E46054601F0F9F8040000D1FFDF4C
:106BF0000120207266726580207820F00F00001D51
:106C000020F0F00040302070BDE8704001F0E9B89D
:106C100010B50446012900D0FFDF2046BDE8104032
:106C20000121FEF7F0BA2DE9F04F97B04FF0000ABE
:106C30000C008346ADF814A0D04619D0E06830B1FE
:106C4000A068A8B10188ADF81410A0F800A05846BB
:106C5000FAF772FB070043F2020961D03878222864
:106C60005CD30421584605F0E3FE050005D103E09E
:106C7000102017B0BDE8F08FFFDF05F1140002F01F
:106C800051FD401D20F00306A078012803D0022802
:106C900001D00720EDE7218807AA584603F0A1FE9E
:106CA00030BB07A803F0A9FE10BB07A803F0A5FEA0
:106CB00048B99DF82600012805D1BDF82400A0F5AB
:106CC0002451023902D04FF45050D2E7E068B0B1FD
:106CD000CDE902A00720009005AACDF804A00492F7
:106CE000A2882188BDF81430584603F003FD10B186
:106CF000FEF7BDFCBDE7A168BDF8140008809DF853
:106D00001F00C00602D543F20140B2E70B9838B12C
:106D1000A1780078012905D080071AD40820A8E7B7
:106D20004846A6E7C007F9D002208DF83C00A868C5
:106D30004FF00009A0B1697C4288714391420FD99C
:106D40008AB2B3B2011D05F004FD8046A0F800A090
:106D500006E003208DF83C00D5F800804FF00109D3
:106D60009DF8200010F0380F00D1FFDF9DF82000C3
:106D70002649C0F3C200084497F8231010F8010C0C
:106D8000884201D90F2074E72088ADF8400014A98B
:106D90000095CDE90191434607220FA95846FEF719
:106DA0005DFE002891D19DF8500050B9A0780128CF
:106DB00007D1687CB3B2704382B2A868011D05F0A8
:106DC000DCFC002055E770B5064615460C46084623
:106DD000FEF70CFC002805D12A4621463046BDE8C6
:106DE000704075E470BD13E570B51E4614460D0085
:106DF0000ED06CB1616859B160B10349C988814254
:106E000008D0072070BD000008020020E2750100D4
:106E10001020F7E72068FEF7E9FB0028F2D13246A0
:106E200021462846BDE87040FFF747BA70B51546C1
:106E30000C0006D038B1FE490989814203D00720F1
:106E4000E0E71020DEE72068FEF7D0FB0028D9D16C
:106E500029462046BDE87040D6E570B5064686B0A6
:106E60000D461446104609F0DDFAD0BB606809F003
:106E700000FBB0BBA6F57F40FF3803D03046FAF7E1
:106E80005BFA80B128466946FEF7E3FC00280CD186
:106E90009DF810100F2008293CD2DFE801F0080609
:106EA0000606060A0A0843F2020006B0AAE7032013
:106EB000FBE79DF80210012908D1BDF80010B1F5DB
:106EC000C05FF2D06FF4C052D142EED09DF80610F0
:106ED00001290DD1BDF80410A1F52851062907D2CA
:106EE00000E028E0DFE801F0030304030303DCE72C
:106EF0009DF80A1001290ED1BDF80810B1F5245FE4
:106F0000D3D0A1F524510239CFD00129CDD0022907
:106F100001D1CAE7FFDF606878B9002305AA2946D6
:106F2000304603F093FE10B1FEF7A1FBBDE79DF8DC
:106F30001400800601D41020B7E761882246284655
:106F40006368FFF7BFFDB0E72DE9F043814687B0E6
:106F500088461446104609F065FA18B1102007B0AB
:106F6000BDE8F083002306AA4146484603F06EFEC2
:106F700018B100BFFEF77BFBF1E79DF81800C006D3
:106F800002D543F20140EAE70025072705A801954D
:106F900000970295CDE9035062884FF6FF73414692
:106FA000484603F0D1FD060013D1606809F03AFAB3
:106FB00060B960680195CDE9025000970495238877
:106FC00062884146484603F0BFFD0646BDF81400FE
:106FD00020803046CEE739B1954B0A889B899A428A
:106FE00002D843F2030070471DE610B586B0904CFE
:106FF0000423ADF81430638943B1A4898C4201D2D3
:10700000914205D943F2030006B010BD0620FBE70C
:10701000ADF81010002100910191ADF8003002216F
:107020008DF8021005A9029104A90391ADF8122070
:107030006946FFF7F8FDE7E72DE9FC4781460E4674
:10704000084609F0C9F988BB4846FAF775F95FEABE
:1070500000080AD098F80000222829D304214846C5
:1070600005F0E6FC070005D103E043F20200BDE8AD
:10707000FC87FFDF07F1140002F06BFB0546307858
:10708000012803D0022804D00720F0E7A8070FD575
:1070900002E015F01C0F0BD0B079341DC00709D0E9
:1070A000E08838B1A06809F097F918B11020DEE740
:1070B0000820DCE732782088002628B3A0F20113EC
:1070C0000721112B18D20CD2DFE803F00B090D0BAE
:1070D0001D0B121D100B0B1D1D1D1D0B1D00022A6B
:1070E00011D10846C3E7012AFBD00CE02A0700E0D3
:1070F000EA06002AF5DA06E0A0F5C0721F2A02D9D6
:107100007D3A022AEDD8C6B200F068FE50B198F878
:107110002300CDE90006FA89234639464846FEF7A2
:10712000E7FCA4E71120A2E72DE9F04F8BB01F4642
:1071300015460C4683460026FAF7FEF828B100787B
:10714000222805D208200BB094E543F20200FAE7AA
:10715000B80801D00720F6E7032F00D100274FF62B
:10716000FF79CCB1022D73D3204609F082F930B9F2
:1071700004EB0508A8F1010009F07BF908B1102023
:10718000E1E7AD1EAAB22146484603F014FE38F8E6
:10719000021C88425CD1ADB22549B80702D5888966
:1071A000401C00E001201FFA80F8F80701D08F8909
:1071B00000E04F4605AA4146584603F012FC4FF046
:1071C000070A4FF00009ACB3204608E040881028B9
:1071D0003ED8361D304486B2AE4239D2A01902885C
:1071E0004245F3D354E000BF9DF8170002074FD586
:1071F00084B304EB0608361DB8F80230B6B2102B83
:1072000026D89A19AA4223D8B8F8002091421FD153
:10721000C00620D5CDE900A90DF1080C0AAAA119D4
:1072200048468CE80700B8F800100022584603E0F2
:10723000080200202CE00BE003F05CFA10B1FEF72E
:1072400016FA80E7B8F80200BDF82810884202D08C
:107250000B2078E704E0B8F80200304486B206E07C
:10726000C00604D55846FEF775FC002888D19DF865
:107270001700BDF81A1020F010008DF81700BDF8A7
:107280001700ADF80000FF235846009A03F00AFDEE
:1072900005A803F0B2FB18B9BDF81A10B942A3D97A
:1072A0000421584605F0C4FB040000D1FFDFA28989
:1072B0005AB1CDE900A94D46002321465846FEF7B4
:1072C00017FC0028BDD1A5813DE700203BE72DE953
:1072D000FF4F8BB01E4617000D464FF0000412D032
:1072E000B00802D007200FB0C4E4032E00D100265E
:1072F0005DB1084609F0B4F828B93888691E084419
:1073000009F0AEF808B11020EDE7C74AB00701D583
:10731000D18900E00121F0074FF6FF7802D0D08933
:10732000401E00E0404686B206AA0B9803F059FBC7
:107330004FF000094FF0070B0DF1140A39E000BFC0
:107340009DF81B00000734D5CDF80490CDF800B0AF
:10735000CDF80890CDE9039A434600220B9803F03C
:10736000F3FB60BB05B3BDF814103A88214428191B
:10737000091D8A4230D3BDF81E2020F8022BBDF82B
:10738000142020F8022BCDE900B9CDE90290CDF808
:1073900010A0BDF81E10BDF8143000220B9803F0A9
:1073A000D3FB08B103209EE7BDF814002044001D64
:1073B00084B206A803F021FB20B10A2806D0FEF70C
:1073C00056F990E7BDF81E10B142B9D934B17DB17C
:1073D0003888A11C884203D20C2084E7052082E76C
:1073E00022462946404603F0E6FC01462819018062
:1073F000A41C3C80002076E710B5044609F012F882
:1074000008B1102010BD8848C0892080002010BD20
:10741000F0B58BB00D460646142103A80FF033FFDC
:1074200001208DF80C008DF8100000208DF811005F
:10743000ADF814503046F9F77FFF48B100782228A4
:1074400012D30421304605F0F3FA040005D103E01D
:1074500043F202000BB0F0BDFFDF04F11400074659
:1074600002F077F9800601D40820F3E7207C02219E
:1074700040F00100207409A80094CDE90110072212
:1074800003A930466368FEF7E9FA20B1217C21F0B8
:1074900001012174DEE729463046FDF7A5FE08A963
:1074A000384602F045F900B1FFDFBDF82040172C47
:1074B00001D2172000E02046A84201D92C4602E064
:1074C000172C00D2172421463046FFF724FB214613
:1074D0003046FDF7ABFB0020BCE7F8B51C4615466F
:1074E0000E46069F05F0D6FB2346FF1DBCB2314673
:1074F0002A46009404F0DFFFF8BD70B50C4605463F
:107500000E2120460FF09DFE002020802DB1012D80
:1075100001D0FFDF76E4062000E00520A07171E4D1
:1075200010B548800878134620F00F00001D20F0A9
:10753000F00080300C4608701422194604F108004F
:107540000FF045FE00F04DFC3748046010BD2DE9FA
:10755000F047DFF8D890491D064621F00301174691
:107560000C46D9F8000005F0BCF8050000D1FFDF9B
:107570004FF000083560A5F800802146D9F80000DA
:1075800005F0AFF8050000D1FFDF7560A5F80080B9
:107590007FB104FB07F1091D0BD0D9F8000005F0FD
:1075A000A0F8040000D1FFDFB460C4F80080BDE89B
:1075B000F087C6F80880FAE72DE9F0411746491D23
:1075C00021F00302194D064601681446286805F0AB
:1075D000B3F822467168286805F0AEF83FB104FBA5
:1075E00007F2121D03D0B168286805F0A5F8042041
:1075F00005F0CAF90446042005F0CEF9201A012846
:1076000004D12868BDE8F04105F060B8BDE8F0811C
:1076100010B50C4603F0B1F900B1FFDF2046BDE81C
:107620001040FEF724B800000802002014000020DB
:1076300038B582880A800C46C188121D90B26A460D
:1076400004F0A2FBBDF80000032800D30320C1B260
:10765000208800F06BFF38BD38B582880A800C4660
:10766000C188121D90B26A4604F08EFBBDF800007E
:10767000022800D30220C1B2208800F057FF401C2E
:10768000C0B238BD2DE9FF5F0C46F94981462C2276
:10769000D1E90201CDE9020109F1030020F0030163
:1076A000C91C21F0030100916846114604F0FBFF5C
:1076B000F04E002C02D1F049009A8A6000990144F2
:1076C0000091357E05F1010504D1E8B206F0D8FE3F
:1076D00000B1FFDF00984FF0000B00EB0510C01C5D
:1076E00020F00301009144B9327A81F800B0B08BE8
:1076F00080B202F0CAFF00B1FFDF0098F1690844D0
:1077000000902146684600F0D4FE0098C01C20F08E
:1077100003000090317A04B1002005F0AEF8009922
:10772000084400902146684600F00BFF00273D46C4
:10773000B24696F801800CE0284600F09DFE064611
:1077400081788088FDF709FB71786D1C00FB01775B
:10775000EDB24545F0D10098C01C20F00300009028
:1077600004B100203946FDF703FB009900270844C7
:1077700000903D469AF801800CE0284600F07CFE1F
:107780000646C1788088FEF770FC71786D1C00FB9E
:107790000177EDB24545F0D10098C01C20F0030000
:1077A000009004B100203946FEF768FC00990844B7
:1077B00000210090084603F046FC0098C01D20F010
:1077C00007020092F4BBAD490020FBF70DFC03F06B
:1077D000BDFAA9484178C06803F0F1FEA648103010
:1077E000C0788DF8040010B1012804D005E0012014
:1077F0008DF8040001E08DF804B001A803F0EEFF5D
:10780000FAF7A6FA9B4802AA00210C30FAF7FAFE12
:1078100000B1FFDF9AF81900FEF799FF00B1FFDF12
:1078200094484FF4F6713C300FF02DFD914804213F
:107830003C3080F8E91180F8EA11062180F8EB115C
:10784000032100E000E00171009904B0A1EB090000
:10785000BDE8F09F70B5874C06463C34207804EBB9
:107860004015E078083590B9A01990F8E801002893
:107870000ED0A0780F2800D3FFDF202128460FF07C
:1078800002FD687866F3020068700120E070284607
:1078900070BD2DE9F04105460C4600270078052112
:1078A00090463E46B1EB101F00D0FFDF287A58B15A
:1078B00001280FD0FFDF00BFA8F800600CB12780BF
:1078C00066800020BDE8F0810127092674B1688830
:1078D000A08008E00227142644B16888A0802869A7
:1078E000E060A88A2082287B2072E5E7A8F8006083
:1078F000E7E710B5604C6068C11D21F007018142C7
:1079000000D0FFDF5B48012200210270417002724B
:107910000173052181821F21C182427358A1016137
:107920000A21017642764FF4B061C161616841601D
:1079300010BD30B5504C1568636808339D4202D2C3
:107940000420136030BD4B4B5D785A6802EBC502D2
:10795000107051700320D080172090800120D070CB
:1079600090705878401C5870606808306060002043
:1079700030BD70B506463F480024457807E02046F4
:1079800000F07AFD0178B14204D0641CE4B2AC424C
:10799000F5D1002070BDF7B5064608780C46F8B161
:1079A000FFF7E7FF0546202E06D0212E1AD0222E03
:1079B00018D0232E14D110E000F069FD0DB16978C4
:1079C00000E00021401A81B2A0780144FF2907D8C5
:1079D00030B1A088022805D202E06088172801D2C1
:1079E0000720FEBD65B9207802AA0121FFF7A1FF9B
:1079F0000028F6D12078FFF7BCFF050000D1FFDF9B
:107A0000202E08D0212E0ED0222E0FD0232E07D0CC
:107A1000FFDF0020FEBDA0786870A088E880F8E74E
:107A20006088A880F5E7A078A870F2E7A078E870F1
:107A3000EFE71E2835D00EDC0C282ED008DC0928F4
:107A400031D2DFE800F0133021303028282426001E
:107A5000122828D125E0302823D024DDA0F13A00D7
:107A6000032820D2DFE800F01B1F1500002070471C
:107A7000E8750100440200201C00002000000020E6
:107A80006E5246357800000043F20200EFE7042012
:107A9000EDE70D20EBE70F20E9E70820E7E71120ED
:107AA000E5E70720E3E70320E1E710B5007800F001
:107AB000010004F064F9BDE81040BAE70EB50178A2
:107AC00001F001018DF80010417801F001018DF8FD
:107AD00001100178C1F340018DF802104178C1F323
:107AE00040018DF80310017889088DF80410417861
:107AF00089088DF8051081788DF80610C1788DF809
:107B0000071000798DF80800684603F080FEFFF743
:107B100090FF0EBD2DE9F84FDFF8F883FE4C0026EC
:107B20001FE0012000F050FD0120FFF793FE054605
:107B30002C214746D8F8080004F0D3FD686000B94E
:107B4000FFDF686803F065FDA8B12846F9F7ADFDD1
:107B5000284600F03FFD20B92C226968B86804F07F
:107B6000EBFD94F9E9010428DBDA022004F00CFFB4
:107B700007460025A5E02C226968D8F8080004F023
:107B8000DBFDF2E7B8F802104046491C89B2A8F8BC
:107B90000210B94201D3002141800221B8F802004D
:107BA00004F046FF002864D0B8F80200694604F0EB
:107BB0006AF8FFF73EFF00B1FFDF9DF8000078B1E3
:107BC000B8F8020005F078F85FEA000900D1FFDF9D
:107BD000484604F004FB18B1B8F8020003F0F8FBC3
:107BE000B8F8020005F056F85FEA000900D1FFDF9F
:107BF000484604F0ECFAE0BB0321B8F8020004F0B8
:107C000017FF5FEA000B47D1FFDF45E0DBF80C0010
:107C100010B10078FF2849D0022000F0D5FC0220E6
:107C2000FFF718FE8246484604F0DDFBCAF8040060
:107C300000B9FFDFDAF8040004F0A5FC0021009091
:107C40000170B8F802105046AAF8021003F099FA31
:107C5000484604F09AFC00B9FFDF504600F0BAFC39
:107C600018B99AF80100000704D50099CBF80C1058
:107C700012E024E0DBF80C0038B10178491C11F067
:107C8000FF01017008D1FFDF06E0002211464846DF
:107C900000F0F0FB00B9FFDF94F9EA01022805DBF0
:107CA000B8F8020003F048FA0028AFD194F9E901CE
:107CB000042804DB484604F0CCFC00B101266D1C0E
:107CC000EDB2BD4204D294F9EA010228BFF65AAFE0
:107CD000002E7FF424AFBDE8F84F032000F074BC01
:107CE00010B58C4CE06008682061AFF2D71000F04E
:107CF000DCFE607010BD884800213C38017085486A
:107D0000017086494160B2E670B505464FF080507B
:107D10000C46D0F8A410491C05D1D0F8A810C943CE
:107D20000904090C0BD050F8A01F01F001012970C3
:107D3000416821608068A080287830B970BD062134
:107D4000204608F024F801202870607940F0C00037
:107D5000607170BD70B54FF080540D46D4F880103E
:107D6000491C0BD1D4F88410491C07D1D4F88810D1
:107D7000491C03D1D4F88C10491C0CD0D4F88010C5
:107D80000160D4F884104160D4F888108160D4F880
:107D90008C10C16002E0102107F0F9FFD4F89000C8
:107DA000401C0BD1D4F89400401C07D1D4F89800A3
:107DB000401C03D1D4F89C00401C09D054F8900F0B
:107DC000286060686860A068A860E068E86070BDCE
:107DD0002846BDE87040102107F0D9BF4E48007911
:107DE00038E570B54C4CE07830B3207804EB4010A7
:107DF000407A00F00700204490F9E801002800DCF8
:107E0000FFDF2078002504EB4010407A00F00700E7
:107E1000011991F8E801401E81F8E8012078401C22
:107E2000C0B220700F2800D12570A078401CA0702F
:107E300007F0E8FEE57070BDFFDF70BD3EB505469A
:107E4000032104F0F5FD0446284604F023FF05460F
:107E500004B9FFDFE06818B10078FF2800D1FFDF28
:107E600001AA6946284600F005FB60B9FFDF0AE079
:107E7000002202A9284600F0FDFA00B9FFDF9DF8B4
:107E8000080000B1FFDF9DF80000411E8DF80010D2
:107E9000EED2E0680199884201D10020E0603EBD49
:107EA00070B50546A0F57F400C46FF3800D1FFDFD6
:107EB000012C01D0FFDF70BDFFF790FF040000D15F
:107EC000FFDF207820F00F00401D20F0F000503040
:107ED000207065800020207201202073BDE8704072
:107EE0007FE72DE9F04116460D460746FFF776FF7E
:107EF000040000D1FFDF207820F00F00401D20F0AB
:107F0000F0005030207067800120207228682061C6
:107F1000A88805E01C00002080020020600D0020E1
:107F2000A0822673BDE8F0415BE77FB5FFF721FD36
:107F3000040000D1FFDF02A92046FFF779FB0546C8
:107F400003A92046FFF788FB8DF800508DF801004B
:107F5000BDF80800001DADF80200BDF80C00001DC2
:107F6000ADF80400E088ADF80600684603F0F1FEC5
:107F7000002800D0FFDF7FBD2DE9F04FFD4E044605
:107F80008BB030784FF0000A18B108200BB0BDE874
:107F9000F08F204608F046FA08B11020F6E7F64DBB
:107FA000287808B9FFF7A5FC2D7A00F070FAA842EE
:107FB00008D2281AC1B222460020FFF7BAFC5FEAB5
:107FC000000AE3D1EB484FF00009C84641684F462C
:107FD000C91C21F003014160E748CDF80890CDF8B5
:107FE00000904E464D4690F801B00EE0284600F055
:107FF00043FA4178827809F10109884412FB01773C
:10800000C07810FB01666D1CEDB25D45EED10098A5
:10801000029900EB890000EBC80000EB8700D64D09
:1080200000EB860000EBC100297ADFF8488300EB03
:10803000C100D8F80410471801213846FFF722FB89
:10804000064621683844884202D8B6F5803F15D3E9
:1080500020600020FFF78DFC04000DD004F10B0020
:10806000D8F8041020F003004646884200D0FFDF15
:108070006878401E68707460042087E700213846E5
:10808000FFF700FB0546AE4200D0FFDFE919C8F854
:10809000041021604FF6FF71A8F80210012188F842
:1080A0000010504672E72DE9F0410446B1481746EA
:1080B0000D46007808B1082004E4084608F08CF961
:1080C00008B11020F8E7AC4E307808B9FFF711FC82
:1080D000601E1E2807D8012C38D12878FE2835D8F4
:1080E00030760020E8E7A4F120001F2805D8E0B290
:1080F0003A462946BDE8F0414DE4A4F140004FF076
:1081000000081F281AD8402C02D0412C1ED110E0A4
:108110002C78FF2C08D806F097FB074607F02BFDBC
:10812000381A401EA04201DA1220C5E728783072C2
:1081300024E02846BDE8F04100F074BAA4F1A000A4
:108140001F2803D8A02C03D0A12C06D00720B3E70A
:10815000287800F00100707610E029680920F829DD
:10816000AAD38A07A8D1727B02F00302012A04D1A4
:10817000F28AD73293B28B429ED8F16140469BE798
:108180002DE9F04781460E46084608F04BF948B9FC
:10819000484608F065F928B909F1030020F0030109
:1081A000494502D01020BDE8F08773484FF0000A1F
:1081B0003C30817869B14178804600EB4114083445
:1081C000378832460021204600F012FA050004D01C
:1081D00027E0A6F800A00520E5E7B9F1000F24D0BC
:1081E0003088B84201D90C251FE0607800F00705FF
:1081F000284600F0E9F908EB0507324697F8E80150
:108200004946401C87F8E801204607F5F47700F05E
:10821000EFF905463878401E3870032000F0D4F995
:108220002DB10C2D01D0A6F800A02846BBE7607840
:10823000504E00F00701012923D002290CD0032958
:1082400033D0FFDF98F801104046491CC9B288F8C6
:1082500001100F2934D035E0616821B1000702D444
:108260006088FFF7EBFD98F8EA014746012802D144
:10827000707800F039FC97F9EA010428E2DBFFDFAF
:10828000E0E7616819B12C22B06804F055FA98F85B
:10829000E9014746032802D1707800F025FC97F9E0
:1082A000E9010428CEDBFFDFCCE7C00602D56088F9
:1082B000FFF7C4FD98F9EB010628C3DBFFDFC1E738
:1082C00080F801A08178491E8170617801F0070172
:1082D00001EB080090F8E811491C80F8E811A4E7C8
:1082E00070B50D46044608F077F818B9284608F02E
:1082F00099F808B1102070BD29462046BDE87040AD
:1083000006F0F5B870B5044615460E46084608F066
:1083100063F818B9284608F085F808B1102070BD38
:10832000022C03D0102C01D0092070BD2A46314602
:10833000204606F0FFF80028F7D0052070BD70B584
:1083400014460D46064608F047F838B9284608F0A6
:1083500069F818B9204608F083F808B1102070BDFC
:1083600022462946304606F004F90028F7D00720B7
:1083700070BD00001C000020440200203EB50446F1
:1083800008F050F808B110203EBD684603F0E1F94E
:10839000FFF74FFB0028F7D19DF806002070BDF8CD
:1083A00008006080BDF80A00A08000203EBD70B5C6
:1083B00005460C46084608F053F820B93CB1206841
:1083C00008F030F808B11020D2E7A08828B1214683
:1083D0002846BDE87040FDF7C7BE0920C8E770B564
:1083E00004460D46084607F0F7FF30B9601E1E2808
:1083F00014D8284607F0F0FF08B11020B8E7022C87
:1084000001D90720B4E704B9FFDFAC4800EB8400D2
:1084100050F8041C2846BDE870400847A4F120002D
:108420001F28EED829462046BDE87040F9F71FBC4A
:1084300070B504460D46084607F0F4FF30B9601EDB
:108440001E280DD8284607F0C7FF08B110208FE777
:10845000012C01D0022C01D1062089E7072087E7F3
:10846000A4F120001F28F9D829462046BDE8704015
:10847000F9F741BC03F07ABE30B5914D04466878F7
:10848000A04200D8FFDF686800EBC40030BD70B5C3
:108490008B4800252C46467807E02046FFF7ECFF86
:1084A0004078641C2844C5B2E4B2B442F5D12846F1
:1084B0005EE72DE9F041054681480C46027A501CE2
:1084C000104410448618761CFF2E00D9FFDF286860
:1084D000F6B2C01C20F003022A6014BB7848334671
:1084E0000721203007F052FE002407E0072C10D2AD
:1084F000DFE804F004060408080A0400714804E0F8
:10850000714802E0714800E0714807F05FFE0746DD
:1085100000E0FFDFA74200D0FFDF641CE4B2072CBD
:10852000E4D3286800EB06102860C5E5021D51431E
:10853000452900D245210844C01CB0FBF2F0C0B26E
:1085400070472DE9FC5F06465D484FF000088B46FA
:108550004746444690F8019022E02046FFF78CFF02
:10856000050000D1FFDF687869463844C7B2284665
:10857000FFF75EF8824601A92846FFF76DF803462B
:10858000BDF804005246001D81B2BDF80000001D78
:1085900080B204F0CBFA6A78641C00FB0288E4B273
:1085A0004C45DAD13068C01C20F003003060BBF1CC
:1085B000000F00D000204246394604F0C5FA316869
:1085C00008443060BDE8FC9F3D493C310871002003
:1085D000C87070473A493C31CA782AB10A7801EB31
:1085E00042110831814201D00120704700207047BC
:1085F0002DE9F04106460078154600F00F040020F2
:108600001080601E0F46052800D3FFDF2B482A4646
:10861000103000EB8400394650F8043C3046BDE889
:10862000F041184738B50446407800F003000128AF
:1086300003D002280BD0072038BD606858B107F07E
:1086400018FFD0B9606807F00BFF20B915E060682B
:1086500007F0C2FE88B969462046FBF719FB0028DF
:10866000EAD1607800F00300022808D19DF80000EC
:1086700028B1606807F0F4FE08B1102038BD6189A8
:10868000F8290DD8208988420AD8607800F00302C2
:108690000B48012A06D1D731C26989B28A4201D278
:1086A000092038BD94E80E0000F10C0585E80E00A5
:1086B0000AB900218182002038BD0000E875010060
:1086C000440200207B1B000091B00000C98B000019
:1086D00073E2000010B5EFF3108000F0010472B6F1
:1086E000E7484178491C41704078012801D107F0E2
:1086F000A9FA002C00D162B610BD70B5E04CE0784C
:1087000048B90125E570FFF7E5FF07F0A3FA20B1AE
:10871000002007F07EFA002070BD4FF080406571A8
:10872000C0F80453F7E770B5EFF3108000F00105CF
:1087300072B6D34C607800B9FFDF6078401E60707D
:10874000607808B907F082FA002D00D162B670BDDA
:10875000CB4810B5C17821B100214171C170FFF73C
:10876000E2FF002010BD10B5044607F073FAC449BB
:10877000C978084000D001202060002010BD2DE9FC
:10878000F05FDFF8FC924278817889F806200026B5
:1087900089F80710074689F808600078354620B147
:1087A00001280FD002280FD0FFDF07F060FA98B140
:1087B00007F064FAB0420FD1304607F063FA0028A0
:1087C000FAD047E00126F0E7FFF784FF07F042FA0E
:1087D0000028FBD00226E8E701208407E060C4F807
:1087E0000451A8490E600107D1F84412A54AC1F30B
:1087F000423124321160A349343108604FF0020B3A
:10880000C4F804B3A060DFF880A2DAF80010C9430E
:1088100041F3001101F10108DAF8001041F01001F4
:10882000CAF8001000E020BFD4F804010028FAD0F4
:10883000304607F027FA0028FAD0B8F1000F05D12A
:10884000DAF8001021F01001CAF80010C4F808B3DB
:10885000C4F8045199F807004C4670B1387860B9F3
:1088600007F0F8F9074607F059FB6FF0004117B120
:10887000C4E9031001E0C4E9030116B12571BDE8A4
:10888000F09F0127BE0727714FF01908C6F808832B
:10889000B761C6F80051C6F80C51C6F8105107F080
:1088A000D9F910B1A770376100E02770FFF712FF08
:1088B0007449A07920310860C6F80483DFE770B5F9
:1088C000050000D1FFDF4FF080424FF0FF30C2F8CB
:1088D00008030021C2F80011C2F80411C2F80C11FB
:1088E000C2F81011664C617007F0BAF910B101209E
:1088F000E07060702846BDE8704040E72DE9F04721
:108900004FF08044D4F8080110B14FF0010801E0A5
:108910004FF00008D4F8000100B101208146D4F8DE
:10892000040108B1012600E00026D4F80C0100B1D2
:1089300001208246D4F8100108B1012700E0002789
:1089400048EA090126EA010020EA0A00B84300D0FB
:10895000FFDF0025B8F1000F04D0C4F80851012052
:1089600007F057F95FEA0900DFF814814FF00109B9
:1089700013D0C4F8005198F8050020B188F80550CC
:10898000002007F046F998F8000030B107F062F9CE
:1089900018B188F80290C4F810900EB1C4F80451D0
:1089A000BAF1000F0CD0C4F80C5198F802004646FA
:1089B00000B9FFDFB5703570C4F81490FFF7B3FE4F
:1089C000002F09D0C4F8105198F80400002803D0F3
:1089D000BDE8F04700F01EB8BDE8F08770B5284D3F
:1089E000E87808B907F032F901208407A061A87877
:1089F00058B100BFD4F80C0120B9002007F042F9AB
:108A00000028F7D10020C4F80C014FF0FF30C4F863
:108A1000080370BD2DE9F041194C4FF08047012546
:108A2000E079F0B1012803D0217A401E814218DAA2
:108A300007F010F9064607F071FAE179012902D929
:108A4000217A491C21720EB1216900E0E168411AC6
:108A5000022902DA11F1020F0BDC0EB1206100E0F5
:108A6000E060FFF737FE07F0F5F828B13D61A5702B
:108A700003E07D61BDE8F081257000202072F9E7F8
:108A8000340000201805004010ED00E04FF0E02118
:108A90004FF00070C1F88001C1F88002334B802292
:108AA00083F80024C1F80001704700B50246042095
:108AB0002F4903E001EBC0031B792BB1401EC0B26C
:108AC000F8D2FFDFFF2000BD41F8302001EBC001EC
:108AD00000224A718A7101220A7100BD244A0021D4
:108AE00002EBC0000171704710B50446042800D3A2
:108AF000FFDF1F4800EBC4042079012800D0FFDF0E
:108B00006079A179401CC0B2814200D060714FF001
:108B1000E0214FF00070C1F8000210BD70B513489D
:108B2000042590F80004124E4009124C042818D075
:108B3000FFDF16E0217806EBC1000279012A08D197
:108B4000427983799A4204D04279827156F8310091
:108B500080472078401CC0B22070042801D3002038
:108B600020706D1EEDB2E5D270BD000019E000E08E
:108B70006C040020480000200F4A12680D498A4208
:108B80000CD118470C4A12680A4B9A4206D101B51B
:108B900007F096F9FAF726FABDE801400749096897
:108BA0000958084706480749054A064B7047000020
:108BB00000000000BEBAFECAA4000020040000208D
:108BC000E00C0020E00C002070B50C46054600F0DB
:108BD00043FB21462846BDE8704001F026BC00005A
:108BE000F8B51D46DDE906470E000AD004F064F82A
:108BF0002346FF1DBCB231462A46009403F08FFC89
:108C0000F8BDD019224619460EF09CFA2046F8BD50
:108C100070B50D46044610210EF013FB2581172078
:108C20006081A07B40F00A00A07370BD4FF6FF7218
:108C30000A800146032007F083BB70470089704714
:108C4000827BD30701D1920703D48089088000205A
:108C5000704705207047827B920700D5818170475D
:108C600001460020098841F6FE52114200D0012041
:108C7000704700B50346807BC00701D0052000BDCA
:108C800059811846FFF7ECFFC00703D0987B40F0EE
:108C900004009873987B40F001009873002000BD99
:108CA000827B520700D509B1408970471720704771
:108CB000827B61F3C302827370472DE9FC5F0E462D
:108CC000044601789646012000FA01F14DF6FF5264
:108CD00001EA020962684FF6FF7B1188594506D008
:108CE000B9F1000F06D041F6FE55294202D001200D
:108CF000BDE8FC9F41EA090111801D0014D04FF02E
:108D0000000C85F800C023780521032267464FF048
:108D1000020A0E2B74D2DFE803F0F809252F476210
:108D20006974479092B3D0D70420E1E76168208945
:108D30008B7B9B077DD5172848D30B89834245D36E
:108D40008989172901D3814240D185F800A0A5F86F
:108D500001003280616888816068817B21F00201B6
:108D60008173C5E0042028702089A5F8010060897E
:108D7000A5F803003180BBE0208A3188C01D1FFAAE
:108D800080F8414522D3062028702089A5F80100EB
:108D90006089A5F80300A089A5F805000721208AAD
:108DA000CDE9000163693EE0082B10D0082028704F
:108DB0002089A5F801006089A5F8030031806A1DAB
:108DC000694604F10C0005F0D4FB10B15FE01020FF
:108DD000EDE730889DF800100844308088E00A20D4
:108DE00028702089A5F80100328045E00C20287009
:108DF0002089A5F801006089A5F8030031803BE0D7
:108E000083E02189338800EB41021FFA82F8434551
:108E10003DD3B8F1050F3AD30E222A700BEA410177
:108E2000CDE90010E36860882A467146FFF7D8FE56
:108E300000E04DE0A6F800805AE0402028706089EC
:108E40003188C01C1FFA80F8414520D3287871462C
:108E500020F03F00123028702089A5F801006089B9
:108E6000CDE9000260882A46E368FFF7B9FEA6F85C
:108E70000080287840063BD461682089888037E0EC
:108E8000A0893288401D1FFA80F8424501D204278C
:108E90003EE0162028702089A5F801006089A5F819
:108EA0000300A089CDE9000160882A467146236944
:108EB000FFF796FEA6F80080DEE718202870207ADB
:108EC0006870A6F800A013E061680A88920401D4D3
:108ED00005271DE0C9882289914201D0062717E0A5
:108EE0001E21297030806068018821F400510180C2
:108EF000B9F1000F0CD0618878230022032007F01D
:108F000075F961682078887007E0A6F800C003272B
:108F10006068018821EA090101803846E8E62DE908
:108F2000FF4F85B01746129C0D001E461CD03078AE
:108F3000C10703D000F03F00192801D9012100E04A
:108F400000212046FFF7ACFEA8420DD32088A0F5F3
:108F50007F41FF3908D03078410601D4000605D59D
:108F6000082009B0BDE8F08F0720FAE700208DF84F
:108F700000008DF8010030786B1E00F03F0C0121DD
:108F8000A81E4FF0050A4FF002094FF0030B9AB2EA
:108F9000BCF1200F75D2DFE80CF08B10745E7468A2
:108FA000748C749C74B674BB74C974D574E2747494
:108FB00074F274F074EF74EE748B052D78D18DF823
:108FC0000090A0788DF804007088ADF80600307924
:108FD0008DF80100707800F03F000C2829D00ADCE1
:108FE000A0F10200092863D2DFE800F012621562E6
:108FF0001A621D622000122824D004DC0E281BD027
:109000001028DBD11BE016281FD01828D6D11FE06E
:109010002078800701E020784007002848DAEFE058
:1090200020780007F9E72078C006F6E72078800668
:10903000F3E720784006F0E720780006EDE7208887
:10904000C005EAE720884005E7E720880005E4E757
:109050002088C004E1E72078800729D5032D27D197
:109060008DF800B0B6F8010082E0217849071FD5DD
:10907000062D1DD381B27078012803D0022817D1A4
:1090800002E0CAE0022000E0102004228DF8002057
:1090900072788DF80420801CB1FBF0F2ADF8062048
:1090A00092B242438A4203D10397ADF80890A7E0F9
:1090B0007AE02078000777D598B282088DF800A072
:1090C000ADF80420B0EB820F6ED10297ADF8061018
:1090D00096E02178C90667D5022D65D381B20620B6
:1090E0008DF80000707802285ED300BFB1FBF0F26B
:1090F0008DF80400ADF8062092B242438A4253D163
:10910000ADF808907BE0207880064DD5072003E07D
:10911000207840067FD508208DF80000A088ADF8A3
:109120000400ADF80620ADF8081068E020780006CD
:1091300071D50920ADF804208DF80000ADF80610B7
:1091400002975DE02188C90565D5022D63D381B200
:109150000A208DF80000707804285CD3C6E72088C8
:10916000400558D5012D56D10B208DF80000A08860
:10917000ADF8040044E021E026E016E0FFE7208897
:10918000000548D5052D46D30C208DF80000A08899
:10919000ADF80400B6F803006D1FADF80850ADF847
:1091A0000600ADF80AA02AE035E02088C00432D5D8
:1091B000012D30D10D208DF8000021E020888004A1
:1091C00029D4B6F80100E080A07B000723D5032D49
:1091D00021D3307800F03F001B2818D00F208DF8E5
:1091E0000000208840F40050A4F80000B6F8010008
:1091F000ADF80400ED1EADF80650ADF808B00397C9
:1092000069460598FBF721FD050008D016E00E2001
:109210008DF80000EAE7072510E008250EE0307819
:1092200000F03F001B2809D01D2807D00320059916
:1092300007F086F8208800F400502080A07B4007CB
:1092400008D52046FFF70CFDC00703D1A07B20F016
:109250000400A073284684E61FB5032806D1012028
:109260008DF8000088B26946FBF7EFFC1FBD0000D7
:10927000F8B51D46DDE906470E000AD003F01CFDD7
:109280002346FF1DBCB231462A46009403F047F93D
:10929000F8BDD019224619460DF054FF2046F8BDFE
:1092A0002DE9FF4F8DB09B46DDE91B57DDF87CA013
:1092B0000C46082B05D0E06901F000F950B11020F0
:1092C000D2E02888092140F0100028808AF8001098
:1092D000022617E0E16901208871E2694FF420510C
:1092E0009180E1698872E06942F601010181E069DB
:1092F000002181732888112140F0200028808AF8FD
:109300000010042638780A900A2038704FF00209BD
:1093100004F118004D460C9001F093FBB04681E03B
:10932000BBF1100F0ED1022D0CD0A9EB0800801C50
:1093300080B20221CDE9001005AB52461E990D986E
:10934000FFF796FFBDF816101A98814203D9F74827
:1093500000790F9004E003D10A9808B138702FE02B
:109360004FF00201CDE900190DF1160352461E9986
:109370000D98FFF77DFF1D980088401B801B83B26E
:10938000C6F1FF00984200D203461E990BA8D9B13E
:109390005FF00002DDF878C0CDE9032009EB06019B
:1093A00089B2CDE901C10F980090BDF816100022D6
:1093B0000D9801F0C9FB387070B1C0B2832807D096
:1093C000BDF8160020833AE00AEB09018A19E1E7AB
:1093D000022011B0BDE8F08FBDF82C00811901F01A
:1093E000FF08022D0DD09AF80120424506D1BDF8A4
:1093F0002010814207D0B8F1FF0F04D09AF8018005
:109400001FE08AF80180C94800680178052902D167
:10941000BDF81610818009EB08001FFA80F905EBF2
:10942000080085B2DDE90C1005AB0F9A01F00CFBCA
:1094300028B91D980088411B4145BFF671AF022D28
:1094400013D0BBF1100F0CD1A9EB0800801C81B226
:109450000220CDE9000105AB52461E990D98FFF799
:1094600007FF1D980580002038700020B1E72DE926
:10947000F8439C46089E13460027B26B9AB3491FD7
:109480008CB2F18FA1F57F45FF3D05D05518AD8811
:109490002944891D8DB200E000252919B6F83C80C9
:1094A0000831414520D82A44BCF8011022F8021B9B
:1094B000BCF8031022F8021B984622F8024B914692
:1094C00003F0E8FB4FF00C0C41464A462346CDF82A
:1094D00000C002F0F0FFF587B16B00202944A41D05
:1094E0002144088003E001E0092700E08327384693
:1094F000BDE8F88310B50B88848F9C420CD9846B2F
:10950000E018048844B1848824F40044A41D234452
:109510000B801060002010BD0A2010BD2DE9F0471F
:109520008AB00025904689468246ADF81850072734
:109530004BE0059806888088000446D4A8F80060AF
:1095400007A8019500970295CDE903504FF40073E9
:1095500000223146504601F0F7FA04003CD1BDF834
:109560001800ADF82000059804888188B44216D10F
:109570000A0414D401950295039521F40041009743
:10958000049541F4804342882146504601F0B2F8E8
:1095900004000BD10598818841F40041818005AA1F
:1095A00008A94846FFF7A6FF0400DCD000970598FD
:1095B00002950195039504950188BDF81C300022A1
:1095C000504601F097F80A2C06D105AA06A948468C
:1095D000FFF790FF0400ACD0ADF8185004E00598F8
:1095E000818821F40041818005AA06A94846FFF739
:1095F00081FF0028F3D00A2C03D020460AB0BDE832
:10960000F0870020FAE710B50C46896B86B051B19F
:109610000C218DF80010A18FADF80810A16B0191FD
:109620006946FCF7C3FA00204FF6FF71A063E1879B
:10963000A08706B010BD2DE9F0410D460746896BA5
:109640000020069E1446002911D0012B0FD132466E
:1096500029463846FFF762FF002808D1002C06D0C3
:10966000324629463846BDE8F04100F036BFBDE835
:10967000F0812DE9FC411446DDE9087C0E46DDE968
:109680000A15521DBCF800E092B2964502D207209E
:10969000BDE8FC81ACF8002017222A70A5F8016013
:1096A000A5F803300522CDE900423B462A46FFF7E4
:1096B000DFFD0020ECE770B50C461546482120463A
:1096C0000DF0E1FD04F1080044F81C0F00204FF6F6
:1096D000FF71E06161842084A5841720E08494F800
:1096E0002A0040F00A0084F82A0070BD4FF6FF728D
:1096F0000A800146042006F023BE30B585B00C4632
:109700000546FFF780FFA18E284629B101218DF87B
:1097100000106946FCF74AFA0020E06220636063AB
:1097200005B030BDB0F84000704700004C0000208C
:1097300090F84620920703D4408808800020F3E781
:109740000620F1E790F846209207EDD5A0F84410E6
:10975000EAE70146002009880A0700D5012011F038
:10976000F00F01D040F00200CA0501D540F004001E
:109770008A0501D540F008004A0501D540F01000E7
:109780000905D1D540F02000CEE700B5034690F89A
:109790004600C00701D0062000BDA3F842101846BD
:1097A000FFF7D7FF10F03E0F05D093F8460040F0CA
:1097B000040083F8460013F8460F40F001001870CB
:1097C000002000BD90F84620520700D511B1B0F836
:1097D0004200A9E71720A7E710F8462F61F3C3025C
:1097E0000270A1E72DE9FF4F9BB00E00DDE92B349D
:1097F000DDE92978289D24D02878C10703D000F01E
:109800003F00192801D9012100E000212046FFF77F
:10981000D9FFB04215D32878410600F03F010CD49F
:109820001E290CD0218811F47F6F0AD13A8842B1E9
:10983000A1F57F42FF3A04D001E0122901D10006D0
:1098400002D504201FB0C5E5F9491D984FF0000A64
:1098500008718DF818A08DF83CA00FAA0A60ADF829
:109860001CA0ADF850A02978994601F03F02701F66
:109870005B1C04F1180C4FF0060E4FF0040BCDF8F2
:1098800058C01F2A7ED2DFE802F07D7D107D267D44
:10989000AC7DF47DF37DF27DF17DF47DF07D7D7D09
:1098A000EF7DEE7D7D7D7D7DED0094F84610B5F871
:1098B0000100890701D5032E02D08DF818B022E3EC
:1098C0004FF40061ADF85010608003218DF83C101A
:1098D000ADF84000D8E2052EEFD1B5F801002083A5
:1098E000ADF81C00B5F80310618308B1884201D9B6
:1098F00001207FE10020A07220814FF6FF702084BC
:10990000169801F09EF8052089F8000002200290C8
:1099100083460AAB1D9A16991B9801F095F890BBE7
:109920009DF82E00012804D0022089F801001020A3
:1099300003E0012089F8010002200590002203A91C
:109940000BA804F016FEE8BB9DF80C0005998142B7
:109950003DD13A88801CA2EB0B01814237DB029992
:109960000220CDE900010DF12A034A4641461B9829
:10997000FFF77EFC02980BF1020B801C80B217AA45
:1099800003A901E0A0E228E002900BA804F0F1FD99
:1099900002999DF80C00CDE9000117AB4A464146FB
:1099A0001B98FFF765FC9DF80C100AAB0BEB010050
:1099B0001FFA80FB02981D9A084480B20290169903
:1099C0001B9800E003E001F03FF80028B6D0BBF19F
:1099D000020F02D0A7F800B053E20A208DF8180059
:1099E0004FE200210391072EFFF467AFB5F80100A5
:1099F0002083ADF81C00B5F80320628300283FF4F3
:109A000077AF90423FF674AF0120A072B5F8050021
:109A100020810020A073E06900F050FD78B9E16971
:109A200001208871E2694FF420519180E1698872C8
:109A3000E06942F601010181E06900218173F01FB4
:109A400020841E98606207206084169800F0F9FF59
:109A5000072089F800000120049002900020ADF852
:109A60002A0028E01DE2A3E13AE1EAE016E2AEE0D6
:109A700086E049E00298012814D0E0698079012845
:109A800003D1BDF82800ADF80E00049803ABCDE972
:109A900000B04A4641461B98FFF7EAFB0498001DB8
:109AA00080B20490BDF82A00ADF80C00ADF80E00AD
:109AB000059880B202900AAB1D9A16991B9800F087
:109AC000C3FF28B902983988001D05908142D1D280
:109AD0000298012881D0E0698079012805D0BDF87D
:109AE0002810A1F57F40FF3803D1BDF82800ADF85C
:109AF0000E00049803ABCDE900B04A4641461B98DE
:109B0000FFF7B6FB0298BBE1072E02D0152E7FF4BB
:109B1000D4AEB5F801102183ADF81C10B5F80320C0
:109B2000628300293FF4E4AE91423FF6E1AE0121A9
:109B3000A1724FF0000BA4F808B084F80EB0052E07
:109B400007D0C0B2691DE26904F0F4FC00287FF47C
:109B500044AF4FF6FF70208401A906AA14A8CDF8DF
:109B600000B081E885032878214600F03F031D9A64
:109B70001B98FFF795FB8246208BADF81C0080E117
:109B80000120032EC3D14021ADF85010B5F80110CB
:109B90002183ADF81C100AAAB8F1000F00D00023F1
:109BA000CDE9020304921D98CDF804800090388816
:109BB0000022401E83B21B9800F0C6FF8DF81800EB
:109BC00090BB0B2089F80000BDF8280037E04FF06B
:109BD000010C052E9BD18020ADF85000B5F8011086
:109BE0002183B5F803002084ADF81C10B0F5007F88
:109BF00003D907208DF8180085E140F47C422284C7
:109C00000CA8B8F1000F00D00023CDE90330CDE956
:109C1000018C1D9800903888401E83B21B9800F07C
:109C200093FF8DF8180028B18328A8D10220BDE049
:109C30004C0000200D2189F80010BDF83000401CB8
:109C40001EE1032E04D248067FF537AE002017E14F
:109C5000B5F80110ADF81C102878400602D58DF833
:109C60003CE002E007208DF83C004FF000080320A4
:109C7000CDE902081E9BCDF810801D980193A6F136
:109C8000030B00901FFA8BF342461B9800F032FD45
:109C90008DF818008DF83C80297849060DD520886C
:109CA000C00506D5208BBDF81C10884201D1C4F830
:109CB000248040468DF81880E2E0832801D14FF0DF
:109CC000020A4FF48070ADF85000BDF81C002083EC
:109CD000A4F820B01E986062032060841321CCE0B9
:109CE000052EFFF4EAADB5F80110ADF81C10A28FF7
:109CF00062B3A2F57F43FE3B28D008228DF83C20BA
:109D00004FF0000B0523CDE9023BDDF878C0CDF81C
:109D100010B01D9A80B2CDF804C040F40043009208
:109D2000B5F803201B9800F0E5FC8DF83CB04FF42B
:109D300000718DF81800ADF85010832810D0F8B1DC
:109D4000A18FA1F57F40FE3807D0DCE00B228DF813
:109D50003C204FF6FE72A287D2E7A4F83CB0D2E0D6
:109D600000942B4631461E9A1B98FFF780FB8DF816
:109D7000180008B183284BD1BDF81C00208355E79B
:109D800000942B4631461E9A1B98FFF770FB8DF806
:109D90001800E8BBE18FA06B0844811D8DE88203A9
:109DA0004388828801881B98FFF763FC824668E03D
:109DB00095F80180022E70D15FEA080002D0B8F158
:109DC000010F6AD109208DF83C0007A800908DF89A
:109DD00040804346002221461B98FFF72CFC8DF85B
:109DE00042004FF0000B8DF843B050B9B8F1010FAD
:109DF00012D0B8F1000F04D1A18FA1F57F40FF3838
:109E00000AD0A08F40B18DF83CB04FF4806000E0E4
:109E100037E0ADF850000DE00FA91B98FBF7C6FE28
:109E200082468DF83CB04FF48060ADF85000BAF136
:109E3000020F06D0FB480068C07928B18DF81800E1
:109E400027E0A4F8188044E0BAF1000F03D0812085
:109E50008DF818003DE007A80090434601222146F6
:109E60001B98FFF7E8FB8DF8180021461B98FFF7B9
:109E7000CAFB9DF8180020B9192189F800100120AB
:109E800038809DF83C0020B10FA91B98FBF78EFE8F
:109E90008246BAF1000F33D01BE018E08DF818E0CD
:109EA00031E02078000712D5012E10D10A208DF85C
:109EB0003C00E088ADF8400004201B9906F040FA11
:109EC0000820ADF85000C1E648067FF5F6AC4FF02B
:109ED000040A2088BDF8501008432080BDF85000C7
:109EE00080050BD5A18FA1F57F40FE3806D11E98C5
:109EF000E06228982063A6864FF0030A5046A1E44A
:109F00009DF8180078B1012089F80000297889F8B7
:109F10000110BDF81C10A9F802109DF8181089F85E
:109F20000410052038802088BDF850108843208018
:109F3000E4E72DE9FF4F8846087895B0012181407C
:109F40004FF20900249C0140ADF820102088DDF874
:109F50008890A0F57F424FF0000AFF3A02D029B165
:109F6000000703D5012019B0BDE8F08F239E4FF004
:109F7000000B0EA886F800B018995D460988ADF868
:109F80003410A8498DF81CB0179A0A718DF838B0B2
:109F9000086098F8000001283BD0022809D0032867
:109FA0006FD1307820F03F001D303070B8F80400D9
:109FB000E08098F800100320022904D1317821F0C4
:109FC0003F011B31317094F84610090759D505AB94
:109FD000B9F1000F13D0002102AA82E80B0007207C
:109FE000CDE90009BDF83400B8F80410C01E83B2F2
:109FF0000022159800F0A8FD0028D1D101E0F11C45
:10A00000EAE7B8F80400A6F80100BDF81400C01C87
:10A0100004E198F805108DF81C1098F80400012848
:10A0200006D04FF4007A02282CD00328B8D16CE176
:10A030002188B8F8080011F40061ADF8201020D094
:10A0400017281CD3B4F84010814218D3B4F8441038
:10A05000172901D3814212D1317821F03F01C91C67
:10A060003170A6F801000321ADF83410A4F84400C3
:10A0700094F8460020F0020084F8460065E10525CA
:10A080007EE177E1208808F1080700F4FE60ADF872
:10A09000200010F0F00F1BD010F0C00F03D0388854
:10A0A000228B9042EBD199B9B878C00710D0B9682B
:10A0B0000720CDE902B1CDF804B00090CDF810B082
:10A0C000FB88BA883988159800F014FB0028D6D18F
:10A0D0002398BDF82010401C80294ED006DC1029A2
:10A0E0000DD020290BD0402987D124E0B1F5807F05
:10A0F0006ED051457ED0B1F5806F97D1DEE0C806B5
:10A1000001D5082000E0102082460DA907AA0520ED
:10A11000CDE902218DF83800ADF83CB0CDE90496C8
:10A1200008A93888CDE90001534607222146159831
:10A13000FFF7B6F8A8E09DF81C2001214FF00A0AAD
:10A14000002A9BD105ABB9F1000F00D00020CDE96A
:10A1500002100720CDE90009BDF834000493401E29
:10A1600083B2218B0022159800F0EEFC8DF81C00C4
:10A170000B203070BDF8140020E09DF81C20012158
:10A180004FF00C0A002A22D113ABB9F1000F00D016
:10A190000020CDE902100720CDE900090493BDF8A5
:10A1A0003400228C401E83B2218B159800F0CCFC29
:10A1B0008DF81C000D203070BDF84C00401CADF82F
:10A1C000340005208DF83800208BADF83C00BCE051
:10A1D0003888218B88427FF452AF9DF81C004FF0E5
:10A1E000120A00281CD1606AA8B1B878C0073FF4F1
:10A1F00046AF00E018E0BA680720CDE902B2CDF81A
:10A2000004B00090CDF810B0FB88BA88159800F023
:10A2100071FA8DF81C00132030700120ADF8340065
:10A2200093E000004C0000203988208B8142D2D17D
:10A230009DF81C004FF0160A0028A06B08D0E0B370
:10A240004FF6FF7000215F46ADF808B0019027E09F
:10A2500068B1B978C907BED1E18F0DAB0844821D42
:10A2600003968DE80C0243888288018809E0B8785B
:10A27000C007BCD0BA680DAB03968DE80C02BB8852
:10A28000FA881598FFF7F5F905005ED0072D72D012
:10A2900076E0019005AA02A92046FFF72BF90146B6
:10A2A000E28FBDF80800824201D00029F1D0E08F92
:10A2B000A16B084407800198E08746E09DF81C00E8
:10A2C0004FF0180A40B1208BC8B13888208321464E
:10A2D0001598FFF798F938E004F118000090237EF4
:10A2E000012221461598FFF7A6F98DF81C000028D9
:10A2F000EDD1192030700120ADF83400E7E70525D5
:10A3000021461598FFF77FF93AE0208800F40070A5
:10A31000ADF8200050452DD1A08FA0F57F41FE392A
:10A3200001D006252CE0D8F808004FF0160A48B1F5
:10A33000A063B8F80C10A1874FF6FF71E187A0F871
:10A3400000B002E04FF6FF70A087BDF8200030F4A7
:10A350007F611AD0782300220420159905F046FF6A
:10A3600098F8000020712088BDF820100843208054
:10A370000EE000E007252088BDF8201088432080EB
:10A38000208810F47F6F1CD03AE02188814321801F
:10A390009DF8380020B10EA91598FBF707FC05467B
:10A3A0009DF81C000028EBD086F801A00120307039
:10A3B000208B70809DF81C0030710520ADF83400B2
:10A3C000DEE7A18EE1B118980DAB0088ADF834003E
:10A3D0002398CDE90304CDE90139206B0090E36AAD
:10A3E000179A1598FFF7FEF9054601208DF83800F9
:10A3F0000EA91598FBF7DAFB00B10546A4F834B0B6
:10A4000094F8460040070AD52046FFF7A2F910F05D
:10A410003E0F04D114F8460F20F004002070189865
:10A42000BDF83410018028469DE500B585B00428AC
:10A4300006D102208DF8000088B26946FBF7B6FB12
:10A4400005B000BD10B5384C0B782268012B02D046
:10A45000022B2AD111E013780BB1052B01D1042373
:10A46000137023688A889A802268CB88D3802268F8
:10A470000B891381498951810DE08B889380226873
:10A48000CB88D38022680B8913814B8953818B89B8
:10A490009381096911612168FBF788FB226800211B
:10A4A0000228117003D0002800D0812010BD832025
:10A4B00010BD806B002800D00120704781780129F1
:10A4C00009D10088B0F5205F03D042F6010188422F
:10A4D00001D10020704707207047F0B587B00024F5
:10A4E00015460E460746ADF8144010E00698018860
:10A4F0002980811DCDE90241072101940494009136
:10A50000838842880188384600F0F4F830B906AAFA
:10A5100005A93046FEF7EEFF0028E7D00A2800D153
:10A52000002007B0F0BD00004C00002010B58B7873
:10A5300083B102789A4205D10B885BB102E08B7936
:10A54000091D4BB18B789A42F9D1B0F801300C88D3
:10A55000A342F4D1002010BD812010BD072826D0D1
:10A5600012B1012A27D103E0497801F0070102E086
:10A570004978C1F3C20105291DD2DFE801F00318B3
:10A58000080C12000AB1032070470220704704280B
:10A590000DD250B10DE0052809D2801E022808D343
:10A5A00003E0062803D0032803D0052070470020CD
:10A5B00070470F20704781207047C0B282060BD4CD
:10A5C000000607D5FE48807A4143C01D01EBD0004C
:10A5D00080B27047084670470020704770B51388F6
:10A5E0000B800B781C0625D5F54CA47A844204D840
:10A5F00043F010000870002070BD956800F0070659
:10A6000005EBD0052D78F54065F304130B70137836
:10A61000D17803F0030341EA032140F20123B1FBA7
:10A62000F3F503FB15119268E41D00FB012000EB1C
:10A63000D40070BD906870BD37B51446BDF80410E5
:10A6400011809DF804100A061ED5C1F30013DC49E1
:10A65000A568897A814208D8FE2811D1C91DC90888
:10A660005A4228460CF0E5FD0AE005EBD00100F067
:10A670000702012508789540A843934018430870C5
:10A68000207820F0100020703EBD2DE9F0410746F3
:10A69000C81C0E4620F00300B04202D08620BDE860
:10A6A000F081C74D002034462E60AF802881AA7209
:10A6B000E8801AE0E988491CE980810614D4E17831
:10A6C00000F0030041EA002040F20121B0FBF1F26A
:10A6D00001FB12012068FFF770FF2989084480B24E
:10A6E0002881381A3044A0600C3420784107E1D426
:10A6F0000020D4E72DE9FF4F89B01646DDE9168A20
:10A700000F46994623F44045084600F00DFB04002F
:10A710000FD0099802F056F90290207800060AD569
:10A72000A748817A0298814205D887200DB0BDE8FC
:10A73000F08F0120FAE7224601A90298FFF74EFFA9
:10A74000834600208DF80C004046B8F1070F1AD060
:10A7500001222146FFF702FF0028E7D120784006BA
:10A7600011D502208DF80C00ADF81070BDF8040072
:10A77000ADF81200ADF814601898ADF81650CDF889
:10A780001CA0ADF818005FEA094004D500252E464C
:10A79000A84601270CE02178E07801F0030140EAA7
:10A7A000012040F20121B0FBF1F2804601FB12874B
:10A7B0005FEA494009D5B84507D1A178207901F071
:10A7C000030140EA0120B04201D3BE4201D9072073
:10A7D000ACE7A8191FFA80F9B94501D90D20A5E702
:10A7E0009DF80C0028B103A90998FBF7DDF90028B2
:10A7F0009CD1B84507D1A0784FEA192161F3010037
:10A80000A07084F804901A9800B10580199850EA55
:10A810000A0027D0199830B10BEB06002A46199987
:10A820000CF090FC0EE00BEB06085746189E0998BA
:10A8300002F030FA2B46F61DB5B239464246009575
:10A8400001F039FE224601A90298FFF7C7FE9DF8E4
:10A850000400224620F010008DF80400DDE901100C
:10A86000FFF7EAFE002061E72DE9FF4FDFF8509186
:10A8700082461746B9F80610D9F8000001EB4101ED
:10A8800000EB810440F20120B2FBF0F185B000FB47
:10A8900011764D46DDF84C8031460698FFF78DFE67
:10A8A00029682A898B46611A0C3101441144AB880E
:10A8B00089B28B4202D8842009B038E70699CDB21C
:10A8C000290603D5A90601D50620F5E7B9F806C083
:10A8D0000CF1010C1FFA8CFCA9F806C0149909B1FF
:10A8E000A1F800C0A90602D5C4F8088007E010440A
:10A8F00080B2A9F80800191A01EB0B00A0602246EB
:10A90000FE200699FFF798FEE77026712078390A35
:10A9100061F30100320AA17840F0040062F3010102
:10A92000A17020709AF802006071BAF80000E0800F
:10A9300000262673280602D599F80A7000E0012740
:10A94000A80601D54FF000084D4600244FF0070936
:10A950000FE0CDE902680196CDF800900496E988F1
:10A960002046129B089AFFF7C5FE0028A4D1641C5C
:10A97000E4B2BC42EDD300209EE72DE9F0478046CB
:10A9800000F0D2F9070005D0002644460C4D40F2F5
:10A99000012919E00120BDE8F087204600F0C4F944
:10A9A0000278C17802F0030241EA0222B2FBF9F315
:10A9B00009FB13210068FFF700FE304486B201E076
:10A9C0008C040020641CA4B2E988601E8142E4DC8F
:10A9D000A8F10100E8802889801B288100203870B8
:10A9E000D9E710B5144631B1491E218001F0EAFFC4
:10A9F000A070002010BD012010BD10B5D249044642
:10AA00000088CA88904201D30A2010BD096800EB73
:10AA1000400001EB80025079A072D08820819178AB
:10AA2000107901F0030140EA0120A081A078E11C27
:10AA3000FFF7D4FD20612088401C2080E0800020AA
:10AA400010BD0121018270472DE9FF4F85B04FF6FF
:10AA5000FF788246A3F8008048681F460D4680783C
:10AA60008DF8060048680088ADF8040000208DF8D5
:10AA70000A00088A0C88A04200D304462C8241E0D8
:10AA8000288A401C2882701D6968FFF74FFDB8BBFB
:10AA90003988414501D1601E38806888A04236D38C
:10AAA000B178307901F0030140EA012901A9701D54
:10AAB000FFF73CFD20BB298941452CD000223146BF
:10AAC0000798FFF74BFDD8B92989494518D1E9689E
:10AAD0000391B5F80AC0D6F808B05046CDF800C0CA
:10AAE00002F0D8F8DDF800C05A460CF1070C1FFA46
:10AAF0008CFC4B460399CDF800C001F0A6FC50B188
:10AB0000641CA4B2204600F00FF90600B8D1641E00
:10AB10002C820A20D0E67C807079B871F088B880E9
:10AB20003178F07801F0030140EA01207881A7F83C
:10AB30000C90504601F046FF324607F10801FFF73E
:10AB40004DFD38610020B7E62DE9FF4F87B0814603
:10AB50001C469246DDF860B0DDF85480089800F09D
:10AB6000E3F805000CD0484601F02CFF29780906CF
:10AB700008D57549897A814204D887200BB0D6E57B
:10AB80000120FBE7CAF309062A4601A9FFF726FDC3
:10AB90000746149807281CD000222946FFF7DEFC40
:10ABA0000028EBD12878400613D501208DF8080045
:10ABB0000898ADF80C00BDF80400ADF80E00ADF833
:10ABC0001060ADF8124002A94846FAF7EDFF0028E0
:10ABD000D4D12978E87801F0030140EA0121AA786C
:10ABE000287902F0030240EA0220564507D0B1F569
:10ABF000007F04D9611E814201DD0B20BEE7864241
:10AC000001D90720BAE7801B85B2A54200D92546A5
:10AC1000BBF1000F01D0ABF80050179818B1B9196B
:10AC20002A460CF08FFAB8F1000F0DD03E4448468A
:10AC30004446169F02F040F82146FF1DBCB2324642
:10AC40002B46009401F06BFC002097E72DE9F041C2
:10AC500007461D461646084600F066F804000BD06D
:10AC6000384601F0AFFE2178090607D53649897AC2
:10AC7000814203D8872012E5012010E522463146A3
:10AC8000FFF7ACFC65B12178E07801F0030140EA00
:10AC90000120B0F5007F01D8012000E000202870DD
:10ACA0000020FCE42DE9F04107461D461646084603
:10ACB00000F03AF804000BD0384601F083FE21780A
:10ACC000090607D52049897A814203D88720E6E41E
:10ACD0000120E4E422463146FFF7AEFCFF2D14D0FC
:10ACE0002178E07801F0030240EA022040F20122DC
:10ACF000B0FBF2F302FB130015B900F2012080B2A1
:10AD0000E070000A60F3010121700020C7E410B573
:10AD10000C4600F009F828B1C18821804079A07064
:10AD2000002010BD012010BD0749CA88824209D306
:10AD300040B1096800EB40006FF00B0202EB8000AD
:10AD400008447047002070478C04002010B505F0BF
:10AD5000F6FCF7F781FE05F0B7FBBDE8104005F003
:10AD600045BC70B50346002002466FF02F050EE08B
:10AD70009C5CA4F130060A2E02D34FF0FF3070BD68
:10AD800000EB800005EB4000521C2044D2B28A4206
:10AD9000EED370BD30B50A240AE0B0FBF4F304FB37
:10ADA00013008D18303005F8010C521E1846D2B22F
:10ADB000002AF2D130BD30B500234FF6FF7510E008
:10ADC000040A44EA002084B2C85C6040C0F3031463
:10ADD000604005EA00344440E0B25B1C84EA401065
:10ADE0009BB29342ECD330BD70B514460B88012260
:10ADF000A240134207D113430B8001230922011DF6
:10AE000001F0BBFC047070BD2DE9FF4F81B00878E4
:10AE1000DDE90E7B9A4691460E4640072CD40198F8
:10AE200001F04AFF040000D1FFDF07F104082046CB
:10AE30001FFA88F101F0A7F8050000D1FFDF2046D6
:10AE400029466A4601F0F1FA0098A0F80370A0F8CC
:10AE500005A0284601F097FB017869F306016BF322
:10AE6000C711017020461FFA88F101F0CFF800B930
:10AE7000FFDF019800F04CFB06EB0900017E491C46
:10AE8000017605B0BDE8F08F2DE9F84F0E469A46E1
:10AE900091460746032101F0CBFD0446808CDFF884
:10AEA0009085002518B198F80000B0421ED13846B0
:10AEB00001F002FF070000D1FFDF09F1040138466D
:10AEC00089B201F060F8050010D0384629466A467C
:10AED00001F0ABFA009800210A460180817000F071
:10AEE00089FB0098C01DCAF8000021E098F8000016
:10AEF000B04216D104F1220734F8301F012000FAC5
:10AF000006F911EA090F00D0FFDF2088012340EA8B
:10AF1000090020800922391D384601F049FC0670DD
:10AF200006E0324604F1300104F12200FFF75CFF35
:10AF3000092188F800102846BDE8F88FFEB51446B0
:10AF40000D46064602AB0C220621FFF79DFF0028A6
:10AF500026D00299687812220A70801C4870082254
:10AF60004A80A870208888806088C880A08808816E
:10AF7000E088488100240C20CDE900040523062246
:10AF800029463046FFF740FF214666F31F41F02374
:10AF90000022012005F02AF96878801C68700120E1
:10AFA000FEBD10B50446032101F042FD014600F14B
:10AFB00010022046BDE81040C0E72DE9FE4381465F
:10AFC00050781646884640B1FFDF3168C8F8041053
:10AFD0007168C8F80810BDE8FE83B778022417B17D
:10AFE000022F13D0FFDF251D2A4602AB072148465A
:10AFF000FFF74AFF0028E8D002980121022F0170D4
:10B00000317841704480878002D005E00624EAE769
:10B01000B188C180F18801810024CDE90054052365
:10B02000072241464846FFF7EFFE88F80440D2E782
:10B0300010B50446032101F0FBFC0146021D204629
:10B04000BDE81040B9E7FA4A0020092111707047A5
:10B0500070B50C461546342120460CF014F9012039
:10B060006070092104F118000CF00DF905B9FFDF3B
:10B070002978207861F30100207070BD70470021AD
:10B0800010B560F31F41012005F05AF9002010BDF2
:10B09000FEB506460F0CFCF7A1FE050007D06F8039
:10B0A0000321384601F0C4FC040008D106E003B0D7
:10B0B0003846BDE8F0401321F7F7D9B9FFDF012E7C
:10B0C00001D0FFDFFEBD20782A4620F00800207066
:10B0D00002208DF800004FF6FF70ADF80200ADF8C9
:10B0E000040069463846F6F784FDFEBD00B5FFDF73
:10B0F000002000BD2DE9FC410C461E461746804647
:10B10000032101F095FC0546092C0AD2DFE804F082
:10B1100005050505050509090700042303E00623C5
:10B1200001E0FFDF0023CDE90076224629464046B4
:10B13000FFF76AFEBDE8FC8138B50546A0F57F4003
:10B14000FF381CD0284601F0A5FD040000D1FFDF28
:10B15000204601F048F9002810D001466A462046F2
:10B1600001F063F900980321B0F80540284601F08A
:10B170005FFC052C03D1007908B1002038BD012007
:10B1800038BD2DE9F041044686B0408801F082FDCB
:10B19000050000D1FFDF03AA2846616800F038F9F6
:10B1A000039D001F80B235F8032F698882420AD1BF
:10B1B00004290BD0052918D0062904D16088291D3F
:10B1C0006368F8F771FA06B0BDE8F08116462D1DE8
:10B1D000224629463046F9F7F1FF0828F3D12246E6
:10B1E00029463046FBF707F8EDE71646608803214D
:10B1F00001F01EFC00218DF80010042EE3D36A79C3
:10B20000002AE0D02B7902274FF6FF78012B28D0B7
:10B21000122B01D0132B0BD00491059169798DF875
:10B2200010106388014604AA1846FFF7C6FECAE755
:10B2300083789342C7D102781307C4D5062EC2D1B2
:10B2400022F008020270608860F31F41012005F0BF
:10B2500077F88DF80070ADF802802889ADF8040009
:10B2600017E0062EAFD383789342ACD10278130750
:10B27000A9D522F008020270608860F31F41012006
:10B2800005F05EF88DF800702889ADF80200ADF881
:10B290000480608822466946F6F7ABFC93E770B5F8
:10B2A0000D460646032101F0C3FB040004D02078BC
:10B2B000000704D5112070BD43F2020070BD2A467C
:10B2C00021463046FFF73AFE18B9286820616868C1
:10B2D0006061207840F008002070002070BD2DE9EA
:10B2E000F04F0E4691B08046032101F0A1FB0446C9
:10B2F000404601F0E1FC07460020079008900990C5
:10B30000ADF830000A9002900390049004B9FFDF7A
:10B310000DF10809FFB9FFDF1DE038460BA9002237
:10B3200000F024FF9DF82C0000F07F05092D00D3CC
:10B33000FFDF6019017E491E01769DF82C00000692
:10B3400009D52A460CA907A8FFF74EFD19F80510E4
:10B35000491C09F80510761EF6B2DED204F1300061
:10B36000334D04F1220BDFF8CCA004F12607069040
:10B3700010E05846069900F04DF806462870092856
:10B3800000D3FFDF5AF8261040468847608CC05D26
:10B39000B04202D0A08C0028EBD109202870254DA6
:10B3A0004E4624350EE00CA907A800F033F80446F9
:10B3B000375D55F8240000B9FFDF55F824203946E1
:10B3C00040469047BDF81E000028ECD111B059E569
:10B3D00010B5032101F02CFB040000D1FFDF09218F
:10B3E00004F118000BF04FFF207840F004002070AB
:10B3F00010BD10B50C46032101F01AFB01190A7E9D
:10B4000001211AB9008EA140084000D0012010BDD2
:10B4100001F00BB810B50C4601230922011D01F003
:10B42000E2F900782188012282409143218010BDF9
:10B4300054000020107601002DE9FC470C4606461A
:10B44000694600F01DFD002860D106F07BF8B0428F
:10B450005CD02146304608F029FC28BB019D95F8B8
:10B46000E400383518B9A87E08B1012000E00020BA
:10B47000814695F835004FF000084FF0010AA0B161
:10B4800095F83600800710D584F8018084F800A074
:10B4900084F80280A68095F83710A171298F218148
:10B4A000698F618185F835802DE0304601F004FC1C
:10B4B000070000D1FFDF384600F032FE40B184F8CB
:10B4C00001800E212170A680E08084F802A01AE09D
:10B4D000304601F0DFFB070000D1FFDFB9F1000FBC
:10B4E00014D0384600F073FE80B1304605F0F5FE0A
:10B4F00084F801800B21217084F80280A680E97E07
:10B50000A17185F81A800120BDE8FC870020FBE7C7
:10B510001CB5694600F0B4FC00B1FFDF684600F0DE
:10B52000BCFCFA4900208968A1F8AA001CBD2DE9DD
:10B53000FC4104460E46062001F026FA0025074687
:10B54000A846064417E02088401C80B22080B04204
:10B5500002D34046A4F8008080B2B84204D3B0427F
:10B5600002D20020BDE8FC81694600F089FC002879
:10B57000F8D06D1CEDB2AE42E5D84FF6FF702080DA
:10B580001220EFE710B505F019FF09F0EBFEE048D7
:10B590004FF6FF711B228182C182002101708170F0
:10B5A00082804FF4A471C18002814181032303731F
:10B5B000042141730146CA810A82438210BD70B5DD
:10B5C000D24C0D466060217005F085FE00F071FCE4
:10B5D000FFF7D8FF207809F0B9F9284607F051F9AC
:10B5E00005F0F0FF2178606808F021FCBDE87040AC
:10B5F00009F0B8BE10B501240AB1002010BD21B178
:10B60000012903D00024204610BD02210AF0DCFBF2
:10B61000F9E72DE9F041040000D1FFDFBC48022129
:10B6200016308046FFF783FF00B1FFDFB84D0620DC
:10B63000EF8A01F0A9F90646E88AB0421AD12046FD
:10B6400005F038FFE8B12078132817D1A0783C28FE
:10B6500014D1A088062101F0EBF9050000D1FFDF2D
:10B66000288805F03AFEA088062101F0F3F928B1F8
:10B67000FFDF03E02146FFF7DFFE10B10120BDE848
:10B68000F08102214046FFF752FF10B9E88AB84224
:10B69000D2D10020F3E710B500F0CEFB08B10C20AA
:10B6A00010BD09F096FE002010BD10B504460078CC
:10B6B00018B1012801D0122010BD00F0C8FB20B144
:10B6C00009F0E4FE08B10C2010BD207800F09EFBCC
:10B6D000E21D04F11703611CBDE8104009F08EBEA5
:10B6E00010B50446007818B1012801D0122010BD11
:10B6F00000F0A2FB08B10C2010BD207800F086FB02
:10B70000611C09F042FE08B1002010BD072010BDE9
:10B7100010B509F0BFFE08B1002010BD302010BDEB
:10B7200010B5044600F093FB08B10C2010BD204674
:10B7300009F0A8FE002010BD10B500F088FB20B174
:10B7400009F0A4FE08B10C2010BD09F08DFE002008
:10B7500010BDFF2181704FF6FF7181806B494968F0
:10B760000A7882718A880281498841810121417069
:10B770000020704710B510F1080F17D00CDC10F145
:10B78000280F13D010F1140F10D010F1100F0DD09E
:10B7900010F10C0F08D109E010F1040F06D028B108
:10B7A000032803D0042801D0122010BD05F0B7F8FB
:10B7B000002010BD10B5134601220AF097F80020B2
:10B7C00010BD10B5044600F042FB08B10C2010BDBE
:10B7D0002146002005F0F3FD002010BD10B5044601
:10B7E00007F091FA20B1207807F07CF8002010BD16
:10B7F0000C2010BD10B5044600F029FB08B10C2048
:10B8000010BD2146012005F0DAFD002010BD38B53D
:10B8100004464FF6FF70ADF80000A079E179884248
:10B8200013D021791F2910D861791F290DD8002242
:10B8300011460AF023FF40B90022E07911460AF0D0
:10B840001DFF10B9207A072801D9122038BD07F052
:10B8500066FA48B900216846FFF769FE20B1204624
:10B8600004F09CFF002038BD0C2038BD2DE9FC41C0
:10B87000817804461A2925D00EDC16292DD2DFE85E
:10B8800001F02C2C2C2C2C212C2C2C2C2C2C2C2C6A
:10B890002C2C2C2C2C2121212A291ED00BDCA1F1AF
:10B8A0001E010C2919D2DFE801F018181818181811
:10B8B00018181818180D3A3904290ED2DFE801F0CB
:10B8C0000D020D022088B0F5706F06D2012769467F
:10B8D00000F0D6FA18B1022044E6122042E6019D9B
:10B8E00068462E4605F5A37506F2471600F0B6FA2F
:10B8F00008B1287808B10C2034E62F70A078307099
:10B90000684600F0CAFA00202CE60000580000202B
:10B91000980400201CB50C46694600F0B1FA0021DD
:10B9200018B12160217102201CBD019802463830F7
:10B9300080F83E1093682360137B237190F83E30AB
:10B94000002BF5D100201CBD10B5044600F07FFA95
:10B9500020B109F09BFD08B10C2010BD207800F04B
:10B9600055FAE279611C09F06AFE08B1002010BDA9
:10B97000022010BD7CB504460088694600F080FABC
:10B98000020025D1A17801B90321E07800B9032094
:10B99000019D0024012385F86931019D95F89A5194
:10B9A0003DB9019D95F868511DB9019D95F85B5011
:10B9B0000DB13A2208E0019D85F86831019B83F8BA
:10B9C0006A11019981F86B01019880F8694110466C
:10B9D0007CBD8178CA0802D1C278D30801D0122078
:10B9E0007047490701D4510701D511207047C1E7BD
:10B9F00030B5428840F67B43911F994219D2818825
:10BA00008C1F9C4215D28A4213D8C288B2F5FA7FA5
:10BA10000FD2038940F67745A3F10A04AC4208D25D
:10BA2000521C4A43B2EB830F03DA41898089814279
:10BA300001D9302030BD002030BD10B5044607F0DC
:10BA40006EF908B10C2010BD6079032824D8A179C3
:10BA5000012921D8A17B03291ED8617BE1B10729E7
:10BA60001AD82179052917D2DFE801F0030C030366
:10BA700003002288202A0FD361888A420CD8B1F5AE
:10BA8000804F09D805F0F8FDFA4920794870204622
:10BA9000BDE8104005F0B8BE122010BD10B51F283B
:10BAA00001D9122010BD05F029FF002010BD10B5EE
:10BAB0001F2801D9122010BD05F00FFF002010BD76
:10BAC0007CB5012802D0002853D066E005F084FD43
:10BAD000002862D005F0B6FD00285ED007F01FF9FF
:10BAE000F0BB05F02FFDA0F57F41FF3947D105F0F0
:10BAF00041FEE04E707848B1012807D0042805D0F7
:10BB0000002006F0F2FE60B3FFDF44E000220621D1
:10BB100001A800F05FFF050029D0D7480321856008
:10BB2000284609F03AFE284605F0EDFFD14C708A10
:10BB3000012106F099FF0146A8620022284606F07E
:10BB4000E0FA228AE189707B0090337B288801F03B
:10BB50002AF800B1FFDF288805F0BEFB284601E087
:10BB60000DE018E006F0C1FEA8B1FFDF13E00920E8
:10BB70007CBD06F0A7FA044606F05CFE08B10C2076
:10BB80007CBD44B1208805F0A8FB2088062100F088
:10BB900061FF00B1FFDF00207CBD12207CBD70B5CD
:10BBA0000D46062100F044FF040003D094F849013B
:10BBB00010B10AE0022070BD94F84400142801D0AE
:10BBC000152802D194F8800108B10C2070BD102214
:10BBD000294604F5A5700BF0B5FA012084F8490157
:10BBE000002070BD10B5062100F022FF18B190F8BA
:10BBF000491111B107E0022010BD90F8441014293A
:10BC000003D0152901D00C2010BD022180F8491164
:10BC1000002010BD2DE9FC410D464BF6803212216B
:10BC2000954213D895B1694600F02AF900280CD145
:10BC3000019EB41C383627882A463946304609F01A
:10BC4000A2FD2088B842F6D100208BE4084689E4A2
:10BC50001CB504460088694600F012F9002811D18D
:10BC600001987F22014680F8402080F84120002280
:10BC700080F84220A07801F82C0FE07848702079F5
:10BC8000887010461CBD1CB50C46694600F0F8F8DB
:10BC9000002806D1019890F8520000B101202070D0
:10BCA00000201CBD1CB50C46694600F0E9F80028D0
:10BCB00005D1019890F82C00012801D00C201CBD62
:10BCC000019890F84000207000201CBD70B50D4612
:10BCD0001646062100F0ACFE18B381880124C38803
:10BCE000428804EB4104AC4217D842F2107463431B
:10BCF000A4106243B3FBF2F2521E94B24FF4FA72F4
:10BD0000944200D91446A54200D22C46491C641C1A
:10BD1000B4FBF1F24A43521E91B290F86C211AB969
:10BD200001E0022070BD01843180002070BD10B59B
:10BD30000C46062100F07CFE48B180F8B74024B1E3
:10BD400090F8B51009B106F0ACFE002010BD02203D
:10BD500010BD017889B1417879B141881B290CD394
:10BD600081881B2909D3C188022906D34149026869
:10BD7000CA6040680861002070471220704710B503
:10BD800006F041FE002010BD70B514460A46064676
:10BD900000250121104606F067FE002800D828463D
:10BDA00005460121304600F038F806460121002002
:10BDB00000F033F83118012296318D4206D901F195
:10BDC0009600691AB1FBF0F0401C82B2228000207C
:10BDD00070BD10B5044600F03AF808B10C2010BD53
:10BDE000601C09F019FC207800F0010005F047FC08
:10BDF000002010BD10B5044606F091FF08B10C20DC
:10BE000010BD204605F08AFD002010BD18B10228A3
:10BE100001D0012070470020704710B5012904D0DF
:10BE2000022905D0FFDF204610BDC000503001E0E0
:10BE300080002C3084B2F6E710B506F070FF20B118
:10BE400005F0F9FB08B1012010BD002010BD10B5B0
:10BE500006F065FF002800D0012010BD416891F870
:10BE6000E40091F8521049B940B1042806D00120ED
:10BE70007047000098040020580000200020F7E7D9
:10BE800010B50C46062100F0D3FD606018B101200A
:10BE90002070002010BD022010BD416891F8B5202F
:10BEA000002AE5D0002281F8B520406806F0F9BDEF
:10BEB000DEE708B54FF6FF70ADF8000006E006219A
:10BEC000BDF8000000F0C6FD00B1FFDF00216846AC
:10BED000FFF72DFB0028F2D008BD000030B5058823
:10BEE00025F4004421448CB24FF4004194420AD21C
:10BEF000121B92B21B339A4201D2A94307E005F408
:10BF00000041214303E0A21A92B2A94311430180E8
:10BF100030BD0844083050434A31084480B270476D
:10BF200070B51D4616460B46044629463046049A0F
:10BF3000FFF7EFFF0646B34200D2FFDF282120467D
:10BF40000BF0A1F94FF6FF70A082283EB0B26577E2
:10BF50006080B0F5004F00D9FFDF618805F13C003B
:10BF6000814200D2FFDF60880835401B343880B240
:10BF700020801B2800D21B2020800020A07770BDCD
:10BF80008161886170472DE9F05F0D46C1880446E4
:10BF900000F12809008921F4004620F4004800F04F
:10BFA00062FB10B10020BDE8F09F4FF0000A4FF097
:10BFB000010BB0450CD9617FA8EB0600401A083888
:10BFC000854219DC09EB06000021058041801AE05A
:10BFD0006088617F801B471A083F0DD41B2F00DA51
:10BFE000FFDFBD4201DC294600E0B9B2681A020455
:10BFF000120C04D0424502DD84F817A0D2E709EB09
:10C0000006000180428084F817B0CCE770B5044682
:10C0100000F12802C088E37D20F400402BB11044D9
:10C020000288438813448B4201D2002070BD002552
:10C030008A4202D30180458008E0891A0904090C6C
:10C04000418003D0A01D00F01EFB08E0637F008844
:10C050000833184481B26288A01DFFF73FFFE575E1
:10C06000012070BD70B5034600F12804C5888088A2
:10C0700020F400462644A84202D10020188270BD58
:10C0800098893588A84206D3401B75882D1A20440C
:10C09000ADB2C01E05E02C1AA5B25C7F204430442E
:10C0A000401D0C88AC4200D90D809C8924B100242D
:10C0B00014700988198270BD0124F9E770B504462F
:10C0C00000F12801808820F400404518208A0028CB
:10C0D00025D0A189084480B2A08129886A881144AA
:10C0E000814200D2FFDF2888698800260844A189A0
:10C0F000884212D1A069807F2871698819B1201DFA
:10C1000000F0C1FA08E0637F28880833184481B240
:10C110006288201DFFF7E2FEA6812682012070BD05
:10C120002DE9F041418987880026044600F1280561
:10C13000B94218D004F10A0821F40040284441888B
:10C1400019B1404600F09FFA08E0637F0088083389
:10C15000184481B262884046FFF7C0FE761C6189B0
:10C16000B6B2B942E8D13046BDE8F0812DE9F041E0
:10C1700004460B4627892830A68827F40041B4F8E6
:10C180000A8001440D46B74201D10020ECE70AB114
:10C19000481D106023B1627F691D18460AF0D2FF66
:10C1A0002E88698804F1080021B18A1996B200F03E
:10C1B0006AFA06E0637F62880833991989B2FFF74B
:10C1C0008DFE474501D1208960813046CCE78188CA
:10C1D000C088814201D10120704700207047018949
:10C1E0008088814201D1012070470020704770B5DE
:10C1F0008588C38800F1280425F4004223F4004117
:10C2000014449D421AD08389058A5E192588638863
:10C21000EC18A64214D313B18B4211D30EE0437F26
:10C2200008325C192244408892B2801A80B22333CB
:10C23000984201D211B103E08A4201D1002070BDC1
:10C24000012070BD2DE9F0478846C1880446008969
:10C2500021F4004604F1280720F4004507EB060905
:10C2600000F001FA002178BBB54204D9627FA81B17
:10C27000801A002503E06088627F801B801A0838DE
:10C2800023D4E28962B1B9F80020B9F802303BB199
:10C29000E81A2177404518DBE0893844801A09E024
:10C2A000801A217740450ADB607FE18908303044FD
:10C2B00039440844C01EA4F81280BDE8F087454503
:10C2C00003DB01202077E7E7FFE761820020F4E746
:10C2D0002DE9F74F044600F12805C088884620F470
:10C2E000004A608A05EB0A0608B1404502D20020E8
:10C2F000BDE8FE8FE08978B13788B6F8029007EB89
:10C300000901884200D0FFDF207F4FF0000B50EA88
:10C31000090106D088B33BE00027A07FB946307101
:10C32000F2E7E18959B1607F29440830504408445C
:10C33000B4F81F1020F8031D94F821108170E289D1
:10C3400007EB080002EB0801E1813080A6F802B09B
:10C3500002985F4650B1637F30880833184481B239
:10C360006288A01DFFF7BAFDE78121E0607FE189C7
:10C3700008305044294408442DE0FFE7E089B4F830
:10C380001F102844C01B20F8031D94F82110817051
:10C3900009EB0800E28981B202EB0800E0813780F6
:10C3A00071800298A0B1A01D00F06DF9A4F80EB044
:10C3B000A07F401CA077A07D08B1E088A08284F80F
:10C3C00016B000BFA4F812B084F817B001208FE7B0
:10C3D000E0892844C01B30F8031DA4F81F108078A2
:10C3E00084F82100EEE710B5818800F1280321F4DC
:10C3F00000442344848AC288A14212D0914210D0C2
:10C40000818971B9826972B11046FFF7E8FE50B9AF
:10C410001089283220F400401044197900798842AC
:10C4200001D1002010BD184610BD00F12803407F47
:10C4300008300844C01E1060088808B9DB1E13606D
:10C4400008884988084480B270472DE9F04100F11E
:10C450002806407F1C4608309046431808884D88BF
:10C46000069ADB1EA0B1C01C80B2904214D9801A7B
:10C47000A04200DB204687B298183A4641460AF0AF
:10C4800035FE002816D1E01B84B2B844002005E038
:10C49000ED1CADB2F61EE8E7101A80B20119A942F0
:10C4A00006D8304422464146BDE8F0410AF01EBE9F
:10C4B0004FF0FF3058E62DE9F04100F12804407FAD
:10C4C0001E46083090464318002508884F88069A73
:10C4D000DB1E90B1C01C80B2904212D9801AB042CB
:10C4E00000DB304685B299182A4640460AF02AFEFB
:10C4F000701B86B2A844002005E0FF1CBFB2E41EFA
:10C50000EAE7101A80B28119B94206D821183246DA
:10C5100040460AF017FEA81985B2284624E62DE900
:10C52000F04100F12804407F1E4608309046431831
:10C53000002508884F88069ADB1E90B1C01C80B287
:10C54000904212D9801AB04200DB304685B298186A
:10C550002A4641460AF0F6FD701B86B2A844002028
:10C5600005E0FF1CBFB2E41EEAE7101A80B2811991
:10C57000B94206D82044324641460AF0E3FDA819E4
:10C5800085B22846F0E5401D704710B5044600F11D
:10C590002801C288808820F400431944904206D0C4
:10C5A000A28922B9228A12B9A28A904201D100201E
:10C5B00010BD0888498831B1201D00F064F80020C2
:10C5C0002082012010BD637F62880833184481B245
:10C5D000201DFFF783FCF2E70021C1810177418232
:10C5E000C1758175704703881380C28942B1C288C2
:10C5F00022F4004300F128021A440A60C0897047FF
:10C600000020704710B50446808AA0F57F41FF39AD
:10C6100000D0FFDFE088A082E08900B10120A07592
:10C6200010BD4FF6FF71818200218175704710B5F2
:10C630000446808AA0F57F41FF3900D1FFDFA07D4D
:10C6400028B9A088A18A884201D1002010BD01200C
:10C6500010BD8188828A914201D1807D08B100207D
:10C6600070470120704720F4004221F400439A42B1
:10C6700007D100F4004001F40041884201D00120BC
:10C6800070470020704730B5044600880D4620F4FE
:10C690000040A84200D2FFDF21884FF400408843C9
:10C6A0002843208030BD70B50C00054609D0082C09
:10C6B00000D2FFDF1DB1A1B2286800F044F8201DB0
:10C6C00070BD0DB100202860002070BD00210268FF
:10C6D00003E093881268194489B2002AF9D100F066
:10C6E00032B870B500260D460446082900D2FFDF97
:10C6F000206808B91EE0044620688188A94202D05B
:10C7000001680029F7D181880646A94201D1006855
:10C710000DE005F1080293B20022994209D32844A2
:10C72000491B0260818021680968216001602060E6
:10C7300000E00026304670BD00230B608A8002684E
:10C740000A600160704700234360021D018102609E
:10C750007047F0B50F460188408815460C181E46F4
:10C76000AC4200D3641B3044A84200D9FFDFA019BB
:10C77000A84200D9FFDF3819F0BD2DE9F041884605
:10C7800006460188408815460C181F46AC4200D367
:10C79000641B3844A84200D9FFDFE019A84200D941
:10C7A000FFDF70883844708008EB0400BDE8F0813A
:10C7B0002DE9F041054600881E461746841B884631
:10C7C000BC4200D33C442C8068883044B84200D935
:10C7D000FFDFA019B84200D9FFDF688830446880C5
:10C7E00008EB0400E2E72DE9F04106881D46044607
:10C7F000701980B2174688462080B84201D3C01B0A
:10C8000020806088A84200D2FFDF7019B84200D9AA
:10C81000FFDF6088401B608008EB0600C6E7000071
:10C820002DE9F041BF4D04469046A8780E46A0423F
:10C8300000D8FFDF05EB8607786A50F8240000B1C6
:10C84000FFDFB868002816D0304600F032F9014604
:10C85000B868FFF746FF05000CD0786A072E40F84D
:10C86000245000D3FFDFB0484246294650F8263016
:10C87000204698472846BDE8F0812DE9F843050099
:10C880000C46009524D00026E81C20F00300A842A6
:10C8900000D0FFDFDFF88C820027314688F8007077
:10C8A00088F8014088F8024088F8034088F804407E
:10C8B00088F8054088F80640684600F003F9002033
:10C8C00042460099C91C21F00301009116B10FE006
:10C8D0000126D9E702EB80035962002106E000BF80
:10C8E000D3F824C04CF82170491CC9B2A142F7D337
:10C8F0000099401C01EB8401C0B200910728E0D3ED
:10C90000481BBDE8F88310B5044603F08BFD08B161
:10C91000102010BD2078834A618802EB8000927855
:10C920000EE0436A53F8213043B14A1C6280A18073
:10C93000406A50F82100A060002010BD491C89B257
:10C940008A42EED86180052010BD70B505460C46C0
:10C95000084603F067FD08B1102070BD072D01D314
:10C96000072070BD25700020608070BD0EB569463F
:10C97000FFF7EBFF00B1FFDF6846FFF7C4FF08B128
:10C9800000200EBD01200EBD10B50446072800D3BF
:10C99000FFDF6448005D10BD3EB5054600246946D2
:10C9A000FFF7D3FF18B1FFDF01E0641CE4B2684673
:10C9B000FFF7A9FF0028F8D02846FFF7E5FF001B86
:10C9C000C0B23EBD57498978814201D9C0B2704793
:10C9D000FF2070472DE9F04106291BD1514C00275B
:10C9E0003B464FF6FF7604EB810514F801C00AE0E0
:10C9F000DC19D5F824E0A4B25EF824E0BEF1000F03
:10CA000004D05B1C9BB29C45F2D83446048020467F
:10CA1000B44201D100202EE7BDE8F04100E7A0F5C7
:10CA20007F43FF3B01D0072901D300207047F7E681
:10CA3000A0F57F42FF3A0BD0072909D2394A9378F3
:10CA4000834205D902EB8101496A51F82000704701
:10CA5000002070472DE9F04104460D46A4F57F41C2
:10CA600043F20200FF3902D0072D01D3072002E76D
:10CA70002C494FF000088A78A242F8D901EB8506CC
:10CA8000726A52F82470002FF1D0274839461C30C2
:10CA900050F8252020469047716A284641F82480A6
:10CAA00000F007F802463946B068FFF745FE00205F
:10CAB000E1E61D49383131F810004FF6FC71C01C19
:10CAC000084070472DE9F843164E88460546002475
:10CAD0002868C01C20F0030028602046FFF7E9FF0B
:10CAE000315D4843B8F1000F01D0002200E02A6810
:10CAF0000146009232B100274FEA0D00FFF7D3FD47
:10CB00001FB106E001270020F8E706EB8401009A38
:10CB10008A602968641C0844E4B22860072CD7D3D3
:10CB2000EFE60000B00400205876010070B50E4614
:10CB30001D46114600F0D4F804462946304600F060
:10CB4000D8F82044001D70BD2DE9F04190460D46F7
:10CB500004004FF0000610D00027E01C20F0030076
:10CB6000A04200D0FFDFDDB141460020FFF79BFD72
:10CB70000C3000EB850617B112E00127EDE7614F9D
:10CB800004F10C00A9003C602572606000EB850098
:10CB9000206060680AF077FB41463868FFF783FD44
:10CBA0003046BDE8F0812DE9FF4F564C804681B0FC
:10CBB00020689A46934600B9FFDF2068027A424512
:10CBC00003D9416851F8280020B143F2020005B0B2
:10CBD000BDE8F08F5146029800F082F886B25846C0
:10CBE0000E9900F086F885B27019001D87B2206892
:10CBF000A14639460068FFF774FD04001FD0678026
:10CC000025802946201D0E9D07465A460123009582
:10CC1000FFF786F92088314638440123029ACDF87F
:10CC200000A0FFF77DF92088C1193846FFF7A8F961
:10CC3000D9F800004168002041F82840C7E70420E7
:10CC4000C5E770B52F4C0546206800B9FFDF2068A6
:10CC5000017AA9420ED9426852F8251051B1002339
:10CC600042F825304A880068FFF766FD21680020F9
:10CC70000A7A08E043F2020070BD4B6853F8203096
:10CC800033B9401CC0B28242F7D80868FFF71EFDD6
:10CC9000002070BD70B51B4E05460024306800B9F9
:10CCA000FFDF3068017AA94204D9406850F82500B6
:10CCB00000B1041D204670BD70B5124E054600241B
:10CCC000306800B9FFDF3068017AA94206D94068B0
:10CCD00050F8251011B131F8040B4418204670BDEE
:10CCE00010B50A460121FFF714F9C01C20F003001B
:10CCF00010BD10B50A460121FFF70BF9C01C20F04A
:10CD0000030010BD6400002070B50446C2F1100598
:10CD100028190AF017FA15F0FF0108D0491EC9B208
:10CD2000802060542046BDE870400AF08ABA70BD89
:10CD300030B505E05B1EDBB2CC5CD55C6C40C45406
:10CD4000002BF7D130BD10B5002409E00B78521E3E
:10CD500044EA430300F8013B11F8013BD2B2DC097D
:10CD6000002AF3D110BD2DE9F04389B01E46DDE95C
:10CD7000107990460D00044622D002460846F94933
:10CD8000FEF718FD102221463846FFF7DCFFE07B56
:10CD9000000606D5F34A3946102310320846FFF73D
:10CDA000C7FF102239464846FFF7CDFFF87B000643
:10CDB00006D5EC4A4946102310320846FFF7B8FF63
:10CDC000102120460AF03DFA0DE0103EB6B208EB05
:10CDD0000601102322466846FFF7AAFF224628468E
:10CDE0006946FEF7E7FC102EEFD818D0F2B24146A4
:10CDF0006846FFF789FF10234A46694604A8FFF7F3
:10CE000097FF1023224604A96846FFF791FF2246A8
:10CE100028466946FEF7CEFC09B0BDE8F083102332
:10CE20003A464146EAE770B59CB01E4605461346B1
:10CE300020980C468DF80800202219460DF10900B3
:10CE40000AF080F9202221460DF129000AF07AF932
:10CE500017A913A8CDE90001412302AA31462846AB
:10CE6000FFF781FF1CB070BD2DE9FF4F9FB014AEDE
:10CE7000DDE92D5410AFBB49CDE9007620232031E8
:10CE80001AA8FFF770FF4FF000088DF808804FF0E8
:10CE900001098DF8099054F8010FCDF80A00A08817
:10CEA000ADF80E0014F8010C1022C0F340008DF80C
:10CEB000100055F8010FCDF81100A888ADF8150045
:10CEC00015F8010C2C99C0F340008DF8170006A846
:10CED00082460AF037F90AA88346102222990AF0FE
:10CEE00031F9A0483523083802AA40688DF83C8003
:10CEF000CDE900760E901AA91F98FFF734FF8DF840
:10CF000008808DF809902068CDF80A00A088ADF857
:10CF10000E0014F8010C1022C0F340008DF8100030
:10CF20002868CDF81100A888ADF8150015F8010C97
:10CF30002C99C0F340008DF8170050460AF002F912
:10CF40005846102222990AF0FDF886483523083801
:10CF500002AA40688DF83C90CDE900760E901AA99F
:10CF60002098FFF700FF23B0BDE8F08FF0B59BB02D
:10CF70000C460546DDE922101E461746DDE9203243
:10CF8000D0F801C0CDF808C0B0F805C0ADF80CC0AD
:10CF90000078C0F340008DF80E00D1F80100CDF804
:10CFA0000F00B1F80500ADF8130008781946C0F37A
:10CFB00040008DF815001088ADF8160090788DF8B7
:10CFC00018000DF1190010220AF0BCF80DF129002B
:10CFD000102231460AF0B6F80DF139001022394618
:10CFE0000AF0B0F817A913A8CDE90001412302AA5D
:10CFF00021462846FFF7B7FE1BB0F0BDF0B5A3B041
:10D0000017460D4604461E46102202A828990AF02B
:10D0100099F806A8202239460AF094F80EA8202292
:10D0200029460AF08FF81EA91AA8CDE9000150235D
:10D0300002AA314616A8FFF796FE1698206023B084
:10D04000F0BDF0B589B00446DDE90E070D4639782C
:10D05000109EC1F340018DF8001031789446C1F361
:10D0600040018DF801101968CDF802109988ADF8CB
:10D07000061099798DF808100168CDF8091081889B
:10D08000ADF80D1080798DF80F0010236A466146C7
:10D0900004A8FFF74DFE2246284604A9FEF78AFBA6
:10D0A000D6F801000090B6F80500ADF80400D7F8F6
:10D0B0000100CDF80600B7F80500ADF80A00002021
:10D0C000039010236A46214604A8FFF731FE22464A
:10D0D000284604A9FEF76EFB09B0F0BD1FB51C6819
:10D0E00000945B68019313680293526803920246AE
:10D0F00008466946FEF75EFB1FBD10B588B00446C2
:10D10000106804905068059000200690079008462B
:10D110006A4604A9FEF74EFBBDF80000208008B067
:10D1200010BD1FB51288ADF800201A88ADF8022096
:10D130000022019202920392024608466946FEF7D7
:10D1400039FB1FBD7FB5074B14460546083B9A1CAB
:10D150006846FFF7E6FF224669462846FFF7CDFFFF
:10D160007FBD0000A676010070B5044600780E462B
:10D17000012813D0052802D0092813D10EE0A06899
:10D1800061690578052003F0DBF8052D0AD07823C6
:10D1900000220520616903F029F803E00520616998
:10D1A00003F0CEF831462046BDE8704001F086B865
:10D1B00010B500F12D02C3799478411D64F0030489
:10D1C0002340C371DB070DD04B79547923404B7159
:10D1D0000B79127913400B718278C9788A4200D991
:10D1E000817010BD00224A710A71F5E7417801296A
:10D1F00000D00C21017070472DE9F04F93B04FF033
:10D20000000B0C690D468DF820B0097801260C2022
:10D2100017464FF00D084FF0110A4FF008091B296F
:10D2200075D2DFE811F01B00C30206031E035D0385
:10D230007003A203B703F803190461049304A00464
:10D24000EC042A05340552055D05EE053106340669
:10D2500063067F06F9061D07E606EB0614B1207883
:10D260001D282AD0D5F808805FEA08004FD0012099
:10D270008DF82000686A02220D908DF824200A2083
:10D280008DF82500A8690A90A8880028EED098F8A3
:10D29000001091B10F2910D27ED2DFE801F07D138A
:10D2A00049DEFEFDFCFBFAF938089CF8F70002287D
:10D2B0002DD124B120780C2801D00026EFE38DF881
:10D2C0002020CBE10520696A03F03AF8A8880728F6
:10D2D000EED1204600F0EDFF022809D0204600F0F4
:10D2E000E8FF032807D9204600F0E3FF072802D211
:10D2F0000120207004E0002CB8D020780128D7D17C
:10D3000098F80400C11F0A2902D30A2061E0C4E191
:10D31000A070D8F80010E162B8F80410218698F8DF
:10D32000060084F83200012028700320207044E0B9
:10D330000728BDD1002C99D020780D28B8D198F8B5
:10D34000031094F82F20C1F3C000C2F3C0021042B2
:10D3500001D0062000E00720890707D198F80510C2
:10D360000142D2D198F806100142CED194F8312072
:10D3700098F8051020EA02021142C6D194F8322032
:10D3800098F8061090430142BFD198F80400C11FDD
:10D390000A29BAD2617D00E006E281427ED8D8F83F
:10D3A00000106160B8F80410218198F80600A0729E
:10D3B000012028700E20207003208DF82000686A5C
:10D3C0000D9004F12D000990601D0A900F300B9014
:10D3D00022E12875FDE3412891D1204600F069FF44
:10D3E000042802D1E078C00704D1204600F061FF94
:10D3F0000F2884D1A88CD5F80C8080B24FF0400B58
:10D40000E669FFF747FC324641465B464E46CDF89B
:10D410000090FFF750F80B208DF82000686A0D90FF
:10D42000E0690990002108A8FFF79EFE20780428F3
:10D4300006D0A07D58B1012809D003280AD049E3BD
:10D4400005202070032028708DF82060CDE184F83D
:10D4500000A032E712202070E9E11128BCD120465B
:10D4600000F027FF042802D1E078C00719D0204639
:10D4700000F01FFF062805D1E078C00711D1A07D7C
:10D4800002280ED0204600F014FF08E0CAE081E038
:10D490006FE14EE121E101E1E7E017E0ADE11128A4
:10D4A0009AD1102208F1010104F13C0009F04AFE72
:10D4B000607801287ED012202070E078C00760D00C
:10D4C000A07D0028C8D00128C6D05AE0112890D1EC
:10D4D000204600F0EEFE082804D0204600F0E9FEC9
:10D4E000132886D104F16C00102208F101010646D0
:10D4F00009F028FE207808280DD014202070E1784B
:10D50000C8070DD0A07D02280AD06278022A04D074
:10D510000328A1D035E00920F0E708B1012837D170
:10D52000C80713D0A07D02281DD000200090D4E9A8
:10D53000062133460EA8FFF776FC10220EA904F14F
:10D540003C0009F0D3FDC8B1042042E7D4E9091238
:10D55000201D8DE8070004F12C0332460EA8616BF4
:10D56000FFF76FFDE9E7606BC1F34401491E0068F6
:10D57000C84000F0010040F08000D7E7207809287B
:10D5800006D185F800908DF8209033E32870ECE305
:10D590000920FBE711289AD1204600F08AFE0A28CC
:10D5A00002D1E078C00704D1204600F082FE1528A1
:10D5B0008DD100E08DE104F13C00102208F1010161
:10D5C000064609F0BFFD20780A2816D016202070E4
:10D5D000D4E90932606B611D8DE80F0004F15C0332
:10D5E00004F16C0247310EA8FFF7C0FC10220EA90F
:10D5F000304609F07BFD18B1F5E20B20207071E296
:10D600002046FFF7D5FDA078216A0A18C0F1100165
:10D61000104609F016FE23E3394608A8FFF7A4FDDB
:10D6200006463BE20228B6D1204600F042FE04281E
:10D6300004D3204600F03DFE082809D3204600F020
:10D6400038FE0E2829D3204600F033FE122824D2BB
:10D65000A07D02289FD10E208DF82000686A0D90D1
:10D6600098F801008DF82400F0E3022893D12046B9
:10D6700000F01FFE002810D0204600F01AFE0128FE
:10D68000F9D0204600F015FE0C28F4D004208DF8C7
:10D69000240098F801008DF825005EE21128FCD1E5
:10D6A000002CFAD020781728F7D16178606A022917
:10D6B00011D0002101EB4101182606EBC101102217
:10D6C000405808F1010109F03DFD0520696A00F0AC
:10D6D000E3FD2670F1E50121ECE70B28DDD1002CFC
:10D6E000DBD020781828D8D16078616A02281CD055
:10D6F0005FF0000000EB4002102000EBC200095870
:10D70000B8F8010008806078616A02280FD0002014
:10D7100000EB4002142000EBC2000958404650F8CC
:10D72000032F0A604068486039E00120E2E70120E9
:10D73000EEE71128B1D1002CAFD020781928ACD158
:10D740006178606A022912D05FF0000101EB4101AB
:10D750001C2202EBC1011022405808F1010109F01E
:10D76000F1FC0520696A00F097FD1A20B6E001215E
:10D77000ECE7082891D1002C8FD020781A288CD182
:10D78000606A98F80120017862F347010170616ACC
:10D79000D8F8022041F8012FB8F80600888005204B
:10D7A000696A00F079FD8EE2072012E638780128D8
:10D7B00094D1182204F11400796809F008FDE07989
:10D7C000C10894F82F0001EAD001E07861F300006D
:10D7D000E070217D002974D12178032909D0C00788
:10D7E00025D0032028708DF82090686A0D90412084
:10D7F00004E3607DA178884201D90620E9E502268C
:10D800002671E179204621F0E001E171617A21F091
:10D81000F0016172A17A21F0F001A172FFF7C8FC5A
:10D820002E708DF82090686A0D900720E6E20420A3
:10D83000ACE6387805289DD18DF82000686A0D90F7
:10D84000B8680A900720ADF824000A988DF830B027
:10D850006168016021898180A17A81710420207032
:10D86000F4E23978052985D18DF82010696A0D9187
:10D87000391D09AE0EC986E80E004121ADF824100D
:10D880008DF830B01070A88CD7F80C8080B240268C
:10D89000A769FFF711FA41463A463346C846CDF824
:10D8A0000090FEF73CFE002108A8FFF75DFCE07841
:10D8B00020F03E00801CE0702078052802D00F2068
:10D8C0000CE049E1A07D20B1012802D0032802D05C
:10D8D00002E10720BFE584F80080EEE42070ECE46C
:10D8E000102104F15C0002F052FA606BB0BBA07D25
:10D8F00018B1012801D00520FDE006202870F74866
:10D900006063A063BEE23878022894D1387908B108
:10D910002875B3E3A07D022802D0032805D022E0B9
:10D92000B8680028F5D060631CE06078012806D054
:10D93000A07994F82E10012805D0E84806E0A179D6
:10D9400094F82E00F7E7B8680028E2D06063E0782A
:10D95000C00701D0012902D0E04803E003E0F868E5
:10D960000028D6D0A063062010E68DF82090696AC2
:10D970000D91E1784846C90709D06178022903D1A1
:10D98000A17D29B1012903D0A17D032900D0072061
:10D99000287031E138780528BBD1207807281ED0BF
:10D9A00084F800A005208DF82000686A0D90B86802
:10D9B0000A90ADF824A08DF830B003210170E17811
:10D9C000CA070FD0A27D022A1AD000210091D4E903
:10D9D000061204F15C03401CFFF725FA67E384F8A4
:10D9E0000090DFE7D4E90923211D8DE80E0004F142
:10D9F0002C0304F15C02401C616BFFF722FB56E331
:10DA0000626BC1F34401491E1268CA4002F0010171
:10DA100041F08001DAE738780528BDD18DF8200083
:10DA2000686A0D90B8680A90ADF824A08DF830B0FF
:10DA3000042100F8011B102204F15C0109F082FBB3
:10DA4000002108A8FFF790FB2078092801D01320B7
:10DA500044E70A2020709BE5E078C10742D0A17D11
:10DA6000012902D0022927D038E0617808A80129CD
:10DA700016D004F16C010091D4E9061204F15C03A4
:10DA8000001DFFF7BBFA0A20287003268DF82080BE
:10DA9000686A0D90002108A8FFF766FBDDE2C3E28B
:10DAA00004F15C010091D4E9062104F16C03001D2E
:10DAB000FFF7A4FA0026E9E7C0F3440114290DD2C8
:10DAC0004FF0006101EBB0104FEAB060E070607899
:10DAD000012801D01020BEE40620FFE6607801286E
:10DAE0003FF4B7AC0A2051E5E178C90708D0A17D21
:10DAF000012903D10B20287004202FE028702DE08D
:10DB00000E2028706078616B012817D004F15C0347
:10DB100004F16C020EA8FFF7E1FA2046FFF748FB7C
:10DB2000A0780EAEC0F11001304409F08AFB062047
:10DB30008DF82000686A09960D909AE004F16C0354
:10DB400004F15C020EA8FFF7C9FAE9E73978022967
:10DB500003D139790029D1D029758FE28DF82000C1
:10DB6000686A0D9058E538780728F6D1D4E909217C
:10DB70006078012808D004F16C00CDE90002029120
:10DB800005D104F16C0304E004F15C00F5E704F155
:10DB90005C0304F14C007A680646216AFFF764F9D9
:10DBA0006078012821D1A078216A0A18C0F11001FB
:10DBB000104609F046FBD4E90923606B04F12D01FE
:10DBC0008DE80F0004F15C0304F16C0231460EA8ED
:10DBD00000E055E2FFF7CAF910220EA904F13C005B
:10DBE00009F084FA08B10B20AFE485F8008000BF8B
:10DBF0008DF82090686A0D908DF824A00CE5387897
:10DC00000528AAD18DF82000686A0D90B8680A909E
:10DC1000ADF824A08DF830B080F80080617801293B
:10DC20001AD0D4E9093204F12D01A66B03920096B3
:10DC3000CDE9011304F16C0304F15C0204F14C0121
:10DC4000401CFFF793F9002108A8FFF78DFA6078D0
:10DC5000012805D0152041E6D4E90923611DE4E738
:10DC60000E20287006208DF82000686ACDF824B0B8
:10DC70000D90A0788DF82800CEE438780328C0D124
:10DC8000E079C00770D00F202870072066E7387849
:10DC900004286BD11422391D04F1140009F097FAFD
:10DCA000616A208CA1F80900616AA078C871E179E5
:10DCB000626A01F003011172616A627A0A73616A31
:10DCC000A07A81F82400162060E485F800A08DF881
:10DCD0002090696A50460D9190E00000A676010000
:10DCE0003878052842D1B868A8616178606A02294D
:10DCF00001D0012100E0002101EB4101142606EBD7
:10DD0000C1014058082102F042F86178606A022996
:10DD100001D0012100E0002101EB410106EBC1012E
:10DD2000425802A8E169FFF70DFA6078626A02289A
:10DD300001D0012000E0002000EB4001102000EBAA
:10DD4000C1000223105802A90932FEF7F1FF626AEE
:10DD5000FD4B0EA80932A169FFF7E3F96178606A0B
:10DD6000022904D0012103E042E18BE0BDE0002163
:10DD700001EB4101182606EBC101A27840580EA91B
:10DD800009F0E0F96178606A022901D0012100E020
:10DD9000002101EB410106EBC1014058A178084484
:10DDA000C1F1100109F04DFA05208DF82000686AD4
:10DDB0000D90A8690A90ADF824A08DF830B0062126
:10DDC00001706278616A022A01D0012200E000221B
:10DDD00002EB420206EBC202401C8958102209F0F5
:10DDE000B1F9002108A8FFF7BFF91220C5F818B053
:10DDF00028708DF82090686A0D900B208DF8240013
:10DE00000AE43878052870D18DF82000686A0D90F2
:10DE1000B8680A900B20ADF824000A980721017019
:10DE20006178626A022901D0012100E0002101EB42
:10DE30004103102101EBC30151580988A0F80110DA
:10DE40006178626A022902D0012101E02FE10021FC
:10DE500001EB4103142101EBC30151580A6840F85A
:10DE6000032F4968416059E01920287001208DF87E
:10DE7000300077E6162028708DF830B0002108A811
:10DE8000FFF772F9032617E114202870B0E63878FE
:10DE900005282AD18DF82000686A0D90B8680A908C
:10DEA000ADF824A08DF830B080F800906278616AF7
:10DEB0004E46022A01D0012200E0002202EB42027B
:10DEC0001C2303EBC202401C8958102209F03AF9C6
:10DED000002108A8FFF748F9152028708DF8206068
:10DEE000686A0D908DF824603CE680E0387805285B
:10DEF0007DD18DF82000686A0D90B8680A90ADF861
:10DF000024900921017061690978490841706169AB
:10DF100051F8012FC0F802208988C18020781C2880
:10DF2000A8D1A1E7E078C00702D04FF0060C01E0CD
:10DF30004FF0070C607802280AD04FF0000000BFB5
:10DF400000EB040101F1090105D04FF0010004E0EC
:10DF50004FF00100F4E74FF000000B78204413EA83
:10DF60000C030B7010F8092F02EA0C02027004D1A6
:10DF70004FF01B0C84F800C0D2B394F801C0BCF180
:10DF8000010F00D09BB990F800C0E0465FEACC7C5E
:10DF900004D028F001060670102606E05FEA887CAF
:10DFA00005D528F00206067013262E70032694F875
:10DFB00001C0BCF1020F00D092B991F800C05FEA35
:10DFC000CC7804D02CF001060E70172106E05FEA31
:10DFD0008C7805D52CF002060E70192121700026D0
:10DFE0000078D0BBCAB3C3BB1C20207035E012E060
:10DFF00002E03878062841D11A2019E42078012857
:10E000003CD00C283AD02046FFF7F0F809208DF8D4
:10E010002000686A0D9031E03878052805D0062088
:10E02000387003261820287046E005218DF820104E
:10E03000686A0D90B8680A900220ADF824000120AB
:10E040008DF830000A980170297D4170394608A882
:10E05000FFF78AF8064618202870012E0ED02BE014
:10E0600001208DF82000686A0D9003208DF82400AF
:10E07000287D8DF8250085F814B012E0287D80B148
:10E080001D202070172028708DF82090686A0D9050
:10E0900002208DF82400394608A8FFF765F80646E7
:10E0A0000AE00CB1FE2020709DF8200020B1002174
:10E0B00008A8FFF759F810E413B03046BDE8F08F18
:10E0C0002DE9F04387B00C464E6900218DF804100D
:10E0D00001202578034602274FF007094FF0050C71
:10E0E00085B1012D53D0022D39D1FE2030708DF82D
:10E0F0000030606A059003208DF80400207E8DF8C2
:10E10000050063E02179012925D002292DD00329BA
:10E1100028D0042923D1B17D022920D131780D1FC7
:10E12000042D04D30A3D032D01D31D2917D12189C4
:10E13000022914D38DF80470237020899DF80410EF
:10E1400088421BD2082001E09E7601008DF8000075
:10E15000606A059057E070780128EBD0052007B081
:10E16000BDE8F0831D203070E4E771780229F5D115
:10E1700031780C29F3D18DF80490DDE7083402F8EA
:10E1800004CB94E80B0082E80B000320E7E7157846
:10E19000052DE4D18DF800C0656A05959568029556
:10E1A0008DF8101094F80480B8F1010F13D0B8F175
:10E1B000020F2DD0B8F1030F1CD0B8F1040FCED14F
:10E1C000ADF804700E202870207E6870002168462B
:10E1D000FEF7CAFF0CE0ADF804700B202870207E1B
:10E1E000002100F01F0068706846FEF7BDFF377021
:10E1F0000020B4E7ADF804708DF8103085F800C049
:10E20000207E6870277011466846FEF7ADFFA6E7CE
:10E21000ADF804902B70207F6870607F00F00100E3
:10E22000A870A07F00F01F00E870E27F2A71C0078D
:10E230001CD094F8200000F00700687194F82100C9
:10E2400000F00700A87100216846FEF78DFF2868DE
:10E25000F062A8883086A87986F83200A0694078F4
:10E2600070752879B0700D203070C1E7A97169719F
:10E27000E9E700B587B005280CD101208DF8000032
:10E280008DF80400002005918DF8050001466846D0
:10E29000FEF76AFF07B000BD70B50C46054602F0F8
:10E2A0004FF821462846BDE870407823002201F04F
:10E2B0009DBF08B1007870470C20704770B50C0006
:10E2C00005784FF000010CD021702146F4F7A4FF2F
:10E2D00069482178405D884201D1032070BD022049
:10E2E00070BDF4F799FF002070BD0279012A05D0B6
:10E2F00000220A704B78012B02D003E00420704703
:10E300000A758A6102799300521C0271C150032080
:10E310007047F0B587B00F4605460124287905EB14
:10E32000800050F8046C7078411E02290AD25249CC
:10E330003A46083901EB8000314650F8043C284643
:10E34000984704460CB1012C11D12879401E10F0D9
:10E35000FF00287101D00324E0E70A208DF80000B7
:10E36000706A0590002101966846FFF7A7FF032C0D
:10E37000D4D007B02046F0BD70B515460A46044615
:10E3800029461046FFF7C5FF064674B12078FE28DF
:10E390000BD1207C30B100202870294604F10C00FC
:10E3A000FFF7B7FF2046FEF721FF304670BD7047EC
:10E3B00070B50E4604467C2108F065FF0225012E4B
:10E3C00003D0022E04D0052070BD0120607000E053
:10E3D00065702046FEF70AFFA575002070BD28B1C4
:10E3E000027C1AB10A4600F10C01C5E70120704712
:10E3F00010B5044686B0052001F0A2FF2078FE2863
:10E4000006D000208DF8000069462046FFF7E7FFA0
:10E4100006B010BD7CB50E4600218DF80410417881
:10E42000012903D0022903D0002405E0046900E09B
:10E4300044690CB1217C89B16D4601462846FFF73D
:10E4400054FF032809D1324629462046FFF794FF9E
:10E450009DF80410002900D004207CBD04F10C05B7
:10E46000EBE730B40C460146034A204630BC034B70
:10E470000C3AFEF756BE0000E47601009E760100DD
:10E4800070B50D46040011D085B12101284608F071
:10E49000D8FE10224E49284608F054FE4C4801216F
:10E4A0000838018044804560002070BD012070BDA7
:10E4B00070B5474E00240546083E10E07068AA7B00
:10E4C00000EB0410817B914208D1C17BEA7B914231
:10E4D00004D10C22294608F009FE30B1641C3088B2
:10E4E0008442EBDB4FF0FF3070BD204670BD70B54D
:10E4F0000D46060006D02DB1FFF7DAFF002803DB3A
:10E50000401C14E0102070BD314C083C208862880B
:10E51000411C914201D9042070BD6168102201EBB9
:10E520000010314608F00EFE2088401C2080287024
:10E53000002070BD70B514460D0018D0BCB100218C
:10E54000A170022802D0102811D105E0288870B1EE
:10E550000121A170108008E02846FFF7A9FF0028DC
:10E5600005DB401CA070A8892080002070BD012020
:10E5700070BD70B5054614460E000BD000203070FB
:10E58000A878012808D005D91149A1F108010A8805
:10E5900090420AD9012070BD24B1287820702888C3
:10E5A000000A5070022008700FE064B14968102220
:10E5B00001EB00112046103908F0C4FD28782073C3
:10E5C0002888000A607310203070002070BD0000A1
:10E5D000700000202DE9F04190460C4607460025CA
:10E5E000FE48072F00EB881607D2DFE807F0070781
:10E5F000070704040400012500E0FFDF06F814709B
:10E60000002D13D0F548803000EB880191F82700E9
:10E61000202803D006EB4000447001E081F826403A
:10E6200006EB44022020507081F82740BDE8F081BD
:10E63000F0B51F4614460E460546202A00D1FFDFDE
:10E64000E649E648803100EB871C0CEB440001EB07
:10E650008702202E07D00CEB460140784B7848709B
:10E66000184620210AE092F82530407882F82500EB
:10E67000F6E701460CEB410005704078A142F8D165
:10E6800092F82740202C03D00CEB4404637001E087
:10E6900082F826300CEB41042023637082F82710A7
:10E6A000F0BD30B50D46CE4B44190022181A72EB5E
:10E6B000020100D2FFDFCB48854200DDFFDFC94801
:10E6C0004042854200DAFFDFC548401C844207DA39
:10E6D000002C01DB204630BDC148401C201830BD55
:10E6E000BF48C043FAE710B504460168407ABE4A05
:10E6F00052F82020114450B10220084420F07F40FD
:10E70000F4F773FB94F90810BDE81040C9E7042042
:10E71000F3E72DE9F047B14E803696F82D50DFF83B
:10E72000BC9206EB850090F8264034E009EB851793
:10E730004FF0070817F81400012806D004282ED03F
:10E7400005282ED0062800D0FFDF01F0E3F80146AF
:10E7500007EB4400427806EB850080F8262090F80D
:10E760002720A24202D1202280F82720084601F06B
:10E77000DCF82A4621460120FFF72CFF9B48414642
:10E7800000EB041002682046904796F82D5006EBE7
:10E79000850090F82640202CC8D1BDE8F0870220E3
:10E7A00000E003208046D0E710B58C4C2021803457
:10E7B00084F8251084F8261084F82710002084F8A7
:10E7C000280084F82D0084F82E10411EA16044F822
:10E7D000100B2074607420736073A0738449E07719
:10E7E00020750870487000217C4A103C02F8110026
:10E7F000491CC9B22029F9D30120F4F7EAF9002015
:10E80000F4F7E7F9012084F82200FAF73FF9794894
:10E81000FAF74BF9764CA41E20707748FAF745F9C1
:10E820006070BDE81040F4F761B910B5F4F783F9F2
:10E830006F4CA41E2078FAF751F96078FAF74EF978
:10E84000BDE8104001F09EB8202070472DE9F34F3D
:10E85000624E0025803606EB810A89B09AF82500C1
:10E86000202822D0691E02916049009501EB00101A
:10E870008146D0E90112C0680391CDE90420B08B34
:10E88000ADF81C00B07F8DF81E009DF81500C8B1D2
:10E890000227554951F820400399E219114421F00B
:10E8A0007F41019184B102210FE00120F4F791F939
:10E8B0000020F4F78EF9F4F75CF901F063F886F8BC
:10E8C0002F50A0E00427E4E700218DF8181002285B
:10E8D00001D0012820D10398391901440998081A58
:10E8E0009DF81C1020F07F4001B10221333181429C
:10E8F0000BD203208DF815000398C4F13201401AA1
:10E9000020F07F40322403900CE096F8240018B9E0
:10E9100001F0A0F900284CD0322C03D214B101F040
:10E9200025F801E001F02EF8314A107818B393462B
:10E930005278039B121B00219DF81840984601282D
:10E940001AD0032818D000208DF81E00002A04DDFC
:10E95000981A039001208DF818009DF81C0000B152
:10E9600002210398254A20F07F40039003AB0998C9
:10E9700001F014F810B110E00120E5E79DF81D004A
:10E9800018B99BF80000032812D08DF81C50CDF860
:10E990000C808DF818408DF81E509DF8180058B165
:10E9A00003980123C11900221846F4F765F906E01F
:10E9B00000200BB0BDE8F08F0120F4F70AF999F9B7
:10E9C0000C20012300200199F4F756F9012086F864
:10E9D0002F008AF828502022694611E0F006002016
:10E9E000FF7F841E0020A107F4760100F0040020C0
:10E9F000820000209B00010013E70000FFFF3F00A2
:10EA0000F94808F0E4FB0120D3E72DE9F05FDFF8D7
:10EA1000D883064608EB860090F82550202D1FD09D
:10EA2000A8F180002C4600EB8617A0F50079DFF8EE
:10EA3000BCB305E0A24607EB4A004478202C0AD07C
:10EA4000F4F766F909EB04135A4601211B1D00F087
:10EA5000A5FF0028EED0AC4202D0334652461EE05D
:10EA6000E34808B1AFF30080F4F752F998F82F208B
:10EA70006AB1D8F80C20411C891A0902CA1701EBA7
:10EA800012610912002902DD0020BDE8F09F314625
:10EA9000FFF7DCFE08B10120F7E733462A462021C4
:10EAA0000420FFF7C5FDEFE72DE9F041CE4C2569C5
:10EAB000F4F72EF9401B0002C11700EB11600012A1
:10EAC00000D4FFDF94F8220000B1FFDF012784F8B3
:10EAD000227094F82E00202800D1FFDF94F82E60D9
:10EAE000202084F82E00002584F82F5084F8205030
:10EAF00084F82150BF4825600078022833D00328CD
:10EB000031D000202077A068401C05D04FF0FF30A6
:10EB1000A0600120F4F75DF80020F4F75AF8F4F74C
:10EB200052F9F4F74AF9F4F724F807F043FEB24833
:10EB3000056005604FF0E0214FF40040B846C1F891
:10EB40008002F4F7C3F994F82D703846FFF75DFFA3
:10EB50000028FAD0A448803800EB871010F816007F
:10EB6000022802D006E00120CCE73A4631460620D2
:10EB7000FFF730FD84F8238004EB870090F826002F
:10EB8000202804D09B48801E4078F9F7ADFF207FF5
:10EB9000002803D0F4F707F92577657746E50146A5
:10EBA000914810B590F82D200024803800EB821099
:10EBB00010F814302BB1641CE4B2202CF8D32020C0
:10EBC00010BD8E4800EB0410016021460120FFF7C4
:10EBD00001FD204610BD10B5012801D0032800D149
:10EBE00071B3814A92F82D307F4C0022803C04EBB7
:10EBF000831300BF13F812400CB1082010BD521C43
:10EC0000D2B2202AF6D37B4A48B1022807D007297E
:10EC100016D2DFE801F01506080A0C0E10000021DC
:10EC20000AE01B2108E03A2106E0582104E07721A0
:10EC300002E0962100E0B52151701070002010BD57
:10EC4000072010BD6B4810B54078F4F7CEF880B2BD
:10EC500010BD10B5202811D2634991F82D30A1F1D3
:10EC6000800202EB831414F810303BB191F82D3080
:10EC700002EB831212F81020012A01D0002010BDEF
:10EC800091F82D2001460020FFF7A4FC012010BDC3
:10EC900010B5F4F73DF8BDE81040F4F7A6B82DE93B
:10ECA000F0410E46504F01782025803F0C4607EB7F
:10ECB000831303E0254603EB45046478944202D0B5
:10ECC000202CF7D108E0202C06D0A14206D103EB7E
:10ECD00041014978017007E00020A7E403EB4400FC
:10ECE00003EB450140784870454F7EB127B10021C4
:10ECF00040F2DA30AFF300803078A04206D127B17D
:10ED0000002140F2DD30AFF30080357027B10021E3
:10ED100040F2E230AFF30080012087E410B5426892
:10ED20000B689A1A1202D41702EB1462121216D44C
:10ED3000497A91B1427A82B9324A006852F8211078
:10ED4000126819441044001D891C081A0002C117DA
:10ED500000EB11600012322801DB012010BD002001
:10ED600010BD2DE9F04781461F48244E00EB81007D
:10ED7000984690F825402020107006F50070154642
:10ED800000EB81170BE000BF06EB04104946001DA5
:10ED9000FFF7C4FF28B107EB44002C704478202C07
:10EDA000F2D1297888F8001013E000BF06EB0415B3
:10EDB000291D4846FFF7B2FF68B988F80040A97BD3
:10EDC00099F80A00814201D80020E6E407EB4400EC
:10EDD0004478202CEAD10120DFE42DE9FC410E46E5
:10EDE00007460024054D18E070070020FFFF3F0094
:10EDF000000000008200002000F50040F004002028
:10EE000000000000F47601009DF8000005EB001002
:10EE10008168384600F0D6FD01246B4601AA3146D0
:10EE20003846FFF79EFF0028EED02046BDE8FC8163
:10EE300070B50446FF480125A54300EB841100EBA3
:10EE40008510402208F07EF9FB4E26B1002140F2E9
:10EE50005C40AFF30080F748803000EB850100EBA9
:10EE60008400D0F82500C1F8250026B100214FF418
:10EE70008C60AFF30080284670BD2DE9FC418446CC
:10EE8000EC481546089C00EB85170E4617F8140051
:10EE9000012803D0022801D00020C7E70B46E74A2B
:10EEA0000121604600F07AFDA8B101AB6A4629460F
:10EEB0003046FFF756FF70B1DE489DF804209DF8FC
:10EEC0000010803000EB85068A4208D02B460520D2
:10EED000FFF7AEFB0BE02A462146042014E0202970
:10EEE00003D007EB4100407801E096F8250007EBDE
:10EEF000440148709DF80000202809D007EB40002D
:10EF000044702A4621460320FFF764FB01208DE769
:10EF100006F8254F0120F070F3E7C94901EB001016
:10EF2000001DFFF7E0BB7CB51D46134604460E46A8
:10EF300000F1080221461846F3F764FF94F908002F
:10EF40000F2804DD1F3820722068401C206096B115
:10EF50000220BC4951F82610461820686946801BDB
:10EF600020F07F40206094F908002844C01C1F282E
:10EF700003DA012009E00420EBE701AAF3F742FFDE
:10EF80009DF8040010B10098401C00900099206882
:10EF900031440844C01C20F07F4060607CBD2DE9F6
:10EFA000FE430C46064609786079907220799846AF
:10EFB0001546507241B19F48803090F82E1020299C
:10EFC0000AD00069401D0BE0D4E90223217903B087
:10EFD0002846BDE8F043A6E79B484178701D0844E9
:10EFE00020F07F47217900222846A368FFF79BFF86
:10EFF0003946284600F0E6FCD4E902322179684619
:10F00000FFF791FF41462846019CFFF7E6FE2B469D
:10F0100022460021304600F0C1FC002803D13146D1
:10F02000284600F0CFFCBDE8FE832DE9FE4F814667
:10F0300000F084FC30B1002799F8000020B10020D6
:10F04000BDE8FE8F0127F7E77A4D7B4C4FF0000AB1
:10F05000803524B1002140F2D340AFF3008095F811
:10F060002D8085F823A0002624B100214FF49B6059
:10F07000AFF300801FB94046FFF7DAFE804624B1A7
:10F0800000214FF49C60AFF30080F3F741FE43464C
:10F090006A464946FFF783FF24B1002140F2E6406B
:10F0A000AFF3008095F82E0020280CD02969009835
:10F0B000401A0002C21700EB1260001203D5684626
:10F0C00000F080FC012624B100214FF49E60AFF3D4
:10F0D000008095F823000028BBD124B1002140F224
:10F0E000F640AFF30080F3F713FE6B46534A00215E
:10F0F00000F054FC0028A3D027B941466846FFF72A
:10F100006CFE064326B16846FFF7EDFAC9F8080021
:10F1100024B1002140F20950AFF3008001208FE7B5
:10F120002DE9FF5F8A46814600F008FC414C80349F
:10F1300010B39AF80000002710B1012800D0FFDFBB
:10F140003D4D25B1002140F27F50AFF300800120FA
:10F15000A84600905FEA080604D0002140F28750DC
:10F16000AFF30080009800F0E0FB94F82D500020F1
:10F1700084F8230067B119E094F82E0001272028B5
:10F1800000D1FFDF9AF800000028D9D0FFDFD7E7D1
:10F190002846FFF74DFE054626B1002140F291506A
:10F1A000AFF3008094F823000028D3D126B10021CA
:10F1B00040F29B50AFF30080F3F7AAFD83462B4645
:10F1C00001AA5146FFF7EBFE5FEA060804D00021D2
:10F1D00040F2A250AFF300803B462A4601A95846B0
:10F1E000CDF80090FFF749FE064604EB850090F845
:10F1F00028B0B8F1000F04D0002140F2A950AFF3BD
:10F20000008000F087FB0090B8F1000F04D00021CF
:10F2100040F2AF50AFF3008094F82300002899D15A
:10F22000B8F1000F04D0002140F2B750AFF30080D6
:10F2300003490BE0F006002000000000FFFF3F0044
:10F24000F0040020F47601008200002001EB091098
:10F250000DF1040C00F104009CE80E0080E80E00A3
:10F260004EB35FEA080604D0002140F2C450AFF369
:10F2700000803BEA070012D094F82E0020280ED11F
:10F2800026B1002140F2C950AFF300802846FFF7B5
:10F29000BCFB20B99AF80000D8B3012849D0B8F1D6
:10F2A000000F04D0002140F2E650AFF30080284662
:10F2B00000F029FB01265FEA080504D0002140F296
:10F2C000EF50AFF30080009800F02FFB25B1002134
:10F2D00040F2F350AFF300808EB194F82D0004EBB0
:10F2E000800090F82600202809D025B1002140F2A6
:10F2F000FA50AFF30080F9484078F9F7F5FB25B1F3
:10F30000002140F2FF50AFF3008004B03046BDE86A
:10F31000F09FFFE7B8F1000F04D0002140F2D15078
:10F32000AFF3008094F82D2049460420FFF752F9EE
:10F33000C0E7002E3FF40EAF002140F2DC50AFF3E7
:10F34000008007E72DE9F84FE54D814695F82D003F
:10F350004FF00008E34C4FF0010B474624B1002169
:10F3600040F20D60AFF30080584600F0DEFA85F8F9
:10F37000237024B1002140F21260AFF3008095F8B1
:10F380002D00FFF755FD064695F8230028B1002C07
:10F39000E4D000214FF4C3604BE024B1002140F2DF
:10F3A0001C60AFF30080CE48803800EB861111F866
:10F3B0001900032856D1334605EB830A4A469AF8CA
:10F3C0002500904201D1012000E0002000900AF1C8
:10F3D00025000021FFF763FC01460098014203D09D
:10F3E00001228AF82820AF77E1B324B1002140F24E
:10F3F0002160AFF30080324649460120FFF7EAF86A
:10F400009AF828A024B1002140F22C60AFF30080CC
:10F4100000F080FA834624B1002140F23160AFF35E
:10F42000008095F8230038B1002C97D0002140F2DD
:10F430003560AFF3008091E7BAF1000F07D095F87F
:10F440002E00202803D13046FFF7DFFAE0B124B1C7
:10F45000002140F24960AFF30080304600F053FADB
:10F460004FF0010824B1002140F25260AFF3008058
:10F47000584600F05AFA24B1002140F25660AFF32A
:10F4800000804046BDE8F88F002CF1D0002140F20A
:10F490004460AFF30080E6E70020F3F773BB012080
:10F4A000F3F770BB8D48007870472DE9F0418C4C24
:10F4B00094F82E0020281FD194F82D6004EB8607C5
:10F4C00097F82550202D00D1FFDF8549803901EBC9
:10F4D000861000EB4500407807F8250F0120F870F2
:10F4E00084F82300294684F82E5032460220223424
:10F4F000FFF770F8002020700FE42DE9F0417A4EFC
:10F50000774C012538B1012821D0022879D0032871
:10F510007DD0FFDFF0E700F029FAFFF7C6FF207E7D
:10F5200000B1FFDF84F821500020F3F752FBA168FF
:10F53000481C04D0012300221846F3F79DFB14F861
:10F540002E0F217806EB01110A68012154E0FFF724
:10F55000ACFF0120F3F73DFB94F8210050B1A06807
:10F56000401C07D014F82E0F217806EB01110A6811
:10F57000062141E0207EDFF86481002708F10208BF
:10F58000012803D002281ED0FFDFB5E7A777F3F7E5
:10F590000AFC98F80000032801D165772577607D83
:10F5A000524951F8200094F8201051B948B16168CF
:10F5B0000123091A00221846F3F75EFB0220207689
:10F5C0009AE7277698E784F8205000F0CFF9A07FDB
:10F5D00050B198F8010061680123091A0022184609
:10F5E000F3F74AFB257600E0277614F82E0F2178F2
:10F5F00006EB01110A680021BDE8F041104700E068
:10F6000005E036480078BDE8F041F9F76DBAFFF73C
:10F610004CFF14F82E0F217806EB01110A68052122
:10F62000EAE710B52E4C94F82E00202800D1FFDF19
:10F6300014F82E0F21782C4A02EB01110A68BDE85C
:10F640001040042110477CB5254C054694F82E0047
:10F65000202800D1FFDFA068401C00D0FFDF94F815
:10F660002E00214901AA01EB0010694690F90C0017
:10F670002844F3F7C7FB9DF904000F2801DD0120A2
:10F6800000E00020009908446168084420F07F41B0
:10F69000A16094F82100002807D002B00123BDE842
:10F6A000704000221846F3F7E7BA7CBD30B5104A27
:10F6B0000B1A541CB3EB940F1ED3451AB5EB940FE1
:10F6C0001AD3934203D9101A43185B1C14E09542D5
:10F6D00010D9511A0844401C43420DE0800000201C
:10F6E0007007002000000000F0040020F476010004
:10F6F000FF7F841EFFDF0023184630BD0123002258
:10F7000001460220F3F7B8BA0220F3F762BAF3F722
:10F71000FFBA2DE9FC47B14C054694F82E0020288D
:10F7200000D1FFDF642D58D3AD4A0021521B71EB8D
:10F73000010052D394F82E20A0462046DFF8A49270
:10F7400090F82D7009EB0214D8F8000001AA2844A3
:10F750006946F3F757FB9DF90400002802DD009885
:10F76000401C0090A068009962684618B21A22F006
:10F770007F42B2F5800F30D208EB8702444692F800
:10F780002520202A0AD009EB02125268101A000222
:10F79000C21700EB1260001288421EDBA068401CFA
:10F7A00010D0F3F7B5FAA168081A0002C11700EBF0
:10F7B00011600012022810DD0120F3F70AFA4FF061
:10F7C000FF30A06020682844206026F07F40206140
:10F7D000012084F82300BDE8FC870020FBE72DE929
:10F7E000F0477E4C074694F82D00A4F1800606EB06
:10F7F000801010F8170000B9FFDF94F82D50A046D4
:10F80000794C24B1002140F66500AFF3008040F64A
:10F81000710940F67A0A06EB851600BF16F8170044
:10F82000012818D0042810D005280ED006280CD0A6
:10F830001CB100214846AFF3008020BF002CEDD062
:10F8400000215046AFF30080E8E72A463946012000
:10F85000FEF7C0FEF2E74FF0010A4FF000094546FF
:10F8600024B1002140F68100AFF30080504600F043
:10F870005CF885F8239024B1002140F68600AFF3B0
:10F88000008095F82D00FFF7D3FA064695F823007F
:10F8900028B1002CE4D0002140F68C001FE024B1F8
:10F8A00000214FF40960AFF3008005EB860000F102
:10F8B000270133463A462630FFF7F1F924B10021FB
:10F8C00040F69400AFF3008000F024F8824695F8EB
:10F8D000230038B1002CC3D0002140F69A00AFF3CA
:10F8E0000080BDE785F82D60012085F82300504693
:10F8F00000F01BF8002C04D0002140F6A700AFF365
:10F900000080BDE8F087354981F82D00012081F89D
:10F910002300704710B5354808B1AFF30080EFF30E
:10F92000108000F0010072B610BD10B5002804D19F
:10F930002F4808B1AFF3008062B610BD2D480068B3
:10F94000C005C00D10D0103840B2002806DA00F013
:10F950000F0000F1E02090F8140D03E000F1E0202A
:10F9600090F80004400970470820704710B51B4C00
:10F9700094F82400002804D1F8F7ACFE012084F8A4
:10F98000240010BD10B5154C94F82400002804D0B4
:10F99000F8F7C9FE002084F8240010BD10B51C68DB
:10F9A0005B68241A181A24F07F4420F07F40A1429B
:10F9B00006D8B4F5800F03D2904201D8012010BDC3
:10F9C000002010BDD0E90032D21A21F07F4311444B
:10F9D00021F07F41C0E9003170470000700700202E
:10F9E000FF1FA107F004002000000000000000003D
:10F9F0000000000004ED00E02DE9F041044680071E
:10FA00004FF000054FF0010604D55C480560066024
:10FA100024F00204E0044FF0FF3705D55848466053
:10FA2000C0F8087324F48054600003D5554805607D
:10FA300024F08044E0050FD55348C0F80052C0F8C8
:10FA4000087352490D60091D0D60504A04210C32A3
:10FA50001160066124F48074A00409D54C48466006
:10FA6000C0F80052C0F808734A48056024F40054F6
:10FA7000C4F38030C4F3C031884200D0FFDF14F4F7
:10FA8000404F14D044484660C0F80873434886602D
:10FA9000C0F80052C0F8087341490D600A1D166095
:10FAA0008660C0F808730D60166024F44044200599
:10FAB0000AD53C4846608660C0F80873C0F84873B1
:10FAC0003948056024F4006406F04EFE37480442CD
:10FAD00000D0FFDFBDE8F08170B52025002213467D
:10FAE00020FA02F1C90719D051B201F01F06012412
:10FAF000B4404E09B60006F1E026C6F88041C6F8CB
:10FB00008042002906DA01F00F0101F1E02181F8BD
:10FB1000143D03E001F1E02181F80034521CAA42B7
:10FB2000DED370BD70B5224C0D462060FFF764FF38
:10FB30002068FFF7D1FF2846F8F7C1FE06F04AFA21
:10FB400000F0D5F806F010FE06F05BFDF8F79EFF1A
:10FB5000BDE8704006F0ECBA10B5154C2068FFF710
:10FB60004BFF2068FFF7B8FF06F0FEFDF8F736FF01
:10FB70000020206010BD0A2070470000FC1F0040DC
:10FB800000C0004004E501400080004004850040C2
:10FB900000D0004004D5004000E0004000F00040EC
:10FBA00000F5004000B0004008B50040FEFF0FFD2A
:10FBB0008400002070B522490A680AB30022154665
:10FBC00001244B685B1C4B60092B00D34D600E7900
:10FBD00004FA06F30E681E420FD0EFF3108212F003
:10FBE000010272B600D001220C689C430C6002B97D
:10FBF00062B649680160002070BD521C092AE0D33A
:10FC0000052070BD4FF0E0214FF48000C1F80002E4
:10FC10007047EFF3108111F0010F72B64FF001023F
:10FC200002FA00F20648036842EA0302026000D1C9
:10FC300062B6E7E7024800210160416070470000BA
:10FC4000880000200120810708607047012081079B
:10FC50004860704712480068C00700D00120704714
:10FC60000F48001F0068C00700D0012070470C48F3
:10FC700008300068C00700D00120704708481030E5
:10FC80000068704706490C310A68D20306D5096836
:10FC900001F00301814201D101207047002070472B
:10FCA0000C0400402DE9F04115460E46044600279D
:10FCB00000F0E7F8A84215D3002341200FE000BF71
:10FCC00094F84220A25CF25494F84210491CB1FB13
:10FCD000F0F200FB12115B1C84F84210DBB2AB4265
:10FCE000EED3012700F0D9F83846BDE8F08170491D
:10FCF00010B5802081F800046E49002081F8420090
:10FD000081F84100433181F8420081F841004331DC
:10FD100081F8420081F84100674806F0BBFB664865
:10FD2000401C06F0B7FBF3F7DDF8BDE8104000F02B
:10FD3000B4B8402070475F4800F0A3B80A460146B7
:10FD40005C48AFE7402070475A48433000F099B80C
:10FD50000A46014657484330A4E74021017000207D
:10FD6000704710B504465348863000F08AF820707A
:10FD7000002010BD0A4601464E4810B58630FFF7F8
:10FD800091FF08B1002010BD42F2070010BD70B510
:10FD90000C460546412900D9FFDF48480068103865
:10FDA00040B200F050F8C6B20D2000F04CF8C0B2DE
:10FDB000864203D2FFDF01E0F3F7DCF82246294652
:10FDC0003C48FFF76FFF0028F6D070BD2DE9F041E9
:10FDD000394F002506463F1D57F82540204600F0C4
:10FDE00041F810B36D1CEDB2032DF5D3314843300B
:10FDF00000F038F8002825D02E4800F033F800280D
:10FE000020D02C48863000F02DF800281AD0F3F7C7
:10FE10008FF8294806F046FBB0F5005F00D0FFDF01
:10FE2000BDE8F041244806F053BB94F8410041215D
:10FE3000265414F8410F401CB0FBF1F201FB1200F4
:10FE40002070D3E751E7002806DA00F00F0000F138
:10FE5000E02090F8140D03E000F1E02090F8000499
:10FE60004009704710F8411F4122491CB1FBF2F3D1
:10FE700002FB13114078814201D10120704700201C
:10FE8000704710F8411F4078814201D3081A02E000
:10FE9000C0F141000844C0B2704710B5064806F0F2
:10FEA00001FB002803D1BDE81040F3F72CB810BDCA
:10FEB0000DE000E0A00700209000002004ED00E02D
:10FEC00070B5154D2878401CC4B26878844202D0C1
:10FED000F3F78BF82C7070BD2DE9F0410E4C4FF00C
:10FEE000E02600BFF3F77FF820BF40BF20BF677850
:10FEF00020786070D6F80052F1F7F6F9854305D105
:10FF0000D6F8040210B92078B842EBD0F3F76AF8BB
:10FF10000020BDE8F0810000A00000202DE9F041A4
:10FF2000012528034FF0E0210026C1F880011E4C76
:10FF3000C4F800610C2000F02CF81C48016802682D
:10FF4000C94341F3001142F010020260C4F80453A7
:10FF50002560491C00E020BFD4F80021002AFAD017
:10FF600019B9016821F01001016011480768656046
:10FF7000C4F80853C4F800610C2000F00AF83846B1
:10FF8000BDE8F08110B50446FFF7C8FF20600020EF
:10FF900010BD00F01F02012191404009800000F1D6
:10FFA000E020C0F88012704700C0004010ED00E073
:10FFB00008C500402DE9F047FF4C0646FF21A06828
:10FFC00000EB061211702178FF2910D04FF00809BC
:10FFD00009EB011109EB06174158C05900F0F4F97B
:10FFE000002807DDA168207801EB06110870267053
:10FFF000BDE8F08794F8008045460DE0A06809EB65
:020000040001F9
:1000000005114158C05900F0DFF9002806DCA0684E
:10001000A84600EB08100578FF2DEFD1A06800EB93
:10002000061100EB08100D700670E1E7F0B5E24B29
:100030000446002001259A680C269B780CE000BF3E
:1000400005EB0017D75DA74204D106EB0017D7597F
:100050008F4204D0401CC0B28342F1D8FF20F0BDD3
:1000600070B5FFF754FBD44C08252278A16805EB46
:100070000212895800F0A8F9012808DD2178A0684B
:1000800005EB01114058BDE87040FFF737BBFFF7A3
:1000900009FABDE87040F8F727BD2DE9F041C64CDC
:1000A0002578FFF734FBFF2D6ED04FF00808A268CB
:1000B00008EB0516915900F087F90228A06801DDC8
:1000C00080595DE000EB051109782170022101EBF8
:1000D0000511425C5AB1521E4254815901F580010A
:1000E00021F07F4181512846FFF764FF34E004236B
:1000F000012203EB051302EB051250F803C0875CE5
:10010000BCF1000F10D0BCF5007F10D9CCF3080271
:1001100050F806C00CEB423C2CF07F4C40F806C077
:10012000C3589A1A520A09E0FF2181540AE0825901
:1001300002EB4C3222F07F42825100224254284688
:10014000FFF738FF0C21A06801EB05114158E0686A
:1001500050F82720384690472078FF2814D0FFF722
:10016000D6FA2278A16808EB02124546895800F0B9
:100170002BF9012893DD2178A06805EB0111405887
:10018000BDE8F041FFF7BABABDE8F081F0B51D4611
:1001900014460E460746FF2B00D3FFDFA00700D012
:1001A000FFDF8548FF210022C0E90247C5700671C4
:1001B0000170427082701046012204E002EB0013CD
:1001C000401CE154C0B2A842F8D3F0BD70B57A4CDF
:1001D000064665782079854200D3FFDFE06840F865
:1001E00025606078401C6070284670BD2DE9FF5F77
:1001F0001D468B460746FF24FFF789FADFF8B891C2
:10020000064699F80100B84200D8FFDF00214FF000
:1002100001084FF00C0A99F80220D9F808000EE006
:1002200008EB0113C35CFF2B0ED0BB4205D10AEBD8
:10023000011350F803C0DC450CD0491CC9B28A42F6
:10024000EED8FF2C02D00DE00C46F6E799F803102B
:100250008A4203D1FF2004B0BDE8F09F1446521C2F
:1002600089F8022008EB04110AEB0412475440F805
:1002700002B00421029B0022012B01EB04110CD0DF
:1002800040F801204FF4007808234FF0020C454558
:1002900013D9E905C90D02D002E04550F2E7414605
:1002A00006EB413203EB041322F07F42C250691A7D
:1002B0000CEB0412490A81540BE005B9012506EB49
:1002C000453103EB041321F07F41C1500CEB0411C5
:1002D000425499F800502046FFF76CFE99F8000050
:1002E000A84201D0FFF7BCFE3846B4E770B50C4613
:1002F0000546FFF70CFA064621462846FFF796FE0C
:100300000446FF281AD02C4D082101EB0411A868DF
:100310004158304600F058F800F58050C11700EB06
:10032000D14040130221AA6801EB0411515C09B1CC
:1003300000EB4120002800DC012070BD002070BDD2
:100340002DE9F04788468146FFF770FE0746FF28F3
:100350001BD0194D2E78A8683146344605E0BC42C2
:1003600006D0264600EB06121478FF2CF7D10CE0DD
:10037000FF2C0AD0A6420CD100EB011000782870A7
:10038000FF2804D0FFF76CFE03E0002030E6FFF703
:10039000BBF941464846FFF7A9FF0123A968024679
:1003A00003EB0413FF20C854A878401EB84200D1C4
:1003B000A87001EB041001E06C08002001EB0611AD
:1003C00000780870104613E6081A0002C11700EB07
:1003D000116000127047000070B50446A0F50000DF
:1003E0002D4EB0F1786F02D23444A4F500042B48AE
:1003F000844201D2012500E0002500F043F848B115
:1004000025B9B44204D32648006808E0012070BD35
:10041000002070BD002DF9D1B442F9D321488442A7
:10042000F6D2F3E710B50446A0F50000B0F1786FFE
:1004300003D219480444A4F5000400F023F84FF057
:10044000804130B11648006804E08C4204D201209B
:1004500003E014488442F8D2002080F0010010BD6F
:1004600010B520B1FFF7DEFF08B1012010BD00205C
:1004700010BD10B520B1FFF7AFFF08B1012010BDCE
:10048000002010BD084809490068884201D10120B8
:10049000704700207047000000000020008001002D
:1004A0002000002008000020A4000020BEBAFECAE0
:1004B0000348044A0168914201D10021016070475C
:1004C000A4000020BEBAFECA43480021017041705A
:1004D00010218170704770B5054616460C46022003
:1004E000F2F7C7FA3C490120F61E08703B48066047
:1004F0003A4808380560001F046070BD10B502203E
:10050000F2F7B7FA34490120087035480021C0F8E5
:100510000011C0F80411C0F8081132494FF400006E
:10052000086010BD10B52C4C207888B12D494FF4CF
:100530000000091D086000F041F8002120B10120F1
:1005400060702948006801E061701020A07021707F
:10055000BDE810400020F2F78CBA1F4810B50178B2
:1005600059B11F48D0F8000128B100F027F8002841
:1005700000D0012010BD022010BD407810BD10B584
:10058000C824641EE4B2FFF7E8FF022803D0012864
:1005900000D0002010BD002CF3D1FFDFF9E70E489A
:1005A00010B5017841B100F009F818B10E480068A3
:1005B000C0B210BD102010BD807810BD0848D0F822
:1005C000001129B1D0F8041111B1D0F8080108B117
:1005D0000020704701207047A800002010F500405F
:1005E00000F0004004F5014000F4004044480021C0
:1005F00001704170704770B5064614460D460120E3
:10060000F2F737FA3F480660001D0460001D0560E0
:1006100070BD70B53A4A012540EA01411570394A6A
:10062000121F1160384C0026C4F80461374A4FF09D
:100630004071116058B1012800D0FFDFC4F800629A
:10064000256032494FF00070091F086070BDC4F882
:100650000052256070BD2A48017871B12B4A4FF0D5
:10066000407111602849D1F8042100211AB1284AAB
:100670001268427000E0417001700020F2F7F9B991
:100680001F48017841B12048D0F80401002802D069
:100690001F480068C0B270474078704770B50028A6
:1006A00028D01748007800B9FFDF1748D0F80411A8
:1006B00000291FD10223C0F8043316490A680C68C8
:1006C000D24342F3001244F010040C609C034FF03C
:1006D000E025521C03E000BFC5F8804220BFD0F8DF
:1006E0000461002EF8D01AB90A6822F010020A60DC
:1006F000C0F8083370BD04490120886070470000CD
:10070000AB00002008F5004000F0004008F5014073
:1007100000F4004010ED00E0FC4808B50021C0F8EE
:100720000011C0F80C11C0F81011C0F80411C0F885
:100730001411C0F81811F6480068009008BD70B593
:10074000F44D00246C702C7000F088FD85F8214079
:10075000AC626C636C77092105F1140006F093FD1F
:10076000ED49601E0860091D0860091D0C60091D27
:100770000860091D0C60091D0860091D0860091D3D
:100780000860091D0860091D0860091D0860091D31
:100790000860091D0860091D086070BD70B5DD495D
:1007A0000268DE4C4A6142688A61007A08770C3C34
:1007B0000A7DDA4B251F012042B10E7E00FA06F2B7
:1007C0001A608E7D0EB1226000E02A604A7D002A08
:1007D00005D04A7E90401860C97D09B1206070BD87
:1007E000286070BDCF49CE480860091DCE4808601A
:1007F000704710B50446012902D0022902D0FFDF5C
:10080000002101E04FF08071C8480143C5480160F4
:10081000C549E0B225390843C249091D0860BB48F3
:10082000D0F80001002800D0FFDF10BD70B5012016
:1008300000F0FEFCBE4900240C6001200860BD49A8
:100840000A68BD4B22F077021A430A60091D0A6844
:1008500022F47F4242F4B0520A60B24A40F25B6135
:1008600024321160121F40F203111160111F086041
:10087000AC490320091F0860AA499620303108605E
:10088000A44D95F91D0006F0A5F8AD49AB480860E8
:10089000AB49AC489C3108609D480838091F086086
:1008A000012000F0D0FC99491020C1F8040385F81C
:1008B0002D4070BD974A0368C2F802308088D0800E
:1008C00011727047934890F821007047914A517017
:1008D00010707047F0B5054684008C488B88204422
:1008E000C0F820360B78D1F8011043EA0121C0F896
:1008F000001605F1080001278E4C07FA00F6FC3CB3
:1009000052B1012A00D0FFDF206830432060206808
:10091000AF4038432060F0BD2068B043F6E710B523
:10092000044606F057F87B48447710BD794890F8A4
:100930002E0070477B4AC1781032116000687949F7
:100940000002083108607047252807D0262807D004
:10095000272807D00A2807D8042206E0022107E04A
:100960001A2105E0502103E0062202EB4001C9B242
:100970006C4A0C3A11606B49403108607047654819
:10098000817A012915D0022912D1417D00290FD089
:10099000827E0121C37E01FA02F299400A4368492E
:1009A0000A60007F684A002102EB8000C0F8101541
:1009B0007047017DEAE7F0B5564B9C7A012C12D0C6
:1009C000022C67D15D7D002D64D0604F4FF47A76A4
:1009D000012C0AD05D7EDC7D04B1012401291FD0E9
:1009E000022A1FD020E01D7DEDE71D7E9C7D04B115
:1009F00001244FF4C86C012902D0022A07D008E074
:100A0000022A00D1B44649F6FC61614405E0504F2A
:100A1000B44607EB0C0101F5FA71B1FBF6F107E002
:100A2000292105E04A4F643F07F2E147B7FBF6F1A1
:100A3000491F084447490860424900204039C1F82D
:100A40004C01280284F0010140EA015040F00312F9
:100A5000197F3D4800EB8104C4F810259C7E3E4A76
:100A600000EB810102EBC400C0F814153B4DC0F847
:100A70001055DB7E02EBC300C0F814152449083979
:100A8000C0F81015012000FA04F1984001432C48E9
:100A9000001F0160F0BD2DE9F0410F461B490546DE
:100AA00003201646C1F80002254C2448241F20606C
:100AB000384605F0D9FF304605F0B6FF154815B1A8
:100AC000012D09D011E001218172416B41F48011A7
:100AD00041634FF4801007E002218172416B41F4C1
:100AE000001141634FF40010206032463946BDE8E2
:100AF000F04100205FE708B5FF208DF800000348B3
:100B00000021C0F81011012101612EE00010004009
:100B1000181100407C080020000E0040180500500D
:100B20000601020014150040250003020801100010
:100B3000FC1F00403C1700408800008000000404B7
:100B400008F501404080004000600040A2240200FF
:100B5000683602004C85004000F001404C810040A6
:100B60009DF80010491E8DF800109DF8001019B175
:100B7000D0F810110029F3D09DF80000002800D112
:100B8000FFDF08BD2DE9FF5FFC4D0746002603206F
:100B90009B468946C5F80002DFF8E883F849C8F8A3
:100BA0000010029805F060FF584605F03DFFF5483B
:100BB000F54CA8304FF0010A17B1012F1DD026E0E7
:100BC000056094F82D00012805D002280BD0FFDF26
:100BD00084F80AA01BE094F82C205B464846029952
:100BE00005F096FF06E094F82C305A4648460299E4
:100BF00005F045FFA16A4618EAE7E049091D0160D2
:100C000094F82D00012838D0FFDF0220A072DF48C1
:100C10000660DC49DE48A4310860606B40F40020C7
:100C20006063D5F800724FF01009C5F808930020F2
:100C3000C5F80002D3484FF48024001D046005F578
:100C40000075FFF758FFFFF767FD2F60C8F80040F9
:100C5000C5F804916100C8F80010CE49C1F84CA055
:100C6000CA48001D0068B04200D3FFDF029904B0FB
:100C70005A463046BDE8F05F9DE694F82C205B466E
:100C80004846029905F022FFA16A4618BDE72DE902
:100C9000F041BA4CD4F8000220F00306D4F8040363
:100CA0001027C0F30015C4F808734FF00008C4F80B
:100CB0000082B449B248091D086004F50074FFF7CA
:100CC0005EFEFFF718FF44F8F08C00F0C7FA2660CC
:100CD000A4F50074002D01D0C4F80473BDE8F081C0
:100CE0000068AD4920F07F400860704710B50120D2
:100CF00000F09EFABDE81040012000F0A4BA4FF0C9
:100D0000E0210220C1F800017047A4490870704733
:100D1000A14938390860704770B59B4D0446A86AF0
:100D2000A04200D3FFDF012028739A4900202C61E4
:100D3000C1F844019548001F0460BDE8704000F010
:100D400094BA70B5904C05460220207305F07AFEE7
:100D5000024694F82C10284605F002FF8D4A002127
:100D60002061C2F84411A16A08448849091F08603B
:100D700070BD84494FF48000091D08608248416BB2
:100D800021F48001416300210173704781480121F2
:100D90004160C1600021C0F844117C48001F01601F
:100DA0007948816270477C4940202431086073484B
:100DB000D0F8001241F04001C0F8001270476F48AF
:100DC000D0F8001221F04001C0F800127249002052
:100DD0002431086070476948D0F8001221F01001F2
:100DE000C0F8001201218161704764480021C0F8F9
:100DF0001C11D0F8001241F01001C0F80012704729
:100E00005E4908B5D1F81C21012A01D0002008BD97
:100E1000614A0C32126802F07F02524202700020D6
:100E2000C1F81C015E4800680090012008BDF8B5BB
:100E3000554C584D207B18B1D5F8440101280AD0F3
:100E400000264E49D1F81001012806D00022A07AD0
:100E5000012804D007E00126F3E74022F7E7D1F8A4
:100E60000C31012B04D000231343012802D005E0EC
:100E70002023F9E7D1F80421012A05D000221A43E2
:100E8000484F022802D008E01022F8E73B68012B07
:100E900003D1D1F80C31012B04D0002313430228D5
:100EA00002D007E00823F9E73A681AB9D1F80C2113
:100EB000012A04D000221A43022802D004E00422AE
:100EC000F9E70EB1022300E000231343022809D101
:100ED000D1F80401012805D1D5F84401012801D039
:100EE000012600E0002630481E43026812F0FF0F82
:100EF00003D0D1F81421012A00D0002284F82E203A
:100F0000006810F0FF0F03D0D1F81801012800D0BD
:100F1000002084F82F0023481030006884F8300047
:100F20001D4824300068402803D1FFF716FB012834
:100F300000D0002084F83100FFF7EEFB0020C5F858
:100F400044011348001F006800903046F8BD30B5DA
:100F50000C00054600D1FFDFE00702D0012C00D0D5
:100F6000FFDF55B10221084801294172C4720348CC
:100F70001ED0022921D0FFDF30BD17E00010004055
:100F80000000040404F501407C080020488500406E
:100F900048810040008000403C150040AD0000202A
:100FA0001C11004000140040401600400121DAE707
:100FB000D0F8001241F0040103E0D0F8001241F033
:100FC0000801C0F80012D7E770B5AD4C0022E17AF5
:100FD0008B0701D5430711D4CB0605D594F82F30E4
:100FE00013B194F831304BB10B0702D594F820308F
:100FF00023B9490703D594F8211001B90122637A76
:10100000A049012533B100F0020010430DD0BDE826
:1010100070403CE69D4A9C481060D1F8000220F0E8
:101020000300C1F80002E57270BD0026012B09D053
:10103000022B17D0FFDFA06A01223044BDE87040C8
:101040000021B8E4D1F8000220F00400C1F8000249
:1010500000F004F90123A5721A460021962005F03C
:101060000EFD0FE0D1F8000220F00800C1F80002E8
:1010700000F0F4F80220A07201231A460021962005
:1010800005F024FD0646D6E72DE9F047DFF800A27B
:10109000DAF84C0108B1FFF772FC794C7B49606BC0
:1010A000086000266663FFF7C2FEDFF8E8810546A8
:1010B000D8F800006062A8F104000068A06205F0A2
:1010C000C1FC84F82C00A07ADFF8CC9184F82D00C4
:1010D000022808D1607830B1D9F8001009780140B1
:1010E000207888430DD084F820606C4FE8070CD03E
:1010F00039786B4A4908606A52F821108847012103
:101100000AE0012084F82000EFE7A80601D50221BB
:1011100002E0A80707D50021614A3B783832A06A6F
:1011200052F8232090473878C00713D1D9F800101F
:101130000622A01C093105F0D9FF40B9217AD9F85F
:1011400000000078B1EBD01F01D1012000E00020A9
:1011500084F821002846FFF737FFA80705D5504837
:101160003978083050F82100804715F00C0F07D06F
:101170004B483978183050F82110C5F3C000884723
:10118000A80605D546483978283050F82100804710
:101190003878042800D3FFDFA07A02281AD1207BF8
:1011A000002817D0CAF8446102280FD0012800D0C7
:1011B000FFDFA16A2069884200D8FFDFD4F8101051
:1011C000C8F80010BDE8F04700F04FB82169A06AE8
:1011D0000144F5E7BDE8F08700B5012802D00228F8
:1011E00002D0FFDF282000BD182000BD10B541F659
:1011F000A474012802D0022802D0FFDF204610BDCF
:1012000041F2883010BD10B541F2D474012802D0EB
:10121000022802D0FFDF204610BD41F2040010BDBD
:1012200000B5012802D0022800D0FFDF002000BD59
:1012300000F01F02012191404009800000F1E020F0
:10124000C0F88011704700F01F0201219140400951
:10125000800000F1E020C0F88012704708480021AB
:10126000417281720121C17270470548416B41F49E
:101270008001416305494FF48000091F08607047F1
:101280007C080020001000400000040408F5014024
:10129000008000404485004004150040AD0000205F
:1012A0000C77010010B54348222105F0CAFF4148E0
:1012B0000024017821F010010170012104F084FD67
:1012C0003C494FF6FF70263981F8224088843A491C
:1012D0000880488010BDE5E7704700F05FB83549E9
:1012E00001607047344908807047324926398A8C3A
:1012F000A2F57F43FF3B02D00021016008E091F896
:1013000022202C492639012A02D001600120704791
:10131000002070472748263810F8221F012908D0DE
:10132000012101702448234926390088888401203E
:101330007047002070472049488070471D491E4B68
:1013400026398A8C5B889A4205D191F8222012B105
:10135000016001207047002070471648164A263861
:10136000818C5288914209D14FF6FF71818410F827
:10137000221F19B100210170012070470020704721
:101380000C480D4A2638818C5288914204D190F83D
:10139000220008B100207047012070470549263916
:1013A0008A8C824205D1002081F822004FF6FF701E
:1013B00088847047DA080020AE00002070473C4A5D
:1013C000012338B1012804D113700868906088881F
:1013D0009081704753700868C2F802008888D080F6
:1013E0007047334A10B1012807D00EE0507860B141
:1013F000D2F802000860D08804E0107828B1906824
:101400000860908988800120704700207047284933
:1014100010B1012802D005E0487800E0087808B152
:10142000012070470020704730B50C4605468DB04E
:101430004FF0030104F1030012B1FEF789FC01E053
:10144000FEF7A5FC60790D2120F0C00040F04000BF
:10145000607104A805F017FFE0788DF81F0020796F
:101460008DF81E0060798DF81D001022294668460F
:1014700005F068FE684604F047FE9DF82F002070D6
:101480009DF82E0060709DF82D00A0700DB030BD4D
:1014900010B5002904464FF0060102D0FEF758FCB3
:1014A00001E0FEF774FC607920F0C000607110BDAF
:1014B000B200002070B5FC4E044696F8921000254C
:1014C00006F18000012909D096F88C10012912D06C
:1014D00096F86A00012818D0002070BD65701821A8
:1014E000217050F8131FC4F802104068C4F80600B9
:1014F00086F8925024E0657006212170D0F80E0025
:10150000C4F8020086F88C501AE065701320E64992
:10151000207020226C31A01C05F014FE0120A07167
:1015200006F86A5FB188B184E04949684A7B86F869
:10153000262086F822000888FBF7ACFBFBF771F841
:10154000012070BDD84890F86A1011B1B0F86E0053
:1015500070474FF6FF70704770B5D448017811B1ED
:101560000C26304670BDD04C0026354684F86260AB
:1015700084F8636084F8646084F8656084F85E6071
:1015800084F8606084F8566084F8366084F8676098
:101590007F21817094F8660028B1FFF710FCFEF7F8
:1015A000C1FF84F8665084F86A5084F88C5084F83F
:1015B0009250BD489C3004F067FBBB48C43004F037
:1015C00063FBCEE7B94910B500200870FFF7C4FFF0
:1015D000002800D0FFDF10BDB34890F862007047CC
:1015E000B14900B591F8580091F85710C0F3800246
:1015F000C0F340031A4400F001001044052910D242
:10160000DFE801F00A050A030700A94906E0A94836
:1016100000BDA749083101E0A549083931F810009B
:1016200000BDFFDF002000BD9F4840F27121B0F8EF
:101630005A00484370479C4890F86800002800D042
:101640000120704710B5984C207A00F0EDFC40B1B5
:10165000207C04F1110103F02DFF082801D00120A6
:1016600010BD207A30B1022804D00120BDE810401E
:10167000FFF7CDBE0020F9E78B49087270478A4911
:1016800081F8600070477CB50546874890F85D009A
:1016900003F025FF040013D0102104F00BF90028FB
:1016A0000ED12A4669462046FFF7BEFE7E486946AF
:1016B0009C3004F015FB7C4801219C3004F01FFB9A
:1016C0007CBD70B578490A310D4601F1920004F0F5
:1016D00001FB754C04F19C00617A04F007FB29467C
:1016E00004F1C40004F0F6FA617A04F1C400BDE824
:1016F000704004F0FBBA2DE9F0416B4C074694F8BA
:101700005D0003F0E2FE064694F85F0004F10A056E
:1017100028B126B11021304604F0CCF8A0B194F8DD
:101720006000002824D094F85E00002820D0607A61
:10173000294600F08AFCA8B103F073FF3A46294617
:10174000BDE8F041FFF770BE012060723A462946BD
:101750003046FFF769FE94F85D102846BDE8F04179
:1017600003F04ABF39462846BDE8F041FFF790BE76
:10177000BDE8F08170B54C4C207AB0B1022814D08D
:101780000120494960720A310D46FFF72AFE207A8E
:1017900000F04AFC84F85F00082084F85D00607A5D
:1017A000294600F049FC38B901E00020E9E7607AF9
:1017B000294600F04AFC00B1012084F85E0094F84C
:1017C0005F0028B994F85700012801D0042806D1F9
:1017D0003549207C113103F06DFE84F85D00002056
:1017E0002060FDF755FA60600020FFF784FFFFF7E7
:1017F00068FF94F85700012801D0042803D1BDE800
:10180000704000203FE770BD70B5274C417B84F8E5
:101810005810017984F85710012925D0B0F800201C
:10182000A4F85A20827B84F868208279F2B1022AD7
:101830001CD00122227450F8072FC4F81120808890
:10184000A4F8150094F85600012508B184F86350F7
:1018500094F8360008B184F86450052933D2DFE8E3
:1018600001F0070D2B2D0D000022D9E70022E1E742
:101870000D4800219C3004F00AFA0FE00A480121CB
:101880009C3004F004FA0849113101F18B0004F096
:1018900027FA0548217C9C3004F031FA02480121E6
:1018A0009C3000F0DDFB0FE0FC080020C0000020B1
:1018B00064770100D0891300062100E00221FA4874
:1018C00004F0E5F900E0FFDFF7480421283004F0D8
:1018D000DEF984F86250002070BD70B50546F24C08
:1018E00000209C3C04F8640FEF482A46853805F038
:1018F00029FC04F82E5C0120207070BD10B5EA4C64
:1019000000229C3C84F8632004F8560F0246E64807
:10191000653805F017FC0120607310BDE2499C3961
:1019200081F86700704770B500F0ADFBDE4C9C3C61
:10193000002694F8660028B1FFF741FAFEF7F2FDA1
:1019400084F86660D94D2E7094F85700012804D0B1
:10195000BDE87040002001F07EB9022001F07BF963
:1019600094F86A0000B1FFDF6878002817D0207C67
:1019700084F87100D4F81100C4F87200B4F81500AE
:10198000A4F876003C2084F86C0068680088A4F80D
:101990006E00012084F86A0000F06BFB6E7070BD71
:1019A00010B50024C20701D0CA0708D082070BD5A2
:1019B0008A0709D42620FEF7C7FF02240CE0252061
:1019C000FEF7C2FF012407E0400705D5480703D40E
:1019D0002720FEF7B9FF0424FEF704FF204610BDC0
:1019E0002DE9F041B148017859BBAF4C9C3C94F8CB
:1019F000621031B3002584F8615045702846583490
:101A0000FFF783F9FEF712FFFEF7ECFEA848FEF79A
:101A100091FFA748C01EFFF763F920780021FFF768
:101A2000BFFF2071FFF76BF9002101220846FFF785
:101A300032F80F210520FEF749FFA079583C58B92C
:101A400001E00C2094E694F85F0028B994F8570060
:101A5000012801D0042828D1FDF71AF9064631469D
:101A60006068FDF723FE934990FBF1F701FB170037
:101A700041423046FCF715FE606020683844206023
:101A800003F014FD216888420FD8C4E900560120F4
:101A9000FFF731FEFFF715FE94F85700012801D03B
:101AA000042802D10120FFF7EEFD7F48617A9238C9
:101AB000FEF700FF94F8570001280DD004280BD042
:101AC00094F8630040B1784994F856206539764817
:101AD00004F01CF984F8635094F8640048B172492A
:101AE00094F83620853901F1AD0004F025F984F829
:101AF000645003F03BFD6C48503003F06CFD84F8FB
:101B00006600002034E669494860704770B5664C4D
:101B10000500A4F19C040AD094F85C1014F8580F46
:101B2000FFF73EFF14F8041F084304F85C0994F81B
:101B3000610038B194F85700012800D1FFDFBDE8FB
:101B40007040F0E635B1002201234FF49671104643
:101B5000FFF718F85448FFF7DBF894F8570005280A
:101B600009D2DFE800F0030303090300012108465E
:101B7000FFF7EDF900E0FFDF94F8581094F85C00EF
:101B800081434FF0010005D194F85710012904D08A
:101B900084F861004549087070BD002184F85C102C
:101BA000F8E7424810B5007848B93F489C3890F8AB
:101BB000620020B10020FFF7A9FF002010BD00F057
:101BC00062FA0C2010BD394901204870704736492F
:101BD0009C3981F86500704770B5002500F016FF4C
:101BE00048B1324E3078012808D0022801D00328AD
:101BF00033D0FFDF70BDBDE8704094E62A4C9C3CBA
:101C000094F85700032828D094F8660018B1FEF71E
:101C100075FCFFF7C8F824485030FFF779F8962094
:101C2000FFF78FF894F8570001280DD004280BD047
:101C300094F86800012801D0032800D1102545F050
:101C40000E010020FFF783F994F86700012801D105
:101C5000FFF7CBF80220307070BDBDE87040012066
:101C600054E710B5104C9C3C94F86700012801D152
:101C700000F014FA94F8660018B1FFF7A0F8FEF728
:101C800051FC00F0C3FEB8B1084C2078022800D007
:101C9000FFDF0120FFF73AFF2078002803D02078EB
:101CA000012800D0FFDF10BD98090020C0000020EF
:101CB0005777010040420F00BDE8104033E610B5F1
:101CC00003F0F8FB044603F0AEFC38B1204603F005
:101CD00006FC18B1102103F0EDFD08B10020E2E789
:101CE0000120E0E72DE9F84F04460026FEF71EFE2E
:101CF000DFF8C493074699F80000022800D0FFDF00
:101D0000DFF8B8A39AF86700012801D100F0C6F9FE
:101D1000EA48EC3003F0DAFFFF258046002C78D04B
:101D2000E648EC3004F01EF8002872D0FEF7CAFD39
:101D300000286ED0E14C9AF86600EC3460B103F0F4
:101D4000FBFB0546FF2807D00146E01C03F0E8FB3B
:101D5000284603F0FBFB0743DFF860B3B8F1060F3A
:101D60000BF1800B55D2DFE808F097979703975552
:101D70009AF8571001294CD0D046042949D067B9A8
:101D800098F8680008B1022843D12078E11CC0F31C
:101D90008010FFF794FF00287ED198F8670047462F
:101DA00001282ED197F8920058BB012087F89200A5
:101DB000FF2D0DD0C14A28469432511E03F099FBE5
:101DC00000B9FFDF17F8930F40F0020038700CE005
:101DD0002078C0F3801088F89300DBF86F10CBF800
:101DE0001410BBF87310ABF81810B44D99F802003A
:101DF0009A354C467F2800D1FFDFA07828707F20DD
:101E0000A070AE48C430FEF783FF032189F80010AC
:101E100043E041E020789AF81010A046C0F380100B
:101E20005446884207D1A5490622113108F1030022
:101E300005F05CF920B10020FF2D08D088B901E041
:101E40000120F9E794F85D00A8420AD00FE070B1D4
:101E500098F8000008F10301C0F38010FFF72FFF8E
:101E600028B994F85700012813D0042811D094F809
:101E7000570088B96FB994F8680008B101280BD1F0
:101E800098F8000008F10301C0F38010FFF717FF76
:101E900010B994F86500C8B101269AF8660018B127
:101EA000FEF78DFFFEF73EFB16B10120FFF72EFE79
:101EB00099F800104846002906D00178012903D07E
:101EC0000078032800D0FFDFBDE8F88F7B49D9F800
:101ED00004008031C34651F87B2FC0F80E208A8859
:101EE00042828979017598F816204275B8F8172052
:101EF000C282B8F819204280B8F81B208280B8F856
:101F00001D20C2806E4A4146D2F80B308360D27BDE
:101F1000027311F8242F02F01F02027611F81F2914
:101F2000520980F8442111F8051C427BC1F340118D
:101F30000A40427394F86A0000B1FFDF002784F87A
:101F40006C70D9F80400C8460188A4F86E10418866
:101F5000A4F884108188A4F88610C188A4F8881099
:101F600090F8440184F88A00544894F85F100A30CD
:101F7000009021B1607A009900F067F838B994F8C0
:101F8000600058B1607A009900F056F830B1D4F88A
:101F90000A00A067E089A4F87C0002E0A767A4F823
:101FA0007C709BF80000454AC0F38011D8F804000B
:101FB0008032FF2D417652F86F1FC0F81A109288B8
:101FC000C28313D0C4F87E103C4AC08BA4F88200B0
:101FD0007232511E284603F08CFA00B9FFDF94F8E4
:101FE000710040F0020084F871000DE0C4F87E70CA
:101FF000A4F88270417E84F87110D0F81A10C4F8E9
:102000007210C08BA4F87600012084F86A0000F0FA
:1020100030F888F8007000F036F8012000F01BFE60
:102020003BE7012200F03FBE022803D0032801D085
:102030000020704701207047012802D148798009AB
:1020400001D00020704701207047012806D148794F
:102050000121B1EB901F01D1012070470020704792
:102060000278202322F0200203EA41110A43027081
:102070007047114810B540680088FAF70BFEBDE8BC
:102080001040FAF7BFBA10B5FEF780FEFEF771FEFA
:10209000FEF7FDFDBDE81040FEF728BE064810B56E
:1020A000801CFEF7ADFE10B903497F208870BDE8A3
:1020B0001040FEF790BE0000C0000020FC08002089
:1020C000FC090020FE484068704770B506460D4682
:1020D00014461046FFF78AF8022C10D0F94908443C
:1020E0004FF47A7100F2E140B0FBF1F000EB4600F2
:1020F00005442046FFF770F82844603070BDF2496F
:10210000EDE72DE9F0410D46064601461746012050
:1021100003F0B3FC044696F83200FFF767F896F830
:102120003210022914D0E74940F2712208444FF4DA
:102130007A7100F2E140B0FBF1F170885043C1EBDD
:102140004000C01BA0F55970A54203D2214602E011
:10215000DD49E9E72946814204D2A54201D2204661
:1021600000E028467062BDE8F0812DE9FF4F89B09C
:10217000044690F83200DDF858909A46039049EAF8
:102180000A00089094F844000025164619460D28C8
:1021900003D00020069011B131E00120FAE794F855
:1021A000E40003282BD1069848B3B4F85C01B04290
:1021B00025D1D4F8EC00C4F8D800608840F2E241A0
:1021C0004843C4F8DC00B4F83201B4F8BE10084447
:1021D000C4F8E000204602F06CF9B4F86001E08237
:1021E00094F85E016075B4F862016080B4F864012F
:1021F000A080B4F86601E080022084F8E400D4F8FE
:102200003C010290B4F8BE00D4F838810090B4F8D4
:102210003011D4F82C010590BAF1000F04D094F8D5
:10222000F80000287DD108E004F59670049004F5CC
:102230008C7704F1B80B001D07E004F5887004905A
:1022400004F1FC0704F5867B001D0790208F301AEF
:1022500000B20190701A00B2002805DAD4F8280103
:10226000059001200890019894F8E410E9B1012943
:102270007DD002297CD003297BD0FFDF2946059839
:10228000FCF70FFA049908600798012106800020E6
:102290003870397104980068B8608C48D0E905201E
