:1000000000040020FD4B0000E54B0000CD4B00003C
:10001000B54B00009D4B0000854B00000000000028
:10002000000000000000000000000000A9DB01004B
:100030000000000000000000FDDC010039DD0100CF
:100040009D47040081470400000000007D46040035
:10005000A148040000000000000000002549040041
:100060000000000000000000000000000000000090
:1000700000000000000000006946040000000000CD
:10008000FFFFFFFFFFFFFFFFFFFFFFFF000010006C
:1000900000001D0012070906FFFFFFFFC9BDBEB02B
:1000A00006070000FFFFFFFFFFFFFFFFFFFFFFFF4F
:1000B000FFFFFFFFFFFFFFFFFFFFFFFFFFFFFFFF50
:1000C000FFFFFFFFFFFFFFFFFFFFFFFFFFFFFFFF40
:1000D000FFFFFFFFFFFFFFFFFFFFFFFFFFFFFFFF30
:1000E000FFFFFFFFFFFFFFFFFFFFFFFFFFFFFFFF20
:1000F000FFFFFFFFFFFFFFFFFFFFFFFFFFFFFFFF10
:10010000704700BF00000000000000000000000079
:100110000000000000000000000000002854030060
:100120000700000000000000ED280000305403002C
:1001300050540300C432040003000000010000001A
:10014000C1D40100C8320400F4320400E8330400D2
:10015000060000000100000035DB0100F033040060
:10016000143404003C3404000600000001000000C8
:1001700045DB01004434040058340400AC3704006B
:100180000400000001000000C1E50100B4370400D4
:10019000F037040094380400030000000000000061
:1001A000D5170200B8390400CC390400983804008F
:1001B00004000000010000000D190200243A0400B0
:1001C000443A04000C3C040004000000010000005C
:1001D000F9270200143C04004C3C0400FC3C0400E1
:1001E000030000000200000055280200003D04004A
:1001F000403D0400D43F0400050000000100000061
:1002000081370200DC3F04001040040000000000C1
:1002100000000000000000000000000000000000DE
:100220000000000041F6B833C2F200031A780AB9A0
:1002300001201870704700BF41F6A430C2F20000E0
:1002400008B503682BB140F20003C0F2000303B10C
:10025000984708BD002311F0010F1A4638D00378E3
:1002600013F0010F00F0E7805B0883F08C0313F0BC
:10027000010F00F0DE805B0883F08C0212F0010FAA
:1002800000F0D580520882F08C0212F0010F00F0CD
:10029000CC80530883F08C0212F0010F00F0C38071
:1002A000520882F08C0212F0010F00F0BA8053085D
:1002B00083F08C0212F0010F00F0B180520882F03E
:1002C0008C0212F0010F40F0A48052080139012382
:1002D00000295ED010F803C082EA0C0212F0010F70
:1002E00040F09380520812F0010F72D1520812F0C0
:1002F000010F74D1520812F0010F76D1520812F09A
:10030000010F78D1520812F0010F7AD1520812F081
:10031000010F5AD1520812F0010F54D0520882F046
:100320008C02013310F803C0013982EA0C0212F08A
:10033000010F46D0520882F08C0212F0010F3ED01D
:10034000520882F08C0212F0010F36D0520882F06F
:100350008C0212F0010F2ED0520882F08C0212F0A3
:10036000010F26D0520882F08C0212F0010F12D039
:10037000520882F08C0212F0010F10D0520882F065
:100380008C0212F0010F0ED15208013301390029FD
:10039000A0D1D0B27047520812F0010FEED152082E
:1003A00012F0010FF0D0520882F08C0201330139B3
:1003B000EDE75208D9E75208D1E75208C9E75208D9
:1003C000C1E75208B9E75208ABE7520882F08C0245
:1003D000A1E7520882F08C0212F0010F8AD0520875
:1003E00082F08C0212F0010F88D0520882F08C0249
:1003F00012F0010F86D0520882F08C0212F0010F29
:1004000084D0520882F08C0281E7520882F08C027C
:1004100069E7530883F08C020139012358E7520839
:100420004FE7520846E752083DE7520834E75208C2
:100430002BE75A0822E75B0819E700BF022806D815
:1004400044F68473C0F2030353F820007047002081
:10045000704700BF10B540F2044482B090200422DF
:100460004FF48033C2F2000401A9236044F05AFB28
:1004700000280BDB2068019A4FF4804113181846BE
:10048000236044F037FB012002B010BD0020FBE7E1
:1004900030B501EB410185B000EB81150C222846F7
:1004A00001A944F03FFB002869DB41F6BC34C2F2ED
:1004B0000004592205F10C00214644F033FB0028CA
:1004C0005DDB0022134621E05B0813F0010F28D109
:1004D0005B0813F0010F2AD15B0813F0010F2CD138
:1004E0005B0813F0010F2ED15B0813F0010F30D120
:1004F0005B0813F0010F32D15B0813F0010F34D009
:1005000001325908592A81F08C0332D0A05C434053
:1005100013F0010FD8D05B0883F08C0313F0010FA8
:10052000D6D0590881F08C0313F0010FD4D05808AD
:1005300080F08C0313F0010FD2D05B0883F08C03A2
:1005400013F0010FD0D0590881F08C0313F0010F84
:10055000CED0580880F08C0313F0010FCCD05B088C
:1005600083F08C0313F0010FCAD101325B08592AC2
:10057000CCD19DF80FC05FFA83FEF44502D0002075
:1005800005B030BD41F6BC31C2F20001002010F0D0
:10059000F5F9003818BF0120F2E700BF70B544F646
:1005A0009875C0F20305284641F6BC34C2F2000437
:1005B00002F06AF944F6BC702178C0F2030002F040
:1005C00063F944F6D0706178C0F2030002F05CF980
:1005D00044F6E070A178C0F2030002F055F944F649
:1005E000F070C0F2030002F04FF92846BDE87040F9
:1005F00002F04AB92DE9F04F002389B083460291F9
:1006000003600392002A40F0908014230B7040F2A4
:1006100004474FF0FF31C2F2000701914FF000088C
:1006200005AC3A684FEA0836B01821460C2244F06F
:1006300079FA002864DB44F6F471C0F20301204625
:1006400004222CF07BFB0546002859D1DDF818A0C8
:100650009DF81E9038680C2233182146581944F032
:1006600061FA44F6F47104220028C0F20301204626
:100670003BDB2CF063FB05F1C00321460C22A0BB41
:100680003868DDF818A03018C0189DF81E9044F0A6
:1006900049FA44F6F47104220028C0F2030120460E
:1006A00023DB2CF04BFB05F5C07321460C2205F52E
:1006B0001075D0B93868DDF818A03018C0189DF84A
:1006C0001E9044F02FFA44F6F47104220028C0F280
:1006D0000301204609DB2CF031FB30B9B5F57C6F06
:1006E000DDF818A09DF81E90B4D1DBF8001051453C
:1006F0009FBF029ACBF800A082F80090CDF804804A
:1007000008F10108B8F1040F8BD1019AB2F1FF3F53
:1007100008BF4FF4405003D0039B4BB1019908032D
:100720003A68801809B0BDE8F08F029803706EE750
:10073000029E14203070019D002D56D0019A511E4A
:100740000E03DDF808A0002538680C22331858196C
:10075000214644F0E7F940F2044844F6F4710422DB
:100760000028C2F20008C0F20301204640DB2CF052
:10077000E5FA05F1C00321460C2200283ED19DF880
:100780001EC08AF800C038683018C01844F0CAF992
:1007900044F6F47104220028C0F20301204627DB4E
:1007A0002CF0CCFA05F5C07321460C2205F5107526
:1007B00020BB9DF81EE08AF800E038683018C018A9
:1007C00044F0B0F944F6F47104220028C0F20301A9
:1007D00020460DDB2CF0B2FA80B99DF81E30B5F53D
:1007E0007C6F8AF80030AFD198E74FF44056A8E705
:1007F000D8F80010019A01EB023093E7019B18032F
:100800008EE700BFF0B5002341F6BC3516469DB01B
:1008100004468E46C2F200051A4621E0520812F044
:10082000010F28D1520812F0010F2AD1520812F0FC
:10083000010F2CD1520812F0010F2ED1520812F0E4
:10084000010F30D1520812F0010F32D1520812F0CC
:10085000010F34D001335108582B81F08C0232D073
:10086000E95C4A4012F0010FD8D0520882F08C02A5
:1008700012F0010FD6D0500880F08C0212F0010F58
:10088000D4D0570887F08C0212F0010FD2D0510853
:1008900081F08C0212F0010FD0D0520882F08C024D
:1008A00012F0010FCED0500880F08C0212F0010F30
:1008B000CCD0570887F08C0212F0010FCAD1013357
:1008C0005208582BCCD1002385F858209C46EF5C69
:1008D0008CEA0700420810F0010F18BF82F08C026A
:1008E0004FEA520C12F0010F18BF8CF08C0C4FEA3B
:1008F0005C011CF0010F18BF81F08C014F0811F052
:10090000010F18BF87F08C07780817F0010F18BF88
:1009100080F08C00420810F0010F18BF82F08C02AA
:100920004FEA520C12F0010F18BF8CF08C0C1CF027
:10093000010F4FEA5C0C18BF8CF08C0C0133592B63
:10094000C5D101AD45F24D6741F6BC31C3F6310763
:10095000C2F200011A4605F10C000197CDF808E03B
:100960008DF80FC0ADF80C308DF80E602CF018FA31
:10097000B6B9042220461BA944F0D4F89DF86C3087
:10098000FF2B11D020464FF4805144F0B3F820469D
:100990002946652217F01CFBC043C00F1DB0F0BDF7
:1009A000C02202FB0640F3E79DF86DE0BEF1FF0FA9
:1009B000E8D19DF86E10FF29E4D19DF86FC0BCF11D
:1009C000FF0FDFD1E3E700BFF0B5142385B040F29D
:1009D00004440025902004228DF80F30C2F2000458
:1009E0004FF4803301A92360029544F09BF8A8429C
:1009F000B8BF284667DB206801992A460F1802A86D
:100A00000DF10F012760FFF7F5FD029B074633B19B
:100A1000226890420CBF00F54057A7F580579DF81B
:100A20000F100133481CC2B2152A8DF80F204CD08C
:100A3000194638460293FFF7E5FE0246002841D1E9
:100A400020683D1A2B0B5D1E2AD44FF6FF71C0F2B1
:100A50000F015E18360315F0010F15D13018002272
:100A60000299FFF7CFFEA6F58056024650BB013D26
:100A700013D423680299F018FFF7C4FE10BB013DA0
:100A8000A6F580562068E9E730180299FFF7BAFE0C
:100A9000C0B9013DA6F58056F4D520683A1A130B6B
:100AA000032B1ED8032504E02068391AB5EB113F4B
:100AB00017D300EB053002990022013DFFF7A2FE9B
:100AC0000028F1D0012005B0F0BD002219463846BB
:100AD0008DF80F200293FFF795FE02460028AFD055
:100AE000F0E744F6FC70C0F2030001F0CDFE0020F8
:100AF000E9E700BF10B5002341F6BC32C2F20002A4
:100B00009C46D45C8CEA040C1CF0010F4FEA5C0C90
:100B100018BF8CF08C0C1CF0010F4FEA5C0C18BF56
:100B20008CF08C0C1CF0010F4FEA5C0C18BF8CF0A1
:100B30008C0C1CF0010F4FEA5C0C18BF8CF08C0C75
:100B40001CF0010F4FEA5C0C18BF8CF08C0C1CF0F1
:100B5000010F4FEA5C0C18BF8CF08C0C1CF0010FDD
:100B60004FEA5C0C18BF8CF08C0C1CF0010F4FEAA4
:100B70005C0C18BF8CF08C0C0133582BC1D10128B0
:100B800082F858C019D003D303280BD0084610BDF3
:100B900041F6BC31C2F2000100205922BDE81040EC
:100BA0000FF0ECBE41F6BC31C2F200010020592228
:100BB0000FF0E4FE01460028E8D0BDE8104003E74E
:100BC0002DE9F04145F2140041F6BC3484B0C2F284
:100BD0000004C0F2030001F057FE21465922002014
:100BE0000FF092FE002394F858101A4621E05208A4
:100BF00012F0010F28D1520812F0010F2AD1520829
:100C000012F0010F2CD1520812F0010F2ED1520810
:100C100012F0010F30D1520812F0010F32D15208F8
:100C200012F0010F34D001335008592B80F08C02A0
:100C300032D0E05C424012F0010FD8D0520882F06E
:100C40008C0212F0010FD6D0500880F08C0212F006
:100C5000010FD4D0520882F08C0212F0010FD2D0D2
:100C6000500880F08C0212F0010FD0D0520882F0B0
:100C70008C0212F0010FCED0500880F08C0212F0DE
:100C8000010FCCD0520882F08C0212F0010FCAD1B1
:100C900001335208592BCCD15FFA82FC61454BD00D
:100CA000593B40F20445902004220293C2F2000511
:100CB0004FF4803301A92B6043F034FF002825DB7B
:100CC0002968019A02A853180DF10F0101222B6027
:100CD000FFF790FC02998046002930D12868042251
:100CE000694600F5405043F01DFF00280EDB9DF8DB
:100CF00000E0BEF1FF0F04D19DF801C0BCF1FF0F71
:100D000004D028684FF4804143F0F4FE324B1A229D
:100D100093E8030084E80300002130482CF064F9D4
:100D2000002119232E48362223722CF05DF95A2116
:100D30002170503984F8541004B0BDE8F0819DF85A
:100D40000F10FFF7A5FB0028F6D12868C0EB0803B9
:100D50001E0B032E28D8370316F0010F0BD1C01934
:100D60001421FFF795FB0028E6D10136032E07F585
:100D7000805716D82868C0191421FFF789FB01365F
:100D800007F5805714210028D6D1032E09D82B68E7
:100D90000136D819FFF77CFB0028CDD107F5805725
:100DA000E8E72868C0EB0803002607E0FFF770FBC0
:100DB0000028C1D128680136C0EB08031421B6EB26
:100DC000133F00EB0630F1D345F22400C0F20300DC
:100DD00001F05AFD9AE700BF904F0300C41B0020AA
:100DE000DE1B002030B545F2786143F24814C1F2B1
:100DF0003421C2F200044FF6FF7085B02160C0F2CA
:100E0000010017F093FB4FF6FF70C0F2030017F0DC
:100E1000B5FB1AF039F843F24C134CF6CC42C2F24F
:100E20000003C1F234221A600FF09CF94FF4FA71FA
:100E300002200FF057FB43F08FFE002017F016FE44
:100E4000012017F0D9FB18F0ABF801200AF00CFBD9
:100E500001200BF0B5FB01200CF074FD00220123F2
:100E600008214FF4E1301AF045FD0FF029FF05F09D
:100E7000C9FE06F013FBFFF7A3FE1CF007FB0FF003
:100E80001FFF22F0C5FA00200321002422F01AFAE5
:100E900041F6184540F63D7045F240014FF0020C16
:100EA000C2F20005C0F203014FF4A0622346C0F273
:100EB0000000CDF800C001950294039422F02AF9B5
:100EC00040F6257045F24C01C0F2030104354FF4A1
:100ED000A06223464FF0010CC0F200000195CDF84E
:100EE00000C00294039422F015F942F6A10045F2E5
:100EF00058010325C0F20000C0F2030123464FF45D
:100F00003472009501940294039422F003F945F29F
:100F10006000C0F2030001F0B7FC4FF6FF7022F052
:100F200059FEF4E708B540F208404EF29551C2F27E
:100F30000000C0F201011DF027F9F4E74FF48850DA
:100F400008B51DF0B1FD4FF4A0501DF0ADFD40F20D
:100F500008404EF24151C2F20000C0F201011DF002
:100F6000CFF8F4E743F25813C2F20003D87C70477D
:100F7000704700BF2DE9F00F0B46002900F0848078
:100F800043F25812C2F20002157841F62844A5F146
:100F9000040C5FFA8CFC01F1FF39BCF1020FC2F2C4
:100FA0000004C9F3C00940F2E73541F6991643F24F
:100FB000333744F6A54846F2676A88BFB0F9002087
:100FC00002D8B0F900205200AA4260DC0022227050
:100FD00008221021934257D9B9F1000F2ED030F9D1
:100FE0000190BCF1020F98BF4FEA4909A945DCBF47
:100FF0004FF0000984F800901CDDB145DCBF4FF0D4
:10100000010984F8009015DDB945DCBF4FF00209F5
:1010100084F800900EDDC145DCBF4FF0030984F871
:10102000009007DDD145DCBF4FF0040B84F800B021
:1010300000F38A8008321031934225D99946435EE5
:10104000BCF1020F98BF5B00AB4239DC0023237078
:1010500010310832BCF1020F88BF435E01D8435EF5
:101060005B00AB4225DDB3422FDDBB4239DD43459A
:1010700043DD5345DCBF4FF0040B84F800B052DC75
:10108000083210319145DAD8BDE8F00F7047B2420E
:1010900046DDBA4252DD424553DD5245DCBF0422F3
:1010A000227095DD48F2010B5A45DCBF0521217005
:1010B0008EE708320023103191452370BFD8E3E753
:1010C000B34209DC01232370C2E708320123103147
:1010D00091452370B3D8D7E7BB4209DC02232370C4
:1010E000B6E708320223103191452370A7D8CBE729
:1010F000434509DC03232370AAE708320323103198
:10110000914523709BD8BFE75345DCBF0423237070
:101110009EDD48F2010B5B45DCBF0523237097E79A
:101120000121217054E748F2010B5B45DCBF052328
:10113000237008321031914581D8A5E70222227030
:1011400046E70321217043E748F2010BD945DCBF94
:101150004FF0050984F800906CE700BF43F2581087
:10116000C2F20000037D3BB141F62843C2F2000306
:101170005A780AB901215970704700BF43F25810DC
:10118000C2F2000090F8D8303BB141F62843C2F2D9
:1011900000039A780AB901219970704773B143F23C
:1011A0005810C2F2000090F834313BB141F62843A8
:1011B000C2F20003DA780AB90121D970704700BF82
:1011C00040F25C43C2F2000301225A701A70704769
:1011D00010B440F25C43C2F200035A78CAB91878DE
:1011E000B8B943F25812C2F2000292F800C0BCF142
:1011F000030F1AD041F62841C2F200018C8841F653
:101200002840C2F2000034B9BCF1030F1AD0012209
:101210005A7010BC704792F83441002CF4D0C47856
:10122000002CF1D10124C470EEE7117D0029E1D03A
:1012300041F62841C2F200014C78002CDED1012099
:101240004870DBE792F8D820002AE0D0897841F690
:101250002842C2F200020029D9D101209070D6E7BD
:101260002DE9F04F40F25C4445F26C06C2F20004F6
:10127000C0F20306678A36F8119036F810A0668926
:1012800046F26765C6F26665C7EB0A0AC6EB09094E
:1012900085FB0A0385FB09184FEAEA724FEAE970F9
:1012A000C0EBA80CC2EBA30104F1040885B007EB66
:1012B000010E06EB0C0B414602224FF480334AF636
:1012C0004440A4F812E0A4F80AB00BF0ADF84FEADD
:1012D00049039620009314F055FA00984FEA4A0B00
:1012E00085FB0B3E85FB000C00994FEAEB72CB1798
:1012F000C2EBAE00C3EBAC0107EB000E06EB010C3A
:10130000022241464FF480334AF64440A4F812E0EA
:10131000A4F80AC00BF088F800980BEB0A0C00EB5D
:10132000090396200093CDF808C014F02BFA029A16
:10133000009985FB023E85FB010B009B0298D917A3
:10134000C217C1EBAB0CC2EBAE0007EB000E06EB15
:101350000C0B414602224FF480334AF64440A4F875
:1013600012E0A4F80AB00BF05FF84FEA8903962068
:10137000019314F007FA01994FEA8A0B85FB0B32AF
:1013800085FB010C01984FEAEB73C117C3EBA20375
:10139000C1EBAC0207EB030E06EB020C4146022246
:1013A0004FF480334AF64440A4F812E0A4F80AC08F
:1013B0000BF03AF801980BEB0A0C00EB09019620B0
:1013C000CDF80CC0019114F0DDF9039A019B85FB67
:1013D000022B85FB033C03980199C217CB17C3EB83
:1013E000AC01C2EBAB0007EB000E06EB010B0222D7
:1013F00041464FF480334AF64440A4F812E0A4F882
:101400000AB00BF011F8962014F0BCF90298DDF840
:1014100000C04FEA400B4FEA4C0385FB031C85FBE1
:101420000B024FEAEB7EDB17C3EBAC00CEEBA20165
:1014300007EB010E06EB000B022241464FF480330E
:101440004AF64440A4F812E0A4F80AB00AF0ECFF0F
:101450004FEAC9019620009114F094F9DDF800C01C
:101460004FEACA0BCAEB0B02C9EB0C0385FB021057
:1014700085FB03C1D217DB17C2EBA002C3EBA103AC
:1014800007EB020E06EB030C022241464FF48033B9
:101490004AF64440A4F812E0A4F80AC00AF0C4FFD7
:1014A000962014F06FF9009985FB0B0E85FB011C4B
:1014B00000984FEAEB72C317C2EBAE01C3EBAC006E
:1014C00007EB010E06EB000C022241464FF480337D
:1014D0004AF64440A4F812E0A4F80AC00AF0A4FFB7
:1014E000962014F04FF9009BDA44994485FB0A2CAE
:1014F00085FB09314FEAEA7A4FEAE979CAEBAC0297
:10150000C9EBA10007EB020E06EB000B41460222DD
:101510004FF480334AF64440A4F812E0A4F80AB02D
:101520000AF082FF962014F02DF90199DDF80CC025
:101530004B004FEA4C0B85FB031285FB0BC5D817FC
:101540004FEAEB7BC0EBA203CBEBA505F6187F19A6
:1015500041464AF6444002224FF480336681678256
:101560000AF062FF962005B0BDE8F04F14F00AB90A
:1015700070B514F04FFD43F25814C2F20004217A02
:1015800046F2676C0131C6F2666C05468CFB013091
:10159000830803EB8302A1EB4200C3B245F2501073
:1015A000C0F203001946237201F06EF935B94AF60C
:1015B0004440217ABDE8704007F0DCBEA8B2F8E7ED
:1015C0002DE9F84F40F25C45C2F200052B78012A64
:1015D00018BF0F4604460E4608BF4F08002B6CD1BB
:1015E00041F6284AC2F2000A012ABAF804B000F013
:1015F000DC8059452CBF8846D846B8F1000F55D03D
:1016000047F20002C2F201021368216808F1FF3CB0
:101610005940116027680CF001007940216017687B
:101620004FF0010C87EA010147F204031160042224
:10163000E045C2F2010339D998B11A6861684FF0E8
:10164000020C5140196060680822414061601868CE
:10165000E04580EA0101196047F20803C2F2010384
:1016600024D9A758196818464F401F6054F80290B3
:10167000111D87EA0907A7501A680CF1020C82EACB
:10168000070740F8047B54F801905F680A1D89EA57
:1016900007075F6054F8019087EA090767505968A7
:1016A00081EA07075F60031DE045DAD80023AAF846
:1016B00004606B705846BDE8F88F4FF4006147F244
:1016C000000011FA02F2C2F2010000212BF08CFCA2
:1016D000002F5ED047F20002C2F2010213682168B7
:1016E000781E59401160D4F800C047F2040381EA23
:1016F0000C012160D2F800804FF0010C88EA010152
:1017000011600422BC4500EA0C00C2F2010340D281
:1017100098B11A6861684FF0020C51401960606816
:101720000822414061601868BC4580EA01011960E7
:1017300047F20803C2F201032BD254F80280196861
:10174000184688EA010EC3F800E054F802A0111D03
:101750008EEA0A0844F802801A680CF1020C82EA48
:10176000080240F8042B54F801A0D3F804E00A1D45
:101770008AEA0E08C3F8048054F801A088EA0A082F
:1017800044F80180596881EA08015960031DBC458D
:10179000D3D341F62840C2F2000001220023868004
:1017A0006A702B703046BDE8F88F59458CBF4FEA00
:1017B00051084FEA5B0820E710B543F25814C2F213
:1017C00000040146E07150B916F06CF845F2601063
:1017D000E179C0F20300BDE8104001F055B80120E6
:1017E000014616F05FF8F1E7012116F0CFBA00BF0D
:1017F00010B5012014F038FE1A204FF480510BF080
:10180000B5FD1B204FF480510BF0A2FD1A204FF4C0
:1018100000610BF0ABFD1B204FF400610BF098FD55
:101820000FF000FD4FF4A8414FF48052012010F05A
:101830004DF9BDE810400FF013BC00BF012010B5FA
:10184000014616F02FF819F0FFFB002016F004FDFA
:101850000DF0ECFF0DF07EFF03200FF0D5F94420D2
:1018600016F04CF90120014616F01CF80020012169
:1018700016F000FA01214AF6444016F087FA642077
:101880001CF006FC002015F057FF4FF4CA7016F04C
:10189000C3FC00200146BDE8104016F003B800BFAD
:1018A000CCE700BF70B541F62844C2F20004A3683B
:1018B000054683420E4638D019F0C6FB002016F0CC
:1018C000CBFC0DF0B3FF0DF045FFB5F5FA4F2DD26F
:1018D0000120014615F0E6FF0FF0D2FB0020014683
:1018E00016F0C8F90FF09EFC122001460FF012FE10
:1018F0004FF440700FF0F6FE00210222012011F09B
:1019000053FD01220021284612F08AF8002010F031
:10191000D3F80020014615F0C5FF32201CF0B8FBBB
:101920004FF4CA7016F078FCA56070BD28460021FF
:1019300016F02CFA0FF0A4FB0221002011F090FE0B
:10194000002128460A4612F06BF8002010F046F8F5
:1019500032201CF09DFB26B19C2016F05DFCA5609A
:10196000E3E78C2016F058FCA560DEE770B541F681
:101970002844C2F20004E368054683420E4623D0A1
:1019800019F062FB002016F067FC0DF04FFF0DF020
:10199000E1FE2846012116F0F9F92846012111F04F
:1019A0008DFF00200121022211F0FEFC32201CF0EC
:1019B0006FFB2EB98C2016F02FFC2661E56070BD00
:1019C0009C2016F029FCF8E720698142D8D1F6E77F
:1019D000012010B50BF07EF80120BDE810400BF09F
:1019E0009DB800BF10B50F2834BF04460F2445F240
:1019F0006C102146C0F2030000F046FF45F26C0077
:101A0000C0F2030000EB4401088B43F25813C2F20A
:101A100000030146DC74BDE8104016F033BC00BF83
:101A200070B543F25814C2F20004A379202B01D9F7
:101A30002023A371207845F26C050838C2B2022A2F
:101A4000C0F203054FD840F2286640F22A61C2F284
:101A5000000105EB4303C2F200061A8F0888B6F8AE
:101A600000C000FB02F00CFB02F640F2215EC8F25F
:101A7000343E8EFB00128EFB06134FEAE67E03EB2C
:101A8000060C1618C017C0EB6623CEEB6C2189B28A
:101A90009AB2002010F062F894F806E0022005EBFC
:101AA0004E06B6F87C1043F258160A4610F056F867
:101AB00094F806C0032005EB4C02B2F87C10C2F289
:101AC00000060A4610F04AF86379102B01D910235A
:101AD000737105EB4305B5F8C01001200A46BDE857
:101AE000704010F03BB805EB4300018F00200A4620
:101AF00010F034F8D0E700BFA0F58051C81E10B533
:101B0000252840D8DFE810F04D003F003F003F009F
:101B10003F003F00560071003F003F003F003F0084
:101B20003F003F003F003F003F008B003F003F0071
:101B3000E3009800BC002600F7003F003F001201C0
:101B4000240137013F003F003F003F004000670194
:101B500049015B0143F25814C2F2000494F834E1E5
:101B600045F2AC10DEF1010C38BF4FF0000C6146BD
:101B7000C0F2030084F834C100F086FE94F83411FA
:101B8000002940F03A8110BD43F25814C2F200041B
:101B9000637A092B40F24B8145F21020C0F203001A
:101BA00024E1FFF7E5FC43F25813C2F200030120E1
:101BB000D87210BD43F25814C2F20004A3791F2B4F
:101BC00001D80133A371E27943F25813C2F2000342
:101BD000002A40F0348145F28010A179C0F2030060
:101BE00000F052FEBDE810401AE743F25814C2F26A
:101BF0000004A3790BB1581EA071E27943F2581387
:101C0000C2F20003002A40F0208145F28C10A17935
:101C1000C0F2030000F038FEBDE8104000E743F2D8
:101C20005812C2F2000292F807C0DCF1010038BF7E
:101C30000020BDE81040BFE543F25814C2F2000492
:101C4000237D45F29810D3F1010E38BF4FF0000EFE
:101C50007146C0F2030084F814E000F015FE217D07
:101C6000002990D041F6284240F25C43C2F20003C2
:101C70000121C2F20002002050705970197010BD8D
:101C800043F25814C2F2000494F8D8E045F2A410CC
:101C9000DEF1010C38BF4FF0000C6146C0F20300CA
:101CA00084F8D8C000F0F0FD94F8D81000293FF473
:101CB0006AAF41F6284240F25C43C2F200030121C0
:101CC000C2F20002002090705970197010BD43F2EA
:101CD0005814C2F20004617C002900F09C8045F297
:101CE000B410C0F2030000F0CFFD0C2005F062FD3F
:101CF0000023637416E043F25813C2F2000393F812
:101D000012E045F2E410DEF1010C38BF4FF0000C98
:101D10006146C0F2030083F812C000F0B5FD372021
:101D200005F048FDBDE8104001F022B943F258111A
:101D3000C2F2000191F80EC0BCF1050F3FF623AFCF
:101D4000DFE81CF0C300D600CB00B000A500B8004F
:101D500043F25813C2F2000359790F2902D8481CE4
:101D6000C1B2597145F2F010C0F2030000F08CFDD1
:101D7000BDE8104054E643F25813C2F2000359790B
:101D800011B10139C9B2597145F20020C0F2030006
:101D900000F07AFDBDE8104042E643F25814C2F26A
:101DA0000004A37A092B68D945F23020C0F2030061
:101DB000A17A0022E272BDE8104000F065BD43F256
:101DC0005814C2F20004A37A002B4ED145F24020F1
:101DD000C0F20300ECE743F25814C2F20004637A45
:101DE000002B38D145F22020C0F20300617A002296
:101DF000E272BDE8104000F047BD41F6284240F2D3
:101E00005C43C2F200030121C2F200020020D07044
:101E10005970197010BD45F2CC10C0F2030000F0EB
:101E200033FD01220B20627405F0C4FC7AE7013314
:101E3000DAB21046A17A6272FFF712FAACE600211C
:101E40000846D971FFF7B8FCC5E600210846D971EC
:101E5000FFF7B2FCD9E6581E5FFA80FC6046A17A13
:101E600084F809C0FFF7FCF9BCE7581EC3B2194655
:101E7000607AA372FFF7F4F9A8E7591C5FFA81FEB4
:101E80007146607A84F80AE0FFF7EAF98CE745F2D8
:101E90008020C0F2030000F0F7FC2320BDE81040D2
:101EA00005F088BC45F27420C0F20300BDE8104084
:101EB00000F0EABC45F28820C0F2030000F0E4FC28
:101EC0002620BDE8104005F075BC45F25020C0F258
:101ED0000300BDE8104000F0D7BC45F26820C0F216
:101EE000030000F0D1FC1D20BDE8104005F062BCED
:101EF00045F25C20C0F2030000F0C6FC4920BDE8BA
:101F0000104005F057BC00BF08B545F29023C0F261
:101F100003031A78824214D0197B81421CD093F8B3
:101F200018C084451AD093F82420824218D093F820
:101F30003010814216D093F83CC0844514D0002064
:101F400008BD002202EB420003EB80039B680BB14B
:101F5000984708BD012008BD0122F3E70222F1E7FE
:101F60000322EFE70422EDE70522EBE72DE9F84530
:101F700045F29026C0F203063378834208BF4FF043
:101F8000000800F09F80317B814208BF4FF00108BC
:101F900000F09880327E824208BF4FF0020800F0C5
:101FA000918096F82440844208BF4FF0030800F067
:101FB000898096F83050854208BF4FF0040800F041
:101FC000818096F83C70874218BF4FF0060877D0A2
:101FD0004AF6AB27CAF6AA27A7FB0824A10801EBFB
:101FE000410AA8EB4A0465002B1906EB83008368BD
:101FF00045F2902AC0F2030A002B5CD098470028D3
:1020000059D108F1010EA7FB0E239D0805EB450CE5
:10201000AEEB4C04650028190AEB80029368002B94
:1020200049D09847002846D108F10200A7FB0023B9
:102030009D0805EB4504A0EB440465002A190AEB52
:1020400082018B68002B36D09847A0BB08F1030EA5
:10205000A7FB0E20840804EB440CAEEB4C04650097
:102060002A190AEB82018B682BB3984718BB08F139
:10207000040CA7FB0C24A20802EB4205ACEB4504C0
:10208000650029190AEB81039B68A3B1984790B9B1
:1020900008F10508A7FB0825A90801EB410EA8EBEC
:1020A0004E0465002B1906EB830083681BB198472B
:1020B00008B9BDE8F8852C1916F82400BDE8F885A4
:1020C0004FF0050808F1010882E700BF70B545F23E
:1020D0009025C0F203052C780646844205D0AB68F3
:1020E000002B3FD0984700283CD12C7B45F2902311
:1020F000B442C0F2030305D05B69002B32D098478D
:1021000000282FD12C7E45F29023B442C0F2030365
:1021100003D01B6A33B3984720BB95F8244045F29F
:102120009023B442C0F2030303D0DB6AD3B19847D3
:10213000C0B995F8304045F29023B442C0F2030391
:1021400003D09B6B73B1984760B995F83C4045F25A
:102150009023B442C0F2030303D05B6C13B19847E1
:1021600000B90024204670BD08B543F25813C2F2EE
:1021700000039A78012A0FD0022A05D041F201000B
:1021800000F04AFE012008BD0120D87041F2010094
:1021900000F042FE012008BD0222DA7041F2010087
:1021A00000F03AFE012008BD41F20713984270B5D5
:1021B000044600F0538114D941F20B12904200F012
:1021C0004D811FD941F2014C604500F0D08041F2B1
:1021D0000243984200F0BD8041F20C1084420FD1BE
:1021E00085E041F20310844200F0388170D841F25A
:1021F0000110844200F0328141F202118C4271D010
:10220000002070BD41F20915A84200F0108177D876
:1022100004F02AFE002800F0978041F2031000F03D
:10222000D9FD41F20612944200F01E8141F2021ED5
:10223000744500F02D8145F29023C0F20303B3F8FA
:1022400002C0A44500F032819988A14200F02E819D
:10225000D889A04200F038811A8AA24200F0348165
:10226000B3F81AE0A64500F03181B3F81CC0A445CC
:1022700000F02C81D98CA14200F02A81188DA04257
:1022800000F026815A8EA24200F02481B3F834E097
:10229000A64500F01F81B3F83EC045F29022A44548
:1022A000C0F2030200F01881B2F84010A14200F021
:1022B0001381002343F25814C2F20004207898429C
:1022C0009ED10020FFF702FFA070BDE870404BE7F1
:1022D00041F20515AC425DD033D904F0F5FD00287C
:1022E00000F0EA8004F0EEFD002800F0D58004F054
:1022F000E7FD00288CD141F20B1000F06BFD87E761
:1023000004F078FD002800F0DB8043F25814C2F29C
:10231000000494F800E0BEF1040F00F0A9805820FA
:1023200005F048FA2378062B00F0E580052B00F035
:10233000A580042B00F09C800020FEF719FE0020F1
:1023400070BD00F047FD76E741F2071000F042FD56
:1023500063E743F25813C2F2000345F2D82099789C
:10236000C0F2030000F090FABDE87040FCE643F2D2
:102370005813C2F200039A780C2A3FF441AF93F845
:1023800000C0BCF10C0F3FF43BAF0C219970BDE8CD
:102390007040E9E643F25812C2F200021378A3F14A
:1023A000090C5FFA8CF101297ED9042B79D045F212
:1023B0009023C0F203035888A04200F094809988CB
:1023C000A14200F09080B3F80EC0A44500F09180C7
:1023D000188AA04200F08D80598BA14200F09580B0
:1023E000B3F81CC0A44500F09080D88CA04200F047
:1023F0008E80198DA14200F08A80B3F832C0A445C6
:1024000000F08780988EA04200F08380B3F83EC031
:1024100045F29021A445C0F203017CD0B1F84010F0
:10242000A14278D000239370BDE870409CE643F24F
:102430005813C2F200031878062861D005283FF42B
:102440007CAF04281FD11C7C002C48D0012C7FF4C9
:10245000D7AE0520FEF78CFD002070BD43F2581268
:10246000C2F200021378A0E7022008F0ADFDE2E618
:10247000247C002C32D0012C7FF4C2AE0320FEF766
:1024800077FD002070BD0120FEF772FD002070BDB9
:10249000012008F099FDCEE641F2011000F09AFC0F
:1024A00025E7D37B022B82D1012070BD002202EBF5
:1024B000420413F82430FDE6284600F08BFC11E7B7
:1024C000284600F087FC20E70122F0E70222EEE731
:1024D0000322ECE70422EAE70522E8E70220FEF700
:1024E00047FD204670BD002101EB410013F820306C
:1024F00099E70121F8E70220FEF73AFD002070BDC0
:102500000420FEF735FD002070BD0221ECE7032119
:10251000EAE70421E8E70521E6E700BF40F274435B
:10252000C2F2000318707047704700BFFEE700BF9B
:1025300000B585B00191034630B1026811700068A2
:10254000421C1A6005B000BDC9B20A2904D001A816
:10255000012119F04BF8F5E704A840F60D2320F807
:10256000043D022119F042F8ECE700BF2DE9F845DF
:10257000B2F1000804460D460EDD0A78002A5CD050
:1025800000220132A95C0029FBD19045D8BF8846C2
:1025900053DC13F0020F4ED1202713F0010F1FD18F
:1025A000B8F1000F1CDD08F1FF362046394606F071
:1025B000010AFFF7BDFF002E0EDDBAF1000F04D1B6
:1025C00020463946013EFFF7B3FF013E204639461B
:1025D000FFF7AEFF002EF3DC46464FF0000800E0A8
:1025E0000026297839B1AD1B01362046FFF7A0FF40
:1025F000A95D0029F8D1B8F1000F19DD08F1FF3508
:102600002046394605F0010AFFF792FF002D0EDD46
:10261000BAF1000F04D120463946013DFFF788FF8B
:10262000013D20463946FFF783FF002DF3DC464489
:102630003046BDE8F8853027AFE713F0020FC2EB54
:102640000808A9D0F7E700BF2DE9F0410C4684B097
:1026500080460A9F0B9D002C41D00A2A14BF0020FF
:102660000120002B0CBF002300F00103002B2CD114
:10267000002400268DF80F6000293CD00C980DF145
:102680000F063A38B1FBF2F302FB13110929C8BF58
:102690000918303106F8011D1946002BF2D14CB94A
:1026A000404631463A462B46FFF760FF001904B01A
:1026B000BDE8F08177B115F0020F0BD040462D2117
:1026C000FFF736FF013F0124EAE70029D0DA49424B
:1026D0000124CEE72D2206F8012D0024E0E74FF07B
:1026E000300C3A462B4601A98DF804C08DF8054000
:1026F000FFF73CFFDBE70DF10F06002CD0D0D9E748
:102700002DE9F04F0C46097887B0804692460029A3
:1027100000F0948045F2FC290027C0F203094FF035
:10272000610B25293DD114F8011F00292ED0252940
:1027300037D02D2946D0002603E014F8011F46F0BB
:1027400002063029F9D0A1F13000C3B2092B4AD8D2
:10275000002505EB850501EB450514F8011F303D0B
:10276000A1F1300C5FFA8CF2092AF2D973291DD03D
:1027700064292BD0782938D058293CD0752947D0E6
:1027800063294BD014F8011F0029CAD1B8F1000FFA
:1027900003D0D8F8003000211970384607B0BDE8E2
:1027A000F08F4046FFF7C4FE0137EBE75AF8041BF1
:1027B0002A46002908BF494633464046FFF7D6FE61
:1027C0003F18DFE714F8011F0126BAE75AF8041B87
:1027D00040460A22012300950196CDF808B0FFF784
:1027E00033FF3F18CEE70025C0E75AF8041B4046E8
:1027F00010220023EFE75AF8041B404600951022F0
:102800000023412501960295FFF71EFF3F18B9E707
:102810005AF8041B40460A220023DCE75AF804CB8E
:102820004FF0000E2A463346404605A98DF814C0E5
:102830008DF815E0FFF79AFE3F18A3E70F46A5E7CE
:102840000CB400B583B002AB04AA52F8041B43F8E1
:10285000040D1846FFF754FF03B05DF804EB02B017
:10286000704700BF0EB400B582B002AB03AA52F8A5
:10287000041B43F8040D1846FFF742FF02B05DF851
:1028800004EB03B0704700BF0FB408B502AA52F8BA
:10289000041B0020FFF734FFBDE8084004B0704778
:1028A00010B54FF4C06086B01CF0FEF801AC2146B4
:1028B00005201FF001FAFAE770B506460D46EFF362
:1028C000058414B14FF0FF3070BD204621461CF046
:1028D00095FB40F202639842F4D1304629462246E5
:1028E000BDE8704018F0C0BF18F080BE38B505468E
:1028F00045F2B0100C46C0F203002946FFF7C4FFB2
:10290000012D73DD60680378313B492B2AD8DFE85D
:1029100003F0253E43484D522929292929292929EF
:102920002929292929292929292929292929292917
:102930002929292929292929292929292929292907
:1029400029292929662929292929292929292929BA
:102950002929292B5E2929292929295741F21C00D7
:1029600000F05AFA002038BDBFF34F8F4EF60052E8
:10297000CEF20002D36840F2040503F4E061C0F235
:10298000FA5541EA0504D460BFF34F8FFEE741F2E8
:10299000100000F041FAE5E741F20F0000F03CFAC8
:1029A000E0E741F20A0000F037FADBE741F2090004
:1029B00000F032FAD6E741F20B0000F02DFAD1E731
:1029C000D4F890016FF0200C80F800C4CAE7002111
:1029D00020200A460DF004FD0DF038FFC2E702206A
:1029E00001210DF07FFD0DF093F8BBE745F20430B7
:1029F000C0F20300FFF748FFB4E700BF10B541F68F
:102A00005042C2F2000284B0146804AB4FF0000CD4
:102A100023F802CD0246222120460224009406F02B
:102A20005BFF9DF80F309DF80E1003EB012080B284
:102A300004B010BD10B504460B20FFF7DFFF10F403
:102A4000807020D0B4F5876F14BF00230123B4F544
:102A50007F7F08BF43F0010383B9B4F5707F14BFD3
:102A60000020012040F27532944208BF40F001007E
:102A700020B9B4F57A7F01D0012010BD0A20FFF7FC
:102A8000BDFFC0F3802010BD10B541F65042C2F228
:102A90000002136884B08C464FEA112E02460224CD
:102AA0001846222103AB8DF80CE08DF80DC0009480
:102AB00006F02CFF04B010BD10B504460520FFF74A
:102AC0009DFF4FF6F072C0F2000200EA020304F02C
:102AD0000F0143EA01010520BDE81040D4E700BF23
:102AE000A0F558718A1F90014FF6D07140F0100385
:102AF000C0F2000103EA01010320C5E710B5044656
:102B000045F23C60C0F20300FFF7BEFE2046BDE880
:102B10001040E5E710B504460220FFF76FFF34B917
:102B200040F4004291B20220BDE81040ACE74104FD
:102B3000490CF8E710B504460220FFF75FFF34B9EF
:102B400040F4804291B20220BDE810409CE74BF671
:102B5000FF71C0F2000100EA0101F4E7012008B5AD
:102B6000FFF7E8FF012008BD38B5022043F25415F5
:102B70004FF0FF320146C2F200052A70FFF784FFD2
:102B80003C201BF085FA0E20FFF738FF044645F283
:102B90005060C0F203002146FFF776FE45F60103C0
:102BA0009C421CD045F604018C4225D045F6080C09
:102BB000644507D045F26C60C0F20300FFF764FE85
:102BC000002038BD45F26860C0F20300FFF75CFEEC
:102BD000032201202A70FFF7ADFF012038BD45F226
:102BE0006060C0F20300FFF74FFE00202870012054
:102BF000FFF7A0FF012038BD45F26460C0F203007A
:102C0000FFF742FE022301202B70FFF793FF012004
:102C100038BD00BF10B541F65044C2F2000423682D
:102C200013B1BDE810409FE70220032102460423B0
:102C300006F0BEFB2060F4E7F8B54CF2010102207B
:102C400043F25417FFF720FFC2F200074FF416704B
:102C50001BF01EFA3878022864D090B945F234543B
:102C6000C0F2030404F180066188251D2078FFF777
:102C70000BFF207969882C1DFFF706FFB442F3D1C2
:102C8000387803284CD10021FFF7FEFE4FF4806115
:102C90000420FFF7F9FE4CF2AD610520FFF7F4FECA
:102CA0004FF4C0410620FFF7EFFE44F21621072043
:102CB000FFF7EAFE00210920FFF7E6FE42F61121A8
:102CC0001220FFF7E1FE4BF242011320FFF7DCFE7A
:102CD00042F611211420FFF7D7FE4BF631011520E3
:102CE000FFF7D2FE4FF440411620FFF7CDFE42F62B
:102CF00091211720FFF7C8FE4FF414411820FFF769
:102D0000C3FE4FF2CF711B20FFF7BEFE42F6DC215F
:102D10001C20FFF7B9FE1D2048F26F01FFF7B4FE3B
:102D20000120F8BD00210320FFF7AEFE4FF48061C3
:102D30000420FFF7A9FE48F2AF610520FFF7A4FECB
:102D40004FF400410620FFF79FFE45F61A71072059
:102D5000FFF79AFE4FF470411220FFF795FE47F6F9
:102D60000B711320FFF790FE71211420FFF78CFEEA
:102D700044F2C0211520FFF787FE4FF486511A2038
:102D8000FFF782FE46F215011C20FFF77DFE4FF48F
:102D90008B412120FFF778FE40F201612420FFF7EC
:102DA00073FE40F604512620FFF76EFE2C2043F6FA
:102DB0003B41FFF769FE38784FE700BF40F27543AB
:102DC000C2F200031870704740F27543C2F200036C
:102DD0001878704701460A201EF034BB38B500F45D
:102DE0007F4500242846FFF7F5FF681C85B20134B3
:102DF000284601340135FFF7EDFFB4F5807FADB211
:102E0000F0D138BD014608B502201EF01BFB00388A
:102E100018BF012008BD00BF30B541F20133984210
:102E200083B0054634D004F05DFC002849D141F25E
:102E300006118D4214BF0020012041F2021295427A
:102E400008BF40F00100002814D0EFF3058444B916
:102E5000214628462246022300941CF0E9F903B0DB
:102E600030BD002128460A46022303B0BDE83040A9
:102E70001DF01CBA41F20C1E754514BF002401243C
:102E800041F2081C654508BF44F00104002CDCD168
:102E900041F20410854214BF0021012141F20A13BE
:102EA0009D4208BF41F001010029CED1EFF3058416
:102EB00054B128460A46012303B0BDE830401DF056
:102EC000F5B904F069FCB2E7214628462246012301
:102ED00000941CF0ADF9C2E710B50246EFF305808F
:102EE00080B14FF6DA7440F6DC22C2F200021168BB
:102EF00041F62440C2F200000A6803689A4206D0F4
:102F0000204610BD01461CF079F884B2EBE720465C
:102F1000FFF74AF9002818BF0024204610BD00BF63
:102F2000014608B5012041F071FDD0F1010038BF24
:102F3000002008BD10B545F27460C0F203000368BC
:102F400082B001AC4FEA134C21460220032284F8E0
:102F500002C0ADF8043041F059FDD0F1010038BF96
:102F6000002002B010BD00BF0320FDF7C3BD00BFAD
:102F700010B50020FDF762FA43F2581104465A20BA
:102F8000C2F2000120700A78002062708B79E37031
:102F900091F808C084F804C04A7C62718B7CA371EC
:102FA000FDF7A8FD0120FDF7A5FD45F27860C0F210
:102FB0000300FFF769FC44F6BC702178C0F20300FF
:102FC000FFF762FC44F6D0706178C0F20300FFF7AF
:102FD0005BFC44F6E070A178C0F20300FFF754FCFC
:102FE00044F6F070C0F20300FFF74EFC44F6987010
:102FF000C0F20300BDE81040FFF746BC45F2946004
:1030000010B5C0F20300FFF73FFC47F6F043C2F2F1
:10301000000345F2B4601968C0F20300BDE8104037
:10302000FFF732BC38B543F25814C2F20004002155
:103030004FF40A72204629F0D7FF022121730A219A
:10304000012305221A25002061710F216272E174AB
:1030500063746373A272E372A571FDF7EFF94178AF
:1030600021708278E270C378A37190F804C0202B9D
:1030700088BFA57184F808C0C17943F25813E17480
:103080004279C2F20003012A627401D901225A7402
:1030900090F806E043F25813BEF1010F84F812E0F5
:1030A000C2F2000301D90020987438BD41F65443A0
:1030B000C2F20003186808B190F85A00704700BFC8
:1030C00038B541F65444C2F20004236805466BB19A
:1030D00093F85A30834209D045F2D860C0F2030019
:1030E0002946FFF7D1FB206880F85A5038BD00BF51
:1030F00045F2F46010B5C0F20300FFF7C5FB43F2E0
:103100005810C2F200000378032B09D041F6544155
:10311000C2F200010B681BB193F85A20032A00D0B9
:1031200010BD93F85BC0BCF1050FF9D093F8A9105E
:1031300061B1012918D045F27C700022C0F2030071
:1031400083F8A920BDE81040FFF79EBB196845F23F
:1031500014700122C0F2030083F8A920C3F8A01064
:10316000BDE81040FFF790BB1868D3F8A010884264
:103170000AD845F234700021C0F2030083F8A91088
:10318000BDE81040FFF780BB411A45F25C704FF07C
:10319000020EC0F2030083F8A9E083F8A820C3F868
:1031A000A410BDE81040FFF76FBB00BF45F2907060
:1031B00010B5C0F20300FFF767FB41F65443C2F2BB
:1031C00000031B6873B193F85A0002280AD943F22E
:1031D0005812C2F200021178032904D00320BDE87E
:1031E00010406DE710BD0620BDE8104068E700BF45
:1031F00045F2B47010B5C0F20300FFF745FB41F68D
:103200005443C2F200031B6873B193F85A000228BA
:103210000AD943F25812C2F200021178032904D0ED
:103220000320BDE810404BE710BD0520BDE810406D
:1032300046E700BF45F2D87008B5C0F20300FFF7BB
:1032400023FB43F25813C2F2000393F800C0BCF111
:10325000100F18BF83F801C0002104200222197446
:103260009870DA7308BD00BF45F2F87010B5C0F26F
:103270000300FFF709FB43F25810C2F20000037885
:10328000032B03D00420BDE8104019E710BD00BF98
:1032900045F61C0010B5C0F20300FFF7F5FA43F243
:1032A0005810C2F200000378032B03D00320BDE8BE
:1032B000104005E710BD00BF45F6400008B5C0F25C
:1032C0000300FFF7E1FAFFF7E3FF41F65440C2F2D3
:1032D000000003680022A3F86C20A3F86620A3F87E
:1032E0006820A3F86A2008BD45F6600008B5C0F262
:1032F0000300FFF7C9FA43F25813C2F200030F228A
:103300009A7008BD45F67C00C0F20300FFF7BCBA16
:1033100070B541F65444C2F20004256882B095F8B5
:10332000FC30002B5AD045F69C00B5F8D430C0F2E2
:103330000300B5F85610B5F85420FFF7A5FA226837
:1033400044F6D35C114651F8206BC1F2620CACFB21
:10335000060348F689004FEA931CC8F68800A0FBD4
:103360000C354BF2732EC4F2E75EAEFB0603680920
:10337000C0EB001545F6BC00ACEB85052832C0F269
:1033800003009B0B0095FFF77FFA226892F85B0021
:1033900005280AD8DFE800F030373E454C0345F6F3
:1033A0000410C0F20300FFF76FFA43F25813C2F2A1
:1033B0000003D97A39B945F61010C0F203009A7AA1
:1033C000597AFFF761FA43F62020C0F20400FFF7B4
:1033D0005BFA20680268426002B070BDA96C45F6D5
:1033E000AC00B1F83836B5F85420B5F85610C0F234
:1033F0000300FFF749FAA2E745F6DC00C0F203003C
:10340000FFF742FAD1E745F6E400C0F20300FFF708
:103410003BFACAE745F6D400C0F20300FFF734FADE
:10342000C3E745F6FC00C0F20300FFF72DFABCE746
:1034300045F6F000C0F20300FFF726FAB5E700BF3B
:1034400045F6201010B5C0F20300FFF71DFA41F653
:103450005443C2F200031B681BB193F85A000328BF
:1034600005D03A2004F0A6F9BDE8104010E7FFF7B8
:10347000FBFE1B20BDE8104004F09CB945F640104F
:1034800038B5C0F20300FFF7FFF943F25813C2F258
:1034900000031B78032B22D0102B20D041F654457B
:1034A000C2F200052C6894F85B00012814BF0022CA
:1034B0000122042814BF134642F001038BB194F893
:1034C0004C10012384F8FC30002938D1B4F8562080
:1034D00004F1AC00002125F033FD044638B301208F
:1034E00038BD94F84C004FF0010C84F8FC30A4F87F
:1034F00056C0B8B94FF00102A4F8542004F1AC0052
:103500000021012225F01CFD20B12B68B3F8D81052
:103510000029E4D145F66010C0F20300FFF7B4F9CA
:10352000002038BDB4F80CE0A4F854E0E6E745F616
:103530006010C0F20300FFF7A7F9204638BDA06C69
:10354000218A25F065FAA4F856002C68E089A4F8D1
:103550005400BBE770B541F65445C2F200052A6835
:1035600045F6741092F85B40C0F203002146FFF765
:103570008BF92A684AF6AB2C92F85B00CAF6AA2CA3
:10358000411CC8B2ACFB00139B0803EB430CA0EB3F
:103590004C01012C14BF00230123C9B2042C08BF25
:1035A00043F0010382F85B1043B14B1E18BF0123A7
:1035B00004290CBF002303F00103ABB9D4F10100CF
:1035C00038BF0020022C08BF40F00100C8B10A1E1D
:1035D00018BF012202290CBF002202F0010242B1F1
:1035E000032906D0052904D0FFF748FF2B6893F87C
:1035F0005B1045F69810C0F20300BDE87040FFF77D
:1036000043B9032C14BF4FF0000E4FF0010E052CF0
:1036100014BF74464EF00104002CEAD00A1E18BFF5
:10362000012202290CBF002202F00102002AD7D198
:10363000DFE700BF30B545F6B41083B0C0F2030039
:10364000FFF722F943F25813C2F200031D78102D40
:103650000FD003F037FC0024A04214BF0121022147
:10366000224628462346009401F05CFC012003B06A
:1036700030BD0020FBE700BF2DE9F04543F25810B4
:10368000C2F20000037883B0032B6BD041F65444A0
:10369000C2F2000423689A68002A68D043F2004509
:1036A000C2F2000580221D652846002129F09CFCFD
:1036B00020688268966A002E3DD0032E08BF4FF026
:1036C000020805D0012E0CBF4FF0FF084FF0000894
:1036D00092F82C60002E4DD043F200402C32C2F202
:1036E000000080214023CDF8008005F0ABFA43F2C2
:1036F0000040C2F2000029F00DFF226841F6544656
:103700009368C2F2000693F86C10002954D193F824
:10371000AC306BB123682F2242559A68411C68185F
:10372000AC32C1F180014023CDF8008005F08AFA67
:1037300003B0BDE8F08590F84C100029F8D043F2B2
:103740008035C2F200050C302946802223F050F863
:103750000028EDD033465C5D59190CB94C78A4B102
:103760000233F8E741F65441C2F200010B68002031
:103770001865DDE72030AC4607C8ACE80300130C41
:1037800061460A80AB720B20B7E743F2004043F278
:1037900080328021C2F20002C2F20000009405F0E3
:1037A00051FA43F28030C2F200002146802203B079
:1037B000BDE8F04529F018BC2F27475500F1010A54
:1037C000926805EB0A076C324023CAF18001384643
:1037D000CDF8008005F036FA384629F09BFE3268B5
:1037E0005044936893E700BF10B545F6D81041F6F2
:1037F0005444C0F20300C2F20004FFF745F8236806
:1038000093F84C203AB945F62420C0F20300BDE8F5
:103810001040FFF739B845F6FC109989C0F2030053
:10382000FFF732F820680C3024F034F823680020C9
:1038300083F84C0010BD00BF70B545F63C2041F642
:103840005445C0F20300C2F20005FFF71DF82868D6
:103850000024012143F2581280F84E1080F85C4099
:10386000046580F8A940C2F200021378032B2FD020
:1038700017F0EEF82B68A3F87240A3F86640A3F89F
:103880006840A3F86A40A3F86C40A3F86E40A3F820
:1038900070402B6893F865200AB183F86540FFF704
:1038A000A3FF296800200860FFF70AFC41F210001E
:1038B000FFF790FA41F23600FFF78CFA41F20F0061
:1038C000FFF788FA41F23700BDE87040FFF782BA8F
:1038D00070BD00BF70B541F65444C2F200042168C7
:1038E000064645F65820C0F20300B1F8D850FEF75E
:1038F000CBFF2068B0F8E430AB422DD290F8FA202C
:1039000062B3E6300AF074FB2068E6300AF070FC1F
:1039100020684EF6D773B0F8E4C0C0F200030CEB99
:103920008C025100CA18B3181FFA83FC4EF6D772E6
:103930006545C0F20002A0F8E4C038BFA0F8E4502A
:10394000B11888B203F036FF43F25813C2F20003F5
:10395000587C08B1FFF770FF012070BD44F6750276
:10396000E630C0F200024FF4FA610AF081FBCBE7C7
:103970002DE9F041002084B0FCF760FD06460120EF
:10398000FCF75CFD054645F67420C0F20300FEF727
:103990007BFF41F6544445F69820C0F20300C2F282
:1039A0000004FEF771FF226892F84C3013B192F8D0
:1039B000000100B392F85B1095F801C043F2581370
:1039C00061F3060C85F801C092F86400C2F20003AE
:1039D00060F3C71C85F801C093F808E0002086F862
:1039E00004E09979F170FDF785F80120FDF782F880
:1039F00004B0BDE8F08107F0CFF890F90080B8F18D
:103A0000FF3F41D02368EC4603F1200207CAACE82F
:103A1000030060464FEA124E028003F12C0104229B
:103A20000DF10B008DF80AE029F0BAF9226844F68E
:103A3000D3531168C1F26203A3FB010CCCF38F10C6
:103A400005EBC808010A88F8071088F80600936992
:103A5000D2696846D3181A0EC3F30741C3F3072C83
:103A600088F8041088F805200F2188F803C088F82A
:103A70000230FCF7EFFB88F8080022686F4692F8E6
:103A8000FC1088F8091095E705F10A08414608225C
:103A9000A81C29F085F9404605F11201082229F0F9
:103AA0007FF927680220B7F85620B7F8541007F0BE
:103AB00079F84FF00208A5E710B543F25813C2F2A7
:103AC00000031B78022B0BD0032B03D0012B03D058
:103AD000102B09D0002010BDBDE8104003F0F4B950
:103AE000BDE8104003F0EEB903F0ECF908B1012095
:103AF00010BD03F0E9F9003818BF012010BD00BF68
:103B000010B5044645F6B820C0F20300FEF7BCFE2F
:103B1000012C0ED003F0D8F928B143F25811C2F2AB
:103B200000010120887041F20100BDE81040FFF75C
:103B300073B903F0C7F90028F5D043F25813C2F265
:103B4000000302229A70EEE7F0B541F65444C2F247
:103B50000004256883B01DB195F85A30032B01D0BD
:103B600003B0F0BD44F6D3536A68C1F2620329681A
:103B7000A3FB0202A3FB010C9209B2EB9C1F02D033
:103B8000FFF7C6FB256895F8A900022819D095F81B
:103B90005BC0BCF1050F0AD095F86500002825D15F
:103BA000286D0028DCD103B0BDE8F04064E52B6847
:103BB000B3F5FA5FF0D341F23600FFF72DF925682F
:103BC000EAE7D5F8A410D5F8A0002A680B189A42A5
:103BD000DDD395F8A8600EBB45F6D420C0F20300F3
:103BE000FEF752FE256885F8A960D0E7B5F86610A3
:103BF000B5F86C60B5F86800B5F86AC041EA0042F3
:103C00004CEA06432E68D1188E4213D2B5F97210D1
:103C10000029BCBF0020A5F87200A1E7721ED1B236
:103C200045F6E82085F8A810C0F20300FEF72CFE48
:103C30002568ACE7304616F0FFFE80B210F4004F66
:103C4000A5F8720018BF2568E0D12368B3F9725057
:103C5000802D00F39D800025B3F86E20B3F870002E
:103C6000002142EA0040802229F0BEF92068314656
:103C70000022663016F03CFC15F052FD2668B6F9BD
:103C80007230002B55DD011E18BF012105280CBF25
:103C9000002101F0010100294BD0012849D0022860
:103CA00008BF074603D0042814BF0027012743F2AA
:103CB000803000218022C2F2000029F095F92668A8
:103CC00043F28030B6F97210B6F86E30B6F8702054
:103CD000C2F2000043EA02420B46009704F0B2FF32
:103CE0002368A6F87200B3F86EC0B3F8706043F2B0
:103CF00080314CEA0640B3F97220C2F2000129F08B
:103D00004FF843F2803000218022C2F2000029F0F7
:103D10006BF922680021B2F86E00B2F870C0B2F9F7
:103D2000726040EA0C439819C6F1800229F05CF9F0
:103D30002668E5B1B6F87270B6F86EC0B6F8705085
:103D400039B200234CEA0540994205D9C25C802A69
:103D50001CD902339942F9D87A1E93B24CEA054C29
:103D600019B20020A6F872300CF801002668B6F8E7
:103D700070E0B6F86EC045F600304CEA0E41C0F275
:103D8000030003B0BDE8F040FEF77EBD0133DBE782
:103D90004FF0800EA3F872E001255DE7F0B541F623
:103DA0005444C2F2000491B0236803AE1A8A30462C
:103DB000002124F033FF08B911B0F0BD43F2803583
:103DC000C2F2000500218022284629F00DF9206862
:103DD00029460C30802222F00BFD00286FD02A46A5
:103DE0007F210EE092F87F70821E7FB990F87E30BE
:103DF00002395BB990F87F0040B90239B1F1FF3F59
:103E00006DD092F87E30901E002BEBD000290A4630
:103E10000EDDC81E01F1FF3C28181CF0020F35D042
:103E20002E2B48D08A1E0238002AC8BF83782DDC8A
:103E3000531E792B33D90732002543F280313046A7
:103E4000C2F200012B46009516F0D4FF0028B3D033
:103E500043F200432268C2F20003190C012082F8E9
:103E60006500A2F87010A2F86E30A5E7C1780029AD
:103E7000DED0023A002A1146DADD93F802E0BEF104
:103E80002E0F08D0184610F802398A1E2E2BA0F1EA
:103E90000203EED1EAE7D8780028F3D1C8E7551934
:103EA0006C210020697072236321A871EB70697125
:103EB000A8702871BFE7C378002BB3D1B8E745F6E7
:103EC0000830C0F2030022680368203292E8030041
:103ED0001A0CAA7285E803002B810B22ACE7802222
:103EE000AAE700BF45F60C3038B5C0F20300FEF774
:103EF000CBFC20F031FE28B3FFF7DEFD10B341F616
:103F00005444C2F20004256895F8FC1011BB05F179
:103F10000C00B5F8542022F0D1FC85F84C00236841
:103F200045F64030C0F20300B3F85420B3F8AC10AB
:103F3000FEF7AAFC206890F84C40CCB1FFF72EFFAA
:103F4000012038BD45F63030C0F20300FEF79CFC7E
:103F5000002038BDB5F8D210B5F8543005F10C008A
:103F6000CA1892B2002122F0A9FC85F84C00D6E7CD
:103F700045F67830C0F20300FEF786FC204638BDD7
:103F800038B545F6843041F65444C0F20300C2F21D
:103F90000004FEF779FC2368002583F84E5083F86F
:103FA000A950FFF721FCFFF79DFF002832D02168C0
:103FB00045F6A430A1F8E050C0F20300FEF764FC1F
:103FC0002846FFF77DF8FFF70FFC236893F80021E0
:103FD000002A4CD193F84D00002837D141F2360029
:103FE000FEF71AFF236841F6544493F86520C2F2A5
:103FF0000004002A37D023B193F85AC0BCF1040F53
:1040000002D00320FFF75CF8FFF782F9FFF7B0FC5E
:10401000012038BDFFF750FD054600282DD022684D
:10402000B2F8E000411C0328A2F8E01032D943F2B4
:104030005813C2F2000393F800E0BEF1010F0CBF69
:1040400002200120FFF75CFD012038BD41F237005E
:10405000FEF7E2FE236841F6544493F86520C2F26D
:104060000004002AC7D1FFF707FB2368C3E741F22A
:104070001D00FEF7D1FE012038BDFDF777FF43F2AA
:104080005813C2F20003987041F20100FEF7C4FE1B
:10409000284638BD41F23600FEF7BEFE012038BD8D
:1040A00045F6B83038B5C0F20300FEF7EDFB43F239
:1040B0005813C2F200031B78032B09D0102B07D032
:1040C00041F65444C2F20004216891F8FC0008B99A
:1040D000012038BDFFF7B0FB2068B0F856506A1ECB
:1040E00092B2A0F856201AB9B0F8FE20A0F85620D7
:1040F000AC30002124F024FF054690B1216845F63C
:10410000D830C831C0F20300FEF7BEFB23684FF081
:10411000010CA3F854C0FFF733FF003818BF01208B
:1041200038BD45F66010C0F20300FEF7ADFB28462F
:1041300038BD00BF45F6E83038B5C0F20300FEF7E1
:10414000A3FB43F25813C2F200031B78032B09D0E0
:10415000102B07D041F65444C2F20004216891F8B4
:10416000FC0008B9012038BD0E2003F023FBFFF747
:1041700063FB2068B0F85630B0F8FE505A1C92B27B
:104180009542A0F856203EBF0122A0F856200122F9
:10419000AC30002124F0D4FE054690B1216845F6EC
:1041A000D830C831C0F20300FEF76EFB20684FF034
:1041B000010CA0F854C0FFF7E3FE003818BF01203F
:1041C00038BD45F66010C0F20300FEF75DFB2846DF
:1041D00038BD00BF70B541F65444C2F200042368F4
:1041E00093F8FC20B3F858600AB1B3F8D46045F6F0
:1041F0000840C0F20300FEF747FB43F25810C2F23A
:1042000000000378032B39D00220FEF759FF246801
:1042100041F6544594F85B10C2F2000505290DD90A
:10422000012284F84D20FFF707FB192003F0C2FAA2
:10423000FFF7A6FE003818BF012070BD94F95B306F
:10424000012212FA03F313F0230F0CD113F0180F0D
:10425000E6D01FF043F9314680B210F077FCA4F8A5
:1042600054002C68DCE7B4F85430591E88B2A4F826
:1042700054000028D4D1A4F85460D1E7012070BDC7
:1042800070B541F65444C2F20004236893F8FC2050
:10429000B3F858600AB1B3F8D46045F62840C0F2CC
:1042A0000300FEF7F1FA43F25810C2F2000003785F
:1042B000032B3AD00120FEF703FF246841F6544552
:1042C00094F85B10C2F2000505290DD9002284F88C
:1042D0004D20FFF7B1FA1A2003F06CFAFFF750FEF9
:1042E000003818BF012070BD94F95B30012212FA2A
:1042F00003F313F0230F0CD113F0180FE6D01FF0C7
:10430000EDF8314680B210F021FCA4F854002C687E
:10431000DCE7B4F85410481C1FFA80FC6645A4F88A
:1043200054C038BFA4F85420D0E7012070BD00BFAE
:1043300030B543F25813C2F200031A7883B0511E0D
:10434000CBB2012B21D9A0F58052911E35295ED820
:10435000DFE801F0A15D9D9A97945D5D5D90888096
:104360007C7976726F6B5D5D675D5D5D5D5D635DE4
:104370005D5D5D5D5D5D5D5D5D5D5D60606060605E
:1043800060606060605D5D5D767941F65444C2F2C4
:104390000004226892F80111002926D041F2080E8B
:1043A000704500F0EB8041F20B0C604514BF00211A
:1043B000012141F20202904208BF41F0010169B9B6
:1043C00041F21001884214BF0023012341F20F0E75
:1043D000704508BF43F00103002BB4D003F0C0FCCC
:1043E00000285FD1012003B030BD41F2080C6045C8
:1043F000A9D145F64840C0F20300FEF745FA20680F
:10440000012480F8014103F085FD2046EBE7FDF72C
:1044100073FBE7E7FFF75EFAE5E7FEF773FF0020BF
:10442000E1E7FEF761FF0020DDE7FEF761FE012016
:10443000D9E7FFF7FFF8D6E7FEF7FCFE0020D2E74A
:10444000FFF71EFFCFE7FFF7C5FECCE7FEF734FF0F
:104450000120C8E741F20D00FEF7BCFCFEF7A6FE06
:104460000120C0E741F20C00FEF7B4FCFEF7C0FEED
:104470000120B8E7FEF7E4FF0120B4E7FFF710FEE4
:10448000B1E7FFF757FEAEE7FEF7F8FFABE7FFF740
:1044900061F80120A7E7FFF7CFF91C2003F08AF9A4
:1044A0000120A0E745F67040C0F20300FEF7ECF9EA
:1044B00001AA0DF10601684603F03EFA009945F69F
:1044C00088401C31C0F20300FEF7DEF9009B45F680
:1044D000A4401988C0F20300FEF7D6F9009A45F609
:1044E000BC405188C0F20300FEF7CEF945F6D44037
:1044F000BDF80610C0F20300FEF7C6F945F6EC4021
:10450000BDF80410C0F20300FEF7BEF920680025D4
:1045100080F80151FFF790F92268BDF80430009847
:10452000A2F85430418802F1AC0CA2F8561065464E
:104530008646BEE80F000FC5AC46BEE80F00ACE8EB
:104540000F0075460FCDACE80F0028686346186071
:10455000009923684A88A3F8562093F8FC0030B1EC
:10456000BDF806E0A3F854E0FFF70AFD3BE7BDF80D
:1045700004C0A3F854C0FFF703FD34E745F65C40E0
:10458000C0F20300FEF780F92368002183F80111CF
:10459000012028E72DE9F047804601208A46914610
:1045A000FBF74CFF06460020FBF748FF41F654445A
:1045B000C2F2000423680746002B00F0118143F289
:1045C0005815C2F200052878032800F0E48045F66B
:1045D0002450C0F20300FEF757F9FFF7C9F9FFF7BF
:1045E0002BF9206800214FF4827228F0FDFC002096
:1045F000FEF766FD43F200422368C2F20002100C8F
:104600004FF00001A3F87000A3F86E2083F8A91002
:1046100096F801C00CF07F02012A14BF002001208F
:10462000042A08BF40F0010083F85B20002847D12E
:1046300083F8FC107278C2F3C01C83F864C03B7925
:104640002B7297F803E085F806E0FDF7E9F9B8F179
:10465000FF3F06D0206800210160A0F856A0A0F816
:1046600054802878032800F0A480102808BF26680A
:1046700000F0A280B9F1000F26D0022800F0A2803D
:10468000022006F0A1FC012006F09EFC02F060FB77
:104690000FF0A0FE02F096FB0FF0F0FE80B20028B3
:1046A00040F0AD80022006F0B7FC074660B945F641
:1046B0004C50C0F20300FEF7E7F83846BDE8F0873B
:1046C000012183F8FC10B5E723684FF00107A3F838
:1046D000567006F061FA236883F8E27090F900C022
:1046E000BCF1FF3F08BFA3F8547010D04188A3F875
:1046F000541090F900E04FF47A7106EBCE06F2798F
:1047000096F806C04CEA022E01FB0EF01860B3F8D2
:10471000562003F1AC00002124F080FA002831D0AB
:104720002668B6F8D830002B2CD0A6F858302B7855
:10473000102B41D0002286F80021D6F8DC3096F804
:10474000FC10B3F840C6A6F8FEC071B196F800118F
:10475000002961D02468B4F8562004F1AC0000218F
:1047600024F0EEFB074600287BD02B78032B20D0CB
:10477000012B40D0022B4BD002F016FBA0B1002041
:10478000BDE8F08745F66050C0F20300FEF77CF804
:104790000020BDE8F08745F60450C0F20300FEF7A4
:1047A00073F80020BDE8F087FFF7EAFB0120BDE8C1
:1047B000F0870120BDE8F087012086F8FC0086F82C
:1047C0000001BAE706F000FC012006F0FDFB02F054
:1047D000BFFA02F0F7FA0AF063F980B1012062E74C
:1047E0004FF48270012118F0F3FE43F25815206057
:1047F000C2F20005F6E6172002F0DCFFBCE745F642
:104800003850C0F20300FEF73FF80020BDE8F08703
:10481000162002F0CFFFAFE7B6F8D220B6F854303A
:10482000D01882B206F10C0022F048F886F84C004D
:10483000246841F6544694F84C70C2F20006002FEA
:1048400089D0218AA06C24F0E3F83168A4F85600DE
:10485000CC8901F10C00A1F8544023F01BF8346816
:1048600079E745F66010C0F20300FEF70DF8384610
:10487000BDE8F08710B545F6885041F65444C2F2C1
:104880000004C0F20300FDF7FFFF2068E63009F0E6
:10489000D3FB2368B3F8E420B3F85810914200D357
:1048A00082B943F258124FF00000A3F8E400C2F2BC
:1048B0000002537C03B910BDFEF7BEFFBDE81040F7
:1048C000FFF75EBBFEF7B8FF21684FF0000CB1F8B0
:1048D000E430A1F8E4C0A1F85430BDE81040FFF77F
:1048E0004FBB00BF38B545F6A05041F65444C0F266
:1048F0000300C2F20004FDF7C7FF2068C8B143F20D
:104900005815C2F200052B78032B34D090F8E21032
:1049100081B9FEF791FF206841F6544590F8652073
:10492000C2F20005002A31D118F0CCFF002020602F
:10493000012038BD90F80021B2B990F84C309BB9F5
:1049400006F02AF92368B0F802C0B3F854006045B5
:1049500003D0FFF7B1F800BB236800211960FFF70F
:1049600007F8FEF741FF01E0FFF702F895F800E0D5
:10497000BEF1030FCDD1FEF7FBFF206841F6544591
:1049800090F86520C2F20005002ACDD016F060F83C
:104990002868002380F86530C6E7FFF7A3FADBE755
:1049A0002DE9F04143F25814C2F200044AF64440A3
:1049B000FCF71AFF2378032B00F09D8045F6D050BA
:1049C000C0F20300FDF760FFFFF776F80546002808
:1049D00000F0A080E27943F25813C2F20003002AEB
:1049E00040F0B080012001460246FFF7D3FD0546A6
:1049F000002800F09880E07A43F25813C2F20003D6
:104A0000002800F0A580FEF7B3FA94F8048041F680
:104A10005446B8F1000018BF0120C2F20006FCF7AE
:104A2000A7FA3768002587F80151012043F258188A
:104A3000FEF7C4F9C2F2000841F201070BE041F2AF
:104A40003700FEF7E9F9FFF79BFA41F23600FEF76F
:104A5000E3F9BD4244D0FFF777F83068E63009F05B
:104A60005DFC0A20FEF738FA3368054623B193F857
:104A70005AC0BCF1030F1DD02846FFF759FC00B304
:104A800094F800C045F61860BCF1030FC0F20300B3
:104A9000DFD0FDF7F9FEFFF70FF80028CFD198F827
:104AA0000000FDF713FB88F8020041F20100FEF759
:104AB000B3F9C4E7FFF700F82846FFF739FC0028F0
:104AC000DED194F800E0BEF1030F09D033682BB1BA
:104AD00093F85A20032A47D0042A45D0FEF7ACFEAB
:104AE00045F62860C0F20300FDF7CEFEFFF7FAFEA0
:104AF0000120BDE8F08145F6BC50C0F20300FDF78F
:104B0000C3FE332002F056FEFEF7D6FF054600280E
:104B10007FF460AF45F6E050C0F20300FDF7B4FE4D
:104B20002846BDE8F08145F60060C0F20300FDF7BD
:104B3000ABFEFFF7D7FEFEF7BFFF064668B128467B
:104B4000BDE8F08100210846D971FCF735FE49E740
:104B5000997A587AFCF784FB55E72078FDF7B6FA86
:104B6000A0703046BDE8F08193F8E230002BB5D05C
:104B7000FEF7FEFE3168002281F8E220FEF75CFEBF
:104B8000AEE700BF684620F007018D4601B545F647
:104B90003860C0F20300FDF777FEF8E7684620F0C2
:104BA00007018D4601B545F64860C0F20300FDF7E8
:104BB0006BFEF8E7684620F007018D4601B545F623
:104BC0005860C0F20300FDF75FFEF8E7684620F08A
:104BD00007018D4601B545F66860C0F20300FDF798
:104BE00053FEF8E7684620F007018D4601B545F60B
:104BF0007460C0F20300FDF747FEF8E7684640F234
:104C0000004241F6A83C20F00701C2F20002C2F2C5
:104C1000000C8D46624519B520D245F24000C0F225
:104C200004000468D343114641F8044B6344C3F3C2
:104C300080040423614511D234B1436802F1080EA7
:104C40000B600823E64509D21C58191D9C500B1D0A
:104C50000C5803EB020EE6458C50F5D341F6B83202
:104C600048F20860C2F20002C2F20000824218D28A
:104C7000002113466FEA020E43F8041B0EEB000CF2
:104C80008342CCF380040CD224B1196002F10803F2
:104C9000834206D21A4642F8041B5960131D834210
:104CA000F8D3FCF79FF8BDE819408546704700BF70
:104CB00041F65843C2F200031B684CF6CD42B3F8EC
:104CC000B410CCF6CC4270B4A2FB01454FEAD50C2F
:104CD0001FFA8CF5A2FB056248F21F54C5F2EB14D3
:104CE000A4FB0164D60806EB86020CEB8C06A5EB50
:104CF0004205A1EB46014FF0520C640920223034EA
:104D00003035303183F8A8C045264FF0430C83F886
:104D1000A96083F8AAC083F8AB4083F8AC5083F84D
:104D2000AD1083F8AF2083F8AE2050B95626572136
:104D3000412083F8B26083F8B01083F8B10070BCF2
:104D400070470128FBD133214D20502283F8B21047
:104D500083F8B00083F8B120F1E700BF41F6584373
:104D6000C2F20003186808B900207047D0F8A410F8
:104D70000029F9D06830704740F2784347F6004286
:104D800041F65841C2F20003C2F20102C2F2000130
:104D900000205A6048601A60704700BF704700BF2B
:104DA000704700BF41F65843C2F2000318897047AC
:104DB00010B541F65844C2F20004E36844F6D35CEF
:104DC000C1F2620C2169ACFB0302ACFB0103920946
:104DD000B2EB931F09D0216845F68460C0F203004E
:104DE000A831FDF751FDE068206110BD08B5FFF75F
:104DF00079FD45F69860C0F20300FDF745FD43F2EA
:104E00005812C2F200029078011F18BF01210F282A
:104E10000CBF002301F001035BB141F6A833C2F2DD
:104E2000000318680849907000220A605A601A60EE
:104E300008BD41F6A83304490022C2F200030A600B
:104E40005A601A6008BD00BFB01B002041F6A833AD
:104E5000C2F200030022184640F8042B011D0A602C
:104E60005A60704708B502F02DF808B1012008BD5E
:104E700002F02AF8003818BF012008BD08B541F635
:104E80005840C2F20000036893F87F31012B0AD02A
:104E9000022B01D0002008BD02F016F8D0F101006D
:104EA00038BF002008BD02F00DF8D0F1010038BF76
:104EB000002008BD10B50446022006F085F8012048
:104EC00006F082F8022C21D0012C13D0204606F0E7
:104ED000A3F838B145F6B860C0F20300FDF7D4FC82
:104EE000002010BD45F64C50C0F20300FDF7CCFC8D
:104EF000002010BD09F0D4FD0028E7D145F6385058
:104F0000C0F20300FDF7C0FC002010BD01F020FF3F
:104F10000FF060FA01F056FF0FF0B0FA80B20028EF
:104F2000D4D0EBE738B541F6A832C2F20002147AC9
:104F30000546BDF810C00CB1002038BD43F258142E
:104F40004FF0100EC2F2000441F20100156084F827
:104F500002E051729380A2F806C0FDF75DFF0120C8
:104F600038BD00BF2DE9F04F45F6D060ADB0C0F2BE
:104F7000030041F6A834FDF787FCC2F200044AF6AC
:104F80004440FCF731FC2668002E00F0A08013207E
:104F900002F010FC637A002B00F08D80022B00F0F1
:104FA0008580012B00F0E78005F004FE002800F06A
:104FB000E880A18841F6A835C2F20005002900F07A
:104FC0000681EE88002E40F08C800A4612A83146F9
:104FD00023F024FE002800F01A81BDF87460A18837
:104FE000E68030460022FFF7D5FA0646002800F09A
:104FF0000E8143F25815C2F20005E979002940F00C
:105000000A8101200DF10808FDF7D8FE41F654474A
:1050100008F11403C2F2000741F21D060DF1480B1E
:10502000019341F2021A41F216090A20FDF754FFDA
:105030000090FEF789FD45F61860C0F20300FDF709
:1050400023FCFEF739FD40B341F23700FDF7E4FEE3
:1050500041F23600FDF7E0FE0098FFF769F90028FD
:1050600000F0F180009BB34248D03CD84B457FD044
:10507000009941F2010E71453CD00A20FDF72CFF4A
:105080000090FEF761FD45F61860C0F20300FDF7E1
:10509000FBFBFEF711FD0028D6D12878FDF716F8A6
:1050A000A87041F20100FDF7B7FECDE701F00CFF5B
:1050B000002840F0B68045F60870C0F20300FDF706
:1050C000E3FBFFF793FE00202DB0BDE8F08F45F61F
:1050D000F060C0F20300FDF7D7FBFFF787FE304614
:1050E000F2E7A1887DE7009A524503D041F2061C01
:1050F0006245BDD1FFF77AFE0120E5E7142002F0FA
:1051000059FB3A68B2F85410012998BFB2F8D81088
:10511000481EE080FEF790FB58460021A28823F04D
:105120000FFF002881D03B684046B3F85420594611
:1051300021F0C4FB00283FF478AF45F65470019984
:10514000C0F20300FDF7A0FB404622F0E5FA40461E
:1051500022F0A0FB386845F63072AC30C0F2030292
:10516000002123F001FF41F20F00FDF755FE5CE73F
:105170000F20A870BEE701F0A5FE00287FF414AF51
:1051800099E7022005F020FF012005F01DFF01F046
:10519000DFFD637A022B69D001F014FE607A41F6DC
:1051A000A8350128C2F200055AD0022845D005F0E2
:1051B00033FF064600287FF4FCAE45F64C50C0F2A3
:1051C0000300FDF761FBFFF711FE30467CE71FAFE0
:1051D0003846012223F022FD064620B345F6307200
:1051E0003946C0F2030212A823F0BEFE064600288C
:1051F0003FD0BDF84A10EE88A980002E7FF4F1AEB2
:10520000BDF87460EE80002E3FF4DFAE69E7FFF773
:10521000EDFD304658E700221046EA71FCF7CCFA63
:10522000EFE6637ABDE645F61C70C0F20300FDF7B9
:105230002BFBFFF7DBFD304646E70FF01FF980B28E
:1052400020B9607AB3E7FEF7F7FA53E745F638502E
:10525000C0F20300FDF718FBFFF7C8FD002033E79D
:1052600009F01EFC0028F1D0687A9EE70FF0B2F832
:1052700092E745F63870C0F20300FDF705FBFFF733
:10528000B5FD304620E700BF10B541F65844C2F2E4
:1052900000042389B3F5085F06D247F21841C2F231
:1052A00000010878022800D010BD45F66C70C0F2ED
:1052B0000300FDF7E9FA2068683022F0B3FA04F140
:1052C0001400BDE8104008F093BF00BF08B541F6D8
:1052D0005843C2F200031A6892F88411F9B9B2F87F
:1052E0008601DA6A821842F610308242DA620ED9FA
:1052F0004FF47A7C0CFB02F24CF23B60CBF6376049
:10530000A0FB02CEDA68D96202EBDE31D96045F645
:105310007C70C0F20300FDF7B7FA002008BDD86A20
:1053200041F2391100F590628A42DA62EFD94FF406
:105330007A7101FB02F24CF23B6CCBF6376CACFBA2
:10534000020ED868002200EBDE3145F67C70DA628E
:10535000D960C0F20300FDF797FA002008BD00BF36
:1053600010B5044688B945F68C70C0F20300FDF70D
:105370008BFA41F65843C2F20003186821466830A0
:105380000222BDE8104021F051B810BD38B541F6F9
:105390005844C2F20004236803F16800B3F86A506D
:1053A00022F078FA20682A4600F13401683021F0B2
:1053B00085FA38B1206800216830022221F036F8E1
:1053C00048B938BD45F6B070C0F20300FDF75CFA8D
:1053D0006FF0FB0038BD45F6C470C0F20300FDF766
:1053E00053FA6FF0F90038BD00B55DF804FB00BF5B
:1053F0002DE9F04141F65845C2F200052B68002224
:1054000083F87E210446A169006B01231EF086FF0C
:10541000206B64270A261EF0BBFF00287BD1206B7F
:10542000D0F804391A78522AF5D159784529F2D1A1
:1054300093F802C0BCF1430FEDD193F806E0BEF142
:10544000200FE8D1DA79202AE5D193F808C0BCF121
:105450004D0118BF0121BCF1570F0CBF002201F014
:105460000102002AD7D193F809E0BEF1500C18BF11
:105470004FF0010CBEF1410F0CBF00220CF00102F5
:10548000002AC8D193F80AE0BEF1330118BF012108
:10549000BEF1560F0CBF002201F00102002ABAD162
:1054A000DA781979303AD2B23039C9B2092A94BFC0
:1054B0004FF0000C4FF0010C092988BF4CF0010C93
:1054C0005B79BCF1000FA6D1303BDBB2092BA2D82F
:1054D00006FB01FE07FB02E29B1899B24B1E9BB232
:1054E000C72B9EBF2B6893F87E01024606D992E730
:1054F0009CF8B5805FFA8EF28CF8B68003EB020C54
:1055000002F1FF3E002AF3D1013083F87E0183F8D7
:10551000B610206B7FE7022801D0206B7BE7BDE847
:10552000F08100BF10B54FF4C470012118F050F89D
:1055300041F65844C2F20004206050B100214FF4FB
:10554000C47227F051FD2268012382F87F3118468A
:1055500010BD10BD4EF295510248C0F2010118F085
:1055600013BE00BF840400204EF295510248C0F2E1
:10557000010118F009BE00BFD80400204EF24151CD
:105580000248C0F2010118F0BBBD00BF8404002036
:105590002DE9F04741F6584540F2784680460F46DF
:1055A000C2F20005C2F200062B8941F65844B3F559
:1055B000984F41463A46C2F200040ED8B068FFF751
:1055C00085FE82460028EFD0FFF7D8FF208982446D
:1055D000A4F808A0BDE8F047BCE7BDE8F08700BF2D
:1055E000F8B541F65844C2F2000494F8301015465C
:1055F00019B1042B02D0032B1BD0F8BD2368608E99
:10560000B3F886110F1ABFB2BD42F6DD002600E0E6
:105610000F461548FFF7BCFF20684FF0000CBE197D
:10562000A4F832C0B6B2B0F88611AA1B8A42EFDCE9
:10563000F8BD2068628EB0F886118F1ABFB2BD42E5
:10564000DBDD002600E00F460748FFF7A1FF2068DA
:105650004FF0000CB919A4F832C08EB2B0F8861120
:10566000AB1B8B42EFDCF8BD8C1C002038B5FFF77C
:1056700085FF40F2784344F60002C2F20003C2F212
:10568000010241F65844C2F200040025C3F8B420D8
:105690009A602581FFF75EFFE562E560012038BD75
:1056A00038B5FFF76BFF40F2784344F60002C2F2D0
:1056B0000003C2F2010241F658440025C2F2000480
:1056C000C3F8B4209A602581FFF744FF45F6F470D3
:1056D000C0F20300E562E560FDF7D6F8284638BD64
:1056E0002DE9F04140F27844C2F200042368626878
:1056F000064693420D460DD349F2FF31C2F2010135
:105700005819884209D9A0F5C05082421BD8002000
:10571000BDE8F08159188A42F9D918462A4631461F
:1057200027F03EFB226853192360FFF727FF41F65D
:105730005840C2F200004368ED184560FFF70AFFC9
:105740000120BDE8F081C3F1005707F5CA371846BC
:1057500031463A4627F024FB47F60043C2F20103E4
:10576000C7EB05081846F1194246236027F018FBDD
:1057700023684344D8E700BF4EF241510248C0F2CB
:10578000010118F0BDBC00BFD804002070B541F67F
:105790005844C2F2000406460D46FFF7EDFF2368A9
:1057A0007BB3D3F8A42062B33046683301212A4684
:1057B00021F05EFC064600B945BB2168002684F84E
:1057C0003469D1F880215519C1F88051FFF7CCFE1A
:1057D000304670BD46F22800C0F20300FDF754F8D1
:1057E00094F83409431C5FFA83FCBCF10A0F84F877
:1057F00034C906D141F21C00FDF70EFB2846FDF727
:10580000DDFAFFF7B1FE6FF0FA0070BD642018F00A
:105810003FFCFFF733FB054668B146F20C00C0F2CF
:105820000300FDF731F841F21C00FDF7F5FA3046B0
:10583000FDF7C4FAE5E72268D2F8A4001FF09EFB4A
:105840002168D1F8A400D0F83436092BC2D846F22A
:105850001800C0F20300FDF717F841F21C00FDF735
:10586000DBFA2846FDF7AAFACBE700BFF8B541F608
:105870005844C2F20004238983422AD340F2784577
:10588000C2F20005D5F8B430C3F1005C0CF5CA369D
:10589000864228BF0646B7B239461846FFF776FF5C
:1058A000FFF76CFE2189CF1B2781FFF753FED5F848
:1058B000B42049F2FF30C2F20100B618864284BF1C
:1058C00044F60000C2F20100C5F8B46088BFC5F814
:1058D000B400F8BD2DE9F04141F65845C2F200058B
:1058E0006B68064640F27844C2F20004B342606836
:1058F00001D2BDE8F081C0F1005E0EF5CA37B742B3
:1059000028BF3746B9B2FFF741FF616849F2FF305F
:10591000C2F201007A18F71B824284BF47F60040AA
:10592000C2F20100626088BF60603FB9FFF726FEE7
:1059300069688E1B6E60BDE8F0410BE6B9B2606825
:10594000FFF724FF626849F2FF33C2F20103BF1878
:105950009F4288BF47F6004340F27840C2F2000001
:1059600088BFC2F20103676088BF4360DEE700BF03
:1059700010B541F65844C2F20004FFF7FDFE20685E
:1059800050B1D0F8A4301BB1683021F083FF2068FB
:1059900017F098FF00202060BDE81040E4E500BF4C
:1059A00038B547F218440546C2F2000446F23C00FE
:1059B000C0F2030021782A46FCF766FF2378022B09
:1059C00017D041F65844C2F200042068683021F034
:1059D00061FF43F25812C2F200021179081E18BF8B
:1059E0000120FBF7C5FAFFF7C3FF002084F8300061
:1059F00038BD002DE5D141F65844C2F200042068BC
:105A000000210A46683020F011FD23680020683329
:105A10000121024621F02CFB28B946F27000C0F2A9
:105A20000300FCF731FF45F6F470C0F20300FCF709
:105A30002BFFCAE770B5054646F29000C0F203009E
:105A4000FCF722FFFFF76EFD044620B341F65844F1
:105A5000C2F20004236883F8845101F033FA48B19C
:105A600001202946FFF726FA08B32168012081F8B2
:105A70007F0170BD01F028FA0646A0B12946022038
:105A8000FFF718FA064600282CD02068022280F87A
:105A90007F21012070BD46F2A000C0F20300FCF798
:105AA000F3FE204670BDFFF763FF304670BD46F23F
:105AB000C000C0F20300FCF7E7FE01F005FA06465D
:105AC000B0B129460220FFF7F5F906460028DCD1DF
:105AD00046F2D000C0F20300FCF7D6FEFFF748FF05
:105AE000304670BD46F2D000C0F20300FCF7CCFE99
:105AF000FFF73EFF304670BD08B570B943F258134A
:105B0000C2F200031A7CD2B1012A26D00120FFF78D
:105B100091FF003818BF012008BD022801D00120E4
:105B200008BD41F65842C2F200021389B3F5805F06
:105B3000F5D34FF48050FFF799FE012008BD187986
:105B4000002814BF04200220FBF712FA0120FFF7FF
:105B500071FF003818BF012008BD1979002914BF52
:105B600005200320FBF704FAD0E700BF2DE9F04F32
:105B70004AF6444083B0FBF737FEFFF773F904465B
:105B8000002800F0A28041F65846C2F2000645F215
:105B90008922C0F2000241F2883106F1140008F0B7
:105BA00067FA06F1140008F023FB47F2184446F2A6
:105BB0000410C2F20004C0F203000027FCF764FEE8
:105BC0001120277001F0F6FD2078FFF795FF0028DF
:105BD00000F0898043F25815C2F20005EB7B022BDE
:105BE00000F090800120FDF7E9F847F21848C2F272
:105BF00000084FF00309002741F2010A0220FDF7D7
:105C00006BF98346494808F089FB2078FFF774FF59
:105C1000FFF7CEF8ABF580530B3B112B52D8DFE8E2
:105C200003F03751515151513418515151095151CB
:105C3000515151340F21A9700120FFF7B1FE46F2F6
:105C40005010C0F20300FCF71FFE012003B0BDE8B6
:105C5000F08F01F037F918B901F036F90028CDD0EE
:105C60002B79181E18BF0120FBF782F995F801B0B7
:105C700001F028F90122002814BF012102213B462E
:105C800058460097FFF74EF9B8E76878A870D3E751
:105C90002378022B3CD0032BB0D1316846F2281078
:105CA0004FF002024FF0010E4FF0000CA831C0F28D
:105CB000030088F8002086F830E0A6F832C0FCF730
:105CC000E3FD9BE7D34599D1B6E746F2E400C0F285
:105CD0000300FCF7D9FD43F25813C2F200035A78CF
:105CE00020469A70B2E746F23C10C0F20300FCF77F
:105CF000CBFD43F25812C2F2000292F801C082F8C2
:105D000002C09CE70120237086F83000778669E79F
:105D1000316846F21410A831C0F2030088F80090F0
:105D200086F83070FCF7B0FD68E700BF6C1C0020FF
:105D300042F29053C2F200031A6810B5511CB2F53A
:105D4000FA7F196000D210BD00224DF220111A60B6
:105D50000120CFF6FF7110F0BBF94EF2C001CFF673
:105D6000FF71012010F0B4F915F09EF9B0F5786FCD
:105D70008BBF4FF630014FF26001CFF6FF71CFF6C7
:105D8000FF71012010F0A4F915F08EF9B0F5706FD5
:105D900018D815F089F9002824D14EF2C001CFF6A9
:105DA000FF71012010F094F915F07EF9B0F5606FE5
:105DB00012D84FF63001CFF6FF710120BDE8104038
:105DC00010F086B9012040F6B83110F081F915F0D5
:105DD0006BF9B0F5606FECD901200021BDE81040EF
:105DE00010F076B94FF63001CFF6FF71012010F0B8
:105DF0006FF9D9E7092802D95730C0B2704730305F
:105E0000C0B2704742F29453C2F2000318780038CF
:105E100018BF0120704700BF4FF00003012970B484
:105E200003806FD9B0F902C0002356429445C4BF25
:105E30004FF0010CA0F802C001F001051C46C8BFDC
:105E40004FF0010C5BDD0FFA8CFC64454FF0020C47
:105E500018BF01238C45604418D0002D3FD0B0F905
:105E60000040002C2BD1B0F902509542DCBF448099
:105E700025462CDD4FF0010545800125AC420CF193
:105E8000010C18BF013302308C4528D1D91F0C29D1
:105E90008CBF0020012070BC7047B0F90250B542A1
:105EA00028DC4FF0000545800025AC42B0F90240E7
:105EB00018BF01330CF1010C0230002CD3D0B0F923
:105EC0000250B542D6DC4FF0000545800025AC42BB
:105ED0000CF1010C18BF013302308C45D6D0B0F95B
:105EE0000040002CD9D1B0F902509542DCBF44806B
:105EF0002546DADD4FF0010545800125D5E74380D1
:105F00009C46A0E70020C6E770B504460D46012078
:105F100006F066FE35B920EA04010120BDE87040B4
:105F200006F056BE40EA04010120BDE8704006F0CC
:105F30004FBE00BF10B501460446032006F058FED0
:105F40000220214607F02CF80620214606F050FEDC
:105F500021460720BDE8104007F022B8002010B508
:105F600012F07AF94FF4CA7012F056F900B910BD68
:105F7000442011F0C3FD0121002011F07BFE0BF045
:105F800051F988200BF0AEFB0BF072F84FF4006271
:105F90004FF4505101200BF099FD0BF061F84420B3
:105FA00011F0ACFD01214AF6444011F0EFFE012052
:105FB00010F05AFA002001460BF0C8FA0020014602
:105FC000BDE8104010F074BA30B583B0FFF7C6FFDB
:105FD000FF2006F077FB4FF40010FFF7ABFF4FF404
:105FE0008010FFF7A7FF4FF48000FFF7A3FF4FF4E7
:105FF0000000FFF79FFF46F26413C0F20303186826
:1060000001A96A4611F0FEFF044680BB05460AE07E
:106010000446012018F03CF8E9B24FF40010FFF7F5
:1060200073FF85F001050BF0CBF84FF4807104226B
:1060300088424CF20000C2F20100EAD90BF06AFC7F
:106040004CF200004FF48071C2F2010040F6CC42E5
:10605000FFF7E2FE0134E4B221460028D8D046F230
:106060006C10C0F20300FCF70FFC462CD1D90120C4
:1060700018F00EF801214FF40010FFF745FF002142
:106080004FF48010FFF740FF01214FF48000FFF72D
:106090003BFF00214FF40000FFF736FF012017F00F
:1060A000F7FF00214FF40010FFF72EFF01214FF4FE
:1060B0008010FFF729FF00214FF48000FFF724FF35
:1060C0004FF400000121FFF71FFFD0E770B542F247
:1060D00094540123C2F2000482B0237000250320EF
:1060E0004FF400218DF807508DF8065006F058FF48
:1060F00002204FF4002106F07BFD06204FF4002122
:1061000006F076FD07204FF4002106F049FF2E46E9
:1061100017E006F065FDC0F3C04301208DF806309E
:1061200017F0B6FF9DF806309DF807C0711C9C451E
:1061300004D0CEB2092E8DF807301AD80135322D91
:106140001BD0002006F04CFDC0F3C04101208DF8AB
:10615000061017F09DFF9DF806309DF807200020DF
:10616000711C01359A42D4D0CEB2092E8DF8073079
:10617000CFD90120207002B070BD002525706C7948
:1061800004F00F03092B40F2A08057338DF807303D
:1061900005210A781309092B40F2A080573302AC7D
:1061A00004F8023D012120460DF1070505F068F9CC
:1061B0002846012105F064F90023187900F00F0347
:1061C000092B40F29F8057338DF8073004210A785D
:1061D0001309092B40F294805733012120468DF892
:1061E000063005F04DF92846012105F049F9002057
:1061F00090F803C00CF00F03092B7FD9573303220B
:106200008DF8073013781B09092B75D957330121F5
:1062100020468DF8063005F033F90121284605F0B7
:106220002FF90020817801F00F03092B62D9573331
:1062300002228DF8073013781B09092B58D95733E0
:10624000012120468DF8063005F01AF90121284673
:1062500005F016F9002191F801C00CF00F03092B8D
:1062600044D957338DF80730012318780309092BD7
:106270003AD95733012120468DF8063005F000F950
:106280000121284605F0FCF800210A7802F00F03EE
:10629000092B27D830338DF80730002318780309ED
:1062A000092B1DD83033204601218DF8063005F02A
:1062B000E7F82846012105F0E3F843F62020C0F274
:1062C0000400022105F0DCF855E730338DF8073083
:1062D00005210A781309092B3FF660AF30335EE7DA
:1062E0005733E0E75733D6E73033C3E73033B9E706
:1062F0003033A5E730339BE7303388E730337EE730
:1063000030336AE730335FE72DE9F04F90F8143609
:1063100087B0012B06460D4600F0F382012105915E
:1063200047F61C01C2F2000148F2E04048F2DC44AA
:1063300043F2021706F58262C2F20000C2F20004C4
:1063400001F5007CC2F200074FF0000E0160C4F8B6
:1063500000C002F5F971D41D039702F1040902F59A
:10636000E97702F5E17B02F5F1720494009702915E
:106370000124F04601921846774649463A460123E1
:1063800001F020FE8246002840F0C38246F29410BD
:10639000C6F81876C0F203000499052226F0CEFC58
:1063A000002800F0BE82039A82F800A09BF8043017
:1063B00043F2021A052BC2F2000A5A4600F09780F7
:1063C000042B14BF00200120062B08BF40F0010061
:1063D000002800F01581012D8CBF00200120AC4267
:1063E00008BF40F00100002840F00D82611CCCB2D3
:1063F000072B00F0928000990B790A46052B00F0DC
:106400009F80042B14BF00210121062B08BF41F0FF
:106410000101002900F00181012D8CBF0020012025
:10642000A54208BF40F00100002840F0EC81013493
:10643000E4B2072B00F09380019A1379052B00F04A
:10644000A080042B14BF00200120062B08BF40F0C1
:106450000100002800F0EE80012D8CBF00210121F9
:10646000A54208BF41F00101002940F0CC81013470
:10647000E4B2072B00F09480029803790246052BC2
:1064800000F0A180042B14BF00200120062B08BFC0
:1064900040F00100002800F0DA80012D8CBF0021BF
:1064A0000121A54208BF41F00101002940F0AB8164
:1064B0000134E4B2072B00F0958008F1FF30C2B23E
:1064C000022A10D9B846012D94BF00230123AC4203
:1064D0000CBF002403F00104002C00F0C580002054
:1064E00007B0BDE8F08F002796F8140645E7B8F12D
:1064F000000F80D1517A137A907A43EA012C92F8F6
:106500000BE04CEA004A4AEA0E6108F101087F18E4
:106510005FFA88F896F814062FE7012D8CBF002348
:106520000123AC4208BF43F00103002B40F002827C
:10653000009901340B79E4B2052B0A467FF461AF70
:10654000D8F1010338BF0023B8F1010F98BF43F021
:106550000103002B3FF470AF4FF00108CAE7012D93
:106560008CBF00200120AC4208BF40F00100002891
:1065700040F0E081621CD4B2019A1379052B7FF4BC
:1065800060AFD8F1010338BF0023B8F1020F98BF04
:1065900043F00103002B3FF46FAF4FF00208A9E76F
:1065A000012D8CBF00210121AC4208BF41F0010147
:1065B000002940F0BF810298621C0379D4B2052BF8
:1065C00002467FF45FAFD8F1010338BF0023B8F172
:1065D000030F98BF43F00103002B3FF46EAF4FF061
:1065E000030887E7012D8CBF00230123AC4208BFBD
:1065F00043F00103002B40F09D810134E4B25CE7DD
:106600000B2B3FF4E8AE0C2B3FF4E5AE012B3FF42F
:10661000E2AE0E2B7FF4ECAEDDE60B2B3FF4FCAECE
:106620000C2B3FF4F9AE012B3FF4F6AE0E2B7FF4AA
:1066300000AFF1E60B2B3FF40FAF0C2B3FF40CAF88
:10664000012B3FF409AF0E2B7FF413AF04E70B2BA4
:106650003FF423AF0C2B3FF420AF012B3FF41DAFD1
:106660000E2B7FF427AF18E7059996F8140601FB67
:1066700008F401234946224601F0A4FC00287FF4D7
:106680002EAFC6F818469AF80050002D40F0C98089
:1066900099F80D30C6F81C3699F80EC099F80F100D
:1066A0004CEA012208EB0204C6F8204699F8125081
:1066B00099F8117099F816E057EA052C1EBF4FEAB9
:1066C0004C1C0CF5FE7A0AF1030A99F8170016BF64
:1066D0004FEA6A2AE246CAF1000C5EEA00250DD1B3
:1066E00099F8244099F8251099F8260044EA0125E4
:1066F00099F827E045EA004747EA0E6599F8130044
:1067000099F814E050EA0E270DD199F8207099F805
:1067100021E099F8220047EA0E2199F8237041EA16
:10672000004444EA076799F81010C2EB0C0E01FB15
:1067300015E0C419B4FBF3F440F6F472944240F24D
:106740002A814FF6F47C644540F2188146F27411B8
:10675000C0F2030109F13600082226F0EFFA834661
:10676000002800F0F98046F2AC10C0F20300FCF7FC
:106770008BF8012186F81516012386F81636D6F80F
:10678000203699F810E09A440EFB05A296F81506FB
:106790000234C6F82C46C6F82826002800F0E5800A
:1067A00099F82CE099F82D0099F82EC04EEA0024B3
:1067B00099F82FE044EA0C4141EA0E64D6F81C1621
:1067C000A01E01FB0022C6F82426DDF814C0D6F86E
:1067D0002826D6F8244607EB080E0CFB02F00CFB2B
:1067E00004F40CFB01F10CFB03F30CFB0EF2C6F8F6
:1067F0002806C6F82446C6F81C16C6F82036C6F881
:10680000302601206CE692F808E0507A917A4EEA40
:106810000023D27A43EA014C4CEA026E07EB0E08E1
:1068200051E6012386F8153686F8163699F86D106C
:1068300018468B40C6F81C3699F8504099F85120FC
:1068400099F852C099F853E044EA022747EA0C4508
:1068500045EA0E614144C6F8201699F8584099F867
:10686000592099F85A7099F85BC044EA022545EA24
:10687000074E4EEA0C624244C6F8282699F85C702E
:1068800099F85D4099F85E5047EA042E99F85F70D8
:106890004EEA054C4CEA0765C6F82C5699F860E0BC
:1068A00099F8614099F862504EEA042799F863E03C
:1068B00047EA054C4CEA0E64A71E07FB0324059F1C
:1068C00003FB07F307FB01F107FB02F207FB04F4EC
:1068D000C6F81C36C6F82016C6F82826C6F8244680
:1068E00099F848C099F8492099F84A104CEA0223CF
:1068F00099F84BE043EA014C4CEA0E63C6F8303697
:10690000EEE507F061FDC0F3472096F814360590D8
:1069100006E546F28010C0F20300FBF7B5FF002049
:10692000DEE543F2021AC2F2000A0123B8468AF8F1
:106930000030C8E592F808C092F809E0917AD07A60
:106940004CEA0E2343EA014E4EEA006C012207EBAB
:106950000C088AF80020B6E546F2A410C0F2030045
:10696000FBF792FF86F815B606E799F81020D6F8DF
:106970001C1602FB0535C6F8245626E746F2A4107D
:10698000C0F20300FBF780FF0020012286F8150605
:1069900086F81626F3E646F29C10C0F20300FBF7D9
:1069A00073FF002386F81636012099E542F29850CD
:1069B00010B5C2F200000024214600F8044B0EF08E
:1069C000C1FE0FF00FFA02200FF0F4F901200FF0D2
:1069D00045FA204610BD00BF70B542F29854C2F28D
:1069E0000004201D0EF0BCFE08B9002070BD201D63
:1069F00005210EF0A7FE0FF009FA002831D10FF0A3
:106A00001BFA0546002867D104F118000EF0A8FE15
:106A1000002800F08D802561FF23227842F29854EF
:106A2000022AC2F2000444D0032A60D0002A5BD1BB
:106A3000FF2BDAD040F23055C2F2000504F12400F9
:106A40006B704FF47A710EF07DFE6A7846F2B413E3
:106A50000220C0F2030302EB820C207033F81C000A
:106A600070BD0FF0DBF9034646F2A0201946C0F2D4
:106A700003002361FBF708FF4621012323755F48CC
:106A80000EF060FE23691A0EC3F307408118FF2938
:106A900040D0227840F23053C2F200034FF0FF3C66
:106AA00083F800C042F29854FF23022AC2F2000485
:106AB000BAD140F23055C2F200056A789A4255D0F8
:106AC00002EB820046F2B413C0F20303421C002121
:106AD000217033F8120070BD237D042B40F28780B3
:106AE000462101FB03F1CAE70020207070BD40F28F
:106AF0003055C2F200056A789A421FD046F2B41EA1
:106B000002EB820CC0F2030E0EEB4C03002222704B
:106B1000188970BD1FFA83FE40F23050BEF5FF4F5A
:106B2000C2F200003CD04FF0FF320270FF2374E746
:106B300040F23051C2F200010B786EE704F12400FC
:106B40000EF00EFE00283FF450AF04F124004FF485
:106B5000AF710EF0F7FD6A7846F2B410C0F2030090
:106B600002EB820300EB4301C88870BD04F12400EE
:106B70000EF0F6FD00283FF438AF04F124004FF486
:106B8000AF710EF0DFFD687846F2B41C00EB8001B7
:106B9000C0F2030C0CEB410303222270988870BDF5
:106BA0000023ED2A03703FF438AF154D012395F80B
:106BB00001E019467245037017D00221ED180B460B
:106BC00007E095F801C04E1C62450ED0F1B20135C8
:106BD0000B4695F801E04E1C0135724505D0F1B227
:106BE00015290B46EDD101709DE7017015E75A1C80
:106BF000D3B2462000FB03F140E700BFB0250020E0
:106C00008862030030B583B001AD40F2EE54B0208D
:106C10000422C2F20004294609F076FE2378FF2BF5
:106C20001BD00199B1F1FF3F32D04BF2C83CC5F205
:106C3000F97C614553D046F21C40C0F20300FBF7DB
:106C400023FE4FF0FF332946B0200422019309F0C0
:106C500095FE0020207003B030BD4BF2C830019982
:106C6000C5F2F970814250D0B1F1FF3F46D011F129
:106C7000570F06D046F24430C0F20300FBF704FE83
:106C8000E7E746F20C30C0F20300FBF7FDFDE0E75A
:106C90001DF076FF04F08CF946F27030C0F203006C
:106CA0004DF2E114FBF7F0FDC9F6B42429460422A5
:106CB000B020019409F062FEBFF34F8F4EF60052F0
:106CC000CEF20002D36840F2040503F4E061C0F2A2
:106CD000FA5541EA0504D460BFF34F8FFEE74FF049
:106CE000FF3329460422B020019309F047FE46F203
:106CF000B030C0F20300FBF7C7FDAAE746F2DC2084
:106D0000C0F20300FBF7C0FDA3E746F2AC20C0F2DF
:106D10000300FBF7B9FD9CE740F23453C2F20003D5
:106D20001878704740F23453C2F200035878704725
:106D300040F23453C2F200035A7822B9187800386E
:106D400018BF012070470120704700BF0020704726
:106D50004EF241510248C0F2010117F0D1B900BF13
:106D60003805002070B50F4C4EF241510546C0F277
:106D70000101204617F0C4F942F2C853C2F20003E1
:106D80001D7046F244401978C0F20300FBF77CFD09
:106D90004EF295512046C0F20101BDE8704017F057
:106DA000F3B900BF8C05002008B542F2C850C2F20A
:106DB0000000037818461BB10020FFF7D3FF012025
:106DC00008BD00BF4EF295510248C0F2010117F014
:106DD000DBB900BF3805002010B542F6C414C2F27A
:106DE0000004207810B902F059F92078003818BF53
:106DF000012010BD08B50320012106F0D1F80620BE
:106E0000012106F0CDF80720012106F0C9F8022083
:106E1000012106F09DFA002005F0E2FE42F2C8537F
:106E200010F0010FC2F2000316D1587809280CD8CF
:106E3000411CC8B2587043F25813092894BF00206F
:106E40000120C2F20003187108BD43F2581301205B
:106E5000C2F20003187108BD0020587043F25813A5
:106E6000C2F20003187108BD08B50320022106F024
:106E70007DFA0620022106F079FA0720022106F0A9
:106E800075FA0220014606F063FA002005F0A8FE1C
:106E900042F2C85310F0020FC2F200030CD19878EE
:106EA000092807D8411CC8B29870092894BF00204F
:106EB000012008BD012008BD0020987008BD00BF5A
:106EC00006F0C6BE14F076B910B5FFF741FFFF20FB
:106ED00005F0F8FB06204FF4801106F047FA072072
:106EE0004FF4801106F042FA03204FF4801106F0AF
:106EF0003DFA02204FF4801106F02AFA002005F036
:106F00006FFE10F4801F04D00024FFF75BFF2046C3
:106F100010BD0120012405F0D5FBFFF753FF2046EB
:106F200010BD00BF30B585B01BF02CFD00F5C3705F
:106F3000B0F5FA7F1ED21BF025FD01ACC0F16E0149
:106F400020460EF0FFFB42F2C855C2F200050AE0EF
:106F5000FFF7B8FFFFF7B4FFFFF7B6FFFFF784FFB7
:106F6000FFF748FFE87020460EF0FAFB0028EFD04C
:106F700005B030BD01AC204614210EF0E3FBE2E782
:106F800070B543F25810C2F2000003780C2B5CD0AD
:106F900040F23454C2F200046178002956D0FFF761
:106FA00091FF0346002800F09E8094F8AC0040F268
:106FB0003455C2F20005002857D0FFF781FF034681
:106FC000002800F0BC80237840F23455C2F200055E
:106FD000002B59D0FFF778FF0346002800F0DB8034
:106FE00094F8AD2040F23455C2F20005002A5AD080
:106FF000FFF73AFF0346002800F0F98042F2C85438
:10700000C2F20004E078C0B1FFF7F4FE0346E0B935
:1070100046F2E040E370C0F20300FBF735FC41F2BA
:107020000710FBF7D7FE41F20810FBF7D3FE41F241
:107030000A10BDE87040FBF7EFBEFFF7DBFE00284B
:1070400040F0EB80E378002BDED170BDFFF73AFF14
:10705000002832D16378002BA1D194F8AC0040F223
:107060003455C2F200050028A7D1FFF729FF0028F8
:107070004ED195F8AC20002A9FD1237840F23455A8
:10708000C2F20005002BA5D1FFF71EFF00286CD12E
:10709000287800289ED194F8AD2040F23455C2F2F1
:1070A0000005002AA4D1FFF7DFFE002840F0888009
:1070B00095F8AD100029A1D09AE7012246F25C4074
:1070C0006270C0F20300FBF7DFFB41F20110FBF737
:1070D00081FE41F20210FBF77DFE41F20110BDE896
:1070E0007040FBF799BE46F26C406370C0F203003B
:1070F000FBF7CAFB41F20110FBF76CFE41F20210F4
:10710000FBF768FE41F20210BDE87040FBF784BE59
:1071100046F27C400121C0F2030085F8AC10FBF779
:10712000B3FB41F20B10FBF755FE41F20C10FBF7DD
:1071300051FE41F20B10BDE87040FBF76DBE46F208
:10714000884084F8AC30C0F20300FBF79DFB41F2AD
:107150000B10FBF73FFE41F20C10FBF73BFE41F238
:107160000C10BDE87040FBF757BE46F29440012179
:10717000C0F203002970FBF787FB41F20510FBF713
:1071800029FE41F20610FBF725FE41F20510BDE88D
:107190007040FBF741BE46F2A0402370C0F20300EE
:1071A000FBF772FB41F20510FBF714FE41F20610EB
:1071B000FBF710FE41F20610BDE87040FBF72CBE55
:1071C00046F2B0400123C0F2030085F8AD30FBF772
:1071D0005BFB41F20710FBF7FDFD41F20810FBF7E6
:1071E000F9FD41F20710BDE87040FBF715BE46F20D
:1071F000C04084F8AD30C0F20300FBF745FB41F21C
:107200000710FBF7E7FD41F20810FBF7E3FD41F241
:107210000810BDE87040FBF7FFBD012246F2D040E8
:10722000E270C0F20300FBF72FFB41F20710FBF7FF
:10723000D1FD41F20810FBF7CDFD41F20910BDE888
:107240007040FBF7E9BD00BF47F61C33C2F20003F4
:107250001868C00F704700BF47F61C33C2F2000326
:107260001868C0F38460704747F61C33C2F200030D
:107270001868C0F30550704747F61C33C2F200038C
:107280001868C0F30340704747F62033C2F200038A
:107290001878704747F62033C2F200039878704799
:1072A00047F62033C2F20003D878704747F6203300
:1072B000C2F20003587810F0DF0001D0C0B270476E
:1072C0002020704790FAA0F1B1FA81F00122C3B2F8
:1072D00012FA03F3B3F5806F00F09D8014D9B3F573
:1072E000004F00F0A28021D9B3F5802F00F08480F8
:1072F00047D9B3F5002F57D0B3F5801F35D146F2EB
:10730000B050C0F203007047102B00F089801CD9E8
:10731000802B53D025D9B3F5807F59D0B3F5007FAA
:1073200023D146F24450C0F203007047B3F5805FAA
:107330006CD031D9B3F5005F3BD0B3F5804F14D199
:1073400046F27C50C0F203007047022B3BD011D9AB
:10735000042B56D0082B08D146F20450C0F203008B
:107360007047202B43D0402B3CD046F2BC50C0F29B
:10737000030070479342F8D146F2F440C0F2030094
:107380007047B3F5803F28D0B3F5003FEDD146F20A
:107390009450C0F203007047B3F5006FE5D146F298
:1073A0005850C0F20300704746F2A850C0F20300E4
:1073B000704746F27050C0F20300704746F23450F6
:1073C000C0F20300704746F2F040C0F2030070477D
:1073D00046F23C50C0F20300704746F28C50C0F2B7
:1073E0000300704746F22850C0F20300704746F28F
:1073F0001C50C0F20300704746F29C50C0F20300DC
:10740000704746F2F840C0F20300704746F26450FD
:10741000C0F20300704746F24C50C0F203007047C0
:1074200046F21050C0F20300704746F28450C0F29A
:107430000300704700B583B0FF2001220DF1070162
:107440003DF070FB9DF80700552804BF46F2C4507C
:10745000C0F203000BD046F2CC5246F2C853C0F241
:107460000302C0F20303FF280CBF1046184603B006
:1074700000BD00BF00B583B0802001A904223DF00B
:1074800051FB019803B000BD00B583B0942001A961
:1074900004223DF047FB019803B000BD00B583B066
:1074A0000DF10601A02002223DF03CFBBDF80600D4
:1074B000010AC0B211F0FEF903B000BD10B511F021
:1074C000FFF8032816D8DFE800F0100C070246F694
:1074D0000040C0F2DC2010BD4BF20040C0F2C440BE
:1074E00010BDBDE8104011F09FBB48F20070C0F223
:1074F000933010BD4FF0FF3010BD00BF46F29860D2
:1075000010B5C0F20300FBF7BFF947F62433C2F20F
:107510000003002447F6343021461C70C2F20000FC
:107520000EF010F9052011F0C9FF022011F0C6FF7E
:10753000204610BD08B511F033FE40F66663984250
:1075400007D800EB8002510001F5FF60C0F307305F
:1075500008BDFF2008BD00BF47F6343070B5C2F249
:1075600000000EF0FDF808B9002070BD47F6343079
:107570000A21C2F200000EF0E5F80520FFF7DAFF5D
:10758000FF2805464FD047F62434C2F20004237882
:10759000032B0ED8DFE803F03602231040F2E45646
:1075A000C2F20006317840F2E456A942C2F2000667
:1075B00042D00020207070BD40F2E456C2F20006B6
:1075C0003378AB4255D046F2D05E03EB830CC0F269
:1075D000030E0EEB4C0200232370108970BD40F2A5
:1075E000E456C2F200063378AB425DD003EB830071
:1075F00046F2D052C0F20302431C0021217032F83F
:10760000130070BDFF2DAFD040F2E45647F628308E
:10761000C2F20000C2F200061E2135700EF092F890
:1076200001202070BEE70220FFF784FFFF280546F7
:10763000A9D00A35EDB2A6E747F62830C2F200001D
:107640000EF08EF800288FD047F62830C2F20000E6
:107650004FF47A710EF076F896F800C046F2D053E7
:107660000220C0F203030CEB8C02207033F81200EE
:1076700070BD47F62830C2F200000EF071F8002805
:107680003FF472AF47F62830C2F20000C8210EF076
:1076900059F8337846F2D050C0F2030003EB83026E
:1076A00000EB4201C88870BD47F62830C2F20000E6
:1076B0000EF056F800283FF457AF47F62830C2F2D4
:1076C0000000C8210EF03EF8307846F2D05C00EBA6
:1076D0008001C0F2030C0CEB410303222270988856
:1076E00070BD00BF42F2CC53C2F20003187870475D
:1076F00042F2CC53C2F2000300221A74704700BF5A
:1077000008B541F20240FBF77DFB08B1012008BD3E
:1077100041F20140FBF776FB0028F7D141F201105E
:10772000FBF770FB0028F1D141F20210FBF76AFB76
:107730000028EBD141F20510FBF764FB0028E5D1EE
:1077400041F20610FBF75EFB0028DFD141F2071083
:10775000FBF758FB0028D9D141F20810FBF752FB88
:107760000028D3D141F20910FBF74CFB0028CDD102
:1077700041F20A10FBF746FB0028C7D141F20B107B
:10778000FBF740FB0028C1D141F20C10FBF73AFB9C
:10779000003818BF012008BD46F2A86008B5C0F245
:1077A0000300FBF771F842F2CC53C2F2000301224E
:1077B0001A7408BD70B543F25813C2F200035A7C24
:1077C000054642B11B78042B24D042F2CC54C2F2BD
:1077D0000004267806B170BD46F2BC602946C0F2AE
:1077E0000300FBF751F804F1240101224FF48070EB
:1077F00022706161A061A6606660E660E661266253
:10780000CDB146F2D460C0F203002946FBF73CF844
:10781000267070BD47F21843C2F200031A78911E19
:10782000C8B20128D7D942F2CC54C2F2000426785B
:10783000002ED0D1D0E7221D284604F1080110F017
:10784000E1FB0028A8BF2570C5DA46F2F460C0F25B
:107850000300FBF719F8257070BD00BF70B542F248
:10786000CC54C2F20004216AE669A568E268A06906
:10787000761AAD1A831B9D4228BF1D46002E03DDDC
:1078800011B90D46284670BD15B94FF0FF35F9E71F
:1078900060693246411825F083FAE16860696368DF
:1078A0003018CA18294610F09BFC002807DBE36853
:1078B000AE19E9180022E1602262E661E2E746F2D1
:1078C0001070C0F20300FAF7DFFFF0E738B542F2BC
:1078D000CC54C2F20004E368A568ED1AA94238BF8F
:1078E0000D460DB9284638BD626829469A1810F031
:1078F00077FC0028A8BF284603DBE1684318E36053
:1079000038BD46F22870C0F20300FAF7BDFF002030
:10791000F3E700BF42F2CC53C2F200030022184644
:1079200040F8042B011D41F8042B1A620A605A60CA
:107930005A619A61DA61704770B5044646F2447044
:10794000C0F203000D461646FAF79EFF24B142F23C
:10795000F063C2F20003236065B142F2F063C2F249
:10796000000393F898C00CEB8C0203EB8201B1F892
:10797000420028806EB142F2F061C2F2000191F83B
:10798000982002EB820301EB8300B0F840E0A6F8F8
:1079900000E0012070BD00BF2DE9F04F16460546FE
:1079A0000C4646F25C7042F2F06929462246A1B0CC
:1079B000C0F20300C2F200093346FAF765FFB9F8D6
:1079C0002A1046F27470C0F203000A46FAF75CFF10
:1079D000002E7BD0042D7BD8013E13A8F6B21C30BC
:1079E0004F460DF10C0809F1340B0190B24636E018
:1079F000B7F828E00EEB0C039C4269DC1EF05EFF3A
:107A000005EB85060346B60008A90B22002863D0C3
:107A10000BEB0600F61925F0C3F906F13C034FF015
:107A20000100D8707A8D4046A11AD980BDF80CC0EB
:107A30004FF00002A3F804C0A6F84620A6F84420A0
:107A400001351FF027FFEDB201340AF1FF33BAF11F
:107A5000000F3BD0042D3BD8A4B25FFA83FAB9F8EB
:107A60002AC042F2F061CCEB0402A445C2F200014C
:107A700092B24046BCD342F2F061C2F2000122460B
:107A800013A821F0CBF805EB85018B00DA1902F180
:107A90003C015B44002829D0CC80BDF876004FF033
:107AA000000EA2F8460081F803E0BDF874C001356D
:107AB000A2F844C0019AEDB292E80300013483E8D1
:107AC00003000AF1FF33BAF1000FC3D1012000E037
:107AD000002021B0BDE8F08F46F29870C0F203009C
:107AE0000093FAF7D1FE00990846F2E7824646F283
:107AF0008070C0F20300FAF7C7FE5046E9E700BF06
:107B00002DE9F04F85B00746019129BB42F2F064A0
:107B10000121C2F20004019167BBB4F89A80019E72
:107B200008F1FF3C42F2F065C2F20005664500959F
:107B3000C0F2A88000F0B080019E08F105008642E6
:107B400000F3E48000F0F180DDF804C00099C8EB98
:107B50000C0581F8985025E042F2F064C2F200046E
:107B6000608D258D019A2B189A42C4BF9BB2019358
:107B7000002FD2D094F82A3094F82810019ECA1809
:107B8000D2B2F51B42F2F063052A84F89850A4F8AB
:107B90009A7084F89C20C2F200036FD83946002006
:107BA000FFF7FAFE46F2AC70C0F20300FAF76CFE83
:107BB00094F89D0088B1674E0025C5EBC50E06EB15
:107BC000CE0146F2B4701C31C0F20300FAF75CFE3D
:107BD00094F89DC00135AC45EFDC46F2BC70628D77
:107BE000C0F203005C49238DFAF74EFE94F89C2006
:107BF000002A39D0594F00253E460FE046F2DC708E
:107C0000728A338A07EB8C01C0F20300FAF73CFE5C
:107C100094F89CE001351436AE4525DD94F898C003
:107C200046F2D870AC45C0F2030004BF46F2D470EF
:107C3000C0F20300FAF728FE05EB85008100F37A15
:107C400001F1080246F2F070C0F203007918BA1888
:107C500005EB850C002BD1D0FAF716FE94F89CE0CA
:107C600001351436AE45D9DC46F60000C0F20300FB
:107C7000FAF70AFE012005B0BDE8F08F052283F86F
:107C80009C208BE7384631460522A5F89A6085F896
:107C90009870FFF781FE85E7009A02F1840C02F1EB
:107CA000700AD6466546BEE80F000FC50099DEF89B
:107CB000006001F15C09C846B8E80F00ACF13C0B6C
:107CC0002E60D8F80060AAE80F00ACF1500CDA463C
:107CD000BAE80F00A9E80F00BCE80F00CEF800607A
:107CE000ABE80F00DAF80060DCF800500199009B67
:107CF000CAF80050C8F8006038460122A3F89A106C
:107D000083F898700D46FFF747FE4BE7351FABB27F
:107D1000009D4FF0040E38461946052285F898E07C
:107D2000A5F89A30FFF738FE3CE7009E502206F196
:107D3000480106F1340025F033F808F10108042366
:107D4000184601990122A6F89A8086F89830FFF724
:107D500023FE27E7902700200C270020242700205F
:107D60002DE9F0470446A4F5805446F61C00C0F205
:107D70000300023CFAF788FD0E2C29D8DFE804F056
:107D80004D2828282828282828082828283C2B007F
:107D900042F2F064C2F2000494F898C00CEB8C0537
:107DA00004EB850393F83F50002D61D146F62C007B
:107DB000C0F20300FAF768FD94F898C094F89D604B
:107DC0000CEB8C0704EB8700072EB0F842705BD9F0
:107DD0000020BDE8F08742F2F062C2F20002B2F881
:107DE0009A0092F89830411CC91889B20020FFF718
:107DF00087FE0020BDE8F08742F2F063C2F2000384
:107E0000B3F89A1093F898300139C91889B2002054
:107E1000FFF776FE0020BDE8F08742F2F064C2F280
:107E2000000494F89D5035B36B1EDDB2C5EBC5065A
:107E300004EBC60684F89D5006F1A00E2546BEE868
:107E40000F000FC5AC46BEE80F00ACE80F0074464B
:107E50000FCCACE80F00216860460160D036B279E3
:107E6000B088831899B2FFF74BFE0020BDE8F08779
:107E70000120BDE8F08746F66800C0F20300FAF77B
:107E800003FD2846BDE8F087C6EBC6004FEAC008F0
:107E900004F1A00909EB080EA246F146BAE80F006A
:107EA000A9E80F00D646CA46BEE80F00AAE80F00B0
:107EB000BEE80F00AAE80F00DEF8002051460A6075
:107EC000B4F89AE0A04408F1D003013620462146D8
:107ED000A3F804E083F806C03A4684F89D6020F0D9
:107EE0009DFE044640B946F63C00C0F20300FAF796
:107EF000CBFC2046BDE8F08746F65400C0F20300F4
:107F0000FAF7C2FC01200146FFF7FAFD2846BDE85A
:107F1000F08700BF70B546F6780082B0C0F203006B
:107F200042F2F064FAF7B0FCC2F2000400231946F2
:107F30002046012284F89D3020F070FE0546D0B125
:107F400046F6A000C0F20300FAF79EFCA669E58C95
:107F500046F6B000628D238D04F11C01C0F20300CF
:107F600000960195FAF790FC01200146FFF7C8FD45
:107F7000012002B070BD46F68C00C0F20300FAF793
:107F800083FC2846F5E700BF0120704701207047B9
:107F9000012808B503D002280AD0012008BD1046E8
:107FA0001A4606F051FBD0F1010038BF002008BD91
:107FB00010461A460BF068FF00B2003818BF0120C7
:107FC00008BD00BF012808B503D002280AD001204F
:107FD00008BD10461A4606F0BFFDD0F1010038BFBB
:107FE000002008BD10461A460BF0D2FF00B2003840
:107FF00018BF012008BD00BF42F68812C2F200027D
:1080000011684878431E082B0CD8DFE803F00C12E7
:10801000181E242A3036050046F61C20C0F2030044
:10802000FAF732BC704746F6AC10C0F20300FAF71C
:108030002BBC46F6B810C0F20300FAF725BC46F692
:10804000C410C0F20300FAF71FBC46F6D010C0F20D
:108050000300FAF719BC46F6DC10C0F20300FAF789
:1080600013BC46F6E810C0F20300FAF70DBC46F662
:10807000F410C0F20300FAF707BC46F60820C0F27D
:108080000300FAF701BC00BF38B542F68814C2F20B
:10809000000423681D78012D11D008D3022D2FD0A4
:1080A000254841F288310DF04DFB012038BD46F6E0
:1080B0003020C0F20300FAF7E7FB002038BD46F697
:1080C0004820C0F20300FAF7DFFB23685878411C10
:1080D000C9B20729597084BF5D70294603D80429A5
:1080E00001D10521597046F66020C0F20300FAF76D
:1080F000CBFB114841F288310DF024FB012038BD43
:1081000046F64820C0F20300FAF7BEFB2368597810
:108110004A1CD1B20929597001D901215970DA7A62
:10812000012ADCD0022A04D00329DCD804215970AA
:10813000D9E70429D7D8D4E78C29002010B542F616
:108140008814C2F2000423681B7813B1022B32D0CA
:1081500010BD46F67C20C0F20300FAF795FB2268BA
:10816000907A431ED9B2012901D90120907202F1FF
:108170000C0302F10B0114320AF05AFD236846F693
:108180009420D97AC0F20300FAF77EFB2368D97AEB
:10819000481EC2B2042A01D90122DA72084841F20B
:1081A00088310DF0CFFA2168082302204B70087047
:1081B000BDE8104020E7FFF767FFBDE810401BE770
:1081C0008C29002010B542F68814C2F200042368FE
:1081D0001B7813B1012B12D010BD46F6AC20C0F2B3
:1081E0000300FAF751FB201D41F288310DF0AAFA85
:1081F0002068012242700270BDE81040FCE6FFF7E3
:1082000043FFBDE81040F7E638B542F68812C2F2E7
:108210000002116804464878431E052B11D8DFE898
:1082200003F0111D30374303A0790022431E5FFA8B
:1082300083FCBCF13B0FE27184F806C001D93B21FD
:10824000A17138BD218840F2BB7C481E83B26345D2
:108250002380F6D840F63302228038BDA3785D1E15
:10826000E9B2A17009B90C21A1702088E5780AF063
:108270003FF88542E5D92088A1780AF039F8E07006
:1082800038BDE178481EC3B2E370002BF3D038BD8F
:108290002179481E5FFA80FCBCF1060F84F804C007
:1082A000CFD90622227138BD60790022431E5FFAC1
:1082B00083FCBCF1170FE27184F805C0C1D9172106
:1082C000617138BD10B542F68814C2F2000423680B
:1082D00046F6C0205A781978C0F20300FAF7D4FAAB
:1082E0002268137853B1012B1FD0022B07D02F48DF
:1082F00041F28831BDE810400DF024BA10BD51782C
:1083000008293CD0092918D1D17A4B1EDBB2581E5E
:108310005FFA80FCBCF1040FD3722BD8052B2BD055
:10832000042B40D0002111750DE0901CFFF76CFF6D
:10833000206802300AF03AFFD9E702F10C00FFF79B
:1083400063FF2268117D46F6EC20C0F20300FAF7C5
:108350009BFA206800F10C03C17A027D807A0AF052
:108360009BFD47F64031C2F200015920282208F057
:1083700005FBBCE70520D0724A211175E3E7917A2D
:10838000481EC0B2411EC9B20129907202F10B0110
:1083900084BF9372184602F10C0314320AF048FCB1
:1083A0002268117DCFE73E211175CCE78C29002092
:1083B00038B542F68812C2F20002116804464878C5
:1083C000431E052B0DD8DFE803F00D192D3A4603A7
:1083D000A3790022591CC8B23B28A071E27188BF62
:1083E000A27138BD218840F6330C481C83B2634526
:1083F0002380F6D940F2BC72228038BDA3785D1C80
:10840000E9B20C29A17001D90121A1702088E57879
:1084100009F06EFF8542E4D92088A17809F068FF51
:10842000E07038BDE37820885D1CEDB2E570A1787E
:1084300009F05EFF8542D4D90120E07038BD217972
:10844000481C5FFA80FCBCF1060F84F804C0C8D950
:108450000022227138BD63790022591C5FFA81FC29
:10846000BCF1170F84F805C0E271BAD9627138BD4A
:1084700010B542F68814C2F20004236846F60C30A8
:108480005A781978C0F20300FAF7FEF922681378D7
:1084900053B1012B19D0022B07D02C4841F288315F
:1084A000BDE810400DF04EB910BD5378082B35D003
:1084B000092B12D1D17A481CC3B2052BD37229D90A
:1084C0000123D372002111750DE0901CFFF770FF9E
:1084D000206802300AF06AFEDFE702F10C00FFF7C5
:1084E00067FF2268117D46F63830C0F20300FAF7C4
:1084F000CBF9206800F10C03C17A027D807A0AF082
:10850000CBFC47F64031C2F200015920282208F086
:1085100035FAC2E714D14A211175E4E7937A591C60
:10852000C8B20228907201D90120907202F10B01A9
:1085300002F10C0314320AF07BFB2268117DD2E7B2
:10854000042BBFD13E211175CDE700BF8C2900203F
:1085500010B546F6583042F68814C0F20300C2F255
:108560000004FAF791F9206840B11C3005F036FD9F
:10857000206815F0A7F900232360012010BD00BF7B
:1085800046F66C3070B5C0F20300FAF77DF947F695
:108590004031C2F200012822592042F6881408F026
:1085A000B3F9C2F200041C480C210AF009FE266847
:1085B0003EB146F67C30C0F20300FAF765F90020C0
:1085C00070BD0121322015F003F8314632220546F4
:1085D000206024F009FDA81C0AF086FD20684EF2F8
:1085E0000013CEF20003022148F295721960C0F226
:1085F00000024FF47A711C3005F03AFD20681C30FF
:1086000005F0F6FD47F64031C2F20001592028225C
:1086100008F0B4F9012070BD5C7B00202DE9F04F1B
:1086200046F6983083B0C0F20300FAF72DF94AF607
:108630004440F9F7D9F8FFF7A3FF10B903B0BDE83C
:10864000F08F0120FAF7BAFB42F68814C2F2000458
:1086500043F25817C2F20007A0464FF0000A4FF04D
:10866000040941F2010620681C3005F057FE142071
:10867000FAF732FC2368054693F800B0BBF1000F0F
:1086800002D1597D00296ED1A5F5805009382B28DB
:1086900026D8DFE800F05653252525252525471641
:1086A0002525256225252525255925252525252509
:1086B000252525252525252525252525252525256A
:1086C000442E97F800B0FEF7FDFB0122002814BFEE
:1086D0000121022153465846CDF800A0FCF722FCA8
:1086E000206803785BB9B542BDD1FFF731FF0120A7
:1086F000A4E7FFF723FD20680378002BF3D024487C
:108700000DF02EF80028EED046F6C830C0F2030077
:10871000FAF7BAF8D8F8001081F800A0E3E7FFF7FD
:1087200051FDDDE73D784FF002027D7087F8029041
:10873000FA7387F810A041F20105D1E7FFF7C2FDF7
:10874000CEE7FFF795FECBE746F6BC30C0F203005C
:10875000FAF79AF841F20105C2E74FF00F01B9703C
:1087600041F20105BCE746F6A430C0F20300FAF777
:108770008BF80AF05DFBD8F8003047F6403183F8FB
:1087800015B0C2F200015920282208F0F7F87BE763
:108790008C2900202DE9F04F42F68815C2F2000521
:1087A0002868BDB002300AF09FFC2E683378012B98
:1087B00000F00281F0797188327973790090347A0F
:1087C0000DF1BC080194777A46F6D8040297C0F2FE
:1087D0000304B67946F6F030A246C0F20300C34661
:1087E0000396FAF751F8BAE80F00ABE80F009AE8E1
:1087F00003000DF1A40A04F11807D1468BE8030029
:108800000FCFA9E80F0097E803004E460DF11409B9
:1088100086E80300782204F1300135AE23AF4846E4
:1088200024F0BEFABB4604F1BC0EB446A8340FCC0B
:10883000ACE80F00BEE80F00ABE80F009EE80300B5
:108840002A6824688BE80300CCF80040901C3AA901
:1088500008F026F946F62040BDF8E810C0F2030003
:10886000FAF712F8BDF8E80008F0F6F80446BDF88B
:10887000E80008F003F907EB400246F62C4006EB4F
:108880004401C0F20300F9F7FFFFBDF8E80008F06B
:10889000F5F808EB400146F63C40C0F20300F9F75A
:1088A000F3FF9DF8ED10002960D19DF8EA1046F61F
:1088B0004C404C1E0AEB4401C0F20300F9F7E4FF00
:1088C0009DF8ECC0BCF11D0F0BBF46F6544046F6B8
:1088D0005C40C0F20300C0F20300F9F7D5FF9DF839
:1088E000EB2046F66440531E09EB8301C0F20300FF
:1088F000F9F7CAFFBDF8EA3040F201118B4263D0AC
:1089000040F6017E734566D040F20550834269D03F
:1089100040F2077293426CD040F6077C63456FD0FB
:1089200040F60874A34272D040F609118B4275D00C
:1089300040F60C0E734578D041F20C70834200F083
:10894000BD809DF8EA300C2B29D043F62020C0F2E0
:108950000400F9F799FF2B6842F688141978C2F2DF
:108960000004022909D03DB0BDE8F08F46F648402A
:10897000C0F20300F9F788FF97E746F6C040997AFE
:10898000C0F20300F9F780FF2368DA7A501E04284A
:1089900000F28D80DFE800F07871696250009DF888
:1089A000EB209DF8ECC06245CFD146F6B840C0F24E
:1089B0000300F9F769FFC8E746F6DC30C0F20300B0
:1089C000F9F762FF2E68F5E646F66C40C0F2030048
:1089D000F9F75AFFB9E746F67440C0F20300F9F719
:1089E00053FFB2E746F67C40C0F20300F9F74CFFB4
:1089F000ABE746F68440C0F20300F9F745FFA4E771
:108A000046F69040C0F20300F9F73EFF9DE746F6B8
:108A10009840C0F20300F9F737FF96E746F6A0400A
:108A2000C0F20300F9F730FF8FE746F6A840C0F226
:108A30000300F9F729FF88E746F66850197DC0F270
:108A40000300F9F721FF2A6846F6A050D37C517C39
:108A5000C0F20300927CF9F717FF84E746F64C500A
:108A6000C0F20300F9F710FFEDE746F62450197C39
:108A7000C0F20300F9F708FFE5E746F60450C0F23C
:108A80000300F9F701FFDEE746F6CC40C0F2030031
:108A9000F9F7FAFE2C6846F6E840A189A27BE37B51
:108AA000247CC0F203000094F9F7EEFECBE746F613
:108AB0008850C0F20300F9F7E7FEC4E746F6B0407D
:108AC000C0F20300F9F7E0FE3FE700BF42F698135B
:108AD000C2F200031A7852B95878002241F20A0112
:108AE000002814BF084600205A701A7070470022F0
:108AF00041F209005A701A70704700BF08B50D2086
:108B00004FF4001104F04CFA10204FF4001104F05F
:108B100047FA11204FF4001104F042FA0D204FF4EF
:108B2000801104F03DFA10204FF4801104F038FA5F
:108B300011204FF4801104F033FA23204FF4001178
:108B4000002204F021FC42F698104EF20012C2F20C
:108B500000000021CEF20002012341700170136079
:108B600008BD00BF00F532418AB245F2A5139A4212
:108B700070B452D940F2746CC0F2040C0CEB1023A8
:108B800093F8942AFF2A46D0012312FA03F400F046
:108B90000F0513FA05F6C0F30311A21801EB41010A
:108BA00001EB021202EB0C01B1F8951B314232D0FD
:108BB0006244644492F8946BB4F8B42FB218DDB1F7
:108BC0006C1E01EA030692191C409D4214D92CB177
:108BD000C1F34004022312199D420DD95C1C31FAE5
:108BE00003F331FA04F603F00103D21806F001068C
:108BF000631C92199D42F1D849F6A571884284BF41
:108C0000A2F5A242A63A0CEB4202B2F8E03F190AE2
:108C100041EA032080B270BC704746F6BC51A0F513
:108C20009C4CC0F2030131F81C301A0A42EA0320BE
:108C300080B2F0E77F28034602D901B992E700230A
:108C4000184670472DE9F84F1446D0F1010238BF9D
:108C50000022002C08BF42F001020E469846DDF8C3
:108C600028B08246002A3DD1D1F1010538BF002548
:108C7000002B08BF45F00105002D33D1BBF1020FD9
:108C800040D038BF2F462AD2BBF1000F1ED134F896
:108C900007904846FFF766FFB9EB000218BF0122B4
:108CA000FF2888BF42F0010202B32AF8050002350E
:108CB0000237B84594BF00200120BE4294BF002077
:108CC00000F0010078B1BBF1000FE0D034F807E00C
:108CD0004FEA1E2C4CEA0E291FFA89F9D9E7BBF19D
:108CE000FF0F07D000252846BDE8F88F0AF8059049
:108CF0000135DDE78B4234BF1A460A46214624F08F
:108D00004FF8F0E72F46A3F1020B03F1FF39474577
:108D10002CBF00230123B7422CBF002303F0010323
:108D2000002BE0D0E35D13F0800F12D101370AF879
:108D3000053047452CBF00230123B7422CBF002339
:108D400003F001030135002BCDD0E35D13F0800F5C
:108D5000ECD0C12B01D80137D9E7DF2B16D84F450E
:108D6000C1D23A19507803F01F0300F03F0141EAE5
:108D70008310FFF7F7FE034630B1681C190A0AF8A2
:108D800005300AF80010451C0237C0E7EF2B1BD84E
:108D90005F45A8D23A199178507801F03F0242EA33
:108DA000033300F03F0E43EA8E1C1FFA8CF0FFF7EE
:108DB000D9FE034630B1681C190A0AF805300AF8D2
:108DC0000010451C0337A2E70437A0E742F69A13C8
:108DD000C2F200031878D0F1010238BF00221A70E5
:108DE000704700BF2DE9F04141F6046088B0C0F241
:108DF0000400F9F749FDFEF737F8002800F09B80E2
:108E00004AF6444043F25814F8F7EEFCC2F200046C
:108E10001520FEF7CFFCE37A002B00F0A380207929
:108E2000002840F08180032008F0ACFE142015F0EB
:108E30002FF92279002A14BF04200220F8F798F8AD
:108E4000217900297ED0022008F0A8FE012008F038
:108E5000A5FEE57943F25813C2F20003002D7BD141
:108E600002AD48F6CD52C0F20002FA21284605F0C4
:108E7000FFF8284605F0BCF9FAF77AF80120F9F76F
:108E80009DFF002641F20107284605F047FA05201C
:108E9000FAF722F8A0F58053113B80460B2B3ED801
:108EA000DFE803F032233D3D3D063D3D3D3D3D08BD
:108EB0000F20A0700020F7F7C1FAA2790346DA70FC
:108EC000217A00201971F7F715FE2079003818BFB4
:108ED0000120F8F74DF841F63460C0F20400F9F7CC
:108EE000D3FC012008B0BDE8F08194F80080FDF7C4
:108EF000E9FF0122002814BF012102213346404628
:108F00000096FCF70FF8BFE794F800C00423022294
:108F1000002184F801C0A370E2732174CAE7F8F756
:108F2000EBFDB845B0D1C5E7022008F02BFE0120CB
:108F300008F028FE7AE741F61C60C0F20400F9F759
:108F4000A3FCCEE7032008F029FEE57943F258138D
:108F5000C2F20003002D83D000263046DE71F8F700
:108F60002BFC7DE7607AA17AF8F77AF9207900285E
:108F70003FF459AFD8E700BF42F69B13C2F200039B
:108F80001878012814BF0020012070470020704786
:108F9000704700BF42F69B11C2F200010B78012B13
:108FA00000D07047F9F7B6BD42F69B11C2F200013E
:108FB0000B78012B01D000207047F9F73BBD00BFB3
:108FC00010B542F69B13C2F200031C78012C01D0AD
:108FD000002010BDF9F7AEFD204610BD42F69B11F2
:108FE000C2F200010B78012B00D07047F9F778BD71
:108FF00008B542F69B11C2F200010B78012B01D09B
:10900000012008BDF9F76CFD012008BD70B543F2E1
:109010005810C2F200008378042B08D042F69B144B
:10902000C2F200042578012D03D0012070BD00207C
:1090300070BD00212170F9F791FD064638B941F65F
:109040006060C0F20400F9F71FFC304670BD41F6C5
:109050004C60C0F20400F9F717FC2570284670BD7B
:1090600010B5142015F014F8F9F7D4FD044638B9FA
:1090700041F68C60C0F20400F9F706FC204610BDF2
:1090800041F67860C0F20400F9F7FEFB42F69B134C
:10909000C2F200030120187010BD00BF10B542F6E7
:1090A000C414C2F2000400232370F9F7B3FD18B111
:1090B00009202070012010BD10BD00BF38B542F658
:1090C0009B13C2F200031C78012C07D041F6A0606C
:1090D000C0F20400F9F7D8FB002038BDF9F7ACFD69
:1090E000054638B941F6C460C0F20400F9F7CCFB7C
:1090F000284638BD41F6B460C0F20400F9F7C4FB5D
:10910000204638BD2DE9F84F41F6D863C0F204037C
:109110000246C01890F828A04FF0010808FA0AF596
:109120006E1E06FA08FC03EB8200A1F800C0406B3B
:1091300053F822600D4622F09FFA40F2000300220D
:10914000C3F6F06322F00EFB20F0C0FB40F20003F8
:109150000022C4F2340322F005FB40F20003002297
:10916000C4F2700322F0FEFA22F0BEFD4FEACA09F3
:1091700009F104096880BAF1000F00F0CE80378849
:109180000AF1FF3BAF8074880827EC80B188EC19A6
:109190002981F08822F080FA40F200030022C3F611
:1091A000507322F0DFFA20F091FB40F2000300221E
:1091B000C4F2540322F0D6FA40F200030022C4F2B3
:1091C000700322F0CFFA40F200030022C3F6E073EE
:1091D00022F016F922F060FDC2450BEA080B688107
:1091E00040F29B80BBF1000F33D0374637F8082F91
:1091F000A2807B88E380B7F80480A4F80880F88810
:1092000022F04AFA40F200030022C3F6507322F023
:10921000A9FA20F05BFB40F200030022C4F25403E1
:1092200022F0A0FA40F200030022C4F2700322F000
:1092300099FA40F200030022C3F6E07322F0E0F84E
:1092400022F02AFD4FF00208608110270834C24541
:1092500063D9F25BF119A2804B880837E380B1F83B
:1092600004E008F10108A4F808E0C88822F014FA24
:1092700040F200030022C3F6507322F073FA20F08C
:1092800025FB40F200030022C4F2540322F06AFAE4
:1092900040F200030022C4F2700322F063FA40F2AD
:1092A00000030022C3F6E07322F0AAF822F0F4FCD7
:1092B0006081F05B0834F319A080B3F802C008F1B4
:1092C0000108A4F806C09A8808372281D88822F0BD
:1092D000E3F940F200030022C3F6507322F042FA91
:1092E00020F0F4FA40F200030022C4F2540322F00A
:1092F00039FA40F200030022C4F2700322F032FA7D
:1093000040F200030022C3F6E07322F079F822F065
:10931000C3FC60810834C2459BD8287895F801C009
:109320000223EA189945687085F800C01FD9012109
:1093300049B1507895F802C00423A87082F801C0A2
:109340000232994513D992F801E0E85C991C05F8BE
:1093500003E05070023292F801C015F801E08B1C56
:1093600005F801C082F801E002329945EBD8484681
:10937000BDE8F88F10B441F6D862C0F204028C1830
:1093800002EB81035B6B52F8211094F8282010BC8B
:1093900003F04AB847F66833C2F20003984205D09A
:1093A0000C33984214BF0020012070470120704701
:1093B000F0B442F69C14C2F20004257875B147F669
:1093C0006836C2F20006B57A47F66834C2F2000485
:1093D000A5B1A47D8CB10020F0BC704747F668367B
:1093E000C2F200064FF0010C84F800C075613560D0
:1093F0007560B560F5603561E5E70125012A2C4609
:1094000044D025D26A00571906EB87074FF0000CAD
:1094100087F808C0012827D02ED2501906EB80000B
:1094200008304FF0000C80F801C04FF0010C0CFA2E
:1094300003F30CFA01F1551904EB440206EB850421
:1094400046F8253084F80AC0616006EB8200C3E765
:10945000022AC0D16A00571906EB87074FF0140C97
:10946000012887F808C0D7D1501906EB80004FF0CB
:109470000A0C80F809C0D8E70228ACD1501906EBD5
:1094800080004FF0140C80F809C0CEE76A0057192D
:1094900006EB87074FF00A0C87F808C0BAE700BF51
:1094A00010B50446007A03F09BFB236818420CBFFA
:1094B0000020012010BD00BF037A0168D81CC0B293
:1094C00003F06EBD10B5037A0168581CC0B203F0FA
:1094D00067FD0520BDE810400CF054B910B5437A83
:1094E0004168581CC0B203F05BFD0520BDE8104088
:1094F0000CF048B910B5037A0168581CC0B203F0EB
:1095000077FB0520BDE810400CF03CB9037A0168F8
:10951000D81CC0B203F06CBB10B5437A4168581C2C
:10952000C0B203F065FB0520BDE810400CF02AB97D
:1095300038B50446FFF7C0FF2046FFF7EDFF204691
:10954000FFF7AEFF05462046FFF7C8FF2046FFF7AE
:10955000E3FF2046002D14BF02250025FFF7A0FFE2
:1095600010B145F00100C5B22046FFF7B7FF204615
:10957000FFF7D2FF20466D00FFF792FF10B145F0D4
:109580000101CDB22046FFF7A9FF2046FFF7C4FF37
:109590006A002046D5B2FFF783FF08B145F0010508
:1095A0002046FFF79BFF2046FFF7B6FF6B002046E3
:1095B000DDB2FFF775FF08B145F001052046FFF762
:1095C0008DFF2046FFF7A8FF6D002046EDB2FFF7A4
:1095D00067FF08B145F001052046FFF77FFF2046F1
:1095E000FFF79AFF69002046CDB2FFF759FF08B197
:1095F00045F001052046FFF771FF2046FFF78CFF7D
:109600006A002046D5B2FFF74BFF08B145F00105CF
:109610002046FFF763FF2046FFF778FF284638BD56
:1096200038B50446FFF748FF2046FFF757FF2046AE
:10963000FFF772FF2046FFF733FF05462046FFF78E
:109640004DFFD5F1010038BF002038BD70B504468C
:109650000D46FFF75BFF2046FFF740FF15F0800F38
:1096600020466BD1FFF72EFF20466D00FFF754FF19
:10967000EDB22046FFF732FF15F0800F204672D181
:10968000FFF720FF2046FFF747FF2046FFF726FFA2
:109690006800C5B215F0800F204661D1FFF712FFB8
:1096A0002046FFF739FF2046FFF718FF6900CDB2CB
:1096B00015F0800F204650D1FFF704FF2046FFF73A
:1096C0002BFF2046FFF70AFF6A00D5B215F0800F86
:1096D00020463FD1FFF7F6FE2046FFF71DFF20464C
:1096E000FFF7FCFE6B00DDB215F0800F20462ED197
:1096F000FFF7E8FE20466D00FFF70EFFEDB22046B3
:10970000FFF7ECFE15F0800F20461DD1FFF7DAFEC3
:109710002046FFF701FF2046FFF7E0FE15F0400F5F
:1097200020460ED1FFF7CEFE2046FFF7F5FE20467D
:10973000FFF7D4FE2046BDE8704071E7FFF7DAFE80
:1097400092E7FFF7D7FEEFE7FFF7D4FEE0E7FFF77A
:10975000D1FECFE7FFF7CEFEBEE7FFF7CBFEADE7CA
:10976000FFF7C8FE9CE7FFF7C5FE8BE72DE9F04148
:1097700004460D461646002720468EB1E95DFFF7E8
:1097800065FF013E0137F6B280460028F4D141F66C
:10979000DC70C0F20400F9F777F84046BDE8F081CC
:1097A0000120BDE8F08100BF10B50446FFF7A2FE1E
:1097B0002046FFF7B1FE2046BDE810408EE600BF10
:1097C00010B50446FFF77EFE2046FFF7A5FE2046B3
:1097D000BDE8104082E600BFF8B5044616460D46C7
:1097E0000027731E204666B1DEB2FFF7A1FEE855E2
:1097F00020463EB9FFF7D8FF0137731E2046002EE2
:10980000F2D1F8BDFFF7DCFF0137F6E7437A416894
:10981000D81CC0B203F0ECB910B50446FFF7F6FF50
:109820002046FFF773FE2046FFF74CFE2046FFF769
:1098300073FE2046FFF75EFE2046BDE810403BE683
:1098400010B50446FFF756FE2046FFF765FE20469A
:10985000FFF7DCFF2046FFF759FE2046FFF732FEF8
:109860002046BDE8104039E62DE9F0410D4604469A
:1098700016461F46FFF7E4FF20462946FFF7E6FE9F
:1098800040B92046FFF7DCFF20462946FFF7DEFE01
:109890008046D8B131462046FFF7D8FE064678B15B
:1098A000012F02D00120BDE8F0812046FFF7C8FF5C
:1098B000204645F00101FFF7C9FE06460028F1D118
:1098C0002046FFF7A9FF3046BDE8F0812046FFF7AC
:1098D000A3FF4046BDE8F081F8B51E4601230446CB
:1098E0009DF81850FFF7C0FF074620B92046FFF744
:1098F00093FF3846F8BD31462A462046FFF76CFFF5
:109900002046FFF789FF0120F8BD00BF70B51E4655
:10991000002304469DF81050FFF7A6FF28B13146FA
:109920002A462046FFF722FF20B92046FFF774FFA2
:10993000002070BD2046FFF76FFF012070BD00BF03
:1099400041F6EC702DE9F041C0F20400F8F79CFFFD
:109950004AF64440F7F748FF0120F9F72FFA1420A0
:10996000F9F7BAFA41F21605A84241F21C0641F293
:10997000010704460BD0B0420FD0F8F7BDF8BC4247
:109980000BD01420F9F7A8FAA8420446F3D143F209
:109990005813C2F200030F229A7041F6F870C0F219
:1099A0000400BDE8F041F8F76FBF00BF42F6A01316
:1099B000C2F200031A684AB192F83A20012A05D18E
:1099C0001979D1F1010038BF00201871704700BF2C
:1099D00010B542F6A014C2F20004236893F83A00CE
:1099E000012814BF00210121032814BF0A4641F0B9
:1099F0000102002A30D193F833C093F8323042F29A
:109A00000C0043EA0C21C0F20400F8F73DFFFFF719
:109A1000B3FA18B9FFF724FBFFF750FB0120FFF75B
:109A2000CFFA236893F8330093F8322042EA0020FB
:109A3000FFF7DEFA0020FFF7C3FA2068022180F862
:109A40003A103C304FF47A7104F046FC20683C3008
:109A5000BDE8104004F0CCBB0120FFF7B1FA236849
:109A6000002283F83A20C6E710B542F21C0042F605
:109A7000A014C2F20004C0F20400F8F705FF206849
:109A80003C3004F0D9FA236893F8382012B393F8E5
:109A90003B1093F839C002299CBF42F20400C0F287
:109AA000040013F80C2094BF30F811104FF4167115
:109AB0008A1890B2010A83F8331083F8320041F219
:109AC0000B00F9F787F941F20200F9F783F9BDE8D5
:109AD00010407DE793F834E093F835204EEA0220F9
:109AE000010A83F8331083F83200E8E742F22800D5
:109AF00010B5C0F2040042F6A014F8F7C5FEC2F299
:109B000000040120FFF75CFA20683C3004F094FA6E
:109B1000206890F83A104A1E18BF012203290CBF92
:109B2000002302F00103D3B190F834C090F835E07F
:109B300000234CEA0E22110A80F83310012180F82C
:109B40003A1080F83220194680F8383080F83930E1
:109B5000322223F049FAFFF70FFA98B1206890F803
:109B6000332090F8323043EA0220FFF737FA2068BA
:109B700064213C3004F0B0FB20683C30BDE810406C
:109B800004F036BBFFF76CFA18B1FFF797FA00281C
:109B9000E4D1FFF769FF41F20B00BDE81040F9F78F
:109BA00019B900BFF8B50220F6F748FC04460020BA
:109BB000F6F744FC43F2581390F803C0C2F20003D6
:109BC00083F806C0017942F6A012197294F8326047
:109BD000C2F200021168C6F3811081F83B0094F8CC
:109BE000352094F8343043EA02231A0A81F83320EE
:109BF00081F8323094F8336081F83860002E4DD00F
:109C0000D5B291F83B205FFA83FE42F20407237835
:109C1000701EC0F20407022A4EEA052C0B7000F0F9
:109C2000010098BF37F8125001D94FF41675EB18A0
:109C3000634534D001239E4230D978B1022AE05CDA
:109C400094BF37F812504FF41675C8542818604561
:109C500008BF81F8393001339E4224D9022AE05CE2
:109C600094BF37F812504FF41675C8542818604541
:109C700008BF81F839300133E05C022AC85498BF2C
:109C800037F8125001D94FF416752818604508BFEF
:109C900081F8393001339E42E0D8F8BDF8BD002389
:109CA00081F83930C6E7F8BD70B50220F6F7C6FB7B
:109CB00004460020F6F7C2FB43F25813C2F2000339
:109CC00093F806C042F6A01580F803C0197AC2F2D4
:109CD00000050171296894F832C091F83B20930186
:109CE00063F3871C84F832C091F8335091F8320046
:109CF00040EA05231A0A84F8352084F8343091F8B4
:109D0000385084F83350DDB191F800E00123681E2B
:109D10009D4284F800E000F0010211D932B191F8BF
:109D200001E002239D4284F801E009D9C85C5A1C75
:109D3000E05411F802C0531C9D4204F802C0F5D84B
:109D40000020F6F7D7FE0120BDE87040F6F7D2BE3E
:109D500038B542F6A014C2F20004236893F83A2002
:109D6000012A4BD093F83850002D3FD041F2100318
:109D7000984227D042F28800C0F20400F8F784FD30
:109D8000206890F839304BB1013B80F8393090F8B9
:109D9000661031B1FFF788FF012038BD90F83830E8
:109DA000F2E74AF21562C0F200024FF496715230A7
:109DB00004F05EF92068523004F01AFAFFF774FFDD
:109DC000012038BD42F27800C0F20400F8F75CFDD3
:109DD000206890F8392090F83830511CCAB2B2FB94
:109DE000F3F103FB112C80F839C0D0E742F24800B0
:109DF000C0F20400F8F748FD284638BD42F23400AE
:109E0000C0F20400F8F740FD002038BD70B542F202
:109E1000980042F6A014C0F20400C2F20004F8F761
:109E200033FD2068002841D04FF6FF7043F25815EB
:109E3000C0F20100C2F200050EF078FB2B79002B76
:109E400035D1032007F09EFE282014F021F9A878D0
:109E5000042802D00120FFF7B3F8FFF78DF800289F
:109E600034D1206842F6A01690F83A10C2F20006EB
:109E7000012936D03C3004F0B1F82068523004F0AB
:109E8000ADF8FFF711FF206813F01CFD95F804C032
:109E90000023BCF1000018BF01202360F7F768F829
:109EA0002A795AB9032007F079FE012070BD0220FB
:109EB00007F068FE012007F065FEC5E7022007F005
:109EC0006DFE012007F06AFE012070BDFFF79EF8CD
:109ED000206842F6A01690F83A10C2F20006012956
:109EE000C8D13C3004F0A8F841F20B00F8F772FF3B
:109EF00041F20200F8F76EFF3068BBE770B542F23E
:109F0000AC0042F6A014C0F20400C2F20004F8F75C
:109F1000BBFC25683DB142F2C000C0F20400F8F776
:109F2000B3FC002070BD0121802013F051FB802282
:109F300006462946206023F057F886F83A50FFF786
:109F400031FE236893F83B20012A53D06BD20425BD
:109F50006B210320382283F8375083F8341083F8BC
:109F6000350083F83620012002F07AFDFFF778F8FB
:109F7000054600284DD0FFF7A1F8054600286ED011
:109F800020684AF299323C30C0F200024FF47A71F4
:109F900004F06EF842F6A0130546C2F20003002852
:109FA0006ED01B6893F83810002973D093F83220D4
:109FB00093F833C040F26A3E42EA0C22724558D907
:109FC000B2F5876F05D90420382283F8330083F86F
:109FD00032200120FEF7F4FF216891F833C091F898
:109FE000323043EA0C20FFF703F80020FEF7E8FFC9
:109FF000012070BD03206FF0070E02226FF07B0C72
:10A0000083F8370083F834E083F8352083F836C0CE
:10A01000A9E742F2E000C0F20400F8F735FCFFF7D0
:10A02000F5FE284670BD022A0CD0022258206FF09F
:10A03000070C83F8372083F8340083F836C083F8A0
:10A04000352090E76FF06D056FF0250183F837201C
:10A0500083F8345083F8361083F8352083E742F2D2
:10A06000F400C0F20400F8F70FFCFFF7CFFE28461B
:10A0700070BD03216B2083F8331083F83200A8E70A
:10A0800042F20810C0F20400F8F7FEFBFFF7BEFE34
:10A09000284670BDFFF72AFD012070BD2DE9F0456F
:10A0A00042F2281083B0C0F20400F8F7EDFB4AF644
:10A0B0004440F7F799FBFFF721FF0446002800F022
:10A0C0001381182042F6A014FDF774FBC2F20004BD
:10A0D00049F6AD12C0F20002FA2104F1080043F281
:10A0E000581503F0C5FFC2F2000504F1080004F0A2
:10A0F0007FF82B79002B40F0E180032007F042FD30
:10A10000142013F0C5FFEA7A43F25813C2F2000399
:10A11000002A00F0E4802979002914BF05200320DB
:10A12000F6F726FFE87943F25813C2F2000300283D
:10A1300040F0EE802F79002F00F0E280022007F03F
:10A140002DFD012007F02AFDF8F712FF0120F8F796
:10A1500035FE42F6A0162068C2F20006002741F242
:10A1600001083C3004F0DAF82068523004F0D6F8E8
:10A170006A4804F0D3F820686A3004F0CFF805206C
:10A18000F8F7AAFEA0F580530B3B8246272B5BD83D
:10A19000DFE803F04D5A5A5A494932225A5A5A14A2
:10A1A0005A5A5A5A5A165A5A5A5A5A5A5A5A5A5A53
:10A1B0005A5A606060606060606060600F22AA70E0
:10A1C00042F23810C0F20400F8F75EFBFFF71EFE03
:10A1D000012003B0BDE8F08595F800A0FCF772FE01
:10A1E0000122002814BF012102213B46504600975E
:10A1F000FAF798FE2068B4E7206890F83AC0BCF1FE
:10A20000010FAED095F800E042F23810012204238D
:10A210000221C0F204002A7485F801E0AB70E973F2
:10A22000F8F732FBD2E7FFF793FD206899E7206843
:10A2300090F83AA0BAF1010F66D04120FDF7BAFAC2
:10A24000FFF754FC30688CE7F7F756FCC245BDD0E9
:10A25000206886E7206890F87E1000294CD14AF2E9
:10A2600005526A30C0F200024FF47A7103F000FF29
:10A2700020686A3003F0BCFF22684EF6D77392F86C
:10A28000681092F86900C0F2000341EA002C0CEB60
:10A290008C004100CB180AEB03004EF6D77C83B24A
:10A2A000C0F2000C0AEB0C00190A80B282F86910A7
:10A2B00082F86830FDF77EFA206852E7022007F046
:10A2C00061FC012007F05EFC142013F0E1FEEA7A45
:10A2D00043F25813C2F20003002A7FF41CAF997AAC
:10A2E000587AF6F7BDFF16E742F23810C0F20400C4
:10A2F000F8F7CAFA20466CE76A3003F079FEB7E750
:10A30000032007F04BFC1FE7FFF7AEFB306828E7A0
:10A3100000263046DE71F7F74FFA0BE7A829002038
:10A3200042F2481010B5C0F20400F8F7ADFA42F658
:10A33000A013C2F200031B6893F83820322A22D0FF
:10A3400093F83B1093F8320093F833C0022940EAA7
:10A350000C200ED842F20404C0F2040414F81110C8
:10A36000411A501C83F838009954FFF79DFC0120D6
:10A3700010BD5821411A501C83F838009954FFF73A
:10A3800093FC012010BD42F25C10C0F20400F8F70B
:10A390007BFA002010BD00BF70B542F6A014C2F2D7
:10A3A0000004226892F83A30012B02D0032B21D00E
:10A3B00070BD92F8330092F8323043EA0020FEF785
:10A3C000F3FD00284ED0236893F8371093F832201D
:10A3D00093F8330093F836E042EA00224EEA012C6B
:10A3E000624568D3FFF740FB41F20B00BDE87040C7
:10A3F000F8F7F0BC256A002D4ED019F06FF8216AED
:10A4000000EB8000C1EB400C42F6A015BCF57A7F52
:10A41000C2F20005CCD342F2AC10C0F20400F8F74F
:10A4200033FA0120FEF7CCFD2B6893F833C093F884
:10A43000370093F8322093F8361042EA0C2241EAB2
:10A44000002C0120624583F83A002DD2121890B2F8
:10A45000010A83F8331083F83200FFF747FB00232B
:10A46000236270BD236893F833C093F832E093F809
:10A47000361093F837004EEA0C2241EA002C624570
:10A48000B0D2501C82B2110A83F8331083F8322004
:10A49000BDE87040FFF72ABB19F020F800EB8002FE
:10A4A0005300323B2362A8E7FFF7DEFA41F20B00CC
:10A4B000F8F790FCD3E7FFF733FF002892D022682B
:10A4C00042F2881092F833E092F83230C0F2040081
:10A4D00043EA0E21F8F7D8F92068032190F833C039
:10A4E00090F8322080F83A1042EA0C20FEF780FD06
:10A4F0000020FEF765FD206832213C30BDE8704049
:10A5000003F0EABE70B542F6A014C2F2000420685F
:10A510006A3003F091FD236893F8682093F869008E
:10A5200093F8381042EA002291423ED393F83BE080
:10A530000021501EBEF1020F83F8691083F86810E5
:10A540009CBF42F20401C0F204015FFA80FC13F8E0
:10A550000C2094BF31F81E104FF41671881882B287
:10A56000110A42F20C0083F839C083F8331083F8E3
:10A5700032201146C0F20400F8F786F90120FEF7F8
:10A580001FFD216891F833C091F8323043EA0C2066
:10A59000FEF72EFD0020FEF713FD2268022082F850
:10A5A0003A00BDE87040FFF77FBB93F834E093F8C2
:10A5B00035C04EEA0C218A4207D393F836E093F86F
:10A5C00037004EEA00218A4205D9002183F869103C
:10A5D00083F8681070BD110A002542F20C0083F860
:10A5E000331083F83220114683F8695083F868509D
:10A5F000C0F20400F8F748F90120FEF7E1FC2168F9
:10A6000091F8332091F8323043EA0220FEF7F0FC53
:10A610002846C0E770B503F00FFD42F6A014C2F261
:10A620000004266896F83B1096F839C002299EBFB0
:10A6300042F20400C0F2040030F8111016F80C20A9
:10A6400088BF4FF41671881885B22B0A42F20C00AD
:10A65000294686F8333086F83250C0F20400F8F705
:10A6600013F90120FEF7ACFC226842F6A01592F81F
:10A67000331092F83230C2F2000543EA0123B3F5F9
:10A680007A7F0FD344F6D35EC1F2620EAEFB0310A5
:10A690008009FDF78FF82B6893F8336093F83250F8
:10A6A00045EA062344F6D35CC1F2620CACFB031509
:10A6B0004FF47A76AA0906FB123048F21F561FFAA9
:10A6C00080FEC5F2EB16A6FB0E214809FDF772F8D5
:10A6D0002568642295F833C095F832004CF6CD45D4
:10A6E00040EA0C23A6FB0316760902FB1631CCF6D2
:10A6F000CC451FFA81FCA5FB0C20C008FDF75AF8D9
:10A700003620FDF757F8226892F8331092F832306D
:10A7100043EA012CA5FB0C10C50805EB8505ACEB45
:10A72000450290B2FDF746F8206890F833C090F8E3
:10A73000323043EA0C20FEF75BFC0020FEF740FCC1
:10A740002168022281F83A20BDE87040FFF7ACBAD8
:10A7500070B543F25814C2F20004A37B82B0002B00
:10A7600041D1FCF7F9FE0546002830D041F21C002B
:10A77000854271D00BF04EFC002825D082B2932187
:10A7800019230A264FF44860009603F0BBF941F202
:10A790001E02954249D04EF6F773C0F20003EA1844
:10A7A0001FFA82FCBCF1010F2ED90020A07342F2E7
:10A7B000CC102946C0F20400F8F766F8284602B02B
:10A7C000BDE87040F8F728BB4AF64442D7E7FCF7EB
:10A7D00003F905460028C9D1FEF778F90546002897
:10A7E000C4D102B070BD42F6C810C2F200000AF037
:10A7F000B7FF0028B5D042F2BC100021C0F204001F
:10A80000A173F8F741F8ACE742F6C810C2F20000B5
:10A8100041F288310AF096FFA27B531E042BC6D862
:10A82000DFE803F04D42372C2100A17B4AF6AB2034
:10A830004A1CC2F6AA2080FB021342F6C81003EBA2
:10A84000430EA2EB4E0CC2F2000041F2883184F8B4
:10A850000EC00AF077FFAAE70120FCF783FA002078
:10A86000F8F7ACFA86E741F2280141F2270E41F2EF
:10A87000090085420CBF75460D4698E741F2260354
:10A8800041F2250241F2090C65450CBF15461D46F3
:10A890008DE741F2220141F2210E41F20900854289
:10A8A0000CBF75460D4682E741F2240341F22302B4
:10A8B00041F2090C65450CBF15461D4677E741F28C
:10A8C0001F0141F2090E75450CBF0D464FF481552D
:10A8D0006DE700BF08B5FCF711FEFCF767F8FEF75F
:10A8E0000DF942F6C810C2F2000000210AF02AFF5A
:10A8F00043F25813C2F2000300229A7308BD00BF4E
:10A9000070B504460DF03AFFC5B218F0E1FD0DF048
:10A91000F5FA214628460DF001FF3AF039FB2846AA
:10A9200021460DF023FD214628460DF049FD3AF061
:10A9300025F90DF0BBFABDE8704018F0A9BE00BFC4
:10A940002DE9F04142F2DC1082B0C0F20400F7F7CA
:10A950009BFFF7F765F84FF4FA7019F03BF94FF4E5
:10A96000805014F0A1F84FF4885014F09DF84FF483
:10A97000A05014F099F84FF4985014F095F843F261
:10A98000581442F2F010C0F20400C2F20004F7F7CB
:10A990007BFFA378002B40F0A5802378102B14BFF9
:10A9A00000220122042B14BF134642F00103A3B17D
:10A9B000FCF788FA002814BF02250125FCF782FA6B
:10A9C0004FF0000C002814BF0121022163462846E5
:10A9D0000122CDF800C0FAF7A5FA43F25816C2F2E8
:10A9E000000600254FF0010810274FF48050A57095
:10A9F000F8F7F4F92178481E0F2809D8DFE800F0AD
:10AA000069696966524F080A0A0A390A086F6C4C6C
:10AA1000FEF796FFA378002B30D000202370FCF7C0
:10AA2000A1F994F800C0ACF10E01CAB2BCF10C005F
:10AA300018BF0120012A94BF002000F00100002867
:10AA4000D3D00020F5F7FAFC317804290ABF3B4641
:10AA50004170437042F21C2008BF1021C0F2040074
:10AA6000F7F712FF0020F6F745F80120F6F742F855
:10AA7000BBE7FDF7D3FDA378002BCED13078F7F7F5
:10AA800075FAC3B242F208201946C0F20400B3704E
:10AA9000F7F7FAFEB378C0E7FAF764FABAE7FEF719
:10AAA000A1F9B7E701200DF013FE207BFFF728FF87
:10AAB0006573FFF7F3FA607B0028ABD10DF008FE59
:10AAC0000120FFF71DFF86F80D80A3E7FBF74EF886
:10AAD000A0E7F9F765FF9DE700F0FAFB9AE700F0C1
:10AAE0009DFB97E7237059E7D0F80429137A917AF0
:10AAF0004D2B527A2BD0572B0BD0412B11D1532AEF
:10AB00003ED0412A33D0492A09D1462907D106200F
:10AB100070474D2A2ED0412A01D1562938D0FF2026
:10AB20007047532B05D1422AF9D14329F7D103208D
:10AB30007047462B15D0412BE3D04D2B25D1502A01
:10AB40000CD0342AEBD14129E9D105207047502A95
:10AB5000F5D1A1F13200C3B2012B1BD93429DED1CA
:10AB6000F3E74C2ADBD14129D9D10420704743298E
:10AB7000D5D1EAE7412901D05629D0D1012070472B
:10AB80004629FBD05829CAD1F8E7412BC7D1BAE7EB
:10AB9000022070470020704740F2E850C2F20000E7
:10ABA000704700BF40F2E853C2F200039A80187069
:10ABB000598070470020704748B147F680304EF208
:10ABC0009551C2F20000C0F2010113F0DDBA7047E6
:10ABD0002DE9F041B0F83C7694B0012F054602D043
:10ABE00014B0BDE8F08140F2E854C2F20004A37949
:10ABF000012BF5D0D0F8046942F23821C0F20401EB
:10AC000006F10800032222F099F80028E8D11390F9
:10AC10003278202A08BF80462FD07078202808BFBD
:10AC2000B8462AD0B178202908BF4FF0020824D0B6
:10AC3000F778202F08BF4FF003081ED096F804C005
:10AC4000BCF1200F08BF4FF0040816D096F805E0BD
:10AC5000BEF1200F08BF4FF005080ED0B379202BAE
:10AC600008BF4FF0060808D096F80780B8F1200F0B
:10AC70000CBF4FF007084FF0080810AF0023314613
:10AC800007F108063360424638461093119322F0CC
:10AC900087F842F23C210522C0F2040107EB0800CC
:10ACA00022F07EF82846FFF787FF012239466846E2
:10ACB0001CF0D4FC042201216B4613A81BF08CFD70
:10ACC00068461CF0E7FD9DF84C206D464D2A87D163
:10ACD0009DF84D00562883D19DF84E104F297FF4E2
:10ACE0007FAF9DF84FC0BCF1120F7FF479AF012206
:10ACF000A27175E72DE9F04F40F2E8558DB04FF0A5
:10AD0000FF3E0446C2F20005012085F800E0F5F799
:10AD100095FB90F802C090F803A090F80490477952
:10AD20004CEA0A2848EA0942064642EA07600290CD
:10AD3000317A42F244208DF80C1096F80AA0F37A8A
:10AD400096F80CC096F80D804AEA032949EA0C47A8
:10AD500047EA08620492317CC0F204008DF81410B6
:10AD6000F37C96F812A096F814C096F815804AEA7B
:10AD7000032949EA0C4747EA08620692317E002718
:10AD80008DF81C10F7F780FDAF710123D4F824165D
:10AD90003A46204643F2021619F0C0FAC2F2000603
:10ADA00020461DF0A3FD3378002B40F0D7800DF135
:10ADB000200AD4F8241643F204170AF10B03C4F84E
:10ADC0001019C2F200074FF6FF780AF10809019343
:10ADD0003B6813B1984700282FD1204619F0D8FAC4
:10ADE000834694F80C09002872D0BBF1010F75D08E
:10ADF00027D22046FFF778FEFF2811D0B4F8383666
:10AE0000434500F0A980B4F83A060133411CA4F888
:10AE10003836A4F83A1695F90020B2F1FF3F67D012
:10AE20002046FFF7D5FE94F81436012B4BD0022BA9
:10AE3000CED1FCF749F80028CAD100200DB0BDE8FA
:10AE4000F08FBBF1020FEED120461DF0B3FAB4F83B
:10AE50003C262046012A04BFB4F83826A4F842262E
:10AE600019F078FA204619F033FE002874D0B4F8AF
:10AE70003C36434570D0581C4FF00003A4F83C0604
:10AE8000A4F83E36A4F83A36204619F00FFB20B954
:10AE9000B4F83C26511EA4F83C163378002BC2D0DF
:10AEA000D4F8040990F90BC0BCF1000F1CDB20465C
:10AEB000B4F83C161AF090FA00201AF0F1FA94F85F
:10AEC0001436012BB3D1FBF7FDFF002880D1B4E786
:10AED00020461DF007FABBF1010F89D1B4F83E16E8
:10AEE000481CA4F83E069EE701201AF0D9FA9AE71A
:10AEF00094F80C29D4F808390698D118884234D02F
:10AF0000D318049A9A428BD10822D4F804195046D7
:10AF100021F046FFD4F8041903220831484621F0F5
:10AF20003FFFD4F8041904221C31019821F038FFA6
:10AF30000F2150469DF814B0F5F78CF983457FF446
:10AF40006FAF01232B70B4F838E6A5F802E0B4F82F
:10AF50003CC6A5F804C063E701206FE720461AF05D
:10AF600031FA38461AF09CFA21E70822D4F804197D
:10AF7000504621F015FFD4F8041903220831484641
:10AF800021F00EFFD4F8041904221C31019821F09D
:10AF900007FF0F2150469DF81CB0F5F75BF983457C
:10AFA00004D094F80C29D4F80839A9E70223C9E79A
:10AFB00048B147F680304EF24151C2F20000C0F273
:10AFC000010113F09DB8704770B5044619F0ECFD0F
:10AFD000C6B2204619F0DCFD0546FFF7E9FF16F082
:10AFE000800F12D10021304619F0A0FD40F66432E6
:10AFF000C2F2000221461046D2F8EC3A98470446C5
:10B000002846FFF7D9FD204670BD28460024FFF7EB
:10B01000D3FD204670BD00BF2DE9F84540F66434ED
:10B020000646C2F20004D4F8E83A20463146984772
:10B030000546002800F08380FFF7BAFFFBF778FE93
:10B040000746002800F0A38095F84476002F78D1B9
:10B050004FF0010885F8448619F088FD10F0800F44
:10B0600067D119F083FD2946C0B219F05FFD19F0D0
:10B0700087FD80F8146619F083FD4FF0FF31C0F8AA
:10B08000181619F07DFD4FF0020AC0F8E0AA19F079
:10B0900077FD3946FBF738F9074600285DD042F2C4
:10B0A0009420C0F20400F7F7EFFB19F069FDFFF7F9
:10B0B00021FE0746B8B342F2C02085F844A6C0F28C
:10B0C0000400F7F7E1FB19F05BFDB0F8381642F227
:10B0D000D020C0F20400F7F7D7FB19F051FDB0F80B
:10B0E0003C1642F2E820C0F20400F7F7CDFB19F05D
:10B0F00047FDB0F8401642F20030C0F20400F7F706
:10B10000C3FB42F22030C0F20400F7F7BDFB43F668
:10B110002020C0F20400F7F7B7FB2846FFF74CFDEC
:10B120004046BDE8F88542F2AC20C0F20400F7F7D3
:10B13000ABFB2846FFF740FD3846BDE8F885BDE883
:10B14000F88542F26C20C0F20400F7F79DFB284618
:10B15000FFF732FD0120BDE8F88542F27C20C0F205
:10B160000400F7F791FB304619F01EFD3946C0B2D6
:10B1700019F0DCFC3146D4F8EC2A204690472846EA
:10B1800085F84476FFF718FD3846BDE8F88542F2A9
:10B190005820C0F20400F7F777FB2846FFF70CFDB4
:10B1A0003846BDE8F88500BFF8B5002832D047F62C
:10B1B0008034C2F2000454220021204621F014FF02
:10B1C0000121204617F09EFA42F25432002504F184
:10B1D000100704F128064FF0FF3C2346C0F204029A
:10B1E00004F138001021E5616560C4F810C0E76023
:10B1F00067616662A761A5606563C4F828C0E662FE
:10B2000026632562F7F71CFB04F14803E364A3649B
:10B210000120F8BDF8BD00BF704700BF42F25C30AE
:10B2200008B5C0F20400F7F72FFBF7F79DFE4FF4C7
:10B23000804005F087F804F06BFC42F29030C0F2D9
:10B240000400F7F721FB0120F7F7B8FDFEE700BF88
:10B2500010B502204FF0FF3102F07AF803204FF0D2
:10B26000FF3102F083F806204FF0FF3102F070F852
:10B2700007204FF0FF3102F079F80C204FF0FF313A
:10B2800002F066F80D204FF0FF3102F06FF8102049
:10B290004FF0FF3102F05CF811204FF0FF3102F067
:10B2A00065F8162047F6FF7102F052F8172047F6AE
:10B2B000FF7102F05BF81A2047F6FF7102F048F8C0
:10B2C0001B2047F6FF71BDE8104002F04FB800BFE9
:10B2D00042F2A83008B5C0F20400F7F7D5FAF7F744
:10B2E00043FEFFF7B5FF1620802101F081FC1A20F4
:10B2F000802101F07DFC1B20802101F079FC4FF4BE
:10B3000000604FF48061012205F06AF805F09EFAB2
:10B3100042F2B830C0F20400F7F7B6FA0120F7F7AE
:10B320004DFDFEE708B504F0CBFB40B140F2F05311
:10B33000C2F200031A88511E198042B108BD40F2C2
:10B34000F052C2F200024FF4FA701080F6E742F2B7
:10B35000D830C0F20400F7F797FA4FF4005004F029
:10B36000F1FF04F0D5FBFEE747F6D430002110B51D
:10B37000C2F200000AF0E6F942F6D410C2F2000070
:10B380000021BDE810400AF0DDB900BF47F6D43017
:10B3900010B5C2F200000AF0E3F900B910BD47F69B
:10B3A000D43040F2F054C2F20000C2F20004322164
:10B3B0000AF0C8F96388002B31D142F6D413C2F2E7
:10B3C0000003D9684CF6CD4CCCF6CC4CACFB01015B
:10B3D00040F6E44CC80800224FF00A0E6045DA60DF
:10B3E000A4F802E01861D9D842F2FC3043F25814B4
:10B3F000C0F20400C2F20004F7F746FAA3780E2B5D
:10B40000CCD042F21C40C0F20400F7F73DFA0E2205
:10B4100041F20100A270BDE81040F7F7FDBC0DF04D
:10B4200019FF42F6D413C2F200036288D968013AC8
:10B43000411892B2D9606280002AC3D010BD00BF0B
:10B44000704700BF704700BF704700BF704700BF24
:10B45000704700BF704700BF704700BF704700BF14
:10B46000704700BFFEE700BF40F2F453C2F2000392
:10B470001870704742F6E813C2F200031870704764
:10B48000704700BF0020704700B540F2F451C2F28F
:10B4900000010B7885B0019033B142F6E813C2F297
:10B4A00000031A7812B1019805B000BDC0B20A2895
:10B4B00004D001A8012110F099F8F4E704A840F69F
:10B4C0000D2C20F804CD022110F090F8EBE700BF1E
:10B4D0004AF22C03C4F20103186070474AF22C03AD
:10B4E000C4F20103186870474AF22803C4F201034A
:10B4F00019686FF345011960186840F001021A607D
:10B50000704700BF4AF22803C4F201031A686FF3C0
:10B5100000021A60704700BF4AF22803C4F2010318
:10B52000186800F0010070474AF22803C4F20103D2
:10B53000196841F0400018601A686FF386121A60AB
:10B54000704700BF2DE9F00FA0B01D90B0F90200C8
:10B550001C911F921993002800F02B831D99D1F89C
:10B560004421002B6BD01F9BB3F9004012464FEAD9
:10B57000E27324464FEAE47504FB03F6A4FB0201E0
:10B5800002FB0567289C07EB01084FEA102C4CEAE8
:10B590000860199E4FEA44081F9C711E04EB0806C0
:10B5A000199C4FF0010C1C9FA445386001EA0C0166
:10B5B00045D2B1B1B6F900404FF0020C24464FEA33
:10B5C000E47504FB03F7A4FB020102FB0577040A00
:10B5D000199879181C9F44EA016484457C604644AC
:10B5E0002DD21C9FDDF864B0B6F9004036F9080092
:10B5F00024464FEAE47500464FEAE07104FB03F984
:10B6000000FB03FA02FB059902FB01AAA4FB024519
:10B61000A0FB02014D4451444FEA142A4AEA056A4C
:10B620000CF10104050A47F82CA004F1010C45EACD
:10B630000165DC4547F8245006EB4806D4D31D9A33
:10B64000B2F900601E96002E00F0E5801D984FF0C4
:10B6500000081A90CDF86C80DDF86CA01D9B0AEBF9
:10B660008A0C1A9C1A9E199F03EB8C00D0F850315B
:10B67000D0F85421D0F85811D0F84851D4F80480AB
:10B68000D0F84C01A468D6F8A4C0D6F8A890002F32
:10B6900000F0B080AA464FEAEA7B06464FEAE6771A
:10B6A000CDE912AB1C9D92464FEAEA7BCDE90E67CD
:10B6B000CDE90CAB1E464FEAE6778A464FEAEA7BB5
:10B6C0000021CDE90A67CDE908AB1195109102E0A0
:10B6D000DDF854809C46119E0F993268C2464FEAAD
:10B6E000EA7B15920AFB01F5159862464FEAE27370
:10B6F00006464FEAE6770D98029502FB00F52046D4
:10B700004FEAE071CDE90401129901FB07F44846C4
:10B710004FEAE071CDE906010B9F0499099801FBFE
:10B7200007F9069F07FB00F102980E9F169107FB91
:10B730000B0117910E99AAFB0101DDF830A0CDE9AC
:10B74000020113980AFB035B06FB0047A2FB0A23D6
:10B750000A9DDDF814A0049905FB0A99129CDDF8F6
:10B760001CA008980197A4FB0667A1FB0545169944
:10B77000CDF8009000FB0A19CDF81090DDF8189074
:10B78000DDF80CA0A9FB0001DDF85C905B44CA4425
:10B79000CDF80CA0DDE902AB12EB0A0943EB0B0379
:10B7A000DDF804B019EB0602009E5F4443EB070985
:10B7B0007519121949EB0503DDF84090049F09F152
:10B7C00001097C18CDF84090161843EB0400109A3C
:10B7D000119C310D199F41EA003344F8043BBA42F1
:10B7E0001194E1464446FFF473AF4446DDF85480BB
:10B7F000E1469C461B991A9E1E9F4B1CC6F804806E
:10B80000B460C6F8A4C0C6F8A89010369F421B9337
:10B810001A963FF621AF1998002833D01C9B289C1C
:10B820001E686000199C32121F9E611E012302F3E4
:10B830000F0C19403218A342A6F800C022D259B109
:10B840001C9B5C6802232112199C01F30F0CA2F8C7
:10B8500000C01218A34215D21C9C199D591C54F803
:10B86000216054F823704B1C3112AB424FEA272C55
:10B8700001F30F070CF30F0CA2F800C0175202EBF4
:10B880004002EBD3289F012F40F393811F981D990D
:10B89000199B02301F90D1F84421002B67D0B0F9DA
:10B8A000004012464FEAE27324464FEAE47504FB77
:10B8B00003F6A4FB020102FB056C040A0CEB010871
:10B8C00044EA0860199C4FEA47084FF0010C671ED4
:10B8D0001C9E07EA0C011F9FA445306007EB080679
:10B8E00045D2B1B1B6F900404FF0020C24464FEA00
:10B8F000E47504FB03F7A4FB020102FB0574070ACD
:10B900006118199847EA01641C9F84457C6046448D
:10B910002DD21C9FDDF864B0B6F9004036F908005E
:10B9200024464FEAE47500464FEAE07104FB03F950
:10B9300000FB03FA02FB059902FB01AAA4FB0245E6
:10B94000A0FB02014D4451444FEA142A4AEA056A19
:10B950000CF10104050A47F82CA004F1010C45EA9A
:10B960000165DC4547F8245006EB4806D4D31D9BFF
:10B97000B3F900201E92002A00F0E4801D980027F1
:10B980001A901B971B9E1D9C1A9F06EB860804EBC2
:10B990008800D0F85031D0F85421D0F85811D0F8A0
:10B9A0004861D0F84C51D7F80C803C69D7F8ACC04E
:10B9B000D7F8B000199F002F00F0B380B2464FEACD
:10B9C000EA7BCDE912AB2E464FEAE67792464FEA84
:10B9D000EA7B1C9DCDE90E67CDE90CAB1E464FEA14
:10B9E000E6778A464FEAEA7B0021CDE90A67CDE98E
:10B9F00008AB11951091814602E0DDF854809C4619
:10BA0000119B0F991E68C2464FEAEA7B15960AFB06
:10BA100001F5159862464FEAE27306464FEAE6776B
:10BA20000D98029502FB00F520464FEAE071CDE942
:10BA30000401129901FB07F448464FEAE071CDE991
:10BA400006010B9F0499099801FB07F9069F07FB64
:10BA500000F102980E9F169107FB0B0117910E99AA
:10BA6000AAFB0101DDF830A0CDE9020113980AFB21
:10BA7000035B06FB0047A2FB0A230A9DDDF814A026
:10BA8000049905FB0A99129CDDF81CA008980197FF
:10BA9000A4FB0667A1FB05451699CDF8009000FBB5
:10BAA0000A19CDF81090DDF81890DDF80CA0A9FB6C
:10BAB0000001DDF85C90CA44CDF80CA00BEB030943
:10BAC000DDE902AB12EB0A0249EB0B03DDF804B02F
:10BAD00012EB06095F44009E43EB0703049F7519B0
:10BAE00019EB040243EB05097918161849EB010319
:10BAF000DDF84090340D09F10109CDF8409011981E
:10BB0000109A199F44EA033340F8043BBA4211905B
:10BB10004446E146FFF471AF4446DDF85480604688
:10BB20009C461B9F1A9E7A1C1E9FC6F80C8034618F
:10BB3000C6F8ACC0C6F8B000103697421B921A96F1
:10BB40003FF620AF1999002933D01C98289C026831
:10BB50006000199C161206F30F0C1F9E611E012334
:10BB600019403218A342A6F800C022D259B11C9F36
:10BB700002237968091201F30F0C1999A2F800C089
:10BB800012188B4215D21C9C199F591C54F8215035
:10BB900054F823604B1C2912BB424FEA262C01F3B8
:10BBA0000F010CF30F0CA2F800C0115202EB40027F
:10BBB000EBD320B0BDE8F00F704700BFC0F84411D0
:10BBC000704700BF4FF00103438070474FF0000300
:10BBD0004380704780787047B4E400BFC0F84411D8
:10BBE000704700BF4AF22801C4F201010A686FF3EE
:10BBF00045020A600B6843F001024FF001030A603E
:10BC0000438070474AF22801C4F201010A684FF0EC
:10BC100000036FF300020A60438070474AF2280174
:10BC2000C4F201010B6813F0010301D118467047FB
:10BC30008078003818BF0120704700BF70B5A0247D
:10BC4000054600212246043021F0CEF905F1A4007A
:10BC500022460021BDE8704021F0C6B9EEE700BFE2
:10BC600000214FF4047221F0BFB900BFF8E700BF14
:10BC70002DE9F04F814689B0C8880D4614469A4692
:10BC800020F05CF94FF06A5120F0ACF9014607460C
:10BC900020F0A8F9064668881FF0FEFC0FF2184352
:10BCA000D3E900231FF05EFDCDE9040148461FF0F3
:10BCB000E3FC02460B46DDE904011FF07DFE20F0A7
:10BCC00033F81FF0FBFC804689461DF0AFFD0246AD
:10BCD0000B4640464946029201931DF05BFD20F061
:10BCE00023F8019B029A19468046104620F01CF862
:10BCF0008146B5F90400400020F020F94FF06A5168
:10BD000020F070F90146484620F020FAB5F90030DD
:10BD10008146042B72D8DFE813F07300E3004D0175
:10BD2000B00105004FF07E51404620F053F84FF02F
:10BD30007C51074620F056F94FF07E5105464846A3
:10BD400020F048F84FF040410646404620F04AF9BE
:10BD5000494680464FF07E5020F03AF807F1004BFC
:10BD600081462F46BAF1000F73D03146284620F0A5
:10BD7000EDF94FF0934120F035F920F0F9FA00F396
:10BD8000170231462260584620F0E0F94FF0934107
:10BD900020F028F920F0ECFA00F31700314660603B
:10BDA000384620F0D3F94FF0934120F01BF920F0F2
:10BDB000DFFA00F317014046A160314620F0C6F9D2
:10BDC00040F20001CCF6801120F00CF920F0D0FAFE
:10BDD00000F317033146E360484620F0B7F940F21C
:10BDE0000001CCF6801120F0FDF820F0C1FA00F33C
:10BDF00017020120226109B0BDE8F08F0020FAE7A8
:10BE0000314620F0EFF84FF07E5107461FF0E2FF79
:10BE10004FF040410546404620F0E4F8394683465D
:10BE20004FF07E501FF0D4FF31460746484620F0C1
:10BE30008DF94FF07E5180461FF0CCFF41460646FB
:10BE40004FF07E501FF0C4FFD8468146BAF1000F74
:10BE50008BD13146284620F079F94FF08F4120F000
:10BE6000C1F820F085FA00F31300314620605846EF
:10BE700020F06CF94FF08F4120F0B4F820F078FA00
:10BE800000F3130138466160314620F05FF94FF04E
:10BE90008F4120F0A7F820F06BFA00F3130331462E
:10BEA000A360404620F052F940F20001CCF28071CC
:10BEB00020F098F820F05CFA00F313023146E260BB
:10BEC000484620F043F940F20001CCF2807120F0A6
:10BED00089F820F04DFA00F31300206101208AE771
:10BEE0004FF07E5130461FF075FF4FF07E510490A9
:10BEF00030461FF06DFF4146069020F073F805466E
:10BF00002946049801951FF063FF3946079038468B
:10BF10001FF060FF494620F065F8844661460798A7
:10BF2000CDF80CC01FF056FF314620F05BF80499A5
:10BF30000546404620F056F83146804630461FF010
:10BF400049FF4146834606981FF042FF0146584686
:10BF500020F048F84FF040418346384620F042F840
:10BF6000494620F03FF803461946079802931FF010
:10BF700031FF314620F036F8019E074631460498DD
:10BF80001FF028FFDDF80CC08146494660461FF0CF
:10BF900021FF4146064606981FF01CFF4FF0404126
:10BFA00020F020F802998046084649461FF012FF0B
:10BFB0008146D7E64FF07E5130461FF00BFF4FF021
:10BFC0007E51049030461FF003FF4146069020F05A
:10BFD00009F803461946049801931FF0FBFE394601
:10BFE000079038461FF0F6FE49461FF0FBFF8446D7
:10BFF00061460798CDF80CC01FF0ECFE31461FF0EB
:10C00000F1FF0499054640461FF0ECFF4FF0404118
:10C01000804630461FF0E6FF4146834606981FF0F3
:10C02000D9FE014658461FF0DDFF4FF040418346E0
:10C0300038461FF0D7FF49461FF0D4FF0746394660
:10C04000079802971FF0C6FE31461FF0CBFF019AFA
:10C050000746114604981FF0BBFEDDF80CC0814670
:10C06000494660461FF0B6FE4146064606981FF058
:10C07000AFFE01461FF0AEFE94E741464FF07E5002
:10C080001FF0A6FE4FF07C5183461FF0ABFF4FF030
:10C090007E51054648461FF09DFE4FF04041064642
:10C0A00040461FF09FFF494680464FF07E501FF0EC
:10C0B0008FFE2F46814655E644174154FB21194017
:10C0C0002DE9F04F83B000908B4601929946002BEA
:10C0D00000F01F81019A4FEA510853884AF2300656
:10C0E00009F1FF374345C4F2010607F001074FF09D
:10C0F000000AC0F0D9800124019BA14503F1080585
:10C100003CD93FB169884145C0F0F580013408351C
:10C11000A14533D9374609E00835698801344145DE
:10C12000264619D3741C0835A14526D96888404590
:10C13000F2D200230AF1010A3A4658462946FFF78F
:10C1400097FDBAF1040F00F2E280083569880134E6
:10C15000143741452646E5D200230AF1010A3A4642
:10C1600058462946FFF784FDBAF1040F00F2CF804C
:10C17000741C14370835A145D8D83E46BAF1040FCF
:10C1800000F2CE800AF1010000224FF4803504282D
:10C1900035607260B260F26032610AF0010106F14E
:10C1A00014031AD849B1013004281A611D605A607D
:10C1B0009A60DA6006F128030FD8023003F1140107
:10C1C0005A609A60DA601A611D605D612833042844
:10C1D0000A614A608A60CA60EFD94AF22C00009B6B
:10C1E000C4F201004FF48032A145026003F5A47A45
:10C1F00040F29D80019FE64307EBC405B5F802C0FD
:10C2000006EB09084FEA5B06B44508F001074FF05A
:10C21000000856D301340835A14539D93FB1B5F8E6
:10C2200002C0B44559D301340835A14530D9294657
:10C2300007E07988B14219D30134A14507F108011B
:10C2400026D94B880134B34201F10807F1D201230A
:10C2500008F1010852465846FFF70AFDB8F1090FE8
:10C2600016D879880AF1140AB142E5D2012308F1FF
:10C270000108524658463946FFF7FAFCB8F1090F53
:10C2800006D80134A1450AF1140A07F10801D8D8EB
:10C290001FFA88F8009B0C98009AA3F80080C2F857
:10C2A000440103B0BDE8F08F3246534608464AF2D7
:10C2B00044060199FFF7DCFCC4F201064FF0010AC5
:10C2C00019E75246584629460123FFF7D1FC00984A
:10C2D0004FF0010800F5AE7A9CE7012308F1010850
:10C2E000584629465246FFF7C3FCB8F1090FCFD88C
:10C2F0000AF1140A97E70023A24458462946324619
:10C30000FFF7B6FCBAF1040F01D81436FEE601348B
:10C3100063E74AF23006C4F201061C469A4631E74A
:10C320004AF22C02C4F201024FF4803111604FF046
:10C330000008AFE72DE9F04F83B001908B4614461B
:10C3400000F5A47A9946002B6BD053884F0809F169
:10C35000FF36BB4206F001064FF0000848D3012526
:10C360000834A94539D986B1B4F802C0BC454BD3CD
:10C3700001350834A94508D82FE07188B9421AD38D
:10C380000135A94506F1080427D960880135B8426E
:10C3900004F10806F1D2012308F1010821465246B2
:10C3A0005846FFF765FCB8F1090F16D871880AF1F5
:10C3B000140AB942E4D2012308F101085246584652
:10C3C0003146FFF755FCB8F1090F06D80135A945EC
:10C3D0000AF1140A06F10804D7D81FFA88F8019A5E
:10C3E0000C9BA2F80080C2F8443103B0BDE8F08F86
:10C3F0005246084601232146FFF73AFC019D4FF0C3
:10C40000010805F5AE7AAAE7A844584621465246E7
:10C410002B46FFF72DFCB8F1090FDED80AF1140AFC
:10C42000A6E79846DBE700BF2DE9F04F83B0019304
:10C4300083460C469146002A00F098804B884FEACC
:10C4400050084AF23007561E4345C4F2010706F071
:10C4500001064FF0000A72D301250834A94537D9E7
:10C4600086B1B4F802C0C44574D301350834A94577
:10C4700008D82DE07188414519D30135A94506F149
:10C48000080425D960880135404504F10806F1D239
:10C4900000230AF1010A21463A465846FFF7E8FB15
:10C4A000BAF1040F42D8718814374145E5D2002310
:10C4B0000AF1010A3A4658463146FFF7D9FBBAF16C
:10C4C000040F33D801351437A94506F10804D9D82B
:10C4D000BAF1040F2AD80AF1010000224FF4803487
:10C4E00004283C607A60BA60FA603A610AF001019F
:10C4F00007F114031AD849B1013004281A611C60ED
:10C500005A609A60DA6007F128030FD8023003F10D
:10C5100014015A609A60DA601A611C605C61283309
:10C5200004280A614A608A60CA60EFD94AF22C0383
:10C53000019AC4F201031A6003B0BDE8F08F3A46D5
:10C5400053464AF24407FFF793FBC4F201074FF04A
:10C55000010A81E70023AA44584621463A46FFF7DC
:10C5600087FBBAF1040FE1D814377EE74AF23007AF
:10C570009246C4F20107AEE740F22002C4F2020282
:10C58000116842F2B80341EA40111160C4F200039D
:10C59000986840F010029A60704700BF42F2B403FE
:10C5A000C4F200031A68FF281DBF42F001021A609E
:10C5B0001A686FF3000218BF60F342021A607047F6
:10C5C00042F2B403C4F20003FF281A682ED042F0EE
:10C5D000080201281A601CD00ED302280BD142F2A7
:10C5E000B802C4F20002116841F4801010601968AA
:10C5F0006FF304111960704742F2B802C4F20002EE
:10C6000011686FF31451116018686FF3041018600B
:10C61000704742F2B802C4F2000210686FF314507F
:10C620001060196841F01000186070476FF3C30282
:10C630001A60704742F2B403C4F200031A68FF287C
:10C640001DBF42F080021A601A686FF3C71218BF4C
:10C6500060F309221A60704742F2B403C4F2000387
:10C660001A68FF281DBF42F480621A601A686FF3CF
:10C670008A2218BF60F3CC221A60704742F2B403DA
:10C68000C4F200031A68FF281DBF42F400521A606A
:10C690001A686FF34D3218BF60F38F321A6070471B
:10C6A00042F2B403C4F200031A68FF281DBF42F42B
:10C6B00080321A601A686FF3104218BF60F352425A
:10C6C0001A60704742F2B403C4F20003FF281A68EC
:10C6D00000F0438142F4002119601A6860F315529A
:10C6E0001A60032851D8DFE810F051009E00EB00DB
:10C6F000040072B642F23801C4F200010B6843F440
:10C7000080120A6062B672B642F24002C4F20002BF
:10C71000106820F48013136062B672B642F24403CC
:10C72000C4F20003186820F48010186062B672B674
:10C73000086840F48000086062B672B6106820F4A1
:10C740008000106062B672B6186820F4800018602D
:10C7500062B672B6086840F40010086062B672B63D
:10C76000106820F40011116062B672B6186820F4E7
:10C770000011196062B672B642F23C00C4F20000C9
:10C78000026842F40011016062B6704772B642F26C
:10C790001001C4F200010B6843F004020A6062B6A3
:10C7A00072B642F21802C4F20002106820F00403CC
:10C7B000136062B672B642F21C03C4F2000318683A
:10C7C00020F00400186062B672B6086840F01000ED
:10C7D000086062B672B6106820F01000106062B691
:10C7E00072B6186820F01000186062B672B6086859
:10C7F00040F00800086062B672B6106820F00801C8
:10C80000116062B672B6186820F00801196062B64D
:10C8100072B642F21403C4F200031A6842F0080030
:10C82000186062B6704772B642F21001C4F200019D
:10C830000B6843F400220A6062B672B642F2180234
:10C84000C4F20002106820F40023136062B672B6CE
:10C8500042F21C03C4F20003186820F400201860A0
:10C8600062B672B6086840F40010086062B672B62C
:10C87000106820F40010106062B672B6186820F4D8
:10C880000010186062B672B6086840F48010086044
:10C8900062B672B6106820F48011116062B672B68A
:10C8A000186820F48011196062B672B642F2140062
:10C8B000C4F20000026842F48011016062B6704761
:10C8C00072B642F23801C4F200010B6843F0200254
:10C8D0000A6062B672B642F24002C4F20002106808
:10C8E00020F02003136062B672B642F24403C4F231
:10C8F0000003186820F02000186062B672B608685D
:10C9000040F00800086062B672B6106820F00800B7
:10C91000106062B672B6186820F00800186062B63F
:10C9200072B6086840F01000086062B672B610680F
:10C9300020F01001116062B672B6186820F0100184
:10C94000196062B672B642F23C00C4F2000002689E
:10C9500042F01001016062B670476FF3D3421A6073
:10C96000704700BF42F2B403C4F200031A68FF2804
:10C970000CBF6FF3965242F480021A60704700BFFA
:10C9800042F2B403C4F200031A68FF281DBF42F448
:10C9900000021A601A686FF3D75218BF60F318626A
:10C9A0001A60704742F2B403C4F200031A68FF2809
:10C9B0001DBF42F000721A601A686FF3596218BF07
:10C9C00060F39B621A60704742F2B403C4F2000342
:10C9D0001A68FF281DBF42F080521A601A686FF370
:10C9E0001C7218BF60F35D721A607047FF2830B484
:10C9F0002DD042F21803C4F20003196842F21C025F
:10CA000041F07C441C60C4F20002156842F240040C
:10CA100025F07C45156042F244004FF0FF32C4F22D
:10CA200000042260C4F20000002242F23C010260D5
:10CA3000C4F2000142F2B4034FF480520A60C4F21F
:10CA40000003196841F08040186030BC704742F222
:10CA5000B403C4F200031A686FF39E721A60F4E71D
:10CA600042F2B803C4F200031A68FF281DBF42F067
:10CA700001021A601A686FF3000218BF60F34202E5
:10CA80001A60704742F2B803C4F200031A68FF2824
:10CA90001DBF42F008021A601A686FF3C30218BF84
:10CAA00060F305121A60704742F2B803C4F2000343
:10CAB0001968FF281DBF41F04001196019686FF324
:10CAC000861118BF60F3C8111960186840F400722D
:10CAD0001A60704742F2B803C4F20003FF281A68D4
:10CAE0000BD042F0400119601A6860F3C8121A6056
:10CAF000196841F40070186070476FF386121A606D
:10CB00001A6842F40071196018686FF38A2018607F
:10CB10001A686FF30C321A60704700BF42F2B80314
:10CB2000C4F200031A68FF281DBF42F400521A60C5
:10CB30001A686FF34D3218BF60F38F321A60704776
:10CB400042F2B803C4F200031A68FF280CBF6FF367
:10CB5000104242F480321A60704700BF42F2B803BC
:10CB6000C4F200031A68FF280CBF6FF3514242F46D
:10CB700000321A60704700BF42F2B803C4F20003EB
:10CB80001A68FF280CBF6FF3924242F480221A60A9
:10CB9000704700BF42F2B803C4F200031A68FF28CE
:10CBA0000CBF6FF3D34242F400221A60704700BFFB
:10CBB00042F2B803C4F20003986840F020029A6081
:10CBC000704700BF42F23413C4F20003186070478C
:10CBD00042F20003C4F2000343F82010704700BF84
:10CBE00042F20003C4F2000353F82000704700BF74
:10CBF000B1F5004F00F069811ED9B1F5000F00F0CA
:10CC00007A8138D9B1F1006F00F0F18040F2838071
:10CC1000B1F1005F00F0438100F2A481B1F1805FC7
:10CC200067D142F20003C4F2000353F8201041F030
:10CC3000805243F820207047802900F0518135D977
:10CC4000B1F5006F00F0E98047D9B1F5005F00F061
:10CC50001B81B1F5804F00F00C81B1F5805F48D1A8
:10CC600042F20003C4F2000353F8201041F4805252
:10CC700043F820207047B1F5002F00F01B8160D9E8
:10CC8000B1F5001F00F09280B1F5800F00F08380B5
:10CC9000B1F5801F2DD142F20003C4F2000353F816
:10CCA000201041F4801243F820207047082900F03A
:10CCB000A9801FD9202900F03481402900F0268165
:10CCC000102916D142F20003C4F2000353F82010D9
:10CCD00041F0100243F820207047B1F5007F00F0CA
:10CCE000BD80B1F5806F00F0AE80B1F5807F00F0BF
:10CCF0009F80704702296FD0042962D00129F8D1A2
:10CD000042F20003C4F2000353F8201041F0010284
:10CD100043F820207047B1F1007F00F01881B1F195
:10CD2000806F00F00981B1F1807FE2D142F200030F
:10CD3000C4F2000353F8201041F0807243F8202021
:10CD40007047B1F5003F1BD0B1F5802F0DD0B1F584
:10CD5000803FCED142F20003C4F2000353F820100A
:10CD600041F4803243F82020704742F20003C4F2BD
:10CD7000000353F8201041F4802243F8202070472C
:10CD800042F20003C4F2000353F8201041F40032D1
:10CD900043F82020704742F20003C4F2000353F826
:10CDA000201041F4800243F82020704742F2000333
:10CDB000C4F2000353F8201041F4001243F820207D
:10CDC000704742F20003C4F2000353F8201041F010
:10CDD000040243F82020704742F20003C4F200032B
:10CDE00053F8201041F0020243F82020704742F22D
:10CDF0000003C4F2000353F8201041F0006243F82E
:10CE00002020704742F20003C4F2000353F82010C0
:10CE100041F0080243F82020704742F20003C4F2B8
:10CE2000000353F8201041F4006243F820207047BB
:10CE300042F20003C4F2000353F8201041F4807260
:10CE400043F82020704742F20003C4F2000353F875
:10CE5000201041F4806243F82020704742F2000322
:10CE6000C4F2000353F8201041F4007243F820206C
:10CE7000704742F20003C4F2000353F8201041F45B
:10CE8000804243F82020704742F20003C4F20003BE
:10CE900053F8201041F4005243F82020704742F22A
:10CEA0000003C4F2000353F8201041F0005243F88D
:10CEB0002020704742F20003C4F2000353F8201010
:10CEC00041F4002243F82020704742F20003C4F2EC
:10CED000000353F8201041F4004243F8202070472B
:10CEE00042F20003C4F2000353F8201041F0800224
:10CEF00043F82020704742F20003C4F2000353F8C5
:10CF0000201041F4000243F82020704742F2000351
:10CF1000C4F2000353F8201041F0400243F82020EF
:10CF2000704742F20003C4F2000353F8201041F0AE
:10CF3000200243F82020704742F20003C4F20003AD
:10CF400053F8201041F0806243F82020704742F2ED
:10CF50000003C4F2000353F8201041F0007243F8BC
:10CF600020207047B1F1804F0ED0B1F1004F7FF417
:10CF7000C0AE42F20003C4F2000353F8201041F0A7
:10CF8000004243F82020B4E642F20003C4F200035A
:10CF900053F8201041F0804243F82020704700BF32
:10CFA000B1F5004F00F069811ED9B1F5000F00F016
:10CFB0007A8138D9B1F1006F00F0F18040F28380BE
:10CFC000B1F1005F00F0438100F2A481B1F1805F14
:10CFD00067D142F20003C4F2000353F820206FF33C
:10CFE0001C7243F820207047802900F0518135D908
:10CFF000B1F5006F00F0E98047D9B1F5005F00F0AE
:10D000001B81B1F5804F00F00C81B1F5805F48D1F4
:10D0100042F20003C4F2000353F820206FF30C32F5
:10D0200043F820207047B1F5002F00F01B8160D934
:10D03000B1F5001F00F09280B1F5800F00F0838001
:10D04000B1F5801F2DD142F20003C4F2000353F862
:10D0500020206FF3145243F820207047082900F075
:10D06000A9801FD9202900F03481402900F02681B1
:10D07000102916D142F20003C4F2000353F8202015
:10D080006FF3041243F820207047B1F5007F00F0E1
:10D09000BD80B1F5806F00F0AE80B1F5807F00F00B
:10D0A0009F80704702296FD0042962D00129F8D1EE
:10D0B00042F20003C4F2000353F820206FF3000291
:10D0C00043F820207047B1F1007F00F01881B1F1E2
:10D0D000806F00F00981B1F1807FE2D142F200035C
:10D0E000C4F2000353F820206FF3186243F82020A5
:10D0F0007047B1F5003F1BD0B1F5802F0DD0B1F5D1
:10D10000803FCED142F20003C4F2000353F8202046
:10D110006FF3104243F82020704742F20003C4F23C
:10D12000000353F820106FF3924143F8201070472A
:10D1300042F20002C4F2000252F820106FF3514193
:10D1400042F82010704742F20003C4F2000353F883
:10D1500020106FF3965143F82010704742F20002FE
:10D16000C4F2000252F820106FF3555142F820101B
:10D17000704742F20003C4F2000353F820106FF32B
:10D18000820143F82010704742F20002C4F200020C
:10D1900052F820106FF3410142F82010704742F21C
:10D1A0000001C4F2000151F820206FF3DB6241F866
:10D1B0002020704742F20001C4F2000151F8202003
:10D1C0006FF3C30241F82020704742F20001C4F21D
:10D1D000000151F820206FF3CB2241F82020704746
:10D1E00042F20003C4F2000353F820206FF3082238
:10D1F00043F82020704742F20003C4F2000353F8C2
:10D2000020106FF38A2143F82010704742F2000289
:10D21000C4F2000252F820106FF3492142F82010A6
:10D22000704742F20003C4F2000353F820106FF37A
:10D230008E3143F82010704742F20002C4F200021F
:10D2400052F820106FF34D3142F82010704742F22F
:10D250000002C4F2000252F820106FF35D7142F830
:10D260002010704742F20001C4F2000151F8202062
:10D270006FF3D34241F82020704742F20001C4F21C
:10D28000000151F820206FF3CF3241F82020704781
:10D2900042F20001C4F2000151F820206FF3C712DE
:10D2A00041F82020704742F20001C4F2000151F819
:10D2B00020206FF3D75241F82020704742F200033C
:10D2C000C4F2000353F820106FF3861143F82010C6
:10D2D000704742F20002C4F2000252F820106FF3CD
:10D2E000451142F82010704742F20003C4F20003D7
:10D2F00053F820106FF39A6143F82010704742F200
:10D300000002C4F2000252F820106FF3596142F893
:10D3100020107047B1F1804F0ED0B1F1004F7FF473
:10D32000C0AE42F20001C4F2000151F820206FF3B8
:10D33000DF7241F82020B4E642F20003C4F2000399
:10D3400053F820106FF39E7143F82010704700BF10
:10D3500072B642F20003C4F2000353F8202042EAFE
:10D36000010143F8201062B6704700BF72B642F266
:10D370000003C4F2000353F8202022EA010143F81D
:10D38000201062B6704700BF012A38B504460D462A
:10D390000ED0421CD0B2FFF703FE29462046FFF70D
:10D3A00027FC42F27803C4F200030121196038BD62
:10D3B0000130C0B2FFF71CFCEFE700BFF0E500BF93
:10D3C000C11C42F20003C8B2C4F2000353F82000AB
:10D3D000704700BF40F21403C4F2020318607047A4
:10D3E00042F25440C0F20400704700BF0378413B52
:10D3F000162B11D8DFE803F01B1010526273108552
:10D40000101010108F1010101010A3101010120018
:10D410008278412A00F089800020704743784D2BA4
:10D42000F6D0412BF8D18378562BF5D17DE04178A9
:10D4300032391729F0D801A252F821F0A3D5000003
:10D4400019D4000019D4000019D4000019D4000028
:10D4500019D4000019D4000019D4000019D4000018
:10D4600019D4000019D4000019D4000019D4000008
:10D4700019D4000019D4000085D5000019D400008B
:10D4800019D4000071D5000019D4000019D400008F
:10D4900019D4000019D4000053D500004378412B63
:10D4A00000F089804F2BB7D147F67573C0F27C032B
:10D4B000197881F0010C0CF0010070474378462B7D
:10D4C00000F083804E2BA7D147F67473C0F27C0323
:10D4D00093F800C08CF00801C1F3C000704790F8C9
:10D4E00001C0BCF14C0F97D18378412B94D147F602
:10D4F0007572C0F27C02117881F00800C0F3C000A0
:10D50000704747F67471C0F27C01087880F0010220
:10D5100002F001007047417850297FF47DAF90F808
:10D5200002C0BCF1330F7FF477AF47F67572C0F2DB
:10D530007C02117881F00200C0F34000704747F68A
:10D540007473C0F27C031A7882F0040CCCF3800070
:10D5500070478278462A7FF45FAF47F67573C0F252
:10D560007C0393F800C08CF01000C0F300107047EB
:10D5700047F67470C0F27C00017881F0200CCCF387
:10D58000401070478278432A7FF446AF47F67571A2
:10D59000C0F27C0191F800C08CF00403C3F380005A
:10D5A000704747F67473C0F27C031A7882F0020069
:10D5B000C0F34000704747F67470C0F27C000278F8
:10D5C00082F01001C1F300107047C379562B12D0BE
:10D5D000452B7FF421AF90F808C0BCF1430F7FF4D6
:10D5E0001BAF47F67470C0F27C00027882F04003F3
:10D5F000C3F380107047027A422A7FF40DAF47F6DA
:10D600007471C0F27C0191F900006FEA00004FEAEA
:10D61000D070704710B504460EF04AFAC0F30713F5
:10D6200000F00F00984201D0802010BD002CFBD0EC
:10D63000A04201D0042010BD02380328F4D8DFE84E
:10D6400000F008060402102010BD202010BD40206C
:10D6500010BD082010BD00BF10B547F66973C0F2B9
:10D660007C031C78FFF7D6FF204214BF0020012066
:10D6700010BD00BF70B5A0F11605EBB2012B04463A
:10D680000E4640F28380A0F11801C8B201282AD9C1
:10D69000192C05D0032D21D8DFE805F068633D146F
:10D6A00042F2B403C4F200031A6812F4806FF1D09E
:10D6B0001868C0F3C12CBCF1010F03D119686FF3D6
:10D6C0008A21196042F24413C4F200031A6822F45A
:10D6D00080711960186820F020021A60002E2CD08A
:10D6E000012E48D070BD0020014600F0EFFA182C42
:10D6F000CED142F2B403C4F200031A6812F0800FD4
:10D70000C8D01868C0F3012CBCF1010F03D119680F
:10D710006FF3C711196042F24413C4F20003196891
:10D7200021F4007018601A6822F00301196018686B
:10D7300020F040021A60002ED2D1012313FA04F423
:10D7400003202146FFF72CFC02202146FFF750FA68
:10D7500006202146FFF74CFA21460720BDE870401D
:10D760001EE442F24813C4F20003AFE742F248134A
:10D77000C4F20003D3E716FA04F403202146FFF7AE
:10D7800037FA02202146FFF70BFCE1E700200146B3
:10D790000DF05EFD7EE700BF022870B504460D4621
:10D7A0005BD0012800D070BD42F2B403C4F2000384
:10D7B0001A6812F4806F08D01968C1F3C1200128DB
:10D7C00002BF18686FF38A20186042F2B403C4F2F3
:10D7D00000031A6812F0800F08D01968C1F3012005
:10D7E000012802BF18686FF3C710186003204FF0BC
:10D7F0008071FFF7D5FB02204FF08071FFF7D0FB5F
:10D8000006204FF08071FFF7CBFB07204FF08071AF
:10D81000FFF7EEF903204FF00071FFF7C1FB022084
:10D820004FF00071FFF7BCFB06204FF00071FFF7CF
:10D83000B7FB07204FF00071FFF7DAF9D5F10100CF
:10D8400038BF0020012D14BF0021012100F03EFA55
:10D850000120BDE8704008F015BB03204FF48001A3
:10D86000FFF79EFB20464FF48001FFF799FB06204F
:10D870004FF48001FFF794FB07204FF48001FFF77E
:10D88000B7F903204FF40001FFF78AFB20464FF45D
:10D890000001FFF785FB06204FF40001FFF780FB36
:10D8A00007204FF40001FFF7A3F9D5F1010038BFBD
:10D8B0000020012D14BF002101210DF0C9FC2046DC
:10D8C000BDE8704008F0DEBA10B5044602F03CFB3B
:10D8D00042F2002242F214230021C4F20202C4F2F6
:10D8E000020311601960032C0ED8DFE804F0020275
:10D8F0001E1742F2102242F20C230021C4F202024F
:10D90000C4F202031160196042F20023C4F2020360
:10D9100001211960BDE8104002F024BB42F210233F
:10D92000C4F2020303211960EEE742F21022C4F2AE
:10D93000020242F20C2300211160C4F2020303220E
:10D940001A60E1E708B542F2B403C4F20003FF280D
:10D950001A6839D042F0200201281A6027D00ED36D
:10D9600002280BD142F2B802C4F20002116841F45D
:10D970000010106019686FF38611196008BD42F23B
:10D98000B802C4F20002116800206FF35551116013
:10D990001A686FF386121A60FFF796FF40F234138D
:10D9A000C4F20203196821F00200186008BD42F2B7
:10D9B000B802C4F2000210686FF355501060196885
:10D9C00041F04000186008BD6FF345121A6008BDB1
:10D9D00070B5054602F0B8FA04460120FFF774FF5F
:10D9E00042F21423C4F2020320461D60BDE87040D9
:10D9F00002F0B8BA38B504460D4672B64FF400606E
:10DA00000AF0CAFDA01C2946C0B2FFF7F1F84FF496
:10DA100000600AF0B3FD62B638BD00BFF0B448F252
:10DA20001404C4F201042568BDF8107015F008054F
:10DA300034D149F21C2600FB03F3C0F2010606FBB9
:10DA400000F044F6D35CC1F2620C8CFB036C90FBDB
:10DA5000F1F048F2180640EA0240C4F201063060D4
:10DA6000D817C0EBAC1CA3684FF47A5000FB02F24D
:10DA700001FB07F16CF30D03A360A06892FBF1FCBE
:10DA80006CF31940A0602368284643F0010222602D
:10DA9000216841F002032360F0BC70470120FBE7DE
:10DAA00030B448F21404C4F20104256815F00805E6
:10DAB00025D149F21C2CC0F2010C0CFB00F090FBAC
:10DAC000F1FC1FFA8CF0A08060684FF47A5C0CFBCC
:10DAD00002FC01FB03F162F31B406060A0689CFB49
:10DAE000F1F363F31940A0602268284665F3000251
:10DAF0002260216841F00203236030BC704701209E
:10DB0000FBE700BF10B582B08C46BDF8104011464F
:10DB100062460094FFF782FF003818BF012002B070
:10DB200010BD00BF48F21403C4F201031A6812F0DA
:10DB3000010F02BF1A6842F004021A60704700BF6A
:10DB400044F22C63C4F200031868C0F380007047ED
:10DB500044F22C63C4F200031868C0F3400070471D
:10DB600071B642F24413C4F20003186840F0030295
:10DB70001A6061B6704700BF71B642F24413C4F236
:10DB80000003186820F003021A6061B6704700BFF6
:10DB900042F24413C4F20003186810F0030018BFE7
:10DBA0000120704771B642F24413C4F200031868B2
:10DBB00040F060021A6061B6704700BF71B642F271
:10DBC0004413C4F20003186820F060021A6061B6C2
:10DBD000704700BF42F24413C4F200031868C0F358
:10DBE0008010704771B642F24413C4F20003186803
:10DBF00040F440721A6061B6704700BF71B642F2DD
:10DC00004413C4F20003186820F440721A6061B62D
:10DC1000704700BF71B642F24413C4F200031868A3
:10DC200040F080021A6061B6704700BF40F2F653C0
:10DC3000C2F20003187820B15878D0F1010038BF43
:10DC40000020704740F2F653C2F20003987070470C
:10DC500040F2F653C2F20003DA78BAB15A78511F93
:10DC6000C8B2022812D844F20C3042F6E912C4F2CB
:10DC70000000C2F20002017892F800C08C4507D083
:10DC800011704FF4FA71998001207047002070479D
:10DC90009888C0B99A784FF4FA7CA3F804C092B17E
:10DCA00071B642F24412C4F20002116821F003017D
:10DCB000116061B671B6116821F06001116061B642
:10DCC0000821597070470120704700BF40F2F65399
:10DCD000C2F20003D9701870704700BFF8B540F267
:10DCE000F654C2F200042278002A3CD1E378002BDB
:10DCF00075D071B642F24411C4F200010D6845F4CA
:10DD00004070086061B642F24415C4F2000528680C
:10DD100010F0030F3CD1617840F2F650C2F20000DF
:10DD200000297DD144F22C63C4F200031A6812F07A
:10DD3000040F4CD11B6813F0040148D147F6B043DF
:10DD4000C2F200031A8802F1010CC72AA3F800C02E
:10DD500062D942F6E9121980C2F2000202210123BF
:10DD600041705370F8BDE378002BC2D171B642F216
:10DD70004411C4F200010D6825F44070086061B6DA
:10DD800042F24415C4F20005286810F0030FC2D017
:10DD9000627840F2F653072AC2F2000305D0072149
:10DDA00040F6B83C5970A3F804C042F24412C4F2E1
:10DDB0000002116811F0030F2FD0A28840F2F65331
:10DDC000C2F20003002A27D0511E9980F8BD47F601
:10DDD000B041C2F200014FF000000880F8BDF8BD6C
:10DDE000032900F09480042900F0A280052900F0A6
:10DDF000B580062900F0E0800729D6D0082971B641
:10DE000042F24413C4F200031A6824D042F06000C6
:10DE1000186061B602226270F8BD06206070CCE71F
:10DE2000012939D144F22C63C4F200031A6812F0BC
:10DE3000040F2ED01B6813F002012AD147F6B0431D
:10DE4000C2F200031A8802F1010C642AA3F800C090
:10DE5000E2D94170F8BD22F00300186061B671B6D6
:10DE60001A6822F06001196061B644F22C60C4F2B5
:10DE70000000026812F0040FCED071B6196821F0CC
:10DE80000300186061B671B61A6842F0600119604B
:10DE900061B602236370F8BD0229A1D171B6296869
:10DEA00041F06001296061B644F22C61C4F20001C6
:10DEB0000D6815F0040F0DD0096811F0020109D1A9
:10DEC000002AA9D047F6B043C2F20003012219800C
:10DED0004270F8BD002B9FD047F6B243C2F2000358
:10DEE0001888411CB0F5FA6F198095D34FF0000CDB
:10DEF000A3F800C071B642F24413C4F200031968DB
:10DF000021F06000186061B603226270F8BD44F22F
:10DF10002C66C4F20006376817F0040731D071B6DA
:10DF2000286840F060022A6061B602216170F8BD85
:10DF300044F22C62C4F20002116811F0040FEED119
:10DF400047F6B043C2F200031888411CB0F5FA7FCF
:10DF500019807FF661AF06216170F8BD44F22C6034
:10DF6000C4F20000026812F0040FF4D047F6B04388
:10DF7000C2F200031A88501C322A18807FF64CAF78
:10DF8000CDE771B62A6842F00301296061B602202C
:10DF900007F0F8FB336813F0040F71B6286820F01F
:10DFA00003022A6061B6BAD047F6B043C2F200035A
:10DFB00004201F806070F8BD2B6813F0400F01D063
:10DFC0000221617044F22C60C4F20000026812F079
:10DFD000040F3FF421AF05236370F8BD08B528B1E5
:10DFE000002116221FF000F8012008BD08BD00BF67
:10DFF00038B50446F8B1002505750573457385737A
:10E00000C573057245728572C57210F039F84CF609
:10E01000CD4CCCF6CC4CACFB0023DA0EC3F3C700DE
:10E02000C3F3C721C3F3C743207165756171A37141
:10E03000E271012038BD38BD10B50446B0B10022F0
:10E04000027510F01DF84CF6CD4CCCF6CC4CACFB68
:10E050000023D80EC3F3C701C3F3C722C3F3C743DA
:10E06000E07121716271A371012010BD10BD00BF6C
:10E0700070B50D46D0F1010138BF0021312D98BF98
:10E0800041F001011646044609B1002070BD162278
:10E090001EF0AAFFC5F307422B0EC6F3074CC5F3CB
:10E0A0000721300EC6F3072EA27084F812C06170EB
:10E0B000E37084F811E0E074267425700FF0E0FF3F
:10E0C0004CF6CD4CCCF6CC4CACFB0023D80EC3F3B5
:10E0D000C701C3F3C722C3F3C743E0712171627163
:10E0E000A371012070BD00BFF8B5044658B1427A53
:10E0F00090F808C0817A4CEA0220E27A40EA0143B3
:10E1000053EA026201D10020F8BD0FF0B9FF237A73
:10E11000627AA17A43EA022C0646237DE07A4CEA31
:10E12000014545EA0065BBB14CF6CD40CCF6CC408C
:10E13000A0FB0636617B94F80CC0A27B4CEA012E52
:10E14000E07BC5EBD6054EEA024343EA006105EBEE
:10E150008505C1EB4500F8BD217B94F80DC0A27B7D
:10E1600041EA0C2094F80FE040EA024747EA0E67C4
:10E170000FF086FF4CF6CD43CCF6CC43A3FB002337
:10E1800094F804C06179A0794CEA0122E17942EA6D
:10E19000004C4CEA0162DB08934223D39B1A03EB49
:10E1A000830C07EB4C07C7F30722380EC7F3074E63
:10E1B000627384F80EE0E07327730FF061FF4CF692
:10E1C000CD43CCF6CC43A3FB0021CA0EC1F3C7005C
:10E1D000C1F3C72CC1F3C743207184F805C0A371F4
:10E1E000E271A1E7617DD043013161751B18D6E76B
:10E1F00038B50446002853D090F808C090F809E0DC
:10E20000817AE27A4CEA0E2040EA014353EA026244
:10E2100048D0627B217BA07B41EA022C94F80FE07E
:10E220004CEA004545EA0E650FF02AFF4CF6CD4357
:10E23000CCF6CC43A3FB002361792279A07942EA92
:10E24000012CE1794CEA004242EA0162DB08934288
:10E250003CD39B1A03EB830205EB42052B0EC5F35F
:10E26000072CC5F3074E84F80DC084F80EE0E37365
:10E2700025730FF005FF4CF6CD41CCF6CC41A1FB48
:10E2800000234FF0010CDA0EC3F3C700C3F3C7211C
:10E29000C3F3C74384F814C020716171A371E271A4
:10E2A000002038BD0FF0ECFE4CF6CD4CCCF6CC4C3B
:10E2B000ACFB0023DA0EC3F3C700C3F3C721C3F3DB
:10E2C000C74320726172A372E272D2E7617DD043CC
:10E2D000013161751B18BDE7D0F1010338BF002380
:10E2E000312998BF43F0010370B504469BB9037D03
:10E2F0000A0EC1F30725C1F3074C457080F802C030
:10E30000C27001700BB9012070BDFFF795FE204669
:10E31000BDE870406CE7002070BD00BF10B504463A
:10E3200008B1037D03B910BD0FF0AAFE4CF6CD4332
:10E33000CCF6CC43A3FB002361792279A07942EA91
:10E34000012CE1794CEA004242EA0162DB08934287
:10E3500034D39B1A94F800C06278A0784CEA022E5D
:10E36000E1784EEA004242EA016E03EB830CBEEB19
:10E370004C0FD8D894F810C0627CA17C4CEA0220E3
:10E3800094F813E040EA014353EA0E6301D02046BB
:10E3900098470FF075FE4CF6CD4CCCF6CC4CACFB50
:10E3A0000023D80EC3F3C701C3F3C72CC3F3C7437D
:10E3B000E071217184F805C0A37110BD617DD04367
:10E3C000013161751B18C5E747F6E043C2F200034F
:10E3D0005888704747F6E043C2F200035868704718
:10E3E00042F6EC13C2F200031860704770B540F2B9
:10E3F000FC51C2F20001CB7B90B0282B044602D026
:10E40000012010B070BD0028FAD06E4601E0002C4B
:10E41000F6D0402C98BFE5B247F6B44088BF4025FF
:10E42000C2F2000069462A4642F2107300F0B0FEC4
:10E43000641BA4B20028EAD1E3E700BFF0B540F2C4
:10E44000FC54C2F20004E37B85B0282B04BF42F6E3
:10E45000EC13C2F20003A1600D46064608BF9D887A
:10E4600007F038FDF8B147F6EC4040F2FC51C2F23B
:10E470000000C2F200011F2240F6B83300F030FE67
:10E48000A0B907F027FD70B147F6EC4040F2FC510F
:10E49000C2F20000C2F200011F2240F6B83300F0C1
:10E4A0001FFE002830D1002005B0F0BD48F20C035B
:10E4B000C2F20003198841F63D62914252D085B103
:10E4C00094F90CC0BCF1000F5FDB47F6EC40C2F2E0
:10E4D000000031462A4642F2107300F001FE002887
:10E4E000CFD047F6B440C2F200006946102240F691
:10E4F000B8336F4600F04CFE002864D09DF80C0045
:10E500000028BED10120CFE748F20C03C2F200037D
:10E51000198841F63D6291422ED085B194F90CE004
:10E52000BEF1000F5DDB47F6EC40C2F20000314661
:10E530002A4642F2107300F0D3FD0028B3D047F60C
:10E54000B440C2F200006946102240F6B8336C466F
:10E5500000F01EFE002861D09DF80C30002BA2D1E7
:10E560000120A1E7B3F802E042F293039E45A6D151
:10E57000962007F007F9A2E7588842F2930C60450D
:10E58000CBD1962007F0FEF8C7E742F6EC17C2F2AF
:10E590000007F888FFF72AFF47F6B440C2F20000F0
:10E5A00031462A4642F2107300F0F2FD002843D1B2
:10E5B00047F6B4406946102240F6B833C2F2000074
:10E5C00000F0E6FD5DE747F6B440C2F200006946A0
:10E5D000102240F6B83300F0DBFD00283FF451AFC5
:10E5E0008CE742F6EC14C2F20004E088FFF7FEFE6E
:10E5F00047F6B440C2F2000031462A4642F2107398
:10E6000000F0C6FDE0B947F6B4406946102240F676
:10E61000B833C2F2000000F0BBFD44E747F6B44057
:10E62000C2F200006946102240F6B83300F0B0FD97
:10E6300000283FF438AF8FE73889FFF7D7FE50E75F
:10E640002089FFF7D3FE7AE72DE9F84542F6EC146E
:10E65000C2F20004A37A0546884617461BB9002576
:10E660002846BDE8F88507F035FC0028F7D047F6C6
:10E67000E046C2F200067088B0F5007FEFD87168FE
:10E68000A942ECD340F2FC5AC2F2000A1022002147
:10E690000AF10F001EF0A8FC28022A06290A00F43D
:10E6A0007F0342EA15621A4301F47F4073787E02C9
:10E6B000024306F47E414FF02A0C002640460A250C
:10E6C0008AF80E508AF80FC0CAF811208AF80D3067
:10E6D0008AF817708AF80C60FFF7B0FE31460546DD
:10E6E00004F10C0007F02EF8BAE700BF70B540F255
:10E6F000FC54C2F2000405460021102204F10F0070
:10E700001EF072FC002347F6B8400622C2F2000059
:10E710001946A27365732373BDE870408EE600BF8F
:10E7200070B540F2FC54C2F20004064600211022EB
:10E7300004F10F001EF058FC47F6B8450C221223D6
:10E74000C2F20005A2730322E27319466FF07F0242
:10E75000284622736673E374FFF770FE08B9012040
:10E7600070BDA878023818BF012070BD70B540F2A6
:10E77000FC54C2F2000405460021102204F10F00EF
:10E780001EF032FC0A2347F6B840A37325226FF02F
:10E790007F03C2F200000821E27323736573BDE8B2
:10E7A00070404BE670B540F2FC54C2F200040546DE
:10E7B0000021102204F10F001EF016FC0A220C2387
:10E7C000A27347F6B8402322E273C2F200006FF052
:10E7D0007F02194622736573E374BDE870402DE62D
:10E7E00070B540F2FC54C2F200040546002110222C
:10E7F00004F10F001EF0F8FB06222423A27347F653
:10E80000B8401222E273C2F200006FF07F02194694
:10E8100022736573E374BDE870400FE600B542F201
:10E82000784183B047F6E043C2F200036A464FF0F6
:10E83000000CC0F2040103C983F800C082E80300A1
:10E8400068461946012200F0FDFD03B000BD00BF7F
:10E850002DE9F04748F20C05C2F200052A8847F678
:10E86000E04448F244630020C2F200049A4286B0B9
:10E870006060206000F0D68032200FF009FCFFF7C6
:10E88000CDFF32200FF004FCB5F8008048F244655B
:10E8900048F20C03A845C2F2000300F0AF804FF02D
:10E8A000000A47F6B84747F6E049C2F20007C2F24D
:10E8B0000009D046554607F00DFBD0B12846FFF7BA
:10E8C0008FFF064605200FF0E3FB4EB13A783AB9C8
:10E8D000B8F1000F00D1657023788BB94FF00108B3
:10E8E0002846FFF71DFF013594F800C0EDB2AC4596
:10E8F000E1DAB8F1000F27D1002006B0BDE8F087BB
:10E900002846FFF74FFF2846FFF730FF0028E5D0E5
:10E91000BAF1000F40F0998038680206030242EA1B
:10E92000106103F47F02030A03F47F4E41EA020000
:10E9300040EA0E0CBCF5805F82BF4FF0010A89F8F7
:10E940000150D046CCD8C9E742F6EC15C2F200051A
:10E950000A200FF09DFB95F819804CF2503742F2D7
:10E96000107003AEB8F1000F14BF394601463046AF
:10E9700006F0E8FE95F819A06846BAF1000F14BF3A
:10E9800039464FF4FA6106F0DDFE47F6E04AE84604
:10E99000C2F2000A07F09EFA0028ADD047F6E04721
:10E9A0006078C2F20007FFF7A1FE002851D19AF863
:10E9B0000100FFF7B5FE074620B9684606F0D0FE15
:10E9C000002867D1304606F0CBFE074658B193E7E2
:10E9D00005200FF05DFB2B6813B1984700288BD101
:10E9E0000137242FD6D005200FF052FB2B680137BA
:10E9F000002BEDD098470028EAD07DE7B3F80290CD
:10EA000048F2033AD1457FF44AAF42F6EC11C2F224
:10EA10000001087E00283FF442AF4FF496700FF0DB
:10EA200037FB3CE7698848F20337B9427FF424AFEB
:10EA300042F6EC13C2F200031A7E002A3FF41CAF28
:10EA40004FF496700FF024FB16E74FF0010AD04602
:10EA500046E77878FFF78AFE00283FF44DAF0F4A6B
:10EA6000012052F8063C12884FEA036E19024EEA62
:10EA7000136C01F47F0E1B0A4CEA0E0103F47F4372
:10EA80004FEA122C4CEA022E41EA03037B60A7F8FE
:10EA900002E032E70121A97638462EE7BE7C00204D
:10EAA00038B507F017FA98B942F6EC14C2F2000430
:10EAB00000F026F942F6EC1500F010FE0023A376D4
:10EAC000C2F20005A37207F005FAD8B9002038BDDC
:10EAD00042F6EC14C2F2000440F2E7351D4806F09D
:10EAE00029FEA842FAD900F00BF942F6EC1500F025
:10EAF000F5FD0023A376C2F20005A37207F0EAF940
:10EB00000028E3D032200FF0C3FA00F0F9F85020CB
:10EB10000FF0BEFA00F0F4F83C200FF0B9FA0DF057
:10EB200017FF0028D2D02B6813B198470028CDD109
:10EB3000E07E42F6EC140128C2F2000406D0FFF792
:10EB400087FE0028C2D00120A07238BD0021E176E6
:10EB500038BD00BFF82900202DE9F04F42F6EC1433
:10EB6000C2F20004A37A83B005468A46164623B94A
:10EB70000023184603B0BDE8F08F07F0ABF900287A
:10EB8000F6D047F6E047C2F200077B887202B3F581
:10EB9000007FA28019D0590AC8B2421E02EA0508B5
:10EBA0005FFA88F3C3F1000806EB020EC6EB080912
:10EBB0000EEB030C09EA020256029CFBF0F05B022A
:10EBC0002681B5FBF1F5E380C6B2796847F6E049E6
:10EBD0008D42C2F20009CBD840F2FC58C2F20008C4
:10EBE0000021102208F10F001EF0FEF9B4F804C055
:10EBF000B4F806B02A0228060CEB0B0140EA1560B7
:10EC000002F47F0C2D0A40EA0C0205F47F4B42EA25
:10EC10000B052389009599F801C0C818009B4FF097
:10EC2000280B6FF07F090A2581B2C8F811305046D1
:10EC300088F80DC088F80FB088F8176088F80C9035
:10EC400088F80E50FFF7FAFB0346002834D1C64679
:10EC5000CB46B046A94601903125764607F03AF9F1
:10EC600048B3FFF71DFF28B9A17E21BB6B1E15B36A
:10EC7000DDB2F3E71022002114481EF0B5F9A08898
:10EC8000E288238981184FF02802C81897F801C03C
:10EC9000F273009B0E4A81B21360504686F80DC095
:10ECA00086F8178086F80CB086F80E90FFF7C6FB42
:10ECB00001280190DAD1019B4FF0000EA4F808E082
:10ECC000A4F806E0A4F804E053E700BF0B06002018
:10ECD0000D0600200120704744F21233C4F20003F5
:10ECE000187800F0FE021A70704700BF44F2123329
:10ECF000C4F20003197881F0010000F001007047B0
:10ED000010B544F20134C4F2000494F800E01E206F
:10ED10004EF0080C84F800C00FF0BAF9217844F2E4
:10ED2000003301F0F7002070C4F200030022142029
:10ED30001A70BDE810400FF0ABB900BF10B5044623
:10ED400007F0C8F830B16378052B34D0032B60D0BE
:10ED5000012B00D010BD44F20E32C4F20002052196
:10ED6000117094F800C044F21C3044F21D324CF093
:10ED7000100EC4F20000C4F2000280F800E013702C
:10ED8000648844F21431C4F2000144F212320C805F
:10ED9000C4F2000210884DF6FF7CC0F2000C44F271
:10EDA000163100EA0C0EC4F200016FF04F03A2F816
:10EDB00000E00B7010BD44F20E32C4F200020120DC
:10EDC0001070237844F21C3144F21D3243F0200CC1
:10EDD000C4F20001C4F2000281F800C044F214330E
:10EDE00010706488C4F2000344F212321C80C4F232
:10EDF000000210884DF6FF7CC0F2000C44F2163180
:10EE000000EA0C0EC4F200013023A2F800E00B70FF
:10EE100010BD44F20E30C4F20000037094F800C03C
:10EE200044F21C3144F21D324CF0300EC4F20001A9
:10EE3000C4F20002012081F800E044F214331070A3
:10EE4000CFE700BF10B542F2804482B0C0F20404A4
:10EE50006B4694E8030083E8030044F20E32C4F2E8
:10EE600000021278002A48D044F21C33C4F2000396
:10EE700093F800C044F212320CF00F018DF8041028
:10EE8000C4F20002108810F4005F02BF6FEA416113
:10EE90006FEA51618DF8041044F20E33C4F200039E
:10EEA000002044F21234C4F200041870B4F800C018
:10EEB0004FF6FB72C0F200020CEA020EA4F800E06A
:10EEC0000822694609F068FF21880A200143218051
:10EED0000FF0DEF823880A2043F0600CA4F800C08D
:10EEE0000FF0D6F822884FF69E70C0F2000002EABA
:10EEF00000012180012002B010BD8DF80420CBE775
:10EF000070B54378022B00D070BD44F20E344FF040
:10EF1000040EC4F2000484F800E0007844F21A36CB
:10EF200044F21B3540F0100C44F21033012044F23F
:10EF30001234C4F20006C4F2000586F800C0C4F220
:10EF400000042870C4F200034FF0C00042F2480CE5
:10EF500018807046A4F800C009F01EFF217841F027
:10EF60000100207070BD00BF2DE9F04585B001ADF6
:10EF70000446284606F0E6FB44F2123644F26038B6
:10EF800044F21637C4F20006C4F20008C4F20007C7
:10EF9000032C36D0042C53D0D4F1010038BF00200C
:10EFA000022C08BF40F0010000283AD0337844F228
:10EFB000123213F0100AC4F200026CD113F0040FE5
:10EFC00075D113F0020F2AD0284606F0C9FB18B9F4
:10EFD00006F080FF0028DBD144F21635C4F20005AC
:10EFE0002878032C20F0210C4CF001022A703BD031
:10EFF00044F21231C4F200010020087005B0BDE8EF
:10F00000F0853B7844F2163213F0040AC4F2000291
:10F0100033D113F0400F35D113F0010FD4D00120BC
:10F02000ECE7012C0AD1338844F2123213F0100FAE
:10F03000C4F2000236D113F0040FEDD00020DDE75A
:10F04000337844F2123213F0040AC4F2000241D1C0
:10F0500013F0200F34D113F0010FE0D098F8002006
:10F060005D2AB1D00020C9E7322006F08BFB2B7857
:10F0700013F0010FBCD00120C0E703F0DF031370D1
:10F080000020BBE743F0800101F0DF001070FFF7C4
:10F09000D9FE5046B2E792F800C000200CF0EF0114
:10F0A0001170ABE7117801F0DF031370A6E792F857
:10F0B00000E00EF0FD001070FFF7C4FE50469DE723
:10F0C00043F0800303F0FE0E82F800E0FFF7BAFE83
:10F0D000504693E703F0FE0C82F800C000208DE755
:10F0E0002DE9F84506460D4614469A4606F0F2FE0E
:10F0F00010B17378062B02D00020BDE8F88544F2E9
:10F100000E310222C4F200010A7096F800C044F2E7
:10F110001A334CF02007C4F200031F70778844F2C2
:10F12000103044F21233C4F20000C4F2000342F281
:10F13000080207801A8044B3984601E02CB3778810
:10F14000A7428CBFE7B2FFB229463A46022009F037
:10F1500023FE98F80000514640F0010388F8003083
:10F160000420FFF701FFE41B44F21233A4B2ED19AF
:10F17000C4F200030028E1D1197801F0FE0C4CF034
:10F18000080E83F800E0BDE8F8850120BDE8F885A9
:10F190002DE9F04F83B006460D461446994606F019
:10F1A00099FE30B17078052809D0032868D001286D
:10F1B00045D04FF0000B584603B0BDE8F08F44F245
:10F1C0000E330120C4F20003187096F800C044F218
:10F1D0001C3144F21D324CF0200BC4F20001C4F289
:10F1E000000281F800B01070B6F802E044F2143367
:10F1F000C4F2000344F21232A3F800E0C4F20002A9
:10F2000011884DF6FF7CC0F2000C01EA0C0344F2B9
:10F2100016311380C4F2000191F800B01BEA000B14
:10F220004CD044F21832C4F2000292F800B02946E1
:10F230005C4538BFA3465A4609F002FEBBE744F2DC
:10F240000E320520C4F2000244F216361070C4F2E9
:10F25000000696F800E01EF0010FAAD044F2183123
:10F26000C4F20001B1F800B029465C4538BFA3469E
:10F270005A4609F0E5FD6FF06F0C86F800C09AE77A
:10F2800044F20E31C4F2000144F216360870C4F2A2
:10F29000000696F800B01BF0010F8AD044F2183334
:10F2A000C4F2000393F800B029465C4538BFA3467A
:10F2B0005A4609F0C5FD102030707CE74FF0100071
:10F2C0000880002C3FF475AF44F21833C4F20003F9
:10F2D0008A4601939AF800C049460CF0FE0848F0AF
:10F2E000200E03208AF800E0FFF73EFE44F21638B5
:10F2F000C4F20008294600283FF45DAF01987288E7
:10F300000778BC4238BF2746BA4215D83A46012092
:10F3100009F096FD9AF80020E41B42F0100C07EB70
:10F320000B010CF0FE03A4B28AF80030ED191FFAAD
:10F3300081FB002CCED13EE701203A46294609F058
:10F340007FFD98F80020BB4442F0100303F0FE005C
:10F3500088F800001FFA8BFB2DE700BFF8B50546C3
:10F3600006F0B8FD08B90020F8BD42F2B040C0F286
:10F370000400FEF73BF810B92B78212B45D0502024
:10F3800006F000FA44F20E300026C4F2000044F207
:10F390001234C4F20004067023880A2043F4807CEF
:10F3A000A4F800C006F0EEF930462946082226806F
:10F3B00009F0F2FC2278304642F00A0121704FF445
:10F3C0007A71FFF7D1FDF0B926780A2E21D044F2E8
:10F3D0001234C4F200044FF4807020800A2006F03A
:10F3E000D1F929460020082209F0D6FC2178002016
:10F3F00041F00A0323704FF47A71FFF7B5FD00382E
:10F4000018BF0120F8BD0120F8BD68780928B6D1E1
:10F41000A9E74FF4807E44F20137C4F20007A4F854
:10F4200000E0304606F0AEF997F800C030464CF0E8
:10F4300008023A700EF02CFE397801F0F7043C70A7
:10F44000C5E700BF2DE9F84504460F46164606F00D
:10F4500041FD10B90020BDE8F8852046FFF77EFF8A
:10F460000028F7D0002E45D044F2123544F2183A65
:10F4700040F21C68C4F20005C4F2000AC2F200089F
:10F48000B5F800C04FF6FE71C0F200010CEA0103AE
:10F4900003F0FE0040F020022B804FF47A712A70B6
:10F4A0000120FFF761FD39460028D3D09AF80040CB
:10F4B000002098F800E0B44288BFF4B2361BA6459D
:10F4C0000BD8224609F0BCFC2B78B6B203F0FE0242
:10F4D0003F192A70002ED3D10CE039462246002075
:10F4E00009F0AEFC44F21231C4F200010A7802F0D5
:10F4F000FE00087044F21233C4F2000393F800C017
:10F5000002204CF0420119704FF47A71FFF72CFD84
:10F51000003818BF0120BDE8F88500BF30B584462B
:10F5200083B00E4C8E466D46BCF1030F94E8030089
:10F5300085E803008DF802E08DF803C08DF80630F1
:10F5400005D1092004218DF804008DF8051011461D
:10F5500068461A46FFF776FF03B030BD88240400E2
:10F560002DE9F04104460E46154606F0B3FC10B9ED
:10F570000020BDE8F0812046FFF7F0FE0028F7D01C
:10F580000DB340F21C6844F21237C2F20008C4F214
:10F59000000798F800400020AC4288BFECB231462A
:10F5A000224609F0F9FB38784FF47A7140F00203F3
:10F5B0003B700220FFF7D8FC2D1BADB20028D7D03E
:10F5C0003619002DE5D144F21234C4F20004238828
:10F5D0004FF6FE7EC0F2000E03EA0E0101F0FE0CB3
:10F5E0004CF060022180012022704FF47A71FFF705
:10F5F000BBFC0028BCD02178012001F0BE022270A3
:10F60000BDE8F08100B50A4983B06A46034603C9E4
:10F6100082E8030000214FEA232C68460A468DF851
:10F6200005C08DF80430FFF79BFF03B000BD00BF9D
:10F630009024040000B5084983B06A46034603C914
:10F6400082E80300002168460A468DF80430FFF77F
:10F6500087FF03B000BD00BF9824040000B508492F
:10F6600083B06A46034603C982E803000021684666
:10F670000A468DF80230FFF773FF03B000BD00BFEC
:10F68000A024040030B5144B83B06C46054693E8C3
:10F69000030084E8030000210A4668468DF8025002
:10F6A000FFF75EFF014650B144F20030C4F20000A3
:10F6B000057014200EF0ECFC012003B030BD0A46AA
:10F6C0006846FFF74DFF01460028EDD168460A461F
:10F6D000FFF746FFE8E700BFA824040010B500F0DC
:10F6E0008FF903200EF0D4FC06F024FC06F02EFC6B
:10F6F00006F008FC44F228621320C4F2000244F22F
:10F7000034631060C4F200031C6840F2081100204A
:10F7100044F00104C4F2020144F201321C60C4F25C
:10F7200000020860137844F20B3103F0DF0CC4F2DE
:10F73000000144F2603382F800C0C4F20003087094
:10F740001978C82041F001021A700EF0A1FC0120C6
:10F7500010BD00BF10B540F20014C4F202042168CD
:10F7600001206FF3D751216006F00CF8206840F4B7
:10F770000003236010BD00BF10B540F20014C4F2B6
:10F780000204216801206FF39651216005F0FAFF11
:10F79000206840F48003236010BD00BF10B540F224
:10F7A0000014C4F20204216801206FF31451216097
:10F7B00005F0E8FF206840F48013236010BD00BF0F
:10F7C00010B540F20014C4F20204216801206FF366
:10F7D000D341216005F0D6FF206840F40023236068
:10F7E00010BD00BF10B540F20014C4F2020421683D
:10F7F00001206FF39241216005F0C4FF206840F4BE
:10F800008023236010BD00BF10B540F20014C4F285
:10F810000204216801206FF35141216005F0B2FF1D
:10F82000206840F40033236010BD00BF10B540F2E3
:10F830000014C4F20204216801206FF3104121601A
:10F8400005F0A0FF206840F48033236010BD00BFA6
:10F8500010B540F20014C4F20204216801206FF3D5
:10F86000CF31216005F08EFF206840F40043236013
:10F8700010BD00BF10B540F20014C4F202042168AC
:10F8800001206FF38E31216005F07CFF206840F489
:10F890008043236010BD00BF10B540F20014C4F2D5
:10F8A0000204216801206FF34D31216005F06AFFE9
:10F8B000206840F40053236010BD00BF10B540F233
:10F8C0000014C4F20204216801206FF30C3121609E
:10F8D00005F058FF206840F48053236010BD00BF3E
:10F8E00010B540F20014C4F20204216801206FF345
:10F8F000CB21216005F046FF206840F400632360BF
:10F9000010BD00BF10B540F20014C4F2020421681B
:10F9100001206FF38A21216005F034FF206840F454
:10F920008063236010BD00BF10B540F20014C4F224
:10F930000204216801206FF34921216005F022FFB4
:10F94000206840F40073236010BD00BF10B540F282
:10F950000014C4F20204216801206FF30821216021
:10F9600005F010FF206840F48073236010BD00BFD5
:10F9700010B540F20014C4F20204216801206FF3B4
:10F98000C711216005F0FEFE206840F0800323606F
:10F9900010BD00BF10B540F20014C4F2020421688B
:10F9A00001206FF38611216005F0ECFE206840F025
:10F9B0004003236010BD00BF10B540F20014C4F234
:10F9C0000204216801206FF34511216005F0DAFE81
:10F9D000206840F02003236010BD00BF10B540F246
:10F9E0000014C4F20204216801206FF304112160A5
:10F9F00005F0C8FE206840F01003236010BD00BF72
:10FA000010B540F20014C4F20204216801206FF323
:10FA1000C301216005F0B6FE206840F008032360B2
:10FA200010BD00BF10B540F20014C4F202042168FA
:10FA300001206FF38201216005F0A4FE206840F0F0
:10FA40000403236010BD00BF10B540F20014C4F2DF
:10FA50000204226801206FF34102226005F092FE49
:10FA60002168012041F002032360BDE8104005F049
:10FA700089BE00BF10B540F20014C4F20204216830
:10FA800001206FF30001216005F07CFE206840F04A
:10FA90000103236010BD00BF40F20413C4F202034F
:10FAA000186820F001021A60704700BF40F200039E
:10FAB000C4F20203186840F003021A60704700BFE6
:10FAC00042F60823C2F200031B78022B15D0012B4B
:10FAD00001D00020704747F6F04242F21003C2F214
:10FAE0000002C4F2020311681868B1F5802FC0F358
:10FAF000400018BF80F00100704742F21002C4F2CB
:10FB00000202116801F0010080F00100704700BF9F
:10FB100042F60823C2F200031B78DBB942F200026E
:10FB2000C4F202021168FF2902D0FF2010600123F5
:10FB300042F21000C4F20200026812F0010F01BF8D
:10FB400042F20402C4F20202116841F0010108BF4E
:10FB500011609BB942F20003C4F202031A68FF2A43
:10FB600019D0FF2142F208021960C4F202021068A3
:10FB700040F00101002011601860704742F200035C
:10FB8000C4F202030021196042F20003C4F202032E
:10FB90001A68FF2AE5D142F20803C4F2020318688A
:10FBA00040F001021A60704740F20C03C4F20203F5
:10FBB000186847F6F043C2F200030128186000D02D
:10FBC000704742F20C01C4F202010A68012A22D0F5
:10FBD00042F21002C4F20202116811F0100F26D195
:10FBE000116811F0020FEBD042F20002C4F20202DF
:10FBF0001068FF283BD0FF2042F208011060C4F2D9
:10FC0000020108686FF300000860002111604FF4E2
:10FC100000201860D4E742F21001C4F202010A6821
:10FC200012F0020FD4D14FF480201860704742F2D6
:10FC30000002C4F202021068FF280FD0FF2042F237
:10FC400008011060C4F2020108686FF30000086048
:10FC5000002111604FF480101860704742F20802D2
:10FC6000C4F2020211686FF300011160F2E742F280
:10FC70000802C4F2020211686FF300011160C6E7C6
:10FC800042F20003C4F202031A68FF2A1BD0FF20CD
:10FC90001860012242F21000C4F20200036813F05F
:10FCA000010F01BF42F20403C4F20203196841F0DC
:10FCB000010108BF19602AB142F20002C4F2020237
:10FCC0000021116070470022E4E700BF42F2000308
:10FCD000C4F202031A68FF2A10D0FF2042F2040285
:10FCE0001860C4F20202116841F00200106011684D
:10FCF00000206FF3000111601860704742F20403A6
:10FD0000C4F20203186840F0020119601A686FF328
:10FD100000021A60704700BF42F20003C4F20203FF
:10FD20001A68FF2A10D0FF2142F204021960C4F2BF
:10FD30000202106840F002011160106840F00101F9
:10FD4000002011601860704742F20403C4F20203FD
:10FD50001A6842F002011960186840F001021A6046
:10FD6000704700BF42F20003C4F202031A68FF2A80
:10FD70000CD0FF2142F208021960C4F2020210689E
:10FD800040F00101002011601860704742F2080342
:10FD9000C4F20203186840F001021A60704700BF05
:10FDA00042F20003C4F202031A68FF2A0CD0FF20BB
:10FDB00042F208021860C4F20202116800206FF3D8
:10FDC000000111601860704742F20803C4F2020398
:10FDD00019686FF300011960704700BF42F2080311
:10FDE000C4F20203186800F00100704742F20003F9
:10FDF000C4F202031A68FF2A0CD0FF2142F2080263
:10FE00001960C4F20202106840F002010020116083
:10FE10001860704742F20803C4F20203186840F009
:10FE200002021A60704700BF42F21003C4F20203DC
:10FE3000186800F00100704742F21003C4F2020398
:10FE40001868C0F34000704742F21003C4F2020386
:10FE50001868C0F38000704742F21003C4F2020336
:10FE60001868C0F3C000704742F21003C4F20203E6
:10FE70001868C0F30010704742F20003C4F2020396
:10FE8000FF221A6003280BD8DFE800F035261102A4
:10FE900042F20400C4F2020002686FF34102026001
:10FEA00042F20003C4F2020300211960704742F2DB
:10FEB0000403C4F20203196842F2140241F0020082
:10FEC0001860FF21C4F2020242F200031160C4F282
:10FED000020300211960704742F20403C4F20203D6
:10FEE0001868002140F001021A6042F20003C4F2D7
:10FEF00002031960704742F20401C4F2020108686B
:10FF000042F200036FF300000860C4F20203002114
:10FF10001960704742F20003C4F20203FF2242F26A
:10FF200004011A60C4F20201086842F200126FF381
:10FF300082000860C4F2020211686FF3861111603A
:10FF400000221A60704700BF42F20003C4F20203AD
:10FF50001A68FF2A03D0FF20186001207047002094
:10FF6000704700BF28B142F20003C4F2020300222E
:10FF70001A60704740F23413C4F20203186820F08C
:10FF800002021A60704700BF42F22C03C4F202035F
:10FF9000186842F22802C4F202020102136888B211
:10FFA000184380B2704700BF42F20003C4F202035C
:10FFB0001A6830B4FF2A12D042F22C0100F0FF047C
:10FFC00042F22802000AC4F20201FF251D60C4F2B9
:10FFD0000202086000201460186030BC704742F2D2
:10FFE0002C0242F2280300F0FF01C4F20202C4F224
:10FFF0000203000A10601960EFE700BF10B542F27B
:020000021000EC
:10000000000142F21802C4F20201C4F20202FF200F
:10001000012442F204030860C4F202031460196868
:1000200042F2001441F004021A60C4F20204206893
:1000300040F04003236002F081FA103002F07CFEB1
:10004000636813F00803FBD142F20002C4F202021B
:10005000136010BD38B542F20004C4F202042368F4
:10006000FF2B42F21403C4F2020315D0FF2142F227
:1000700008052160C4F2020518602B684FF4167061
:1000800043F004022A6005F07DFB296800206FF32D
:1000900082012960206038BD42F208041860C4F271
:1000A000020423684FF4167043F00402226005F046
:1000B00069FB20686FF38200206038BD38B542F2DA
:1000C0000003C4F202031A68FF2A15D0FF2018604B
:1000D000012542F20C04C4F20204002323600A202A
:1000E00005F050FB2368002BFCD125B142F2000142
:1000F000C4F202010B6038BD0025EAE770B542F298
:100100000004C4F202042368FF2B16D0FF2042F241
:1001100008052060C4F202052B68962043F008020F
:100120002A6005F02FFB296896206FF3C301296030
:1001300005F028FB0020206070BD42F20804C4F2E4
:1001400002042368962043F00802226005F01AFB9F
:10015000216896206FF3C3012160BDE8704005F06F
:1001600011BB00BF10B540F2000340F20C04C4F212
:100170000203C4F202042268186847F6F04420F033
:10018000010119601868C2F2000420F00201196030
:100190001868012A40F002012260196009D041F27A
:1001A000883008F06FF908F099F80028FBD1206832
:1001B00010BD42F20C03C4F202031A68012A40D0B7
:1001C00042F21003C4F202031A6812F0100F21D198
:1001D000186810F0020FE2D042F20803C4F20203E2
:1001E0001968002943D14FF40012226042F2000343
:1001F000C4F202031968FF293DD042F20802FF2130
:100200001960C4F2020210686FF30000106000224F
:100210001A60C4E742F20003C4F202031968FF291E
:100220001CD0FF2042F208021860C4F202021168DA
:1002300000206FF30001116018604FF480122260FB
:10024000ADE742F21000C4F20200016811F0020FA3
:1002500004BF4FF480212160A1D0B1E742F208032E
:10026000C4F2020319686FF300011960E5E74FF467
:1002700000202060BAE742F20803C4F202031868C3
:100280006FF3000018608AE742F20003C4F2020331
:100290001A6810B5FF2A4AD0FF211960012440F2E4
:1002A0000402C4F20202116883049B0C43EA0101B8
:1002B00010F0020F11601EBF42F20012C4F20202DF
:1002C000116843F6FF701CBF21F0400111608342AA
:1002D0000AD013F4005F0FD12CB142F20001C4F236
:1002E000020100220A6010BD40F20001C4F20201C6
:1002F0000A6822F00100086042F20003C4F202031F
:100300001868FF2815D0FF2142F208021960C4F2D4
:100310000202106800216FF30000106019600520D0
:100320000DF0B6FEFFF7CAFEFFF7E8FED4E70024A3
:10033000B5E742F20803C4F2020318686FF3000045
:100340001860ECE710F4804F10B52CD042F608206E
:10035000C2F20000037833B342F20004C4F2020494
:10036000216842F20013FF291ED0FF222260C4F24E
:100370000203196842F2040241F00400186019688F
:10038000C4F2020241F0430018601968052021F010
:1003900004011960116841F0040313600DF078FE48
:1003A0000022226010BD10BDC4F20203196842F29F
:1003B000040241F0040018601968C4F2020241F01E
:1003C000430018601968052021F0040119601168C4
:1003D00041F004031360BDE810400DF059BE00BFAA
:1003E000F8B540F20004C4F202042668054626F07F
:1003F0000100206005201746AD040E460DF048FEB2
:100400002368AD0C012F0CBF43F0040323F0040359
:1004100015F0010F23600DD040F20803C4F202036F
:10042000186806F0010120F001021A60186841EA1C
:1004300000021A6043F6FC7CC0F2000C05EA0C03D3
:1004400093B140F20800C4F20200026841F6FE7E59
:1004500022F4FE5C2CF03E0303600168C0F2000E43
:1004600006EA0E020A43026015F0020F1AD042F2A9
:100470000002C4F20202106842F20013FF281AD0F0
:10048000FF201060C4F20203196841F004001860F4
:10049000196841F043001860196821F00400002138
:1004A0001860116040F20403C4F202031A6822EAE1
:1004B00005051D60F8BDC4F20203186840F0040190
:1004C00019601A6842F043001860196821F00402AC
:1004D0001A6040F20403C4F202031A6822EA050516
:1004E0001D60F8BD42F60823C2F2000342F200028A
:1004F00010B5C4F2020218701368FF2B42F2080311
:100500006AD0FF241460C4F202031C686FF3000475
:100510001C600023136001282DD0022800F0878082
:1005200047F6F040C2F200000368012B00D010BD76
:1005300042F20002C4F202021168FF2975D0FF21C5
:10054000116042F21000C4F20200026812F0010FC2
:1005500001BF42F20402C4F20202116841F001013B
:1005600008BF1160002BE2D042F20003C4F2020384
:100570000021196010BD42F20003C4F202031868A2
:10058000FF2800F0AA80FF2042F204021860C4F2A3
:100590000202106840F002001060106840F0010094
:1005A000106000221A6047F6F043C2F200031B6895
:1005B000012B14BF00220122B3F5002F08BF42F027
:1005C000010282B9B3F5802F00F09480B3F5801F4B
:1005D000ADD1BDE8104091E5C4F202031A686FF393
:1005E00000021A6097E7C1F3C700FFF733FD42F23C
:1005F0001002C4F202021168C1F34002002A40F066
:10060000C48042F20003C4F202031868FF2800F01D
:10061000D380FF2042F208011860C4F2020108688A
:1006200040F0010008601A6010BD002389E7C1F3A3
:10063000C700FFF70FFD47F6F040C2F20000036865
:10064000012B14BF00220122B3F5002F08BF42F096
:100650000102002A66D142F21001C4F202010C68C4
:10066000C4F340041CB9B3F5801F00F0DA8042F2F5
:100670001002C4F20202106810F0020F3FF457AFEC
:1006800042F20003C4F202031968FF2900F0C0809F
:10069000FF2042F208021860C4F202021168002032
:1006A0006FF300011160186042F20003C4F202030C
:1006B0001A68FF2A00F09F80FF2042F204021860AF
:1006C000C4F20202116841F00200106011686FF379
:1006D0000001116000221A6010BD42F20403C4F24E
:1006E0000203186840F002021A60186840F0010224
:1006F0001A6058E742F20003C4F202031968FF29A6
:1007000051D0FF2042F208011860C4F202010868CB
:1007100062F3000008601A6003200DF0B9FCBDE828
:100720001040CBE442F20003C4F202031968FF292F
:100730004BD0FF2142F204021960C4F20202106899
:1007400040F00201116010686FF300001060002299
:100750001A6042F21003C4F202031A6812F0010197
:100760007FF4E5AE42F20003C4F202031868FF28EA
:1007700022D0FF2042F208021860C4F20202106880
:1007800040F001001060196010BD42F20003C4F295
:1007900002031A68FF2A25D042F20802FF211960DD
:1007A000C4F2020292E742F20803C4F2020319689B
:1007B00062F300011960AFE742F20803C4F20203DA
:1007C000196841F001021A6010BD42F20403C4F23C
:1007D0000203196841F0020018601A686FF3000202
:1007E0001A60B6E742F20803C4F2020318686FF316
:1007F0000000186010BD42F20403C4F2020319683D
:1008000041F002021A6018686FF30000186010BD12
:1008100042F20803C4F2020319686FF30001196081
:1008200042E7FFF76BFC42F20003C4F202031A68CE
:10083000FF2AC1D0FF2042F208021860C4F202026F
:10084000116841F0010010601C6010BD08B571B660
:10085000002007F053F9002000F044FF012001467A
:1008600005F026FE00F020FD012006F00DFF08F047
:1008700039FB40F20413C4F202031A6822F00101AA
:10088000196007F0FDFE08F035F840F20002C4F2EE
:10089000020210684EF6005340F003011160CEF2E0
:1008A0000003186940F004021A6130BF08BD00BFA0
:1008B00010B571B6002007F021F9002000F012FFFA
:1008C0000120014605F0F4FD00F0EEFC012006F0E9
:1008D000DBFE08F007FB40F20413C4F202031868C1
:1008E00020F001021A6007F0CBFE08F003F84FF485
:1008F000807007F0FBFE4BF6FF70C0F20100BDE810
:10090000104007F027BE00BF02EB000C131E18BFFB
:100910000123BCF1B40FCCBF002303F0010330B4BA
:10092000002B29D071B61AB342F200438000C4F202
:100930000203C31853F8044B501E0C7000F001045E
:100940000120824214DD2CB153F8044B0220824274
:100950004C700DDD1C4654F8045B00F1010C0D5485
:100960005B680CF1010001F80C30231D8242F1DCC0
:1009700061B6012030BC70471846FBE770B5131E06
:1009800018BF012305461018B428CCBF002003F07F
:10099000010014460E4600B970BD71B6FFF7D4FAD7
:1009A00004B342F20043AD003178C4F20203621E88
:1009B000EB1843F8041B02F001010122944211DDFF
:1009C00029B171780222944243F8041B0ADDB55C18
:1009D000194641F8045B0132B55C01325D600B1DC4
:1009E0009442F4DCFFF7BEFA61B6012070BD00BF8F
:1009F00000F1450C70B45FFA8CF442F2B845C0F2D5
:100A0000040504EB44014A1950784C5D92F802C089
:100A1000430003EBDC1504F00F0647F6F44047F6FD
:100A2000F94147F6F84247F6F64305EB4625C2F290
:100A30000000CCF34116C2F20001C2F20002C2F281
:100A400000030CF01F0C2409067081F800C014701C
:100A50001D8070BC704700BFA0F5F66046F2676C61
:100A6000811FC6F2666C8CFB0123CA17C2EBA30C74
:100A70000CEB8C03A1EB4300C0B27047A0F5F6600D
:100A80004AF6AB2C011FC2F6AA2C8CFB0123CA1715
:100A9000C2EB630C0CEB4C03A1EB8300C0B27047BC
:100AA0002DE9F8450588804628460C46FFF7A0FF4B
:100AB00098F8032098F80210284601F035FC47F614
:100AC000F44747F6F946C2F20007C2F20006824632
:100AD00039782846327801F027FC824536D3002643
:100AE00047F6F64747F6F8486671C2F20007C2F2C9
:100AF0000008C0EB0A0E01233A8898F800C01FFADC
:100B00008EF09A4612F4805F14BF1E211D21884288
:100B100012D39C4501BF0CF1FF33DBB284F805A072
:100B20004FF0000C18BF66710133DBB2401A52005F
:100B30000C2B80B292B2E5D93A80421C88F800C0F2
:100B4000E2702580A3702171BDE8F885013DADB24A
:100B50002846FFF74DFF284601F0C4FB50B90AF5BF
:100B6000B671481C1FFA80FA39783278284601F0AD
:100B7000DBFBB4E70AF5B77A1FFA8AFAF4E700BF9D
:100B800000F15F4000F57F0047F6FF739842F0B434
:100B900003D96FF0FE00F0BC704701F15F4101F531
:100BA0007F019942F5D844F2400744F2440644F2EA
:100BB000480544F2540444F258034FEA900CC4F23E
:100BC000010701208908C4F20106C4F20105C4F23C
:100BD0000104C4F20103C7F800C031602A6020603C
:100BE00018600020D7E700BF44F25C03C4F20103A1
:100BF0001868C0B2704700BF44F25403C4F2010346
:100C000001221A60704700BF44F24C03C4F2010392
:100C10001860704744F24C03C4F201031868C0B274
:100C2000704700BF44F25003C4F2010318607047DC
:100C300044F25003C4F201031868704730B444F220
:100C40005401C4F20101012544F2500244F24C0364
:100C50000D600446C4F201020020C4F201034FF407
:100C6000803111601C604FF440510246034630BC95
:100C70000AF0AEB970B472B640F21813C4F20203AF
:100C80001D6840F21C1625F003041C601A6840F22F
:100C9000201540F20C1440F210111043C4F2020669
:100CA0000122C4F20205C4F20204C4F20201186077
:100CB00032602A6022600A6062B670BC704700BF72
:100CC00072B640F20C1240F214130121C4F2020277
:100CD000C4F202031160196062B6704772B640F246
:100CE0001C1240F220130121C4F20202C4F20203DA
:100CF0001160196062B67047704700BF704700BF4F
:100D000010B582B002AC04F8010D0121204604F0B8
:100D100045FE0023204601218DF8073004F03EFEF9
:100D2000012002B010BD00BF10B504F0EBFF4AF681
:100D3000444002210022BDE810400BF0CDBD00BFB1
:100D400004F05ABC10B547F6E473C2F200035A79B6
:100D5000022A25D0052A0BD0062A0ED158781978F8
:100D60004AF2811340EA012C9C4500F0CA8010BD74
:100D7000D97801294FD002296FD0587893F800C054
:100D800042F20A1240EA0C239342F0D042F20121CF
:100D90008B42ECD000200121BDE8104004F022BCC1
:100DA000D978012900F08C800229E6D118785A7888
:100DB0004AF2821C42EA0022624500F0C9804AF2EF
:100DC000831C624500F0F3804AF28410824200F0F6
:100DD000AC804AF281118A4200F0998042F20110FF
:100DE0008242C4D147F6C861C2F2000148789B78BC
:100DF00091F800C0012B00F07F0240F22063C2F2A4
:100E000000030CEB022E0CBFA3F808E0A3F80AE0E5
:100E1000D968884710BD5A7818784AF2811C42EA8E
:100E20000023634500F0BA8042F201118B429ED14B
:100E300047F6C860C2F200000378012B00F0A280E0
:100E400042F6092240F22063C2F20002C2F200031D
:100E5000002151705869804710BD18785A784AF2BD
:100E6000821C42EA0022624572D04AF2831C62452B
:100E700000F0A3804AF28410824256D04AF28111D7
:100E80008A4257D042F2011082427FF470AF93F849
:100E900002C047F6C863C2F200035A78197802F01C
:100EA0007F0E40F22063BCF1010F01EB0E22C2F273
:100EB000000300F0888091105983DA69904710BDD3
:100EC00058781B784AF2811240EA0323934250D0AB
:100ED00042F201118B427FF44AAF47F6C863C2F277
:100EE00000031B78012B38D042F6092240F2206023
:100EF000C2F20002C2F2000000211170436898475C
:100F000010BD01200146BDE8104004F06BBB9A788B
:100F100040F22063012AC2F200030CBF18895889ED
:100F20000221BDE8104004F05DBB0120BDE8104087
:100F300004F058BB93F802C040F22062BCF1010FEC
:100F4000C2F200020CBF108B508B830098B2E7E70F
:100F50000020BDE8104004F045BB42F6092140F2F4
:100F60002062C2F20001C2F200020B7010688047DA
:100F700010BD42F60922C2F200021078BDE810400E
:100F800004F030BB42F6092140F22062C2F20001B7
:100F9000C2F200024B701369984710BD42F6092354
:100FA000C2F200035878BDE8104004F01BBB40F2C9
:100FB000E730BDE8104004F015BB40F69C70BDE87A
:100FC000104004F00FBB9010188376E710B5B0B056
:100FD000C021684604F04AFDC1B268466C460BF079
:100FE000CDFB30B010BD00BF704700BF4AF2000318
:100FF000C4F20103186840F001021A60704700BF94
:101000004AF20002C4F2010211684FF6FE70C0F20B
:10101000070001EA00031360704700BF49F21403A0
:10102000C4F20103186880B2704700BF4AF200039F
:10103000C4F2010319684BF6FF7CC0F2070C01EA09
:101040000C021A60196841EA80321A60704700BFCA
:101050004AF2100341EA0041C4F2010319607047EB
:1010600049F20C03C4F2010300221A60704700BF6A
:1010700049F20C03C4F2010301221A60704700BF59
:101080004AF20002C4F2010211684FF6BF70C0F2CA
:10109000070001EA00031360704700BFD0B14FF6AC
:1010A000FF70C0F207004FF6FE7C0A18C0F20F0C6A
:1010B00062450ED84AF21C03C4F2010318684AF2D2
:1010C000200220F00200C1F56011C4F20102186094
:1010D000116070474AF21C00C4F2010003684AF232
:1010E000200243F00201C4F201024FF460130160D8
:1010F000136070474AF29403C4F201035A6860F324
:1011000016525A605A6861F31A625A60704700BFFB
:1011100010B44AF29403C4F201031C6860F3524411
:101120001C60186861F3D7401860196862F31041B9
:10113000196010BC704700BF10B44AF29403C4F2A7
:1011400001035C6861F30B245C60596860F307116C
:101150005960596862F30301596010BC704700BFC1
:101160004AF29403C4F201035A6860F313425A60CE
:10117000704700BF30B44AF29404C4F201046568B9
:101180006FF30B256560656861F313456560616801
:1011900062F307116160626863F30302626063686F
:1011A00060F34E33636030BC704700BF4AF2940373
:1011B000C4F201035A6860F34E325A60704700BFB0
:1011C00042F60C22C2F20002106848F20003CDF68B
:1011D000FE7349F21401C318C4F20101B3F5004FC4
:1011E00009680FD889B20B1A03F1005C0CF5C03006
:1011F00053688008984201D3C01A70479268D31A86
:1012000018187047002070474AF2C403C4F2010363
:101210001A6860F382021A601A6861F38A221A60FF
:10122000704700BF4AF2C403C4F2010318680222E7
:101230006FF34100186019686FF34921196018684D
:101240006FF38200186019686FF38A2119601868BB
:101250006FF30410186019686FF30C311960186887
:101260006FF34510186019686FF34D311960D86835
:101270001043D860D96841F48060D860D96841F4DF
:101280000020D860196962F302011961186962F3DC
:10129000C5001861596962F3C5015961D86840F009
:1012A0000102DA60704700BF4AF2C403C4F20103CE
:1012B0001A6842F002011960186840F400721A605E
:1012C000196841F0040018601A6842F480611960DE
:1012D000186840F010021A60196841F480501860D4
:1012E0001A6842F020011960186840F400521A6030
:1012F000D9686FF34101D960D8686FF38A20D8604C
:10130000DA686FF3D342DA60704700BF4AF2C40371
:10131000C4F20103DA6812F0200F40F0E280DB68CB
:1013200013F4804F40F0DD804AF2C403C4F201039D
:10133000D96811F0040F40F0B380DB6813F4006F3C
:1013400040F0AE804AF2C403C4F20103D96811F040
:10135000080F40F08480DA6812F4805F7FD14AF28F
:10136000C403C4F20103D96811F0800F5BD1DB68BC
:1013700013F4803F57D14AF2C403C4F20103D96881
:1013800011F4007F2FD1DA6812F4802F2BD14AF2AA
:10139000C403C4F20103D96811F4807F03D1DB6870
:1013A00013F4003F1ED010F4406F1BD04AF2C4016A
:1013B000C4F20101CB686FF30823CB60CA686FF3F6
:1013C0005142CA60C8686FF38610C860CB686FF37B
:1013D000CF33CB60CA686FF30412CA60C8686FF37A
:1013E0004D30C860704710F4407FD0D04AF2C4033B
:1013F000C4F20103DA686FF34922DA60D9686FF347
:101400009241D960DA686FF38612DA60D9686FF3B7
:10141000CF31D960DA686FF30412DA60D9686FF3FC
:101420004D31D960B3E710F0880FA4D04AF2C00163
:10143000C4F201010B6840F2BF3CC0F2000C03EAA9
:101440000C024AF2C4030A60C4F20103D9686FF3C4
:10145000C711D960DA686FF31042DA608BE710F0D9
:10146000440F3FF47CAF4AF2C403C4F20103DA68CC
:101470006FF3C302DA60D9686FF30C31D960DA68B0
:101480006FF38612DA60D9686FF3CF31D960DA680A
:101490006FF30412DA60D9686FF34D31D9605EE7FB
:1014A00010F0220F3FF44EAF4AF2C401C4F2010122
:1014B000CB686FF38203CB60CA686FF3CB22CA603C
:1014C000CB686FF38613CB60CA686FF3CF32CA6004
:1014D000CB686FF30413CB60CA686FF34D32CA60F8
:1014E00030E710F0110F3FF41FAF4AF2C403C4F20B
:1014F0000103DA686FF34512DA60D9686FF38E3151
:10150000D960DA686FF30412DA60D9686FF34D318D
:10151000D96009E74AF2C403C4F201035A6860F3D0
:101520008B125A609A6861F38B129A60704700BF01
:101530004AF2C403C4F201035A6860F305025A6018
:101540009A6861F305029A60704700BF4AF2C403CB
:10155000C4F201035A6860F311325A609A6861F369
:1015600011329A60704700BF10B5044604F02AFE9D
:1015700014F0040F1FBF4AF2D003C4F201031A682B
:1015800042F0300218BF1A6014F0400F1FBF4AF239
:10159000D003C4F201031A6842F4C04218BF1A60B3
:1015A00014F0030F1FBF4AF2D003C4F201031A68FC
:1015B00042F0500218BF1A6014F0300F1FBF4AF2F9
:1015C000D003C4F201031A6842F4204218BF1A6023
:1015D00014F0080F11D114F0800F0AD0012004F08C
:1015E00043FF4AF2C403C4F20103DA6842F48031D3
:1015F000D960BDE8104004F0FFBD012004F034FFC5
:101600004AF2C403C4F20103D86840F08002DA60F1
:10161000E1E700BF10B5044604F0D4FD14F0010F5B
:101620001FBF4AF2C403C4F20103DA6842F00402A5
:1016300018BFDA6014F0100F1FBF4AF2C403C4F2DF
:101640000103DA6842F4006218BFDA6014F0020F96
:101650001FBF4AF2C403C4F20103DA6842F0080271
:1016600018BFDA6014F0200F1FBF4AF2C403C4F29F
:101670000103DA6842F4805218BFDA6014F0040FF4
:101680001FBF4AF2C403C4F20103DA6842F40072D5
:1016900018BFDA6014F0400F1FBF4AF2C403C4F24F
:1016A0000103DA6842F4802218BFDA6014F0080FF0
:1016B0001FBF4AF2C403C4F20103DA6842F4807225
:1016C00018BFDA6014F0800F1FBF4AF2C403C4F2DF
:1016D0000103DA6842F4003218BFDA60BDE8104056
:1016E00004F08ABD70B542F60C25C2F20005AB8944
:1016F000044698422BD00605360D23EA0600FFF774
:1017000005FE14F0010F29D114F0100F2CD114F0A4
:10171000020F2FD114F0200F35D114F0040F3BD15C
:1017200014F0400F41D114F0080F47D114F0800F8E
:101730004AD114F4807F4DD114F4007F53D114F4B6
:10174000806F59D114F4006F5FD116B1AE810120C2
:1017500070BD40F6FF70FFF7D9FDF7E70420FFF7F3
:1017600003FF14F0100FD2D04020FFF7FDFE14F05D
:10177000020FCFD00120FFF74DFF0120FFF7F4FE4D
:1017800014F0200FC9D01020FFF744FF1020FFF7FE
:10179000EBFE14F0040FC3D00220FFF73BFF022042
:1017A000FFF7E2FE14F0400FBDD02020FFF732FF1C
:1017B0002020FFF7D9FE14F0080FB7D00820FFF75C
:1017C000D3FE14F0800FB4D08020FFF7CDFE14F4C8
:1017D000807FB1D00420FFF71DFF0320FFF7C4FE78
:1017E00014F4007FABD04020FFF714FF3020FFF748
:1017F000BBFE14F4806FA5D00820FFF70BFF032079
:10180000FFF7B2FE14F4006F9FD08020FFF702FFB5
:101810003020FFF7A9FE002E98D19AE770B5049CFE
:101820000D46042C42D8DFE804F065424341030032
:10183000002B3BD05688591E068001F0010601217D
:10184000141D8B4217D946B14FF0020C6688043440
:101850006345614620F80C600DD9668801F1010CE2
:1018600020F81160043466880CF1010104348B42C5
:1018700020F81C60F1D81088591E288001F0010062
:1018800001218B4244D928B1022096888342014627
:101890002E523ED932F82140481C25F8114032F82A
:1018A0002060411C8B4225F81060F3D870BD0232D5
:1018B000002BFBD01488591E048001F00104012183
:1018C0008B4223D93CB14FF0020C948863456146AA
:1018D00020F80C401BD932F8216001F1010C20F8EE
:1018E000116032F82C400CF101018B4220F81C40B1
:1018F000F1D870BD5C00002122461BF075FB284624
:1019000022460021BDE870401BF06EBB70BD70BD6B
:1019100070BD70BD2DE9F04749F21405C4F2010510
:1019200042F60C242B68C2F20004D4F800C01FFA5F
:1019300083F8CCEB080707F1005505F5C033D4F860
:1019400004E09B084FEA410A734582B0804617467F
:1019500000EB0A093AD2A668CEEB06069B198B4229
:1019600034BF1D460D46AE4216D30CEB8E024946DF
:101970002B460097FFF752FF60682A186260A06844
:1019800042F60C238242C2F2000301D300215960C7
:10199000284602B0BDE8F0870CEB8E02334649467C
:1019A0000097FFF73BFF032F14BF0022012216FA16
:1019B00002F1AE1B08EB4100226800EB0A0133463E
:1019C00000976660FFF72AFF6268D8E7CEEB030254
:1019D0008A4234BF15460D46C7E700BF10B504461E
:1019E00042F22860C0F20400FBF700FD0346002825
:1019F00053D0022C14BF00230123002C08BF43F056
:101A00000103002B47D1032C14BF4FF0000E4FF001
:101A1000010E012C08BF4EF0010EBEF1000F18BFE1
:101A200001244AF20003C4F2010319684BF6FF7C5B
:101A300021F07F4222F47A0018601968C0F2070C86
:101A400021F07F4E2EF479021A6018684AF21402CF
:101A500040F0400119601868C4F2010200EA0C016C
:101A60001960186840F001011960106800F0010168
:101A7000A14206D0116801F0FE00106013681C43FB
:101A800014604AF21402C4F201021168012041F00C
:101A90008003136010BD0024C3E74AF20001C4F2C2
:101AA000010108684FF6BF7CC0F2070C00EA0C0287
:101AB0000A60184610BD00BF4AF20003C4F20103D9
:101AC000196841F400521A6088E700BFF8B504466F
:101AD00001200D4616460AF037FE00B9F8BD49F25E
:101AE000040049F2080249F21003A6F1040E01278E
:101AF000C4F20100C4F20102C4F201034AF200017F
:101B00000560C4F20101C2F800E01F600B684DF6E9
:101B1000FF7CC0F2070C03EA0C0005F1005542F609
:101B20000C23C2F20003002205F5C035B608086098
:101B30009E6020465A601D60FFF750FF3846F8BD92
:101B400042F61C23C2F2000300221A70704700BF45
:101B500042F61C23C2F200035870704742F61C2C58
:101B6000C2F2000C00EB80000CEBC00341F6FF7CDE
:101B70000433624528BF6246614528BF6146DA806A
:101B80009980704742F61C21C2F2000100EB8000F0
:101B900001EBC00301221A75704700BF00EB800003
:101BA00042F61C2CC2F2000C411C00220CEBC101BD
:101BB0000CEBC003CA801A758A80704700EB800363
:101BC00042F61C2CC2F2000C581C0CEBC0035A81CC
:101BD0001981704738B5044609F06EFA42F61C23A5
:101BE000C2F2000304EB840103EBC1010A798AB35A
:101BF000B3F8A420B1F818E0B3F8A65080B202EB15
:101C00000E0CC0EB0C0EAD18281A9EFBF2F502FB71
